:1000000000800020BD010000F5AB0000ADAB00009A
:10001000ADAB0000ADAB0000ADAB0000ADAB000080
:10002000ADAB0000ADAB0000ADAB0000F5AB000028
:10003000F5AB0000ADAB00005DCA000061CB000075
:10004000F5AB0000F5AB0000F5AB0000F5AB000030
:10005000F5AB0000F5AB0000F5AB0000F5AB000020
:10006000F5AB0000F5AB0000F5AB0000F5AB000010
:10007000F5AB0000F5AB0000F5AB0000F5AB000000
:10008000F5AB0000F5AB0000F5AB0000F5AB0000F0
:10009000F5AB0000F5AB0000F5AB0000F5AB0000E0
:1000A000C98C0000D58C0000F5AB0000F5AB00005A
:1000B000F5AB0000F5AB0000F5AB0000F5AB0000C0
:1000C000F5AB0000F5AB0000F5AB0000F5AB0000B0
:1000D000F5AB0000F5AB0000F5AB0000F5AB0000A0
:1000E000F5AB0000F5AB0000F5AB0000F5AB000090
:1000F000F5AB000025B70000F5AB00005DD10000B6
:10010000F5AB000089D20000F5AB0000F5AB0000B4
:10011000F5AB0000F5AB0000F5AB0000F5AB00005F
:10012000F5AB0000F5AB0000F5AB0000F5AB00004F
:10013000F5AB0000F5AB0000F5AB000061A60000D8
:10014000F5AB0000F5AB0000F5AB0000F5AB00002F
:1001500039CD00004DCD000061CD000075CD00000F
:10016000F5AB0000A1B90000F5AB0000F5AB000055
:10017000F5AB0000F5AB0000F5AB0000F5AB0000FF
:10018000F5AB0000F5AB0000F5AB0000F5AB0000EF
:10019000F5AB0000F5AB0000F5AB0000F5AB0000DF
:1001A000F5AB0000F5AB0000F5AB0000F5AB0000CF
:1001B000F5AB0000F5AB000019C80000564B4CF23F
:1001C000205210B51A804DF628121A8000BF00BFC9
:1001D00000F014FB514B4FF010621A60504A9A60C5
:1001E000504ADA60504A136813F4807304D14F49BF
:1001F0000B604FF4A85313604D4B1A78110703D5C9
:100200001A7842F008021A704A4B4B492A221A7097
:100210004A4A4B4B8B4204D252F8040F43F8040B6A
:10022000F8E7484B484900228B4202D243F8042B9E
:10023000FAE74649464A002352F8230041F82300D2
:1002400001336F2BF8D1434B434A802103F8011B44
:100250009342FBD1414B3D4A1A60414B8A221A70AE
:10026000A3F5805324225A70A0221A709A7992071B
:10027000FCD59A79D406FCD43A4A937903F00C035E
:10028000082B384BF9D103221A7140225A719A79FE
:100290009006FCD5334A9179324B4906FBD5324A58
:1002A000324911600221516020221A709A7902F0BD
:1002B0000C020C2AFAD12E4B2E4A1A602E4B4BF60A
:1002C0007F321A6000225A60072243F8042C2B4A1E
:1002D000C3F80C2D62B60AF093FE144B1B68DA07C4
:1002E00005D527480AF0F0FD264B274A1A60274B10
:1002F0001B785B0609D5234C234B22689A4204D114
:100300001F480AF0E1FD0023236010F0CFFA0AF045
:1003100075FC0CF07DFEFEE70E20054030800440A9
:10032000823F04000100002B10D0034014D0034092
:1003300002D0074000E0074010040020908E020029
:1003400020EFFF1F100400208028002000EAFF1F7C
:100350000000000000E400E05FE400E008ED00E0E1
:100360000050064000400640448004400000131145
:1003700004800440C010050014E000E000002020CC
:10038000F551A95A1CE00340A5C3945A00F0074058
:10039000FFFFFFFFFFFFFFFFFFFFFFFFFFFFFFFF6D
:1003A000FFFFFFFFFFFFFFFFFFFFFFFFFFFFFFFF5D
:1003B000FFFFFFFFFFFFFFFFFFFFFFFFFFFFFFFF4D
:1003C000FFFFFFFFFFFFFFFFFFFFFFFFFFFFFFFF3D
:1003D000FFFFFFFFFFFFFFFFFFFFFFFFFFFFFFFF2D
:1003E000FFFFFFFFFFFFFFFFFFFFFFFFFFFFFFFF1D
:1003F000FFFFFFFFFFFFFFFFFFFFFFFFFFFFFFFF0D
:10040000FFFFFFFFFFFFFFFFFFFFFFFFDEF9FFFF23
:1004100010B5054C237833B9044B13B10448AFF33E
:1004200000800123237010BD100400200000000094
:100430008C8E0200084B10B51BB108490848AFF379
:1004400000800848036803B910BD074B002BFBD0A0
:10045000BDE81040184700BF000000001404002051
:100460008C8E020010040020000000000020704765
:10047000704700BFF8B55548554D564C297803785C
:100480002278DFF868E1544F544E120442EA032305
:10049000FF222A700270802022708EF800003870CF
:1004A000B2794F480B4312F00C0FC36002D1B379FD
:1004B000DC063DD4494A9379C3F38103032B40D032
:1004C000464B9A79C2F38102022A42D0434A937979
:1004D000C3F38103022B53D0404A9379C3F38103C2
:1004E000022B61D03D4A9379C3F38103012B51D094
:1004F0003A4A9379C3F38103012B5CD0374B9A7945
:1005000012F00C0F03D19A79D20600D49B79354DA5
:10051000354B2A7853F82240D4B1236820469B6893
:1005200098472B7804EB83046468002CF5D1F8BD60
:10053000B3799806EBD5294A9379C3F38103032B4A
:10054000BED19379D906BBD493799B06DFD4B7E7A4
:10055000F8BD9A79D706B9D49A799606B6D559785E
:1005600001F0020101F0FF020029AFD120211A7031
:100570001A461970937903F00C030C2BFAD1C6E7D5
:100580009379DD06A8D493799C06A5D4537898076F
:10059000BDD5A1E79379DF06AAD593799E06A7D4A6
:1005A00053789D07B3D4A3E79379D9069AD45378A7
:1005B0009B07ACD496E79379DC069FD59379980690
:1005C0009CD453789907A2D598E700BF06C007408E
:1005D00005C0074007C0074009C00740004006406B
:1005E0005828002010250020D024002008C00740F3
:1005F00090F92410104B03604B1C06D0F0B40F4E42
:1006000056F82130984201D0F0BC70470C4F57F893
:10061000213033B18D0000245A1953685460002BE7
:10062000FAD1084C23780022013B237047F821209F
:1006300046F82120E8E700BF8C7B0100F024002071
:10064000D02400201125002038B590F924506B1CCF
:100650001BD00E4B0E4953F825400E4BEDB24FF018
:10066000FF320D701A6084B1AD0002E02C44646862
:100670005CB194F82530002BF8D0236820462C4438
:100680001B6898476468002CF3D138BDD024002043
:100690001025002090E9FF1F704700BF90F924103B
:1006A000104B03604B1C06D0F0B40F4E56F82130AF
:1006B000984201D0F0BC70470C4F57F8213033B14D
:1006C0008D0000245A1953685460002BFAD1084C4D
:1006D00023780022013B237047F8212046F821208F
:1006E000E8E700BF8C7B0100F0240020D02400202C
:1006F0001125002090F92410104B03604B1C06D0EC
:10070000F0B40F4E56F82130984201D0F0BC70473B
:100710000C4F57F8213033B18D0000245A1953681B
:100720005460002BFAD1084C23780022013B23703F
:1007300047F8212046F82120E8E700BF8C7B010024
:10074000F0240020D02400201125002010B50446FC
:100750000CF0D0FA204610BD0AF0B0BB2DE9F041F4
:100760000E4680460AF0AAFB174D286008F0B8FE36
:100770000746286808F0A6FE0446286808F094FE9C
:100780006401C0B204F4FF54BFB20443A7F2BC77C3
:1007900044EA4724A8F80040286808F05BFE0746B2
:1007A000286808F065FE0446286808F06FFEFF021E
:1007B000640107F4FF2704F4FF54C0F346003C43F0
:1007C00004433480BDE8F0816C04002070B5044619
:1007D00008460D4610F054FF23680246294620467D
:1007E0005B68BDE87040184738B505460CF030FB33
:1007F000044628460CF0DCFA204438BD404A414B00
:10080000102010801B781B072CD5F0B53E4E3F4DB5
:100810003F4C31782B7822783E4FDFF810E1824050
:1008200042EA03230B43FF22802132702A70227098
:100830008EF800103970DF07374A0CD51A23936001
:10084000364D374C3748384900232B70D36023701E
:1008500003700B70F0BD1E0705D4DD0606D504231A
:100860009360EDE7704721239360E9E79C0604D489
:10087000590604D516239360E2E79060E0E71F066F
:1008800002D509239360DBE7DE0502D50A239360D6
:10089000D6E79D0502D50D239360D1E75C0502D50F
:1008A0000B239360CCE7180502D51E239360C7E79E
:1008B000D90402D502239360C2E79F0402D507231F
:1008C0009360BDE75E0402D506239360B8E71D047C
:1008D00002D515239360B3E7DC0302D5242393608C
:1008E000AEE7980302D522239360A9E7D90202D587
:1008F00025239360A4E79B0244BF232393609FE7D3
:100900000020054002D0074005C0074006C0074050
:1009100007C0074009C007405828002000C0074012
:1009200001C0074002C0074003C0074008C007409D
:10093000002976D02DE9F04F0C469100631883B062
:100940005D68002D57D06B185E68002E50D073186C
:100950005F68002F49D07B18D3F80480B8F1000FEE
:100960003CD008EB0103D3F80490B9F1000F32D06A
:1009700009EB0103D3F804A0BAF1000F27D00AEB6A
:100980000103D3F804B0BBF1000F18D00BEB010347
:100990005B6863B1194401934968FFF7C9FF019B84
:1009A00093F825201AB11A681846536898479BF89F
:1009B000253023B1DBF8003058465B6898479AF839
:1009C000253023B1DAF8003050465B68984799F833
:1009D0002530002B35D198F8253063BB97F82530AA
:1009E0001BB13B6838465B68984796F82530CBB911
:1009F00095F8253063B994F8253013B903B0BDE8F4
:100A0000F08F23685B68204603B0BDE8F04F1847BD
:100A10002B6828465B68984794F82530002BEDD06A
:100A2000EFE77047336830465B68984795F82530A4
:100A3000002BE0D0ECE7D8F8003040465B689847E0
:100A4000CCE7D9F8003048465B689847C3E700BF59
:100A500090F92420531C26D01B4B2DE9F04153F86C
:100A60002240D2B2ECB19300E1184D68B5B1E9185B
:100A70004E6866B1F1184F6837B13B445968FFF7CB
:100A800057FF97F82530A3B996F8253063B995F844
:100A900025301BB12B6828465B68984794F82530B1
:100AA00063B9BDE8F0817047336830465B689847AA
:100AB000EDE73B6838465B689847E5E723682046E2
:100AC0005B68BDE8F0411847D024002038B50D21FF
:100AD000154C16480BF098FC15480CF069F9258860
:100AE000144810210BF090FC294611480CF0B0F985
:100AF0000F480CF05DF900230F4A1946112082F8C7
:100B0000F6300AF0F3F90D4B0D4A1B78128822805B
:100B100013B10C480CF0EEF80B4805F04BFB6420C9
:100B2000BDE838400AF01EBADC260020D07B010068
:100B3000B0F9FF1FE07B0100BC0B002030F1FF1F6C
:100B4000042700207C0F0020981C00209B4B93E87A
:100B5000030070B59A4C9B4D0123238184E8030068
:100B60000822994904F10C0010F048FE0822974928
:100B700004F1140010F042FE0822954904F11C0013
:100B800010F03CFE0822934904F1240010F036FED8
:100B90000822914904F16C0010F030FE08228E49C1
:100BA00004F1740010F02AFE08228B4904F17C0045
:100BB00010F024FE0822884904F1840010F01EFE83
:100BC000864A874B106819680FF0D6F9854BC4F830
:100BD000CC001B78C4F8D000012B0CBF824983499C
:100BE000C4F8D400C4F8D800082204F1FC0010F0C6
:100BF00005FE7F4B93E8030004F5847383E803004C
:100C00000223A4F8043108227A4904F5887010F010
:100C1000F5FD0822784904F5B47010F0EFFD774A2D
:100C20004FF07E5392E80300C4F8CC31C4F8C831C9
:100C3000734B04F5B87282E8030093E803000323C2
:100C400085E803000822A4F800326E4905F10C0083
:100C500010F0D4FD08226C4905F1140010F0CEFD0F
:100C600008226A4905F11C0010F0C8FD684B69496B
:100C7000C4F8C41293E80300674A05F16C0686E8DD
:100C8000030005F17C0305F1740686E8030083E8A0
:100C9000030092E8030005F1FC0383E803005F4BC7
:100CA000C4F8C8325E4E5F49C4F8CC620923A4F888
:100CB000FC32082205F5847010F0A0FD08225A4984
:100CC00005F5887010F09AFD0822584905F58C70DA
:100CD00010F094FD0822564905F5907010F08EFD35
:100CE0000822544905F5947010F088FD08225249F5
:100CF00005F5987010F082FD0822504905F59C70AA
:100D000010F07CFD08224E4905F5A07010F076FD2C
:100D100008224C4905F5A47010F070FD08224A49DC
:100D200005F5B47010F06AFD0822474905F5B87062
:100D300010F064FD0822444905F5BC7010F05EFD1A
:100D4000424B93E8030005F5C07282E8030005F505
:100D5000C87305F5C47282E8030083E80300082223
:100D60003B4905F5CC7010F049FD0822384905F5DE
:100D7000D07010F043FD0822354905F5D47010F00D
:100D80003DFD344B18680FF0ABF94FF060510FF098
:100D9000FBF9314A314BC4F8C003C4F8C403C4F8AA
:100DA000C803C4F8CC23C4F8D023C4F8D423C4F8AF
:100DB000D833C4F8DC33C4F8E03370BDF47B0100F1
:100DC000D81C0020D01E0020007C0100087C0100FF
:100DD000107C0100187C0100207C01004C040020E4
:100DE00050F1FF1F68040020247C0100547C0100A6
:100DF0002C7C0100387C0100407C0100487C010013
:100E00005C7C0100687C01006C7C0100747C01004A
:100E10007C7C01000000A039D47C010000009039E6
:100E20000000F039887C0100907C0100987C010072
:100E3000A07C0100A87C0100B07C0100B87C01000E
:100E4000C07C0100C87C0100DC7B0100DC7C01006F
:100E5000D07C0100F0F0FF1F0000FA3C0000163EBD
:100E600010B5294C29482278114604F0A5FC2368C6
:100E70000F2B0CD8DFE803F00C1014181C202428CA
:100E80002C3034383C404408214B224A1A6010BDB3
:100E90001F4B214A1A6010BD1D4B204A1A6010BD1D
:100EA0001B4B1F4A1A6010BD194B1E4A1A6010BD19
:100EB000174B1D4A1A6010BD154B1C4A1A6010BD15
:100EC000134B1B4A1A6010BD114B1A4A1A6010BD11
:100ED0000F4B194A1A6010BD0D4B184A1A6010BD0D
:100EE0000B4B174A1A6010BD094B164A1A6010BD09
:100EF000074B154A1A6010BD054B144A1A6010BD05
:100F0000034B134A1A6010BD38F1FF1FC40F0020B5
:100F10004C040020BD549341103377C0993918C058
:100F2000BE0D68BFCE71153F8D090340CCC962402C
:100F300009A7A3407DDBD140C416014154FC1741F1
:100F4000D0E83041195546419FAB5F41A041764101
:100F50005E2E864110B4114A13780133DBB2137050
:100F60001378282B11D00E490E4B10781B780A7875
:100F70000B4983428CBF00230123934203D90A4AC1
:100F8000012313700B7010BC7047074804490023FD
:100F90000224137004700B70E6E700BF640E00209B
:100FA0004E0F002068F1FF1F580E002010B4174BA1
:100FB00017491A78D2B2C0B288541A780132D2B224
:100FC0001A701A78D2B2002088541A780132D2B23C
:100FD0001A701A78782A11D00E4A0F4819780378B7
:100FE00012780C488B428CBF00230123934203D913
:100FF0000A4A01231370037010BC70470749054A61
:10100000187002240C701070E7E700BF8E0B0020F0
:10101000DC0D0020840F002040F1FF1F961C0020F3
:1010200070B41C4B1C4C1D4D00221868A15CC9B249
:101030002954196801320131062A1960F5D10822B4
:101040001868A15C134EC9B22954196801320131E4
:10105000142A1960F4D13268B2F5E16F11D0104A48
:1010600010491B68096812780D488B42B4BF0023F1
:101070000123934203D90C4A01231370037070BCFF
:1010800070470948064A002102243160047011703B
:10109000E6E700BFCC0E0020CC2100208404002015
:1010A000921C002060F1FF1FD40E002070B472B6B5
:1010B0001B491C4B1C4841250E2480220D700470D6
:1010C00019461A700B78174A1806FBD5174B1848A3
:1010D0001D78184C18490570033B247809781B7853
:1010E000C3704470817062B672B60D490E4C4126D1
:1010F0000F2580230E702570114613700B781B0688
:10110000FCD50A4C0B490C4A0C4B24780978127810
:101110001B78C37104714171827162B670BC7047F3
:101120000700024000000240060002400B0002409F
:10113000841C00200A00024009000240080002400E
:1011400038B50021282009F0E5FE002520242820BC
:1011500009F066FC0EF0C4FF014628460EF00CFFB5
:10116000013C0546F3D109490FF00EF84FF06A51E2
:101170000FF00AF801210446282009F0CBFE204692
:101180004FF074510FF000F838BD00BF8EC2DD4043
:101190002DE9F041244C254E94F800E06578A778BD
:1011A000E27894F804C06379A079E17941EA0020FB
:1011B00045EA0E2143EA0C2331801D4D1D491E4E88
:1011C00042EA07225B422A800B8000B20EF088FFC1
:1011D000227A637A94F80AC0E57A94F80C80677BE7
:1011E000306043EA0223154A94F80EE01380E17B55
:1011F00047EA0820277C627CA67CE37C42EA07223F
:1012000045EA0C240E4F0F4D40422C8038800E4D85
:101210000E4C0F48228041EA0E2143EA0623298022
:101220000380BDE8F08100BFCC210020801C00209D
:10123000821C00208C0B0020680E002080040020FF
:10124000CA210020C8210020720400207004002060
:101250007404002010B5114C2168012915D0022911
:1012600003D00F4B01221A7010BD0121042009F098
:101270003DFE4FF4FA6009F075FE0021042009F0EC
:1012800035FE074B01221A7010BD042009F02EFE16
:1012900040F6B83009F066FE2168E0E7C80C00208F
:1012A000D80F0020124B10B51C68012C0FD0012163
:1012B000042009F01BFE4FF4FA7009F053FE0021E0
:1012C000042009F013FE0B4B01221A7010BD0021FF
:1012D000042009F00BFE4FF47A7009F043FE21461A
:1012E000042009F003FE034B01221A7010BD00BF59
:1012F000C80C0020D80F0020114B10B51C68012C21
:101300000CD00121042009F0F1FD642009F02AFE2F
:1013100000210420BDE8104009F0E8BD00210420B0
:1013200009F0E4FD4FF4C87009F01CFE21460420CA
:1013300009F0DCFD41F27070BDE8104009F012BE0A
:10134000C80C002008B5104B1B68012B0FD00121E1
:10135000042009F0CBFD40F6B83009F003FE00216F
:10136000042009F0C3FD094B00221A7008BD4FF498
:101370007A7009F0F7FD0021042009F0B7FD034B56
:1013800000221A7008BD00BFC80C0020D80F002032
:1013900008B5114A114B106819680FF093F880B91D
:1013A000034613F0FF0F11D10D4B1968A1F1010194
:1013B000B1FA81F1490949B90820BDE8084009F0AE
:1013C00095BD4FF0010313F0FF0FEDD00121082070
:1013D000BDE8084009F08ABDD00E002074F1FF1F5F
:1013E000900F00202DE9F041464B474C59781F786B
:1013F000627898782378A678444D0902120241EA6F
:10140000074142EA034308431E430EF065FE404B8A
:10141000044618880EF060FE4FF087410EF0B4FECF
:10142000014620460EF0A6FD3A4B044618880EF001
:1014300053FE21460EF0A8FE4FF050510EF0A4FED0
:1014400035490EF099FD35490EF052FF344B2860B6
:10145000074618880EF040FE21460EF095FE4FF02C
:101460006E510EF091FE2F4B804618880EF034FE20
:101470004FF08E410EF088FE014640460EF07CFD96
:10148000804630460EF028FE014640460EF07CFEB7
:101490004FF054510EF078FE234B064618880EF09C
:1014A0001BFE21460EF070FE4FF070510EF06CFEE8
:1014B0001E4B044618880EF00FFE4FF08F410EF0C1
:1014C00063FE014620460EF057FD014630460EF001
:1014D00051FD4FF064510EF057FE15490EF008FF14
:1014E000144B02461A60196813480EF043FD134965
:1014F00000F100400EF0FCFE114B18602F60BDE8BB
:10150000F08100BF480F0020380D0020D01C0020C3
:1015100082040020F60E00200000FA440000C842B9
:10152000941C00204C0F0020E4210020901C00207F
:10153000000020416404002000807C4406C1DE429B
:10154000D00E002030B5314B314D1A78697B2869B7
:1015500085B0012300248DE81800052307F0B6F8B4
:101560002B69D3F83821D3F8341191420ED002AC54
:10157000184607F0C5F82B69D3F83811D3F8342191
:1015800020EAE070914204F8010BF1D19DF80A20A5
:101590009DF809001F4B42EA00201C680EF0A0FDD8
:1015A0004FF08D410EF0E6FC1B4B054621461868B6
:1015B0000EF0E0FC014628460EF0E6FD4FF06051CB
:1015C0000EF0E2FD21460EF0D7FC14490EF0DCFDD2
:1015D000124904460EF08CFE9DF80C30104A01466C
:1015E0009DF80B00116043EA0020001118380EF03E
:1015F00077FD0C490EF0C8FD0B490EF0BBFC0B4A01
:101600000B4B10601C6005B030BD00BF24F1FF1F04
:10161000BC240020C00C00206CF1FF1F00007A44A5
:10162000D00E0020CDCC4C3D00004842D01C002004
:101630006404002010B50D4C204608F0DDFCFFF7D7
:101640007FFDFFF77DFD6062204608F00DFF20461C
:10165000012108F027FA2046012108F01DFA002296
:1016600020461146BDE8104008F012BAD00C002008
:1016700010B501220446084908480BF085FB092CE7
:1016800004DC0122064905480BF07EFB2146034895
:10169000BDE810400BF0DCBB687F0100D00C0020DF
:1016A000E47C010038B50C4605460121234808F0CA
:1016B000F3F92AB20021214808F0EAF9204607F0A0
:1016C0000FFF01461D480BF0C3FB2D211B4808F0FE
:1016D000A5F9204607F0F6FE014618480BF0B8FBC6
:1016E0002D21164808F09AF9204607F0DDFE014644
:1016F00012480BF0ADFB0222114910480BF044FBDD
:10170000204607F0A7FE092804DC01220D490B48FA
:101710000BF03AFB204607F09DFE014607480BF010
:1017200097FB204607F0A4FEFFF7A2FF204607F034
:10173000ADFEBDE83840FFF79BBF00BFD00C0020D6
:10174000E87C0100E47C010010B501213448354CEF
:1017500008F0A2F90121324808F0A4F9002211464C
:101760002F4808F095F92368002B3BD0012B51D06E
:10177000082200212A4808F08BF92B4B1B684BB13B
:101780002A4B08201968FFF78DFF022228492448B8
:101790000BF0FAFA10220021214808F079F904220E
:1017A00024491F480BF0F0FA234B1D4819680BF031
:1017B0004FFB012221491A480BF0E6FA0822204982
:1017C00017480BF0E1FA1F4B154819680BF040FB66
:1017D00001221A4912480BF0D7FA1148BDE810400F
:1017E0000BF0E6BA082218490D480BF0CDFA174A5B
:1017F000174B11681B680A48C91A0BF029FB012214
:101800000E4907480BF0C0FA05480BF0D1FA2368DF
:10181000012BADD107220F4901480BF0B5FAA7E71C
:10182000D00C002040150020600E00205C04002039
:10183000047D0100087D010070F1FF1FF87C0100AC
:10184000107D01007C1C0020EC7C0100C40E0020F7
:101850006C040020FC7C010030B583B002AD079C15
:1018600005F8082D8DF80200069A8DF804304E34E4
:1018700028468DF801108DF805208DF8064007F0F8
:101880003FFE09F021FB03B030BD00BF70B58CB046
:1018900004460FF0F5FE00B2012829DDB4F900304E
:1018A00044F65212934200F0C68124DC44F25242C4
:1018B000934200F0C9813FDD44F24172934200F04F
:1018C000B1816EDD44F64412934200F04D8144F63E
:1018D0005012934200F0E28044F25372934207D1D7
:1018E00009AAE01CA9490FF01FFEA94B099A1A602A
:1018F00001200CB070BD45F24B02934200F0AD8167
:1019000034DD45F24432934200F0328140F3A98045
:1019100045F25042934200F01C8145F242729342DC
:1019200000F0E28045F24C329342E1D199499A4A63
:1019300001230B701370DBE744F24C42934200F03A
:101940006D8140DC44F25012934200F0BA8044F2C0
:1019500048329342CCD1E01C09AA8C498F4C0FF03D
:10196000E3FD09980EF0BCFB2060C1E744F6495244
:10197000934200F0438137DC44F64242934200F048
:10198000AB8044F642529342B2D109AA7F49E01C8F
:101990000FF0CAFD824A0999824B116002221A6037
:1019A000A6E744F25342934200F09A8044F2506218
:1019B00093429DD109AAE01C74490FF0B5FD7A4B02
:1019C000099A1A6094E744F24E42934275D044F269
:1019D000504293428CD109AAE01C6C490FF0A4FD3F
:1019E000724B099A1A6083E744F6505293424CD0E6
:1019F00044F6545293427FF47BAF09AD08A907AA7D
:101A000004AB039502910192009306AA05ABE01C7A
:101A100067490FF089FD069C059D049B07A804F506
:101A2000FA6407C800950194FFF716FF1121614879
:101A30000AF0EAFC07F0E2FD01465F480BF008FA05
:101A40005D480BF0B5F91B215C480AF0DDFC09F09C
:101A500035FA014658480BF0FBF957480BF0A8F946
:101A600046E745F24D02934221D045F2502293427F
:101A70007FF43EAFE01C09AA4449514C0FF054FDDD
:101A800009980EF02DFB206032E709AAE01C3F49BF
:101A90000FF04AFD4B4B099A1A6029E709AAE01C8E
:101AA0003A490FF041FD484B099A1A6020E747492F
:101AB000394A01230B7013701AE7454B01221A6053
:101AC00016E7E01C09AA3149424C0FF02DFD099898
:101AD0000EF006FB20600BE73F4B01221A708CE7EB
:101AE0003E4B01221A6003E709AD08A907AA04AB1F
:101AF000039502910192009306AA05ABE01C2C49C4
:101B0000374C0FF011FD069B09980499059A089E21
:101B1000079D8DF828001E330AA88DF82E308DF809
:101B20002C108DF82D208DF829608DF82A5007F0A3
:101B3000E7FC1C4B206001220A212A481A600AF0A7
:101B400063FC21681C480BF083F91B480BF030F94B
:101B5000CEE6E01C09AA0D49234C0FF0E5FC0998DC
:101B60000EF0BEFA2060C3E6204B01221A70BFE6D9
:101B70000AAB09AA1E49E01C0FF0D6FC1D491E4BFA
:101B800009980A9A08601A60B2E600BF1C7D01003D
:101B900038F1FF1F0CF1FF1F30F1FF1F50F1FF1F45
:101BA00078040020600E00208C1C002004F1FF1F30
:101BB000207D0100347D0100B0F9FF1F487D010048
:101BC00048F1FF1FF4F0FF1F10F1FF1F6804002011
:101BD000CC0C002008F1FF1FFC0C0020C4210020C9
:101BE0005C040020647D010058F1FF1FC81C002028
:101BF0002C7D0100BC1C0020280D002009AA1A49D8
:101C0000E01C0FF091FC0998184C0EF069FA184985
:101C1000184A206001230B70137069E6164B0022EE
:101C20001A7065E609AAE01C0F490FF07DFC134B02
:101C3000099A1A605CE609AAE01C0B490FF074FCD3
:101C40000F4B099A1A6053E609AAE01C06490FF0E7
:101C50006BFC0C4B099A1A604AE60B49044B0220B4
:101C6000012208701A7043E61C7D01004CF1FF1F31
:101C700030F1FF1F28F1FF1F00F1FF1FF0F0FF1FE1
:101C80007C1C002070F1FF1F6804002038B5054659
:101C900007F026FC1E4C014620460BF0D9F82D20FB
:101CA0000AF036FC284607F00DFC014620460BF0F2
:101CB000CFF82D200AF02CFC284607F0F5FB014652
:101CC00020460BF0C5F8012112480AF09DFB28467A
:101CD00007F0C0FB014620460BF0BAF83A200AF0A4
:101CE00017FC284607F0C4FB014620460BF0B0F86D
:101CF0003A200AF00DFC284607F0C8FB01462046B2
:101D00000BF0A6F82046BDE838400BF051B800BFF4
:101D1000B0F9FF1F247F01002DE9F043434A444BF3
:101D2000DFF81891DFF81881424D98F80010167806
:101D300099F800701A78286883B03C2313FB0717C2
:101D400013FB062607F086FB0446286807F090FB85
:101D5000C4EB041400EB8404286807F0C1FB00F115
:101D60004E0328688DF8063007F0ACFB8DF80500AF
:101D7000286807F099FBB7428DF8040006D2A74205
:101D800032D8A64230D303B0BDE8F083A742FAD9D7
:101D9000A642F8D202A8002399F8002000F8083DD6
:101DA00098F800308DF801308DF8022007F0A8FB7C
:101DB0000F21286020480AF027FB2868FFF766FFFC
:101DC00009F07CF82B68834204DA03F5A83303F5A5
:101DD000C0732B600F2118480AF016FB2868FFF724
:101DE00055FF03B0BDE8F08302A8002399F8002056
:101DF00000F8083D98F800308DF801308DF8022089
:101E000007F07EFB0F2128600B480A4C0AF0FCFA11
:101E10002868FFF73BFF09F051F82B688342D9DAB5
:101E200003F5A83303F5C0732360D3E7D10F002077
:101E3000D00F0020C40E0020707D0100C11C0020C6
:101E4000D90F00202DE9F04F6D4A6E4D6E4C6F4B4F
:101E50006F48DFF8DCA1D3F800C0D0F800E0D2F87A
:101E6000008023882A88BAF800106A4E6A4FB6F9B3
:101E70000000CCEB0202CEEB030387B02A80238064
:101E8000C8EB0101AAF800100DF0C2FC804689469B
:101E9000B7F900000DF0BCFC42464B460CF018FAB6
:101EA0000EF014F802900DF0C5FC804689460CF047
:101EB000CBF90EF00BF84946834640460CF0EEF89D
:101EC0000EF004F88046B5F900000EF009F98146DD
:101ED000B4F900000EF004F9504B0190B3F9000082
:101EE00040420EF0FDF80446B7F900000EF0F8F895
:101EF00059460EF049F90546B6F900000EF0F0F823
:101F000041460EF041F9014628460EF035F80146EB
:101F100020460EF0EDF90DF08DFC0BF021FF0DF0D9
:101F2000D5FF03900DF086FC04460D460CF08CF9AD
:101F300006460F46204629460CF0B0F802460B46EE
:101F400058464946CDE904230EF01EF9019904468E
:101F500040460EF019F9014620460EF00DF83946BC
:101F6000044630460DF0B2FF014620460EF00CF953
:101F70000446BAF900002A4F2A4E0EF0B1F8DDE906
:101F800004230546194610460DF0A0FF01462846D9
:101F90000EF0FAF8014620460DF0EEFF0DF04AFC77
:101FA00004460D46404649460EF0EEF8019980463B
:101FB00058460EF0E9F8014640460DF0DBFF00F10F
:101FC00000400DF037FC22462B460CF081F9044608
:101FD0000D46039814490EF0D7F8144B12491860B7
:101FE00002980EF0D1F82946386020460DF06EFFB9
:101FF0000D490EF0C9F8306007B0BDE8F08F00BFA2
:10200000340D00207204002074040020540E0020BF
:10201000F00E00208C0B0020821C0020801C002071
:102020007C040020C80E0020E12E6542C40C002074
:102030007004002010B50446232009F065FA2146FB
:102040000B480AF005FF0A480AF0B2FE094B1B785C
:1020500003B910BD072108480AF0D6F92146074800
:102060000AF0F6FE0548BDE810400AF0A1BE00BF28
:1020700090F9FF1FC81C0020807D0100B0F9FF1FF0
:102080002DE9F04FDFF8D492DFF8D482D9F80000C0
:10209000D8F8001085B00EF033FA40B19E4BD9F855
:1020A00000201B78C8F80020002B40F0AA809B4C31
:1020B0009B4E23689B4D002B48D19B4A2B68376869
:1020C0001268DFF8A0A2D9F80000DAF80010FB1AB5
:1020D0009342D4BF4FF0000B4FF0010B0EF010FAFB
:1020E000924B1A684FF00103002800F08680002A06
:1020F00014BF002303F001031BEA030B74D0864ACC
:102100008A4B127801211960002A57D1D9F80010A2
:10211000DFF85492D8F800000DF02CFFD9F8001029
:102120000EF0EEF94FF00101002868D0DFF80C82C4
:102130007F4AD8F8000012689042ACBF002201F03C
:1021400001021BEA020A40F08A802368326828688C
:10215000A3F1010ABAFA8AFA4FEA5A1A824202DB5A
:10216000BAF1000F04D1022B18D005B0BDE8F08FF2
:10217000704F022338682360FFF75CFF6E4A3B68AC
:1021800012686E49013393423B60A4BF00233B6059
:102190000A6823680132022B0A60E6D1684A336874
:1021A000296812685B1A9342DFDD0021102008F0D5
:1021B0009DFE0023236005B0BDE8F08F1921614822
:1021C0000AF022F9DAF800000DF034FB4FF0020EAD
:1021D00002460B46CDF800E05B480AF041FE5A4843
:1021E0000AF0E6FD514B1A68022A1DD0A2F1010B3C
:1021F000BBFA8BFB4FEA5B1B88E7034677E7014698
:1022000094E70B2151480AF0FFF8D8F800000DF0D0
:1022100011FB022402460B4600944B480AF020FEB4
:1022200049480AF0C5FD42E7DFF840A1D9F80000AF
:10223000DAF800100392DFF824B10EF043F950B140
:10224000354BDBF80010394A1B78C8F80010002124
:1022500011609346CBB92368D9F8002076E70121B5
:10226000102008F043FE2C4B326893F800C02F4F2B
:10227000DFF8A8B0901C01210223286021603B6098
:10228000BCF1000F1CD10B4668E70D2130480AF065
:10229000BBF8DAF800000DF0CDFA039A00920B4675
:1022A000024629480AF0DCFD27480AF081FDDBF8E8
:1022B0000030A3F1010BBBFA8BFB4FEA5B1B25E758
:1022C0000E21244803930AF09FF8D9F800000DF07E
:1022D000B1FA039B009302460B461B480AF0C0FD6F
:1022E00019480AF065FD11211B480AF08DF8D8F84D
:1022F000001015480AF0ACFD13480AF059FDDBF850
:102300000030074A074912680868A3F1010ABAFABF
:102310008AFA4FEA5A1A21E7C81C0020500400200C
:102320006C0400202C04002010F1FF1FE02100208D
:10233000F4F0FF1FB80B00208C1C00205804002074
:1023400004F1FF1F947D0100B0F9FF1F887D01009B
:10235000B07D0100C07D0100D07D0100D00E0020C5
:10236000BC0C002058F1FF1F08F1FF1F48F1FF1FB0
:102370002DE9F04F0546934E934FDFF85C8296F8B7
:1023800000E02F60FF2085F82400DFF8509298F8D5
:102390000000BEF1060F59F820E04FF000038DB0A9
:1023A0000C4685F8253085F8263098BF3370BEF18D
:1023B000000F00F0AD808E455ED07346810001E0D5
:1023C0009C4259D00B445B68002BF9D1734600E066
:1023D00053460B44D3F804A0BAF1000FF8D15C6067
:1023E0003478029705EB010B4FFA80FCFF23062C93
:1023F000CBF804A08DF82DA08DF82EA085F824C070
:102400008DF82C30744604D800233370002C00F073
:10241000B480A24229D0234601E0934225D00B4448
:102420005B68002BF9D104EB010EDEF80440002CB0
:10243000F9D1CEF804200CAB1944BCF1FF3F00F1F8
:1024400001034FF0000041F8240C88F800308DF8AB
:102450002CC0029705D05D4951F82C2002AB9A425E
:1024600076D028460DB0BDE8F08F013088F8000026
:1024700028460DB0BDE8F08F31780297FF24002385
:1024800006298DF82C408DF82D308DF82E304D4CCE
:1024900000D823709645E8D07346810001E09A4247
:1024A000E3D00B445B68002BF9D18E44DEF8044086
:1024B0002CB1A6468E44DEF80440002CF9D10CABBA
:1024C00046B219440130731CCEF8042088F800008D
:1024D00041F8244C02978DF82C60C2D03B4951F84A
:1024E000262002AB9A42BCD159F82630B00023B165
:1024F0001A1853685460002BFAD198F80030002263
:10250000013B88F8003049F8262041F82620A8E74A
:1025100000283AD02D4B96F800E043F82050810077
:1025200005EB010C002349F820408DF82D30CCF844
:1025300004308DF82E304FFA80FCFF23BEF1060FD9
:10254000029785F824C08DF82C307FF65DAF5DE7EB
:1025500059F82C304FEA8C0423B11A195368506093
:10256000002BFAD198F800300022013B88F80030A7
:1025700049F82C2041F82C2073E798B1134B49F807
:10258000202002AA43F8202055E711490192152086
:1025900008F0CCFB0F4B019A4FF40011196098F82A
:1025A0000000B7E70A490192152008F0BFFB094B6C
:1025B000019A4FF40011196098F800004FFA80FC5E
:1025C0008100DBE794E9FF1F8C7B0100F0240020F1
:1025D0007504000000E100E011250020D024002057
:1025E0002DE9F041814C824E824D834F08F096FADE
:1025F0004FF0FF31204607F0EBFC804B3268236040
:10260000012100230020606284F8281084F829103A
:102610002F606B722B612B72EB600AB9E0E01A46F7
:102620005369002BFBD15561754C764B71482B607B
:102630004FF00008C5F81480A5F80480A5F80680BE
:1026400003F0FAF9012004F2247243464146276060
:1026500084F80880C4F80C8060722261A64601E00C
:10266000DEF8102042F82310627A654801339A425E
:10267000F6DC32685E4B0AB9B4E01A465369002BA7
:10268000FBD154614FF000085F49DFF8D8E12160C9
:10269000424601234FF480715C48C4F81480A4F8CA
:1026A0000480A4F80680C4F818E184F8218784F82F
:1026B00022870BF079FA564AC4F81C814FF0010EBC
:1026C00002F118011760082782F809E043464046E6
:1026D00082F80880C2F80C801161964684F8207751
:1026E00001E0DEF8101041F82300517A484F013321
:1026F0009942F6DC31683E4B09B975E019464B69E1
:10270000002BFBD14A61434B43495A600026566176
:102710009680D680184682F8F460C2F8F06082F89D
:10272000F560116082F8F6601D601E725E72DE60F8
:102730000AF042F8394B3A4F1E7218461D605C6031
:102740005E72DE600AF038F8364A374B1168374A55
:102750001A600A221A724FF087400DF0C9FD344CFE
:10276000344D38604FF0FF08334B84F82560012763
:1027700084F82480314A324966632046A66384F88F
:102780003C60236084F826700EF07EF82D4B2B4AB7
:102790002D4985F82480284685F825602B6085F82A
:1027A00026700EF071F8224629462848FFF7E0FD12
:1027B000224A274925480EF067F8264803F0D8FC3E
:1027C0001E4A254923480EF05FF8244B1B4A1E6021
:1027D00080241C7122491846BDE8F0410EF054B81F
:1027E000356021E718604DE71F608CE7D00C0020B2
:1027F000D8260020D80E0020807B0100A07B01009D
:1028000044150020448401001C8401006C1C00203D
:10281000BC0B0020900B002050840100A00B002076
:102820005C0E00205CF1FF1FC40F00202884010013
:10283000840E0020940F0020C0860100FCEFFF1FD3
:102840009D060000D4860100F5060000000D002062
:10285000F1050000981C00208D6100007C0F002015
:102860004D0700001482010010B51D48ADF5007D34
:1028700003F048FA012829DD1A491B4C0B6822682D
:102880001748013301320B60226003F06DFA4FF4F8
:1028900080720146684607F0F1FE114803F082FAA3
:1028A0000F4803F061FA4FF4807201460DEB02000D
:1028B00007F0E4FE0A4803F075FA0C4B1B7843B9A5
:1028C00069464FF400720A4803F0D8FB0DF5007D0D
:1028D00010BD10220749064803F0D0FBF0E700BF07
:1028E000BC0B00202C0D00205404002030F1FF1FF1
:1028F000981C0020F80E00202DE9F845194CDDF851
:1029000020814FF48A7707FB00449246054608224F
:1029100020461E460EF072FF479BC4F80C31FC2285
:1029200008A904F11000A4F808A0E660C4F810811A
:1029300007F0A4FE3A4621460B4803F09FFB013006
:1029400002D10A4B0A4A1A600A492A018B186427E5
:10295000C8264FF496748D505F609E60DC60BDE8C1
:10296000F88500BFDC0F0020981C00200CED00E073
:102970000400FA05F80E002000B589B06846162359
:102980000C4A0D4903F07AFD684603F021FC50B172
:102990002A220A49684603F071FB68460AF008FAE1
:1029A000684603F007FC684603F0F0FB09B05DF8E9
:1029B00004FB00BF047E01003C2200200C7E0100CD
:1029C00070B5B44B1B7884B0002B40F05B81B24CE7
:1029D0007621204605F0C6FB00251E21204605F085
:1029E000CDF8627B216900950123204605F046FE63
:1029F000052008F0B7FA2046762105F0B3FBA221A6
:102A0000204605F0BBF8627B216900950123204632
:102A100005F034FE0123617B0093762202232069B6
:102A2000019505F053FE2369D3F83811D3F834210A
:102A300091420CD003AD184605F062FE236905F8FB
:102A4000010BD3F83811D3F834219142F3D19DF81A
:102A50000D209DF80C50914B8F4842EA05257621B8
:102A60001D80002605F07EFBA4218B4805F086F82A
:102A7000627B216988480096012305F0FFFD012350
:102A8000617B0093762202232069019605F01EFEE9
:102A90002369D3F83811D3F83421914212D003AD11
:102AA000184605F02DFE236905F8010BD3F83811FF
:102AB000D3F834219142F3D19DF80C509DF80D309C
:102AC00043EA0525764B74481D80762105F04AFBC4
:102AD0000026A621704805F051F8627B21696E48F6
:102AE0000096012305F0CAFD0123617B0093762245
:102AF00002232069019605F0E9FD2369D3F8382106
:102B0000D3F83411914212D003AD184605F0F8FD08
:102B1000236905F8010BD3F83811D3F83421914219
:102B2000F3D19DF80C509DF80D3043EA05255D4B1F
:102B300059481D80762105F015FB0026A82156482E
:102B400005F01CF8627B216953480096012305F0CB
:102B500095FD0123617B0093762202232069019673
:102B600005F0B4FD2369D3F83821D3F8341191422C
:102B700012D003AD184605F0C3FD236905F8010B1B
:102B8000D3F83811D3F834219142F3D19DF80C5089
:102B90009DF80D3043EA0525434B3F481D807621C3
:102BA00005F0E0FA0026AA213B4804F0E7FF627B2B
:102BB000216939480096012305F060FD0123617BFE
:102BC0000093762202232069019605F07FFD236998
:102BD000D3F83821D3F83411914212D003AD1846FE
:102BE00005F08EFD236905F8010BD3F83811D3F8F1
:102BF00034219142F3D19DF80C509DF80D3043EAF9
:102C000005252A4B24481D80762105F0ABFA0026C5
:102C1000AC21214804F0B2FF627B21691E48009676
:102C2000012305F02BFD0123617B00937622022313
:102C30002069019605F04AFD2369D3F83811D3F8CD
:102C40003421914219D0354603AE184605F058FD9F
:102C500023697055D3F83811D3F83421914205F126
:102C60000105F2D19DF80D309DF80C5043EA052581
:102C70000F4B01201D8004B070BD0D4B30461D80F0
:102C800004B070BD0B210B4809F0BEFB0A480AF0E6
:102C90008FF89CE6C81C0020BC2400204C0F0020AC
:102CA000901C0020941C0020E421002082040020BD
:102CB000F60E0020387E0100B0F9FF1F10B50A4C57
:102CC00082B02046762105F04DFA2046482104F0D6
:102CD00055FF00230093627B21692046012305F004
:102CE000CDFC02B010BD00BFBC24002010B50A4CC2
:102CF00082B02046762105F035FA2046582104F0AE
:102D00003DFF00230093627B21692046012305F0EB
:102D1000B5FC02B010BD00BFBC240020F0B5284FA8
:102D20003B7885B0002B43D1264C274E2046317886
:102D300005F018FA00250021204604F01FFF627BF1
:102D4000216900950123204605F098FC022008F037
:102D500009F901233278617B0093206901950223F0
:102D600005F0B4FC022008F0FDF803AE2369D3F8A7
:102D700038211846D3F834319A4213D005F0C0FCFC
:102D80003B7820EAE07006F8010B0135002BEDD00E
:102D900000230A2231780D480AF01AF80B480AF08D
:102DA00007F8E3E7002DD4BF0020012005B0F0BDF7
:102DB0000B21074809F028FB044809F0F9FFB3E7A5
:102DC000C81C0020BC24002024F1FF1FB0F9FF1F05
:102DD000447E010010B50A4B0A4C197882B0204697
:102DE00005F0C0F92046AC2104F0C8FE0023009392
:102DF000627B21692046012305F040FC02B010BD32
:102E000024F1FF1FBC24002070B5134C82B006468D
:102E10000D4620460A2105F0A5F9C6F307212046F4
:102E200004F0ACFEF1B2204604F0A8FEC5F3072181
:102E3000204604F0A3FEE9B2204604F09FFE0023E2
:102E40000093627B21692046012305F017FCB0FA4C
:102E500080F0400902B070BDBC24002008B50021FC
:102E60003020FFF7D1FF00210220BDE80840FFF726
:102E7000CBBF00BF08B5AB213020FFF7C5FF6321F2
:102E80000220BDE80840FFF7BFBF00BF08B544F20D
:102E900060013020FFF7B8FF6C212620FFF7B4FF58
:102EA0004FF4F8712820FFF7AFFF00212A20FFF729
:102EB000ABFF40F622712C20FFF7A6FF44F24641FB
:102EC0003C20FFF7A1FF40F237112420FFF79CFFC1
:102ED000FFF7D0FF4FF4C87008F044F841F619111D
:102EE0002E20FFF791FF04210846FFF78DFF4FF4D6
:102EF00098710620FFF788FF00210A20FFF784FF62
:102F000008210E20FFF780FF4FF63C711020FFF7DD
:102F10007BFF47F67F712220FFF776FF00214FF4F9
:102F20009270FFF771FF14212420FFF76DFF00213D
:102F30002A20FFF769FF00212020FFF765FF01200D
:102F400008BD00BF10B5114CFFF7A0FF2046552269
:102F5000202102F05FFB38B1E28842F0040292B215
:102F60002046242102F056FB0021084802F06EFCA6
:102F7000074B06481A78114602F01EFC034802F07F
:102F800011FC0248BDE8104002F022BCC40F002032
:102F900038F1FF1FF0B5174C174D83B0297806465E
:102FA000204605F0DFF831462046002604F0E6FD15
:102FB000627B216900960123204605F05FFB29789A
:102FC000204605F0CFF82A78617B2069019601251B
:102FD0002B46009505F07AFB206905F091FB627B9A
:102FE0002169009607462B46204605F047FBF8B2BC
:102FF00003B0F0BDBC24002014F1FF1F2DE9F04107
:103000001A4C1B4D82B029780646204605F0AAF8D6
:1030100031462046002604F0B1FD627B216900960E
:103020000123204605F02AFB01272978204605F0D8
:1030300099F82A78617B206901960223009705F0B0
:1030400045FB206905F05CFB0546206905F058FB4F
:10305000627B2169009680463B46204605F00EFBC8
:1030600045EA082080B202B0BDE8F081BC2400200F
:1030700014F1FF1F08B50B20FFF7C0FF064B1880A7
:103080000920FFF7BBFF054B18800D20FFF7B6FFA7
:10309000034B188008BD00BFC00F0020D41C0020C7
:1030A000B40B002070B50D4B0D4C82B006460D469A
:1030B0002046197805F056F83146204604F05EFDAA
:1030C0002946204604F05AFD00230093627B2169C3
:1030D0002046012305F0D2FA02B070BD14F1FF1FA3
:1030E000BC240020F8B504460E46012021461546B2
:1030F000FFF7D8FF31460220FFF7D4FF294603200F
:10310000FFF7D0FF0120FFF745FF07460220FFF73A
:1031100041FF864204BFE41BB4FA84F44FF003007D
:103120000CBF64090024FFF735FF85420CBF204621
:103130000020F8BD08B50A21064809F065F90648DF
:1031400009F036FE00223F210D20BDE80840FFF7C0
:10315000C9BF00BF507E0100B0F9FF1F70B50F4C12
:1031600082B00E4601462046154604F0FBFF31466C
:10317000204604F003FD2946204604F0FFFC00230E
:10318000627B216900932046012305F077FA04460B
:10319000052007F0E7FE204602B070BDBC240020E9
:1031A00038B5324C402220782421FFF7D7FF002881
:1031B00040D12F4D20782A6862F07F02D2B22521BB
:1031C000FFF7CCFF002838D1032226212078FFF713
:1031D000C5FF002834D1D62227212078FFF7BEFF73
:1031E00088BB2A7820782821FFF7B8FF70BB0A2215
:1031F00029212078FFF7B2FF58BB81222A212078AD
:10320000FFF7ACFF40BB112264212078FFF7A6FF37
:1032100028BB032267212078FFF7A0FF10BB20788E
:1032200080220121FFF79AFF002814BF6FF00E00E3
:10323000002038BD6FF0050038BD6FF0060038BDC6
:103240006FF0070038BD6FF0080038BD6FF009005F
:1032500038BD6FF00A0038BD6FF00B0038BD6FF05D
:103260000C0038BD6FF00D0038BD00BF3CF1FF1FF2
:10327000FCF0FF1F344B1B7870B50446002B41D186
:10328000002C45D0314C324E207801226B21FFF7C3
:1032900065FF03221A2105462078FFF75FFF102201
:1032A0001B212078FFF75AFF092219212078FFF708
:1032B00055FF207818221C21FFF750FF3368022B9E
:1032C0002DD0042B32D0082B37D003221D2120789B
:1032D000FFF744FF222237212078FFF73FFF01222A
:1032E00038212078FFF73AFFFFF75AFF07226A21BB
:1032F0002078FFF733FF207860226A21FFF72EFF46
:10330000284670BD0921134809F07EF8002CB9D178
:103310000E4B402218786B21FFF720FF70BD002272
:103320001C212078FFF71AFF3368CAE708221C2106
:103330002078FFF713FF3368C5E710221C2120789F
:10334000FFF70CFFC1E700BFC81C00203CF1FF1FC6
:10335000F0F0FF1F5C7E010030B5184C83B0762181
:10336000204604F0FFFE00250021204604F006FC64
:10337000627B216900950123204605F07FF9012336
:10338000617B0093762203232069019505F09EF965
:103390002369D3F83811D3F8342191420CD0084D69
:1033A000184605F0ADF9236905F8010BD3F838117B
:1033B000D3F834219142F3D103B030BDBC240020B6
:1033C000380D002030B5184C83B07621204604F02B
:1033D000C9FE00250021204604F0D0FB627B216954
:1033E00000950123204605F049F90123617B0093F4
:1033F000762203232069019505F068F92369D3F843
:103400003811D3F8342191420CD0084D184605F0FC
:1034100077F9236905F8010BD3F83811D3F8342173
:103420009142F3D103B030BDBC240020480F0020EE
:103430002DE9F0411C4D074682B00C46284639461E
:1034400090461E4604F08EFE21462846002404F0D5
:1034500095FB6A7B296900942346284605F00EF9FE
:103460004FF0010E43463A46697B28690194CDF836
:1034700000E005F02BF92869D0F83821D0F8343174
:103480009A420DD005F03CF9E3B2C0B2F05428697D
:10349000D0F83821D0F834319A4204F10104F1D146
:1034A00002B0BDE8F08100BFBC2400202DE9F04748
:1034B000704C714A23681278013382B02360002A6D
:1034C00040F08380DFF80492DFF80482D9F800101E
:1034D000D4F800A0694F4FF07E500CF009FF05466C
:1034E000D8F800000CF0FCFD014628460CF04CFE1C
:1034F000064650460CF0F4FD4FF07C5182463046B3
:103500000CF042FE014650460CF0F0FF3D784FF0C3
:103510000103EDB200B9034613F0FF0F07D0584B7B
:103520001B78012B14BF002505F001050DBB206899
:10353000504C0CF0D5FD31460CF0D8FFB0B1514BDA
:103540001B7800222260002B66D14D4D2C78012C77
:1035500000F08480022C7CD04B4B1B68002B6AD17E
:103560004A4B1B78002B41D12B78CBB902B0BDE878
:10357000F087FFF7F1FEFFF7B9FB0023D9F8001041
:103580003B704FF07E500CF0B3FE0546D8F80000BB
:103590000CF0A6FD014628460CF0F6FD0646C6E7EF
:1035A0003B4D3C4A2B783C4C1268DBB244F823205C
:1035B000FDF7D0FC2B78394ADBB2126844F823209F
:1035C00002B0BDE8F047FDF7C5BC354D354A2B4686
:1035D00010783B211422FFF72BFFFDF721FD2978FE
:1035E0006B78314A43EA012313806BE702212F48AD
:1035F00008F00AFF2E4B18680CF01CF90224024652
:103600000B4600942B4809F02BFC2A4809F0D0FB0C
:103610002B78002BAAD0C3E7FFF72CFD264B188888
:10362000FDF7C4FC254B1888FDF7C0FC244B188817
:10363000FDF7BCFC89E7234B186805F019FF224A07
:103640001B4B52F820201A60104B1B78002B8BD09C
:10365000CCE7FDF777FFFFF7BDFB7DE7FFF7B2FE95
:10366000FFF72CFBFDF7BEFE3C70FDF791FE2C78BA
:1036700070E700BF300D002028F1FF1FC01C0020A4
:10368000680400200CF1FF1FC4210020C81C00208A
:10369000640E0020640400203C0D0020D01C00209B
:1036A000CC2100203CF1FF1F801C0020687E01001F
:1036B000D00E0020B0F9FF1FC00F0020D41C002046
:1036C000B40B00206C04002000F0FF1F44F1FF1F2A
:1036D00054F1FF1F2DE9F04F012183B0042007F0C2
:1036E00019FC0121152007F015FC0121142007F019
:1036F00011FC0121112007F00DFC0121102007F021
:1037000009FC0021142007F005FC0121052007F029
:1037100001FC0121022007F0FDFB0121082007F038
:10372000F9FB0021282007F0F5FB0021232007F0FA
:10373000F1FB0021032007F0EDFB002007F04AF920
:103740000121042007F0D2FB0021152007F0CEFB59
:103750000121142007F0CAFB0B21734808F054FE26
:10376000724809F025FB0121112007F0BFFB012160
:10377000052007F0BBFB0121082007F0B7FB012162
:10378000102007F0B3FB0B21694808F03DFE6748A5
:1037900009F00EFB40F6B83007F0E4FB00211120E1
:1037A00007F0A4FB0021052007F0A0FB0021082062
:1037B00007F09CFB0020FEF73DFC5E4B1B78002BC6
:1037C00040F0AB805C4B1B78002B40F097825B4D48
:1037D000FDF730FF00232B70FFF7A0FA002840F020
:1037E0002B82FFF7EDF8002840F0F681DFF88481A6
:1037F0005348544E544F112108F006FED8F80000EB
:103800000CF018F8022402460B460094474809F0D1
:1038100027FB464809F0CCFA07214C4808F0F4FD94
:1038200030680CF007F8009402460B463F4809F058
:1038300017FB3E4809F0BCFA0D21454808F0E4FDAD
:1038400038680BF0F7FF009402460B46374809F042
:1038500007FB364809F0ACFA2B784BBB08223D49F0
:103860003D4809F091FA3C4809F0A2FA0D223B4983
:10387000394809F089FA384809F09AFA364806F0CA
:103880005DFD374B1B680BB1002333600021102016
:1038900007F02CFB0C21334808F0B6FD234809F053
:1038A00087FA40F6B83003B0BDE8F04F07F05ABBD6
:1038B00006222D49284809F067FAD8F800000BF0D5
:1038C000B9FF00940B460246234809F0C9FA224882
:1038D00009F06EFA062225491F4809F055FA3068AA
:1038E0000BF0A8FF00940B4602461B4809F0B8FAFB
:1038F000194809F05DFA05221D49174809F044FAF4
:1039000038680BF097FF009402460B46124809F006
:10391000A7FA114809F04CFAB0E70120FFF7AAFC1A
:103920004FF0000867E000BF6C7E0100B0F9FF1F98
:10393000787E010028F1FF1F0CF1FF1F68040020B2
:10394000147F0100D00E0020D01C00208C7D0100CF
:10395000287F0100387F0100D00C0020447F010047
:10396000C42100206C7F0100547F01005C7F0100B6
:10397000647F0100640400200322C149C14809F0AA
:1039800003FAC14B18680BF055FF00940B46024632
:10399000BC4809F065FABB4809F00AFA0322BB49A2
:1039A000B84809F0F1F9BA4B18680BF043FF0094DE
:1039B0000B460246B34809F053FAB24809F0F8F949
:1039C0000322B449AF4809F0DFF9B34B18680BF094
:1039D00031FF009402460B46AA4809F041FAA94873
:1039E00006F0ACFC08F10108C82007F0BBFAB8F1FA
:1039F000320F3FF4E7AEA94AA94B1078DFF8F0B2D6
:103A0000DFF8F0A2DFF8F092A64FA74EA74D1422E0
:103A10003B21FFF70DFDFDF7BBFBFEF713FA092174
:103A2000A34808F0F1FCBBF90010A24809F010FA15
:103A30000121A14808F0E8FCBAF900109D4809F0FE
:103A400007FA01219C4808F0DFFCB9F900109948F9
:103A500009F0FEF90121984808F0D6FC974B9548EB
:103A6000B3F9001009F0F4F90121934808F0CCFCF7
:103A7000B7F900108F4809F0EBF901218E4808F0E2
:103A8000C3FCB6F900108B4809F0E2F901218A481D
:103A900008F0BAFCB5F90010864809F0D9F90121FF
:103AA000854808F0B1FC864B8248B3F9001009F054
:103AB000CFF90121804808F0A7FC824B7D48B3F97B
:103AC000001009F0C5F901217B4808F09DFC7E4BF0
:103AD00018680BF0AFFE02240B46024600947548AE
:103AE00009F0BEF9734809F063F9FDF7A3FD082258
:103AF0007649644809F048F9624809F059F9B8F183
:103B00000E0F3FF739AF224671495E4809F03CF984
:103B1000BBF900105B4809F09BF901226D49594837
:103B200009F032F9BAF90010564809F091F901226A
:103B30006849544809F028F9B9F90010514809F0CA
:103B400087F9504809F034F9224663494D4809F095
:103B50001BF95A4B4B48B3F9001009F079F90122CF
:103B60005C49484809F010F9B7F90010454809F0D8
:103B70006FF901225749434809F006F9B6F90010D8
:103B8000404809F065F93F4809F012F922465349C7
:103B90003C4809F0F9F8B5F900103A4809F058F92D
:103BA00001224C49374809F0EFF8454B3548B3F945
:103BB000001009F04DF901224649324809F0E4F8B5
:103BC000404B3048B3F9001009F042F90122414955
:103BD0002C4809F0D9F802E70123142140482B7042
:103BE00008F012FC334809F0E3F80B223D49254860
:103BF00009F0CAF8234809F0DBF8FFF75FF8322034
:103C000007F0B0F9FFF7A8FBFFF770F8322007F0D4
:103C1000A9F9FFF7D7FBFFF751F8322007F0A2F917
:103C2000FFF79AFBFFF762F8322007F09BF9FFF7E6
:103C3000C9FBFDF7D7FBD9E5022318212A482B70D1
:103C400008F0E2FB1B4809F0B3F8FFF7C3F81420B3
:103C500007F088F9FDF776FC0A2007F083F9FFF7F3
:103C6000B9F8142007F07EF9FDF76CFC0A221F4911
:103C7000044809F089F8034809F09AF8B1E500BF53
:103C8000A87E0100D00C0020C40C0020AC7E0100F6
:103C90007C040020B07E0100C80E00203CF1FF1F14
:103CA000CC210020C8210020CA210020700400205F
:103CB000847E0100B0F9FF1F8C7E0100800400208B
:103CC0007204002074040020680E0020907E010021
:103CD0009C7E0100247F0100A07E0100A47E0100E3
:103CE000F07E0100087F0100C87E0100E47E010033
:103CF000801C0020821C00208C0B0020FFF71AFA89
:103D0000314F324E324D1E24FFF7B4F902213148B3
:103D100008F07AFBB7F900102F4809F099F82E48FF
:103D200009F046F802212D4808F06EFBB6F90010A4
:103D3000294809F08DF8284809F03AF80221284866
:103D400008F062FBB5F90010234809F081F8224819
:103D500009F02EF8FDF76EFC0A222249224809F0EC
:103D600013F8214809F024F802221A491E4809F0E4
:103D70000BF8B7F900101C4809F06AF81A4809F066
:103D800017F802221549184808F0FEFFB6F900108E
:103D9000154809F05DF8144809F00AF802221049A4
:103DA000114808F0F1FFB5F900100F4809F050F87C
:103DB0000D4808F0FDFF0C4806F0C0FAC82007F0D7
:103DC000D1F8013CA0D102E5C00F0020D41C002096
:103DD000B40B0020B47E0100B0F9FF1FA07E0100EB
:103DE000B87E0100BC7E0100D00C00202DE9F04718
:103DF0009AB00AA802F0BCF901238E4A8E4912A893
:103E000002F03CFB149A9DF854309DF84C100C9233
:103E10008DF834308DF82C1015AA0DF135030DF105
:103E2000420612F8011F03F8011BB342F9D1199B96
:103E3000119312A802F0AAF90AA802F0C9F9804663
:103E4000002800F0EE80002427468DF808704FF01F
:103E500000090AA802F024F91AABC2B203EB090167
:103E60000D2A09F101031BB212D0542A0AA801F845
:103E7000602C07D1012B05D102F094F90124451ED5
:103E8000A146E6E71D2B07DC0A2A05D09946E0E7A4
:103E9000B9F11D0FDDDD4B46013B9BB21AAA1A4456
:103EA0000FFA83F902F8607C9DF808202F2A04D0CD
:103EB000012B02D902A8FDF7E9FC0AA802F0D2F80A
:103EC00082460028C1D10AA802F074F9002C70D1F2
:103ED00001235A4A584912A802F0D0FA9DF84C30F2
:103EE00014989DF854108DF82C3015AA0DF1350357
:103EF0000C908DF8341012F8011F03F8011BB34227
:103F0000F9D1199B119312A802F040F90A214C48EB
:103F100008F07AFA4B4808F04BFF0AA802F058F96B
:103F2000064600283ED0484D012406E01E2C03F82A
:103F3000010C0CD00A280AD001340AA802F0B0F80B
:103F4000C0B202AB0D282344F0D11E2CF4D108F0EE
:103F5000DFFA05EB89023D4902A80DF0E5FA494672
:103F6000384808F075FF0121394808F04DFA55F836
:103F700029000BF05FFC022409F1010902460B46FF
:103F8000009430480FFA89F908F06AFFB9F13C0F44
:103F900004D00AA802F066F80028C5D10AA8B046E5
:103FA00002F008F90AA802F0F1F840461AB0BDE89C
:103FB000F0870B21274808F027FA53460A222946A2
:103FC000204808F005FF1F4808F0F2FE1323194AA5
:103FD000194912A802F052FA149A9DF854309DF82B
:103FE0004C100C928DF834308DF82C1015AA0DF170
:103FF000350312F8011F03F8011BB342F9D1199BD5
:10400000119312A802F0C2F829460AA802F0C0F8DB
:10401000022211490AA802F031F80AA802F0CAF8EF
:1040200056E714210D4808F0EFF9064808F0C0FEE5
:10403000B8E700BF7C7F01003C220020B07F010078
:10404000BC7F0100B0F9FF1F00F0FF1FC87F010017
:10405000247F0100887F0100947F0100987F010088
:104060002DE9F04F3A4A3B4B3B48127841F2B351AD
:1040700089B083E80300002A40F08182374F384E30
:10408000384CFDF713F842F2107007F07BF84FF44C
:10409000FA7006F067FF344B717B3069039301259A
:1040A00000231A46029300930495019503F074FFD0
:1040B000336942F21072C3F86822204606F0BCFA57
:1040C00084F82950FDF7B6FA0A222849204608F05C
:1040D0005BFE204608F06CFE204606F02FF9072113
:1040E000234801F051FF0E21214801F07DFF0A21F4
:1040F000204802F025F9002844D11C211E4808F070
:1041000083F91E4808F054FEFDF794FA08221C4972
:10411000144808F039FE134808F04AFE114806F02A
:104120000DF90324642006F01DFF0121112006F083
:10413000DDFE642006F016FF0021112006F0D6FEF9
:10414000013CEFD14FF4C87006F00CFFDCE700BF74
:10415000F40E00206C0E00205AED3301C80C002034
:10416000BC240020D00C0020801A0600CC7F010067
:1041700078F1FF1F3C220020D87F0100B0F9FF1F1B
:10418000F87F0100B54EFFF731FEFEF7F5FBFFF7B4
:10419000A1FAFCF765FE3378002B40F0E0810121A5
:1041A000062006F0B7FE0021062006F09FFE002143
:1041B000062006F0AFFE4FF4FA7006F0D3FE0A2197
:1041C000A74808F021F9A74808F0F2FD01211120C5
:1041D00006F08CFE0121152006F088FE3378002BB6
:1041E00000F02081A048A14E05F058FA0120FFF709
:1041F00041F8FCF7ABFC06F061FE9D4B30601B689C
:10420000022B07D19B4B9C4A1B68C3EB031300EBAB
:1042100083031360994A9A4B11681A68994D4FF4B9
:10422000616303FB02F3C1EB011103EB810213187D
:104230002B6042B9944B1B6800F13C0292FBF3F2F5
:1042400003FB02332B60DFF89482904AD8F8000019
:1042500012688F490344012A0B6003D1FDF75CFD0E
:10426000D8F800008B4B07930BF03AFF8A49DFF830
:1042700070920968DFF86CB2DFF86CA20BF084FF73
:104280004FF06E510BF080FF0CF044F9079B83490F
:1042900018600868D9F8003081491B1A23EAE373D3
:1042A00081FB03211944D817C0EBE12007930BF0E1
:1042B000AFFA09F041FF0BF0C1FD079B7949CBF83C
:1042C000000001FB00337849079381FB0321194467
:1042D000D817C0EB61100BF09BFA09F02DFF0BF023
:1042E000ADFD079B0246A0EB00117048CAF8002004
:1042F00003EB8103036010216D4808F085F8DBF8BB
:104300000010584808F0A4FDDAF80010554808F0ED
:104310009FFD664B5348196808F09AFD514808F014
:1043200047FD0821634808F06FF8D8F800104D48A1
:1043300008F08EFD4B4808F03BFD08215E4808F070
:1043400063F8D9F80010474808F082FD454808F0A6
:104350002FFD0E21594808F057F83068FDF796FCFC
:104360000C21574808F050F82868FDF78FFC2B689F
:1043700032685448C2EB0309152108F045F8494654
:10438000384808F065FD374808F012FD4FF00A087C
:10439000FDF750F906F092FD0C224B4930604B4876
:1043A00008F0F2FC494808F003FD29680E20FDF7EB
:1043B00079F931681920FDF775F9444805F0BEFF19
:1043C0004FF47A7006F0CEFDB8F10108E0D1B9F1F2
:1043D0003C0F00F38B803D48012506F02DF9642148
:1043E0003B4884F8295008F013F9FEF7ABFD294645
:1043F000152006F07BFD3B680BB1FCF72BFF354920
:10440000354B00204FF0FF3208601A6009B0BDE85C
:10441000F08F0A2006F0A6FD142006F06DFD00289E
:104420003FF4E0AE062006F067FD012100283FF4CE
:10443000D9AE062006F06EFD0021062006F056FDDE
:104440000021062006F066FD4FF4FA7006F08AFDA2
:10445000142006F051FD0028E4D1DAE7C81C002042
:10446000CC7F0100B0F9FF1F590700006C04002049
:10447000600E0020780400205C040020280D00203D
:10448000BC1C0020C40E002034F1FF1F8C0F002044
:10449000880F0020CC1C00205CF1FF1F18F1FF1FCB
:1044A000C5B3A291F0F1FFFF89888888B81C00206D
:1044B000188001002C800100388001004480010038
:1044C00054800100648001007C800100D00C002039
:1044D0000082FF1F40150020D40F002070F1FF1F45
:1044E0007C1C002060040020B00B002041461520F9
:1044F00006F0FCFCFEF7B2FC4146102006F0F6FC8C
:104500004046FEF7B7FE424640463F21FEF7EAFD31
:10451000AE21224805F078FD0121112006F0E6FCCD
:104520000022114614231E4804F08AFE0A2006F0D9
:1045300019FD0021112006F0D9FC1A4804F066FC90
:1045400006F0BCFC2B6830601B1A3C2BE0DC012021
:10455000FEF790FEFEF7EEFDFEF78CFC3BE7122126
:10456000114807F051FF032506F0A8FCFDF78EFB6C
:104570004FF47A7006F0F6FC013DF5D10FE60B4ED4
:104580000B4D0C4C0C480D490D4F0022012332708D
:104590002A70227003700B703B6070E5D00C002015
:1045A000840E0020000D00200480010028F1FF1F70
:1045B0000CF1FF1F30F1FF1F20F1FF1FFC0C00204A
:1045C000C80C00202DE9F04FCDB006F077FCDFF8E5
:1045D000E4A29E4CCAF8000004F074FF2368DFF8E0
:1045E000D8B2984200F02E819BF8003033B10A21F6
:1045F000974807F009FF974808F0DAFBDAF800005F
:10460000954D964E04F05EFF2060DAF8000004F04D
:1046100067FF93492368024692480CF05FFF914977
:1046200091482E6001F09EFFDFF87482DAF80000F6
:1046300098F80030002B40F0E98004F035FF044684
:10464000DAF8000004F006FF8146DAF8000004F012
:104650000FFF0746DAF8000004F018FFCDF80090CD
:104660000290019723467F4A804981480CF036FF2B
:104670002E60FCF765FD162342907E4A7A4944A8D5
:1046800001F0FCFE44A801F0A3FD002840F04981A0
:104690009BF80030002B40F0B181774B774A784986
:1046A00043911A604CAF44A801F070FD3223704A68
:1046B0006D49744D44A801F0E1FE17F8141D9DF8F2
:1046C0001421469B2A71AB6029733A4605F10D030C
:1046D00005F11A0412F8011F03F8011BA3426949EE
:1046E000F8D14B9BCB6144A801F050FD9BF8003002
:1046F0005BB35F480CF0C4FF01465D4807F084FEE1
:10470000544808F055FB0A215F4807F07DFE5F4BD7
:1047100018680BF08FF8022602460B4600964D48AB
:1047200008F09EFB4B4808F043FB42980BF082F8E0
:10473000009602460B46474808F092FB0121544878
:1047400007F062FE434808F033FB4E48514EDFF855
:10475000349101F03DFD002835D1326898F80030E1
:1047600001323260002B4CD14B4941480CF0B6FE6F
:1047700032233F4A3C4944A801F080FE9DF81C21A9
:104780009DF814014699454B2A732871A9603A4651
:1047900012F8011F03F8011BA342F9D14B9BC9F882
:1047A0001C3044A801F0F2FC31480CF069FF0146CE
:1047B0002F4807F029FE274808F0FAFA314801F09F
:1047C00007FD0028C9D098F80040354D002C75D061
:1047D000439B429A5A61012C294D00F018819BF8A5
:1047E00000305BB109212F4807F00EFE2E4B19480F
:1047F000196808F02DFB174808F0DAFA4DB0BDE84B
:10480000F08F2A491A480CF069FEB1E704F04CFE1B
:104810000446DAF8000004F01DFE8146DAF80000D4
:1048200004F026FE0746DAF8000004F02FFECDF86B
:1048300000900290019723460A4A1D490C480CF04B
:104840004DFE15E7044D054EEEE600BFD40F0020E7
:104850008C800100B0F9FF1F982200205D07000046
:1048600098800100B40C00203C220020A4800100AC
:1048700030040020047E01000CED00E00400FA0585
:104880006C0E0020981C002030810100C41C002008
:104890003C810100BC0F002040810100A51C0020CC
:1048A00030F1FF1F9C810100CC1C00204C810100D5
:1048B000BC8001006C040020C81C0020AC49AD4C39
:1048C000AD4AAE4BAE4E03C9206092E80300A06033
:1048D00093E803003768E06001231026A382E38297
:1048E000266138460BF03CFE3946A06138460BF095
:1048F00043FB0BF035FEA34AA34BE06192E80300B3
:104900001B6860625B0202206684208403F1240637
:1049100021462C229D48A362666001F0AFFB2C78F3
:1049200056E79B489B4C0CF0ABFE9949024644A8C5
:1049300001F0A4FB2C2144A801F088FB04F1080538
:1049400014F8011F00230A2244A808F041FAA542E6
:10495000F6D12C2144A801F079FB8F4B8F4A1868BF
:10496000439215460AF066FF022402460B46009465
:1049700044A808F075FA2C2144A801F067FB42987E
:104980000AF058FF009402460B4644A808F068FA63
:104990002C2144A801F05AFB814B44A8196808F067
:1049A00057FA2C2144A801F051FB296800230A2260
:1049B00044A808F00DFA44A808F0FAF9794A7A4BAD
:1049C000106819680BF09CFD4FF00105E8B17749BC
:1049D00042980BF077FD4FF00103A0B1744C2B43CC
:1049E0002268DBB213427DD1724942980BF06AFD16
:1049F00000285FD144A801F0DDFB53E60E216E488C
:104A000007F002FD49E60346E8E70546DFE7DAF886
:104A1000000004F03BFD2872DAF8000004F028FDE5
:104A20006872DAF8000004F015FDA872DAF80000E8
:104A300004F03AFDE872DAF8000004F043FD287350
:104A4000DAF8000004F04CFD0026288229461822DE
:104A50004E486E8201F012FB494B58491B68409347
:104A6000FC22022568463F9505F008FE4FF480734E
:104A7000324630465249FDF73FFF524B1B78002B20
:104A800040F0C280504B1B78002B5BD14F4B1B7802
:104A9000002B40D1002500234D494093FC2268465D
:104AA0003F9505F0EBFD2B462A4620464949FDF788
:104AB00023FF94E62822484944A801F0DFFA44A8DD
:104AC00008F076F944A801F075FB03E047F2305096
:104AD00006F048FAFCF734FB36490BF0F3FC0028EB
:104AE000F4D187E7FCF708FCFCF72CFC9BF80030BE
:104AF0000022226033B10F21384807F085FC384886
:104B000008F056F90E22374944A801F0B7FA44A834
:104B100008F04EF968E7344B344A1B681268344990
:104B2000409203EBD3735D10FC22022368463F934F
:104B300005F0A4FD20462B4600222E49FDF7DCFEA1
:104B40000134A7E72C4A2D4B15781B682C4940935C
:104B5000FC2202236D0868463F9305F08FFD204636
:104B60002B4600222749FDF7C7FE01348EE700BF20
:104B700058810100500F0020608101006881010010
:104B80005CF1FF1F70810100CC1C0020981C0020EC
:104B900030040020831C00204C0400206C0E0020F8
:104BA000900F0020C41C00201CF1FF1FD7A37040F1
:104BB000C80C00200000404020810100D81C0020CB
:104BC00078810100680400200CF1FF1F28F1FF1F0D
:104BD000C820002098810100F4800100D4800100E9
:104BE000B0F9FF1FE480010060F1FF1F4CF1FF1FCF
:104BF000CC1F00209081010040F1FF1F44F1FF1FF6
:104C0000D01E002088810100094A0A4B17781B68D2
:104C1000409309490523FC2268463F9305F02EFD89
:104C20003B463246204605492C46FDF765FE29E7FE
:104C300068F1FF1F44F1FF1FD41D00208081010097
:104C400010B50E211D4807F0DFFB1D4808F0B0F835
:104C5000FFF7B8FC1B4B1B78A3B11B4A1B4B126818
:104C600093FBF2F2002A03DB194B511E99421CD927
:104C7000184B1968FF221A7121B1174B17480B44C2
:104C80001B111A54164C174B204600221A6001F0D3
:104C900045F801230B21144884F8F63007F0B4FBE3
:104CA0000748BDE8104008F083B802EB4202120149
:104CB000013A0E49074807F0D3FFD9E7A881010060
:104CC000B0F9FF1F30F1FF1F54F1FF1F40420F00EA
:104CD000575555057C0F0020008FFCBF44E400E0D1
:104CE000BC0B002054040020B8810100AD3400004A
:104CF0002DE9F84FA54E3378002B00F0CC80A44D61
:104D0000DFF8A48206F0DAF8A24BC8F800001B68AE
:104D1000834203DCA04B1B68002B27DC2F6807BBFA
:104D20009E4B1B68002B68D19D4C9E4A23681178CE
:104D3000D8F800209C4F181F9042CCBF002101F0F2
:104D4000010141B199490968012904D198490968CB
:104D5000002940F013819A425CDA642006F002F9DF
:104D60002F68012F00F0A680BDE8F88F01210520F3
:104D700006F0BCF80121082006F0B8F80021112047
:104D800006F0B4F88B4B01221A60FCF7D9F98A4976
:104D90000BF098FB0028C1D02B68012B00F04A8350
:104DA000834B1B68002B40F03F83844801F002FADC
:104DB000FEF754F80021152006F098F80021102085
:104DC00006F094F80023194602227D4804F038FAD0
:104DD0007C4804F01BF80A240121112006F086F813
:104DE000C82006F0BFF80021112006F07FF86420EB
:104DF00006F0B8F8013CE5D0EEE7FCF71BFCFCF749
:104E0000A3FCD8F800101920FCF74CFC6E4805F004
:104E100095FA89E70D216D486D4F07F0F5FA6D4859
:104E200007F0C6FFFCF706FC674805F087FA3B6809
:104E3000002B00F0F182684B684A694920681B68C2
:104E400012680968674F03441A44012922603B60D5
:104E500000F0DF820E21644807F0D6FA06F02EF843
:104E6000FCF714FF0B21614807F0CEFA3868FCF715
:104E70000DFF0B215E4807F0C7FA2068FCF706FF1C
:104E8000FDF734FFAE21504805F0BEF801232B603A
:104E9000FFF7D6FE61E7062006F02EF83C4D00280D
:104EA0003FF42EAF2B68012B00F0B082514B524AD9
:104EB0001A6025E7FDF7D8FC142006F01DF800283D
:104EC00000F053824D4C2378012B00F02782237889
:104ED000022B00F0C5814A4C2378012B00F0A781FA
:104EE0002378022B00F08881464C2378012B00F0B8
:104EF0006B812378022B00F04E81434B1B68002B03
:104F000001DDFDF7BDF8414C414B22681B689A4218
:104F1000FFF62AAF304B3F4F18680BF0E1F83E49DF
:104F20000BF0E6F939680BF027F84FF07E51386046
:104F30000BF0E6FA10B1394B00221A70274B1B68B0
:104F4000002B71D1337883B135492248FBF73EFC01
:104F5000344B20481988FBF747FC23491D48FBF7D1
:104F600035FCD8F80000FCF791FE144801F022F956
:104F7000FFF728FB00232360BDE8F88FFCF792F9C8
:104F80003A6823689A42FFF6E8AE43E7C81C00205F
:104F9000401500205C040020600E00202CF1FF1F53
:104FA000C40E0020D80F00206C04002064F1FF1F05
:104FB000C80C0020900F002066666640981C0020F8
:104FC000840E0020000D0020D00C0020C4810100C0
:104FD000CC0C0020B0F9FF1F70F1FF1F7C1C0020DB
:104FE0008C0F0020880F002044800100D481010034
:104FF000E08101000CED00E00400FA05D40E002071
:10500000580E0020961C00208C1C00205404002008
:10501000CC1C0020C41C002000006145F8F0FF1FDC
:10502000E07B0100DC2600209E4FFBF74FFD3B6834
:1050300023B1FCF761F9642005F094FF9A4BDFF887
:10504000CC821C68DFF8C892DFF8C8B205F036FFE2
:10505000964A974B1268201A841A24EAE47483FB58
:1050600004232344E017C0EBE3200AF0D1FB09F04E
:1050700063F80AF0E3FE8F4A8F4BC8F8000002FB8A
:10508000004483FB042323448246E017C0EB6310F3
:105090000AF0BEFB09F050F80AF0D0FE03011A1A1C
:1050A000C31A04EB830492004FF4616303FB0A2AE2
:1050B000C9F800405444092CCBF800000DDC7F4BAC
:1050C0001B6833B17E4C204605F0B6FA012384F804
:1050D000293000232B60BDE8F88F7A4C0021152081
:1050E00005F004FF237813B10020FEF7C3F8DFF8C2
:1050F00028A29AF8003023B1002210463F21FDF784
:10510000F1FFFDF7ABFE3B680BB1FCF71BF9337801
:10511000B3B105F0D3FEFCF7B9FD6B496B48FBF763
:1051200055FBD8F80010694807F092FEDBF8001034
:10513000664807F08DFED9F800106448FBF754FB71
:10514000642005F00FFF99F800309BF8002098F8D4
:1051500000105F4804F074F85E4803F057FE33789F
:105160001BB105F0ABFEFCF791FD0121152005F008
:10517000BDFEFDF77FFE3B680BB1FCF76BF89AF8BC
:1051800000300BB1FDF7D6FF2378002B97D001201C
:10519000FEF770F893E710224F49504800F06EFF79
:1051A000013002D14E4B4F4A1A604F4B4F491A788B
:1051B0004A48114400F062FF013002D1484B494A8D
:1051C0001A600023237098E610224349434800F0F8
:1051D00055FF013002D1424B424A1A60424B4349CB
:1051E0001A783E4800F04AFF013002D13C4B3D4A5C
:1051F0001A60002323707CE610223D49374800F0F6
:105200003DFF013002D1364B364A1A60394B3A49DC
:105210001B7832489A0001EB830100F02FFF013028
:1052200002D12F4B2F4A1A60002323705CE6102214
:105230002F492A4800F022FF013002D1284B294A89
:105240001A602C4B2C491A782448920000F016FF63
:10525000013002D1224B234A1A60002323703FE61B
:10526000102226491D4800F009FF013002D11C4BD5
:105270001C4A1A60224B23491A681848114400F04E
:10528000FDFE013002D1164B164A1A6000211E4B5A
:1052900021701B78002B3FF41EAE112005F026FE76
:1052A00019E600BFC80C0020C40E002018F1FF1F33
:1052B000C5B3A291F0F1FFFF898888882CF1FF1F08
:1052C000D00C002028F1FF1F18800100B0F9FF1F4B
:1052D000840E0020000D0020180F0020981C0020D4
:1052E0000CED00E00400FA0540F1FF1FDC0D00208A
:1052F000080F002068F1FF1F3C0D0020280F002040
:1053000060F1FF1F8404002000F1FF1F60040020F3
:10531000B81C0020B00B00200CF1FF1F10224749E1
:10532000474800F0ABFE013002D1464B464A1A60B6
:10533000464B47491A68424800F0A0FE013002D1AE
:10534000404B414A1A600021424B434A21701B786E
:105350001278DBB2002A3FF4BAAD002B3FF4B7ADB0
:105360000121112005F0C2FDB1E50A2005F0FAFD8A
:10537000142005F0C1FD00287FF4A4ADDFF8EC9007
:10538000FBF7A4FB3946112005F0B0FDD9F8003039
:10539000EBB1324C204605F04FF94FF47A7084F8A7
:1053A000297005F0DFFDFCF745F907222C4920465E
:1053B00007F0EAFC204607F0FBFC204607F0F8FC6B
:1053C00020462849FBF702FA204604F0B7FF4EF2C8
:1053D000902005F0C7FDD9F8003083B1FCF72AF919
:1053E00021491E48FBF7F2F91C4804F0A7FF4FF4CF
:1053F000FA6005F0B7FDAE21184804F005FEFFF78E
:10540000E1F80021112005F071FD5BE5FBF75EFB83
:105410004CE5FCF781FC1DE50A210E20FDF7F4FCAC
:105420004FF0FF333B6006E5FBF766FF642005F0B5
:1054300099FDBAE4FBF74AFBB2E400BF280F002055
:10544000981C00200CED00E00400FA0560F1FF1F3D
:105450008404002000F1FF1FF8F0FF1FD00C002093
:10546000EC810100F4810100088201002CF1FF1F92
:10547000F8B50021054607F093F9002855D0D5F876
:105480001C710646002F4ED005F58E743B1D22463A
:1054900005F5907107F5827733F8020B42F8040F97
:1054A0009F42F9D1331D05F5477206F5827733F82F
:1054B000020B42F8040FBB42F9D1D5F8180180B1B4
:1054C00005F5927200F5007E32F9043C30F9027B5A
:1054D00003FB07F3DB13864522F8043C02F10402C8
:1054E000F2D105F5E56008F041FB95F82177EFB9B9
:1054F00005F21C5C95F82027E64605F21C7154F86D
:10550000043F23FB03F3B3FBF2F34EF8043F714572
:10551000F5D17B1CDBB2934220D085F82137D5F83A
:105520001C0107F0F9F8C5F81C61F8BD05F21C5C18
:1055300095F82027E64605F21C7154F8043F23FB3A
:1055400003F35EF8040FB3FBF2F371450344CEF8A6
:105550000030F2D17B1CDBB29342DED10023DFF8B6
:105560003CE085F82137604605F1160750F8044FF6
:10557000B4FA84F381423EF81320B4FBF2F31A44E8
:105580004FEA5203B4FBF3F423444FEA530327F8E2
:10559000023FEBD1012385F82237C0E75484010094
:1055A000002070470020704770B5194C064682B045
:1055B0000D462046317A02F0D5FDC5F3072120467D
:1055C00002F0DCFAE9B2204602F0D8FA0023627B4E
:1055D00021690093204603F051F810B1002002B079
:1055E00070BD2569327A617B0190012300932846C2
:1055F000022303F06BF80128F0D9206903F080F84A
:105600000502206903F07CF8284302B070BD00BF9A
:10561000BC24002070B5154C242908BFC28082B07C
:105620000D46017A2046164602F09CFDC5F307217F
:10563000204602F0A3FAE9B2204602F09FFAC6F330
:105640000721204602F09AFAF1B2204602F096FABB
:1056500000230093627B21692046012303F00EF8AA
:10566000B0FA80F0400902B070BD00BFBC24002039
:105670002DE9F0413E4B012606715F7BD3F8108087
:1056800086B00446384602F073FB0025394B019082
:1056900039462A464046039304962B4602950095C8
:1056A00002F07AFC052005F05DFC204644F2600221
:1056B0003021FFF7AFFF20466C222621FFF7AAFF1B
:1056C00020464FF4F9722821FFF7A4FF204640F648
:1056D00022722C21FFF79EFF204644F246423C21D5
:1056E000FFF798FF204640F237122421FFF792FF80
:1056F000204644F2FF023021FFF78CFF7322022183
:105700002046FFF787FF4FF4C87005F02BFC2046BA
:1057100041F61D522E21FFF77DFF0422114620463F
:10572000FFF778FF20464FF498720621FFF772FFCB
:10573000204610220A21FFF76DFF2A4620460E213F
:10574000FFF768FF204643F63C421021FFF762FF57
:10575000204647F67F722221FFF75CFF2046362263
:105760002421FFF757FF3046667206B0BDE8F0818E
:10577000BC240020A0860100F8B51C46154606464C
:105780000F46FFF711FF20EA040040EA05043946FE
:1057900030462246FFF73EFF002814BF2046002077
:1057A000F8BD00BF08B5002201234FF49271FFF746
:1057B000E3FF80B208BD00BF0F2928BF0F210F2AC9
:1057C00028BF0F2242EA01122021FFF723BF00BFAA
:1057D00010B510220A210446FFF71CFF30B1204605
:1057E00000224FF48071FFF715FF80B210BD00BF9B
:1057F00010B5044619B1012911D0002010BD552261
:105800002021FFF707FF0028F7D0E28842F00402CA
:10581000204692B22421BDE81040FFF7FBBE40F2C3
:1058200073122A21FFF7F6FE0028E6D088222021F5
:105830002046FFF7EFFE0028DFD0E288204622F066
:1058400004022421BDE81040FFF7E4BE38B5054648
:10585000F1B1802903799ABFC1F1800444EA04249C
:10586000002433B9224628462221BDE83840FFF7FC
:10587000D1BEC288002322F0100203712421FFF759
:10588000C9FE224628462221BDE83840FFF7C2BEA5
:105890000123037147F67F722221FFF7BBFEEA88DE
:1058A00042F01002284692B22421BDE83840FFF7AA
:1058B000B1BE00BF0B4610B50749044618460AF0B2
:1058C00063FC06490AF058FB0AF04AFE01462046EE
:1058D000BDE81040FFF7BABF00000143EE7CFF3E79
:1058E00010B5044607F03EF8204610BD024A0349B1
:1058F00003480AF0C9BF00BFFCEFFF1FE1580000DA
:10590000E82100201B4A1C4B11681C48096970B42F
:1059100099421279027009D2194A127832B3194A9F
:105920004FF08041116003F5807402E01C46A3F53E
:105930008073154A154912680D68AAB1A5B1144EB5
:105940003088402810D841000A44403029440232AF
:105950000231308033F9040B22F8020F9C4233F9F4
:10596000020C21F8020FF5D870BC704703F5807463
:10597000DFE700BFF821002090E8FF1F1F800040F4
:10598000F221002008E200E000220020F4210020A3
:10599000F0210020F8B5064606F06AFE0446E8B19C
:1059A00006F066FE054600283AD072B61F4B1A88EC
:1059B0007F2A19D8002C31D01D490A6842B162B63D
:1059C000204606F0A9FE2846BDE8F84006F0A4BE31
:1059D00018480C601A80056062B6F8BD054672B6BC
:1059E000124B1A887F2AE5D9114A124917681460A8
:1059F00000220C681A800D6062B63946304606F007
:105A0000B5FE384606F088FE30462146012206F0F3
:105A1000ADFE2046BDE8F84006F07EBE62B6F8BD99
:105A2000204606F079FE2C46BFE700BFF02100209B
:105A300000220020F4210020F8B5284C284E2046F2
:105A4000012106F02BFF00F083F8264B264A274859
:105A50004FF480611960236800211A6099802279CF
:105A6000186102F1804202F5043240F20110D88040
:105A70009E614FF48075022006278E26DD82D96054
:105A8000DD8398609F8398821170167006F0ACFEDB
:105A90001749184B2279184F08701A703968227903
:105AA000164C174D174E41F0124141F001015311B0
:105AB00039609B00206803F1604302F1100703F591
:105AC000614302F01F02012140F0104001FA02F28E
:105AD000206045F827601A60F8BD00BFF82100205B
