:1000000000800020BD010000D5EC00008DEC000058
:100010008DEC00008DEC00008DEC00008DEC0000FC
:100020008DEC00008DEC00008DEC0000D5EC0000A4
:10003000D5EC00008DEC0000CD0F01001D12010079
:10004000D5EC0000D5EC0000D5EC0000D5EC0000AC
:10005000D5EC0000D5EC0000D5EC0000D5EC00009C
:10006000D5EC0000D5EC0000D5EC0000D5EC00008C
:10007000D5EC0000D5EC0000D5EC0000D5EC00007C
:10008000D5EC0000D5EC0000D5EC0000D5EC00006C
:10009000D5EC0000D5EC0000D5EC0000D5EC00005C
:1000A00075A5000025AB0000D5EC0000D5EC0000E4
:1000B000D5EC0000D5EC0000D5EC0000D5EC00003C
:1000C000D5EC0000D5EC0000D5EC0000D5EC00002C
:1000D000D5EC0000D5EC0000D5EC0000D5EC00001C
:1000E000D5EC0000D5EC0000D5EC0000D5EC00000C
:1000F000D5EC000005F90000D5EC0000BD1A0100A8
:10010000D5EC0000E91B0100D5EC0000D5EC0000A7
:10011000D5EC0000D5EC0000D5EC0000D5EC0000DB
:10012000D5EC0000D5EC0000D5EC0000D5EC0000CB
:10013000D5EC0000D5EC0000D5EC000075E6000021
:10014000D5EC0000D5EC0000D5EC0000D5EC0000AB
:10015000FD130100111401002514010039140100E0
:10016000D5EC0000C5FB0000D5EC0000D5EC00008C
:10017000D5EC0000D5EC0000D5EC0000D5EC00007B
:10018000D5EC0000D5EC0000D5EC0000D5EC00006B
:10019000D5EC0000D5EC0000D5EC0000D5EC00005B
:1001A000D5EC0000D5EC0000D5EC0000D5EC00004B
:1001B000D5EC0000D5EC0000590D0100564B4CF277
:1001C000205210B51A804DF628121A8000BF00BFC9
:1001D00000F014FB514B4FF010621A60504A9A60C5
:1001E000504ADA60504A136813F4807304D14F49BF
:1001F0000B604FF4A85313604D4B1A78110703D5C9
:100200001A7842F008021A704A4B4B492A221A7097
:100210004A4A4B4B8B4204D252F8040F43F8040B6A
:10022000F8E7484B484900228B4202D243F8042B9E
:10023000FAE74649464A002352F8230041F82300D2
:1002400001336F2BF8D1434B434A802103F8011B44
:100250009342FBD1414B3D4A1A60414B8A221A70AE
:10026000A3F5805324225A70A0221A709A7992071B
:10027000FCD59A79D406FCD43A4A937903F00C035E
:10028000082B384BF9D105221A7143225A719A79F9
:100290009006FCD5334A9179324B4906FBD5324A58
:1002A0004FF0817111600521516020221A709A79F6
:1002B00002F00C020C2AFAD12C4B2D4A1A602D4B5D
:1002C0002D4A1A6000225A60072243F8042C2B4A58
:1002D000C3F80C2D62B60EF01FFE144B1B68DA0734
:1002E00005D527480EF006FE264B274A1A60274BF5
:1002F0001B785B0609D5234C234B22689A4204D114
:100300001F480EF0F7FD0023236014F0AFFF0EF03E
:10031000E5FC11F02DFBFEE70E2005403080044087
:10032000823F04000100002B10D0034014D0034092
:1003300002D0074000E007401004002068D8020007
:1003400020EFFF1F100400208028002000EAFF1F7C
:100350000000000000E400E05FE400E008ED00E0E1
:1003600000500640004006404480044004800440A1
:10037000C010050014E000E03F190100000020203B
:100380000341505C1CE00340A5C3945A00F00740B1
:10039000FFFFFFFFFFFFFFFFFFFFFFFFFFFFFFFF6D
:1003A000FFFFFFFFFFFFFFFFFFFFFFFFFFFFFFFF5D
:1003B000FFFFFFFFFFFFFFFFFFFFFFFFFFFFFFFF4D
:1003C000FFFFFFFFFFFFFFFFFFFFFFFFFFFFFFFF3D
:1003D000FFFFFFFFFFFFFFFFFFFFFFFFFFFFFFFF2D
:1003E000FFFFFFFFFFFFFFFFFFFFFFFFFFFFFFFF1D
:1003F000FFFFFFFFFFFFFFFFFFFFFFFFFFFFFFFF0D
:10040000FFFFFFFFFFFFFFFFFFFFFFFFDEF9FFFF23
:1004100010B5054C237833B9044B13B10448AFF33E
:1004200000800123237010BD100400200000000094
:1004300064D80200084B10B51BB108490848AFF357
:1004400000800848036803B910BD074B002BFBD0A0
:10045000BDE81040184700BF000000001404002051
:1004600064D8020010040020000000000020704743
:10047000704700BFF8B55548554D564C297803785C
:100480002278DFF868E1544F544E120442EA032305
:10049000FF222A700270802022708EF800003870CF
:1004A000B2794F480B4312F00C0FC36002D1B379FD
:1004B000DC063DD4494A9379C3F38103032B40D032
:1004C000464B9A79C2F38102022A42D0434A937979
:1004D000C3F38103022B53D0404A9379C3F38103C2
:1004E000022B61D03D4A9379C3F38103012B51D094
:1004F0003A4A9379C3F38103012B5CD0374B9A7945
:1005000012F00C0F03D19A79D20600D49B79354DA5
:10051000354B2A7853F82240D4B1236820469B6893
:1005200098472B7804EB83046468002CF5D1F8BD60
:10053000B3799806EBD5294A9379C3F38103032B4A
:10054000BED19379D906BBD493799B06DFD4B7E7A4
:10055000F8BD9A79D706B9D49A799606B6D559785E
:1005600001F0020101F0FF020029AFD120211A7031
:100570001A461970937903F00C030C2BFAD1C6E7D5
:100580009379DD06A8D493799C06A5D4537898076F
:10059000BDD5A1E79379DF06AAD593799E06A7D4A6
:1005A00053789D07B3D4A3E79379D9069AD45378A7
:1005B0009B07ACD496E79379DC069FD59379980690
:1005C0009CD453789907A2D598E700BF06C007408E
:1005D00005C0074007C0074009C00740004006406B
:1005E0005828002010250020D024002008C00740F3
:1005F00090F92410104B03604B1C06D0F0B40F4E42
:1006000056F82130984201D0F0BC70470C4F57F893
:10061000213033B18D0000245A1953685460002BE7
:10062000FAD1084C23780022013B237047F821209F
:1006300046F82120E8E700BF4CC50100F024002067
:10064000D02400201125002038B590F924506B1CCF
:100650001BD00E4B0E4953F825400E4BEDB24FF018
:10066000FF320D701A6084B1AD0002E02C44646862
:100670005CB194F82530002BF8D0236820462C4438
:100680001B6898476468002CF3D138BDD024002043
:100690001025002090E9FF1F704700BF90F924103B
:1006A000104B03604B1C06D0F0B40F4E56F82130AF
:1006B000984201D0F0BC70470C4F57F8213033B14D
:1006C0008D0000245A1953685460002BFAD1084C4D
:1006D00023780022013B237047F8212046F821208F
:1006E000E8E700BF4CC50100F0240020D024002022
:1006F0001125002090F92410104B03604B1C06D0EC
:10070000F0B40F4E56F82130984201D0F0BC70473B
:100710000C4F57F8213033B18D0000245A1953681B
:100720005460002BFAD1084C23780022013B23703F
:1007300047F8212046F82120E8E700BF4CC501001A
:10074000F0240020D02400201125002010B50446FC
:1007500010F032FE204610BD0EF0C6BB2DE9F04170
:100760000E4680460EF0C0FB174D28600BF086FE4B
:10077000074628680BF05EFE044628680BF048FE2A
:100780006401C0B204F4FF54BFB20443A7F2BC77C3
:1007900044EA4724A8F8004028680BF05DFE0746AD
:1007A00028680BF011FE044628680BF01FFEFF02BC
:1007B000640107F4FF2704F4FF54C0F346003C43F0
:1007C00004433480BDE8F0816C04002010B5044679
:1007D00015F036FC21460246BDE81040014810F0F5
:1007E00035BE00BFD40C002010B5044615F028FC1F
:1007F00001462046BDE8104010F056B8404A414B33
:10080000102010801B781B072CD5F0B53E4E3F4DB5
:100810003F4C31782B7822783E4FDFF810E1824050
:1008200042EA03230B43FF22802132702A70227098
:100830008EF800103970DF07374A0CD51A23936001
:10084000364D374C3748384900232B70D36023701E
:1008500003700B70F0BD1E0705D4DD0606D504231A
:100860009360EDE7704721239360E9E79C0604D489
:10087000590604D516239360E2E79060E0E71F066F
:1008800002D509239360DBE7DE0502D50A239360D6
:10089000D6E79D0502D50D239360D1E75C0502D50F
:1008A0000B239360CCE7180502D51E239360C7E79E
:1008B000D90402D502239360C2E79F0402D507231F
:1008C0009360BDE75E0402D506239360B8E71D047C
:1008D00002D515239360B3E7DC0302D5242393608C
:1008E000AEE7980302D522239360A9E7D90202D587
:1008F00025239360A4E79B0244BF232393609FE7D3
:100900000020054002D0074005C0074006C0074050
:1009100007C0074009C007405828002000C0074012
:1009200001C0074002C0074003C0074008C007409D
:10093000002976D02DE9F04F0C469100631883B062
:100940005D68002D57D06B185E68002E50D073186C
:100950005F68002F49D07B18D3F80480B8F1000FEE
:100960003CD008EB0103D3F80490B9F1000F32D06A
:1009700009EB0103D3F804A0BAF1000F27D00AEB6A
:100980000103D3F804B0BBF1000F18D00BEB010347
:100990005B6863B1194401934968FFF7C9FF019B84
:1009A00093F825201AB11A681846536898479BF89F
:1009B000253023B1DBF8003058465B6898479AF839
:1009C000253023B1DAF8003050465B68984799F833
:1009D0002530002B35D198F8253063BB97F82530AA
:1009E0001BB13B6838465B68984796F82530CBB911
:1009F00095F8253063B994F8253013B903B0BDE8F4
:100A0000F08F23685B68204603B0BDE8F04F1847BD
:100A10002B6828465B68984794F82530002BEDD06A
:100A2000EFE77047336830465B68984795F82530A4
:100A3000002BE0D0ECE7D8F8003040465B689847E0
:100A4000CCE7D9F8003048465B689847C3E700BF59
:100A500090F92420531C26D01B4B2DE9F04153F86C
:100A60002240D2B2ECB19300E1184D68B5B1E9185B
:100A70004E6866B1F1184F6837B13B445968FFF7CB
:100A800057FF97F82530A3B996F8253063B995F844
:100A900025301BB12B6828465B68984794F82530B1
:100AA00063B9BDE8F0817047336830465B689847AA
:100AB000EDE73B6838465B689847E5E723682046E2
:100AC0005B68BDE8F0411847D024002038B50D21FF
:100AD000154C16480FF0E8FE154810F045FD258826
:100AE000144810210FF0E0FE2946114810F0C2FC16
:100AF0000F4810F039FD00230F4A1946112082F8E3
:100B0000F6300EF001FB0D4B0D4A1B781288228047
:100B100013B10C4810F050FC0B4807F0CFF86420DC
:100B2000BDE838400EF082BBDC26002090C50100F5
:100B3000B4F9FF1FA0C50100C00B002034F1FF1F56
:100B400004270020800F00209C1C00209B4B93E872
:100B5000030070B59A4C9B4D0123238184E8030068
:100B60000822994904F10C0015F028FB0822974946
:100B700004F1140015F022FB0822954904F11C0031
:100B800015F01CFB0822934904F1240015F016FB14
:100B90000822914904F16C0015F010FB08228E49DF
:100BA00004F1740015F00AFB08228B4904F17C0063
:100BB00015F004FB0822884904F1840015F0FEFAC0
:100BC000864A874B1068196813F0B6FE854BC4F847
:100BD000CC001B78C4F8D000012B0CBF824983499C
:100BE000C4F8D400C4F8D800082204F1FC0015F0C1
:100BF000E5FA7F4B93E8030004F5847383E8030070
:100C00000223A4F8043108227A4904F5887015F00B
:100C1000D5FA0822784904F5B47015F0CFFA774A6E
:100C20004FF07E5392E80300C4F8CC31C4F8C831C9
:100C3000734B04F5B87282E8030093E803000323C2
:100C400085E803000822A4F800326E4905F10C0083
:100C500015F0B4FA08226C4905F1140015F0AEFA4B
:100C600008226A4905F11C0015F0A8FA684B694989
:100C7000C4F8C41293E80300674A05F16C0686E8DD
:100C8000030005F17C0305F1740686E8030083E8A0
:100C9000030092E8030005F1FC0383E803005F4BC7
:100CA000C4F8C8325E4E5F49C4F8CC620923A4F888
:100CB000FC32082205F5847015F080FA08225A49A2
:100CC00005F5887015F07AFA0822584905F58C70F8
:100CD00015F074FA0822564905F5907015F06EFA71
:100CE0000822544905F5947015F068FA0822524913
:100CF00005F5987015F062FA0822504905F59C70C8
:100D000015F05CFA08224E4905F5A07015F056FA68
:100D100008224C4905F5A47015F050FA08224A49FA
:100D200005F5B47015F04AFA0822474905F5B87080
:100D300015F044FA0822444905F5BC7015F03EFA56
:100D4000424B93E8030005F5C07282E8030005F505
:100D5000C87305F5C47282E8030083E80300082223
:100D60003B4905F5CC7015F029FA0822384905F5FC
:100D7000D07015F023FA0822354905F5D47015F026
:100D80001DFA344B186813F08BFE4FF0605113F0CE
:100D9000DBFE314A314BC4F8C003C4F8C403C4F8C5
:100DA000C803C4F8CC23C4F8D023C4F8D423C4F8AF
:100DB000D833C4F8DC33C4F8E03370BDB4C50100E7
:100DC000D81C0020D01E0020C0C50100C8C50100ED
:100DD000D0C50100D8C50100E0C501004C040020C9
:100DE00058F1FF1F68040020E4C5010014C601008B
:100DF000ECC50100F8C5010000C6010008C60100ED
:100E00001CC6010028C601002CC6010034C6010022
:100E10003CC601000000A03994C6010000009039D2
:100E20000000F03948C6010050C6010058C6010054
:100E300060C6010068C6010070C6010078C60100E6
:100E400080C6010088C601009CC501009CC6010047
:100E500090C60100F0F0FF1F0000FA3C0000163EB3
:100E600010B5294C29482278114605F029FE23683F
:100E70000F2B0CD8DFE803F00C1014181C202428CA
:100E80002C3034383C404408214B224A1A6010BDB3
:100E90001F4B214A1A6010BD1D4B204A1A6010BD1D
:100EA0001B4B1F4A1A6010BD194B1E4A1A6010BD19
:100EB000174B1D4A1A6010BD154B1C4A1A6010BD15
:100EC000134B1B4A1A6010BD114B1A4A1A6010BD11
:100ED0000F4B194A1A6010BD0D4B184A1A6010BD0D
:100EE0000B4B174A1A6010BD094B164A1A6010BD09
:100EF000074B154A1A6010BD054B144A1A6010BD05
:100F0000034B134A1A6010BD3CF1FF1FC80F0020AD
:100F10004C040020BD549341103377C0993918C058
:100F2000BE0D68BFCE71153F8D090340CCC962402C
:100F300009A7A3407DDBD140C416014154FC1741F1
:100F4000D0E83041195546419FAB5F41A041764101
:100F50005E2E86412DE9F041244C254E94F800E0A8
:100F60006578A778E27894F804C06379A079E1798C
:100F700041EA002045EA0E2143EA0C2331801D4D51
:100F80001D491E4E42EA07225B422A800B8000B2B6
:100F900013F086FD227A637A94F80AC0E57A94F811
:100FA0000C80677B306043EA0223154A94F80EE018
:100FB0001380E17B47EA0820277C627CA67CE37CE7
:100FC00042EA072245EA0C240E4F0F4D40422C8086
:100FD00038800E4D0E4C0F48228041EA0E2143EA24
:100FE000062329800380BDE8F08100BFCC210020CA
:100FF000841C0020861C0020900B00206C0E00201A
:1010000080040020CA2100208204002072040020F5
:10101000700400207404002010B5114C21680129CF
:1010200015D0022903D00F4B01221A7010BD0121E7
:1010300004200EF069F84FF4FA600EF0F7F8002182
:1010400004200EF061F8074B01221A7010BD042035
:101050000EF05AF840F6B8300EF0E8F82168E0E7F4
:10106000CC0C0020DC0F0020124B10B51C68012CAA
:101070000FD0012104200EF047F84FF4FA700EF063
:10108000D5F8002104200EF03FF80B4B01221A7016
:1010900010BD002104200EF037F84FF47A700EF0E6
:1010A000C5F8214604200EF02FF8034B01221A70D8
:1010B00010BD00BFCC0C0020DC0F0020114B10B580
:1010C0001C68012C0CD0012104200EF01DF86420B6
:1010D0000EF0ACF800210420BDE810400EF014B86A
:1010E000002104200EF010F84FF4C8700EF09EF8A6
:1010F000214604200EF008F841F27070BDE810405F
:101100000EF094B8CC0C002008B5104B1B68012BD6
:101110000FD0012104200DF0F7FF40F6B8300EF09B
:1011200085F8002104200DF0EFFF094B00221A7012
:1011300008BD4FF47A700EF079F8002104200DF00C
:10114000E3FF034B00221A7008BD00BFCC0C002047
:10115000DC0F00202DE9F041454B464C59781F78B3
:10116000627898782378A678434D0902120241EA02
:10117000074142EA034308431E4313F08DFC3F4BF3
:101180000446188813F088FC4FF0874113F0DCFC0C
:101190000146204613F0CEFB394B0446188813F065
:1011A0007BFC214613F0D0FC4FF0505113F0CCFCE7
:1011B000344913F0C1FB344913F07AFD334B2860F6
:1011C0000746188813F068FC214613F0BDFC4FF069
:1011D0006E5113F0B9FC2E4B8046188813F05CFC5E
:1011E0004FF08E4113F0B0FC0146404613F0A4FBD3
:1011F0008046304613F050FC0146404613F0A4FCF4
:101200004FF0545113F0A0FC224B0646188813F0FF
:1012100043FC214613F098FC4FF0705113F094FCFE
:101220001D4B0446188813F037FC4FF08F4113F024
:101230008BFC0146204613F07FFB0146304613F03D
:1012400079FB4FF0645113F07FFC144913F030FD2B
:10125000134B144A18601868116813F06BFB12499D
:1012600013F026FD114B18602F60BDE8F08100BF20
:101270004C0F00203C0D0020D01C002084040020D6
:10128000FA0E00200000FA440000C842981C00201A
:10129000500F0020E4210020941C00200000204179
:1012A00064040020640E002006C1DE42D40E00203B
:1012B00030B5334B334D1A78697B286985B00123EB
:1012C00000248DE8180005230AF01CFC2B69D3F8D4
:1012D0003821D3F8341191420ED002AC18460AF0EE
:1012E000A9FC2B69D3F83811D3F8342120EAE07037
:1012F000914204F8010BF1D19DF80A209DF80900F4
:10130000214B42EA00201C6813F0CAFB4FF08D41CC
:1013100013F010FB1D4B05462146186813F00AFB1D
:101320000146284613F010FC4FF0605113F00CFCFE
:10133000214613F001FB164913F006FC154B196802
:10134000044613F0F7FA144913F0B2FC9DF80C3080
:10135000124A01469DF80B00116043EA002000117B
:10136000183813F09DFB0E4913F0EEFB0D4913F0F6
:10137000E1FA0D4A0D4B10601C6005B030BD00BF96
:1013800028F1FF1FBC240020C40C002070F1FF1FB7
:1013900000007A44640E002006C1DE42D40E002014
:1013A000CDCC4C3D00004842D01C002064040020FD
:1013B00070B58CB0044614F043FE00B2012829DD5C
:1013C000B4F9003044F65212934200F0D48124DC88
:1013D00044F25242934200F0D7813FDD44F2417221
:1013E000934200F0BF816EDD44F64412934200F058
:1013F0005C8144F65012934200F0F18044F2537243
:10140000934207D109AAE01CB04914F06DFDB04B1E
:10141000099A1A6001200CB070BD45F24B0293424C
:1014200000F0BB8134DD45F24432934200F041814B
:1014300040F3B88045F25042934200F02B8145F2D0
:101440004272934200F0F18045F24C329342E1D176
:10145000A049A14A01230B701370DBE744F24C4210
:10146000934200F07B8140DC44F25012934200F042
:10147000C98044F248329342CCD1E01C09AA934976
:10148000964C14F031FD099813F00AFB2060C1E777
:1014900044F64952934200F0518138DC44F642420E
:1014A000934200F0BA8044F642529342B2D109AA64
:1014B0008649E01C14F018FD894A0999894B11608E
:1014C00002221A60A6E744F25342934200F0A98038
:1014D00044F2506293429DD109AAE01C7B4914F06A
:1014E00003FD814B099A1A6094E744F24E429342FD
:1014F00000F0848044F2504293428BD109AAE01C50
:10150000724914F0F1FC794B099A1A6082E744F6AB
:10151000505293425AD044F6545293427FF47AAFD9
:1015200009AD08A907AA04AB0395029101920093A3
:1015300006AA05ABE01C6E4914F0D6FC0CA8099B6A
:1015400000F8083D069B059A0499079D089C8DF8B4
:101550002D2003F61E038DF82E308DF82C108DF8FB
:101560002A508DF829400AF09DFF0DF0C3FC11218F
:1015700060480FF099F90BF07FF801465E480FF0D4
:1015800079FF5D480FF0F0FF1B215C480FF08CF9EC
:101590000DF0AAFC014658480FF06CFF56480FF0BA
:1015A000E3FF37E745F24D02934221D045F2502246
:1015B00093427FF42FAFE01C09AA4449504C14F029
:1015C00093FC099813F06CFA206023E709AAE01C49
:1015D0003E4914F089FC4B4B099A1A601AE709AA94
:1015E000E01C3A4914F080FC474B099A1A6011E755
:1015F0004649394A01230B7013700BE7444B012213
:101600001A6007E7E01C09AA3049424C14F06CFC50
:10161000099813F045FA2060FCE63F4B01221A704E
:101620007EE73E4B01221A60F4E609AD08A907AA3D
:1016300004AB039502910192009306AA05ABE01C4E
:101640002B49374C14F050FC069B09980499059AD5
:10165000089E079D8DF828001E330AA88DF82E30AD
:101660008DF82C108DF82D208DF829608DF82A50DA
:101670000AF018FF1B4B206001220A2129481A603A
:101680000FF012F921681C480FF0F4FE1A480FF011
:101690006BFFBFE6E01C09AA0C49234C14F024FCA4
:1016A000099813F0FDF92060B4E6204B01221A706E
:1016B000B0E60AAB09AA1E49E01C14F015FC1D494E
:1016C0001D4B09980A9A08601A60A3E6A4C6010097
:1016D0003CF1FF1F0CF1FF1F34F1FF1F58F1FF1FFA
:1016E00078040020600E0020901C002004F1FF1FF1
:1016F000A8C60100BCC60100B4F9FF1FD0C6010096
:1017000050F1FF1FF4F0FF1F10F1FF1F68040020CD
:10171000D00C002008F1FF1F000D0020C421002084
:101720005C040020ECC6010024F1FF1F4CF1FF1FF8
:10173000B4C60100C01C00202C0D002009AA1A49C3
:10174000E01C14F0D1FB0998184C13F0A9F91849C2
:10175000184A206001230B7013705BE6164B0022C1
:101760001A7057E609AAE01C0F4914F0BDFB134B91
:10177000099A1A604EE609AAE01C0B4914F0B4FB62
:101780000F4B099A1A6045E609AAE01C064914F0B5
:10179000ABFB0C4B099A1A603CE60B49044B022048
:1017A000012208701A7035E6A4C6010054F1FF1F2B
:1017B00034F1FF1F2CF1FF1F00F1FF1FF0F0FF1F9E
:1017C000801C002074F1FF1F6804002038B52348F6
:1017D0000CF01CFC002128200DF0C8FC202428203F
:1017E0000DF08EF9013CFAD1012128200DF0BEFC4C
:1017F000214628200DF0BAFC0025202428200DF0D9
:101800007FF913F04DF90146284613F095F8013C95
:101810000546F3D1012128200DF0A8FC28461049E7
:101820000E4D13F091F94FF06A5113F08DF94FF00E
:10183000745113F089F9686228460CF01FFE28469F
:1018400001210BF009FE284601210BF0FFFD224685
:1018500021462846BDE838400BF0F4BDD40C0020EA
:101860008EC2DD4038B50C460546012132480BF0EA
:10187000EDFD2AB2002130480BF0E4FD20460AF0CD
:10188000FDFD01462C480FF0F5FD2D212A480BF0F7
:101890009FFD20460AF0CEFD014627480FF0EAFDE5
:1018A0002D2125480BF094FD20460AF0B1FD01469C
:1018B00021480FF0DFFD022220491F480FF0C6FD2E
:1018C00020460AF0C9FD092804DC01221C491A48F7
:1018D0000FF0BCFD20460AF0BFFD014616480FF090
:1018E000C9FD20460AF070FD01220546154912483F
:1018F0000FF0ACFD092D04DC012211490E480FF058
:10190000A5FD29460C480FF0B5FD20460AF06EFDF6
:10191000012204460B4908480FF098FD092C04DC0D
:101920000122074904480FF091FD21460248BDE815
:1019300038400FF09FBD00BFD40C0020F8C6010056
:10194000FCC60100D8C8010010B501213448354C4F
:101950000BF07CFD012132480BF07EFD0022114688
:101960002F480BF06FFD2368002B3BD0012B51D08B
:10197000082200212A480BF065FD2B4B1B684BB158
:101980002A4B08201968FFF76DFF022228492448D6
:101990000FF05CFD1022002121480BF053FD0422C2
:1019A00024491F480FF052FD234B1D4819680FF0C2
:1019B00061FD012221491A480FF048FD0822204903
:1019C00017480FF043FD1F4B154819680FF052FDE3
:1019D00001221A4912480FF039FD1148BDE81040A4
:1019E0000FF0C2BD082218490D480FF02FFD174A0D
:1019F000174B11681B680A48C91A0FF03BFD0122FA
:101A00000E4907480FF022FD05480FF0ADFD236891
:101A1000012BADD107220F4901480FF017FDA7E7B1
:101A2000D40C002044150020600E00205C0400202F
:101A300018C701001CC7010074F1FF1F0CC701008B
:101A400024C70100801C002000C70100C80E002030
:101A50006C04002010C7010038B505460AF00EFDE1
:101A60001E4C014620460FF005FD2D200EF0F0FF24
:101A700028460AF0DFFC014620460FF0FBFC2D2033
:101A80000EF0E6FF28460AF0C3FC014620460FF0A0
:101A9000F1FC012112480EF007FF28460AF0DCFC99
:101AA000014620460FF0E6FC3A200EF0D1FF284612
:101AB0000AF08AFC014620460FF0DCFC3A200EF0CA
:101AC000C7FF28460AF092FC014620460FF0D2FCE0
:101AD0002046BDE838400FF047BD00BFB4F9FF1FF6
:101AE00010C901002DE9F043434A444BDFF8189137
:101AF000DFF81881424D98F80010167899F80070B8
:101B00001A78286883B03C2313FB071713FB0626BB
:101B10000AF0A2FC044628680AF056FCC4EB041440
:101B200000EB840428680AF0A9FC00F14E03286841
:101B30008DF806300AF07EFC8DF8050028680AF062
:101B400067FCB7428DF8040006D2A74232D8A642FD
:101B500030D303B0BDE8F083A742FAD9A642F8D249
:101B600002A8002399F8002000F8083D98F80030FA
:101B70008DF801308DF802200AF094FC0F212860C6
:101B800020480EF091FE2868FFF766FF0DF0ACF9D3
:101B90002B68834204DA03F5A83303F5C0732B6086
:101BA0000F2118480EF080FE2868FFF755FF03B09C
:101BB000BDE8F08302A8002399F8002000F8083D52
:101BC00098F800308DF801308DF802200AF06AFC98
:101BD0000F2128600B480A4C0EF066FE2868FFF7BC
:101BE0003BFF0DF081F92B688342D9DA03F5A83366
:101BF00003F5C0732360D3E7D50F0020D40F002076
:101C0000C80E002030C70100C51C0020DD0F0020D9
:101C10002DE9F04F6D4A6E4D6E4C6F4B6F48DFF8FB
:101C2000DCA1D3F800C0D0F800E0D2F8008023880F
:101C30002A88BAF800106A4E6A4FB6F90000CCEB59
:101C40000202CEEB030387B02A802380C8EB010198
:101C5000AAF8001012F0BCFA80468946B7F90000D5
:101C600012F0B6FA42464B4611F012F812F00EFE90
:101C7000029012F0BFFA8046894610F0C5FF12F0BC
:101C800005FE49468346404610F0E8FE12F0FEFD90
:101C90008046B5F9000012F003FF8146B4F9000058
:101CA00012F0FEFE504B0190B3F90000404212F0DA
:101CB000F7FE0446B7F9000012F0F2FE594612F0A2
:101CC00043FF0546B6F9000012F0EAFE414612F065
:101CD0003BFF0146284612F02FFE0146204612F037
:101CE000E7FF12F087FA10F01BFD12F0CFFD039012
:101CF00012F080FA04460D4610F086FF06460F46A5
:101D00002046294610F0AAFE02460B465846494690
:101D1000CDE9042312F018FF01990446404612F061
:101D200013FF0146204612F007FE394604463046AE
:101D300012F0ACFD0146204612F006FF0446BAF947
:101D400000002A4F2A4E12F0ABFEDDE904230546BF
:101D50001946104612F09AFD0146284612F0F4FE8C
:101D60000146204612F0E8FD12F044FA04460D4602
:101D70004046494612F0E8FE01998046584612F066
:101D8000E3FE0146404612F0D5FD00F1004012F09E
:101D900031FA22462B4610F07BFF04460D4603988D
:101DA000144912F0D1FE144B12491860029812F037
:101DB000CBFE29463860204612F068FD0D4912F02E
:101DC000C3FE306007B0BDE8F08F00BF380D0020C3
:101DD0007204002074040020580E0020F40E00202D
:101DE000900B0020861C0020841C00207C04002016
:101DF000CC0E0020E12E6542C80C002070040020AB
:101E00002DE9F04FDFF81493DFF81483D9F80000C0
:101E1000D8F8001085B013F053F840B1AC4BD9F8A6
:101E200000201B78C8F80020002B40F0BA80A94C95
:101E3000A94E2368A94D002B49D1A94A2B683768C0
:101E40001268DFF8E0A2D9F80000DAF80010FB1AF7
:101E50009342D4BF4FF0000B4FF0010B13F030F85A
:101E6000A04B1A684FF00103002800F09680002A6A
:101E700014BF002303F001031BEA030B00F084806E
:101E8000934A984B127801211960002A66D1D9F83B
:101E90000010DFF89492D8F8000012F04BFDD9F84A
:101EA000001013F00DF84FF00101002877D0DFF893
:101EB00048828D4AD8F8000012689042ACBF0022D8
:101EC00001F001021BEA020A40F0A5802368326893
:101ED0002868A3F1010ABAFA8AFA4FEA5A1A82422A
:101EE00002DBBAF1000F04D1022B27D005B0BDE808
:101EF000F08F7E4FD7F800800223232023600DF05F
:101F0000A5FB41467A480FF0B5FA79480FF02CFB53
:101F10006F4B1B78002B72D1764A3B68126873496D
:101F2000013393423B60A4BF00230B6072492368D6
:101F30000A68022B02F101020A60D7D16F4A3368A6
:101F4000296812685B1A9342D0DD002110200DF041
:101F5000DBF80023236005B0BDE8F08F1921684845
:101F60000EF0A2FCDAF8000012F044F94FF0020E75
:101F700002460B46CDF800E062480FF075FB614861
:101F80000FF0F2FA574B1A68022A1DD0A2F1010B8A
:101F9000BBFA8BFB4FEA5B1B79E7034667E7014619
:101FA00085E70B2158480EF07FFCD8F8000012F0AE
:101FB00021F9022402460B46009452480FF054FBCC
:101FC00050480FF0D1FA32E7DFF860A1D9F80000ED
:101FD000DAF800100392DFF844B112F053FF50B169
:101FE0003B4BDBF800103F4A1B78C8F8001000217B
:101FF000116093462BBB2368D9F8002067E70721BF
:1020000042480EF051FC41463E480FF033FA3D483D
:102010000FF0AAFA80E7012110200DF075F82C4B83
:10202000326893F800C02F4FDFF8A8B0901C012150
:102030000223286021603B60BCF1000F1CD10B46DD
:102040004DE70D2132480EF02FFCDAF8000012F0B7
:10205000D1F8039A00920B4602462A480FF004FB7F
:1020600028480FF081FADBF80030A3F1010BBBFA2E
:102070008BFB4FEA5B1B0AE70E21264803930EF009
:1020800013FCD9F8000012F0B5F8039B0093024648
:102090000B461C480FF0E8FA1A480FF065FA1121B8
:1020A0001D480EF001FCD8F8001016480FF0E2F9B8
:1020B00014480FF059FADBF80030074A0749126854
:1020C0000868A3F1010ABAFA8AFA4FEA5A1A06E72F
:1020D0004CF1FF1F500400206C0400202C04002051
:1020E00010F1FF1FE0210020F4F0FF1FBC0B0020C7
:1020F00094F9FF1F901C00205804002004F1FF1FDA
:1021000054C70100B4F9FF1F48C7010040C70100D0
:1021100070C7010080C7010090C70100D40E0020E5
:10212000C00C002024F1FF1F08F1FF1F50F1FF1F1A
:102130002DE9F04F0546DFF84C828D4E8D4F98F813
:1021400000E02E60FF2085F82400DFF83C9238780C
:1021500059F820C00023BEF1060F8DB00C4685F85B
:10216000253085F826309CBF88F800309E46BCF1AB
:10217000000F00F0A8808C455BD06346810001E031
:102180009C4256D00B445B68002BF9D1634603EBAD
:10219000010ADAF80430002BF9D105EB010BCAF87B
:1021A0000440BEF1060F4FF0FF044FFA80FACBF85F
:1021B00004308DF82C4002968DF82D308DF82E309D
:1021C00085F824A0644605D8002388F80030002C48
:1021D00000F0A980A24226D0234601E0934222D0FB
:1021E0000B445B68002BF9D104EB010CDCF80440D4
:1021F000002CF9D1CCF804200CAB19440024431C6A
:10220000BAF1FF3F41F8244C3B708DF82CA00296A8
:1022100005D0594951F82A3002AA934272D0284673
:102220000DB0BDE8F08F0130387028460DB0BDE824
:10223000F08F0023FF21BEF1060F02968DF82C10BF
:102240008DF82D308DF82E3001D888F80030944567
:10225000E9D06346810001E09A42E4D00B445B6818
:10226000002BF9D18C44DCF804402CB1A4468C44FA
:10227000DCF80440002CF9D10CAB19444FFA80FE75
:10228000431CBEF1FF3FCCF804203B7041F8244CC6
:1022900002968DF82CE0C2D0374951F82E3002AAB0
:1022A0009342BCD159F82E304FEA8E0623B19A19C9
:1022B00053685460002BFAD10023387049F82E304F
:1022C00041F82E30ABE7B0B38100DFF8ACA049F89D
:1022D000204005EB010C00234AF82050BEF1060F08
:1022E000CCF804304FFA80FA4FF0FF0C02968DF8CC
:1022F0002D308DF82E3085F824A08DF82CC07FF677
:1023000063AF64E759F82A304FEA8A0623B19A1975
:1023100053685460002BFAD10023387049F82A30F2
:1023200041F82A307BE7A0B1134B49F8202002AADC
:1023300043F8202060E71149019215200CF008FDB8
:102340000F4B98F800E0019A4FF4001119603878AB
:10235000BAE70A49019215200CF0FAFC084B019AE1
:102360004FF40011196038784FFA80FA8100DBE7EA
:102370004CC5010011250020F02400207504000048
:1023800000E100E094E9FF1FD02400202DE9F04196
:10239000814C824E824D834F0CF030FC4FF0FF3168
:1023A00020460BF01FFE804B326823600121002382
:1023B0000020606284F8281084F829102F606B7266
:1023C0002B612B72EB600AB9E0E01A465369002BCF
:1023D000FBD15561754C764B71482B604FF000086E
:1023E000C5F81480A5F80480A5F8068005F090F8DB
:1023F000012004F2247243464146276084F8088095
:10240000C4F80C8060722261A64601E0DEF810205C
:1024100042F82310627A654801339A42F6DC32684A
:102420005E4B0AB9B4E01A465369002BFBD15461E4
:102430004FF000085F49DFF8D8E1216042460123F0
:102440004FF480715C48C4F81480A4F80480A4F8A8
:102450000680C4F818E184F8218784F8228710F0F8
:1024600081F8564AC4F81C814FF0010E02F11801A0
:102470001760082782F809E04346404682F8088042
:10248000C2F80C801161964684F8207701E0DEF8EE
:10249000101041F82300517A484F01339942F6DC7D
:1024A00031683E4B09B975E019464B69002BFBD1E9
:1024B0004A61434B43495A60002656619680D68054
:1024C000184682F8F460C2F8F06082F8F560116096
:1024D00082F8F6601D601E725E72DE600EF00CFC0B
:1024E000394B3A4F1E7218461D605C605E72DE60AA
:1024F0000EF002FC364A374B1168374A1A600A223E
:102500001A724FF0874012F0D3FB344C344D3860D0
:102510004FF0FF08334B84F82560012784F82480AE
:10252000314A324966632046A66384F83C602360E2
:1025300084F8267012F088FE2D4B2B4A2D4985F821
:102540002480284685F825602B6085F8267012F0D7
:102550007BFE224629462848FFF7EAFD224A274902
:10256000254812F071FE264805F086FB1E4A2549D3
:10257000234812F069FE244B1B4A1E6080241C7104
:1025800022491846BDE8F04112F05EBE356021E7F1
:1025900018604DE71F608CE7D40C0020D82600207F
:1025A000DC0E002040C5010060C501004815002078
:1025B00018CE0100F0CD0100701C0020C00B0020DF
:1025C000940B002024CE0100A40B00205C0E002000
:1025D00060F1FF1FC80F0020FCCD0100880E002015
:1025E000980F002094D00100FCEFFF1F9D06000013
:1025F000A8D00100F5060000040D0020F105000040
:102600009C1C0020957C0000800F00204D070000DE
:10261000E8CB010010B51D48ADF5007D05F0DEF8F2
:10262000012829DD1A491B4C0B6822681748013321
:1026300001320B60226005F003F94FF4807201460D
:1026400068460CF025F8114805F018F90F4805F018
:10265000F7F84FF4807201460DEB02000CF018F809
:102660000A4805F00BF90C4B1B7843B969464FF447
:1026700000720A4805F062FA0DF5007D10BD1022C7
:102680000749064805F05AFAF0E700BFC00B0020E2
:10269000300D00205404002034F1FF1F9C1C00204A
:1026A000FC0E002070B5B44B1B7884B0002B40F0BA
:1026B0005B81B24C7621204608F062FF00251E2186
:1026C000204607F003FE627B216900950123204626
:1026D00009F01EF805200CF0A9FD2046762108F02F
:1026E0004FFFA221204607F0F1FD627B2169009592
:1026F0000123204609F00CF80123617B0093762228
:1027000002232069019509F0FDF92369D3F83811F6
:10271000D3F8342191420CD003AD184609F08AFA5F
:10272000236905F8010BD3F83811D3F8342191420D
:10273000F3D19DF80D209DF80C50914B8F4842EA43
:10274000052576211D80002608F01AFFA4218B485C
:1027500007F0BCFD627B216988480096012308F0E0
:10276000D7FF0123617B0093762202232069019623
:1027700009F0C8F92369D3F83811D3F8342191420C
:1027800012D003AD184609F055FA236905F8010B7C
:10279000D3F83811D3F834219142F3D19DF80C507D
:1027A0009DF80D3043EA0525764B74481D8076214F
:1027B00008F0E6FE0026A621704807F087FD627B40
:1027C00021696E480096012308F0A2FF0123617B76
:1027D0000093762202232069019609F093F9236978
:1027E000D3F83821D3F83411914212D003AD1846F2
:1027F00009F020FA236905F8010BD3F83811D3F852
:1028000034219142F3D19DF80C509DF80D3043EAEC
:1028100005255D4B59481D80762108F0B1FE002644
:10282000A821564807F052FD627B21695348009663
:10283000012308F06DFF0123617B009376220223C0
:102840002069019609F05EF92369D3F83821D3F89D
:102850003411914212D003AD184609F0EBF9236907
:1028600005F8010BD3F83811D3F834219142F3D194
:102870009DF80C509DF80D3043EA0525434B3F4829
:102880001D80762108F07CFE0026AA213B4807F037
:102890001DFD627B216939480096012308F038FF4D
:1028A0000123617B0093762202232069019609F0BF
:1028B00029F92369D3F83821D3F83411914212D081
:1028C00003AD184609F0B6F9236905F8010BD3F8F2
:1028D0003811D3F834219142F3D19DF80C509DF872
:1028E0000D3043EA05252A4B24481D80762108F047
:1028F00047FE0026AC21214807F0E8FC627B2169F5
:102900001E480096012308F003FF0123617B00931A
:10291000762202232069019609F0F4F82369D3F89E
:102920003811D3F83421914219D0354603AE1846F8
:1029300009F080F923697055D3F83811D3F83421A0
:10294000914205F10105F2D19DF80D309DF80C5032
:1029500043EA05250F4B01201D8004B070BD0D4BCF
:1029600030461D8004B070BD0B210B480DF09CFF5C
:102970000A480EF0F9FD9CE64CF1FF1FBC24002034
:10298000500F0020941C0020981C0020E4210020FF
:1029900084040020FA0E002004C80100B4F9FF1FCF
:1029A000F0B5284F3B7885B0002B43D1264C274EFD
:1029B0002046317808F0E4FD00250021204607F08C
:1029C00085FC627B216900950123204608F0A0FE6A
:1029D00002200CF02BFC01233278617B00932069EC
:1029E0000195022309F08EF802200CF01FFC03AEC3
:1029F0002369D3F838211846D3F834319A4213D0DA
:102A000009F018F93B7820EAE07006F8010B01356F
:102A1000002BEDD000230A2231780D480EF0C6FDC0
:102A20000B480EF0A1FDE3E7002DD4BF00200120EC
:102A300005B0F0BD0B2107480DF036FF04480EF03D
:102A400093FDB3E74CF1FF1FBC24002028F1FF1FCA
:102A5000B4F9FF1F10C8010070B5134C82B00646D0
:102A60000D4620460A2108F08BFDC6F307212046BB
:102A700007F02CFCF1B2204607F028FCC5F3072133
:102A8000204607F023FCE9B2204607F01FFC002394
:102A90000093627B21692046012308F039FEB0FAD9
:102AA00080F0400902B070BDBC2400202DE9F04147
:102AB0001A4C1B4D82B029780646204608F060FD6E
:102AC00031462046002607F001FC627B2169009612
:102AD0000123204608F01CFE01272978204608F033
:102AE0004FFD2A78617B206901960223009709F047
:102AF00009F8206909F09EF80546206909F09AF85E
:102B0000627B2169009680463B46204608F000FE25
:102B100045EA082080B202B0BDE8F081BC24002064
:102B200014F1FF1F2DE9F04F654C664D85B08A46C4
:102B3000834629782046914608F022FD012120464F
:102B4000002607F0C3FB5946204607F0BFFB627B17
:102B5000216900960123204608F0DAFD29782046F5
:102B600008F00EFD0221204607F0B0FB514620463A
:102B700007F0ACFB627B216900960123204608F038
:102B8000C7FD2978204608F0FBFC0321204607F00A
:102B90009DFB4946204607F099FB627B2169009620
:102BA0000123204608F0B4FD2978204608F0E8FC0F
:102BB0000121204607F08AFB627B216900960123F0
:102BC0002046012708F0A4FD2978204608F0D8FC0B
:102BD0002A78617B206901963B46009708F092FFB6
:102BE000206909F027F8627B03903B462169009633
:102BF000204608F08DFD2978204608F0C1FC02210E
:102C0000204607F063FB627B216900963B46204625
:102C100008F07EFD2978204608F0B2FC2A78617B16
:102C2000206901963B46009708F06CFF206909F087
:102C300001F88046627B216900963B4620465FFA98
:102C400088F808F065FDC24530D0B34629781C48A5
:102C500008F096FC00260321194807F037FB627B39
:102C6000216900960123164808F052FD01272978B2
:102C7000134808F085FC2A78617B206901963B4661
:102C8000009708F03FFF206908F0D4FF627B2169BC
:102C9000009605463B460A4808F03AFDE8B28145F1
:102CA0000CBF5846304605B0BDE8F08F9DF80C606B
:102CB000CBEB060BBBFA8BFB4FEA5B1BC6E700BFF7
:102CC000BC24002014F1FF1F08B50A2106480DF0AE
:102CD000EBFD06480EF048FC00223F210D20BDE828
:102CE0000840FFF71FBF00BF1CC80100B4F9FF1F59
:102CF00030B51D4C83B020460A2108F041FC204627
:102D0000002107F0E3FA2046302107F0DFFA2046E1
:102D1000002107F0DBFA00252046002107F0D6FA53
:102D2000627B216900950123204608F0F1FC2046D2
:102D30000A2108F025FC2946204607F0C7FA20465C
:102D4000022107F0C3FA2946204607F0BFFA2946B8
:102D5000204607F0BBFA627B2169009520460123DB
:102D600008F0D6FC03B030BDBC24002030B51D4CAB
:102D700083B020460A2108F003FC2046002107F01A
:102D8000A5FA2046302107F0A1FA2046002107F0DD
:102D90009DFA00252046AB2107F098FA627B216955
:102DA00000950123204608F0B3FC20460A2108F0D4
:102DB000E7FB2946204607F089FA2046022107F062
:102DC00085FA2946204607F081FA2046632107F05C
:102DD0007DFA627B216900952046012308F098FC6A
:102DE00003B030BDBC24002030B5E54C83B0204694
:102DF0000A2108F0C5FB2046002107F067FA2046AB
:102E0000302107F063FA20464021002507F05EFAE2
:102E10002046602107F05AFA627B21690095012360
:102E2000204608F075FC20460A2108F0A9FB294637
:102E3000204607F04BFA2046262107F047FA29469C
:102E4000204607F043FA20466C2107F03FFA627BE8
:102E5000216900950123204608F05AFC20460A21EA
:102E600008F08EFB2946204607F030FA204628213C
:102E700007F02CFA2046012107F028FA2046F0211D
:102E800007F024FA627B216900950123204608F0AF
:102E90003FFC20460A2108F073FB2946204607F034
:102EA00015FA20462A2107F011FA2946204607F094
:102EB0000DFA2946204607F009FA627B2169009540
:102EC0000123204608F024FC20460A2108F058FB84
:102ED0002946204607F0FAF920462C2107F0F6F99A
:102EE00020460F2107F0F2F92046222107F0EEF9E3
:102EF000627B216900950123204608F009FC2046E9
:102F00000A2108F03DFB2946204607F0DFF920465C
:102F10003C2107F0DBF92046442107F0D7F9204691
:102F2000462107F0D3F9627B2169009501232046F1
:102F300008F0EEFB20460A2108F022FB2946204635
:102F400007F0C4F92046242107F0C0F920460121EA
:102F500007F0BCF92046372107F0B8F9627B2169F8
:102F600000950123204608F0D3FB20460A2108F0F3
:102F700007FB2946204607F0A9F92046302107F033
:102F8000A5F92946204607F0A1F92046AB2107F014
:102F90009DF9627B216900950123204608F0B8FB6A
:102FA00020460A2108F0ECFA2946204607F08EF95F
:102FB0002046022107F08AF92946204607F086F9C3
:102FC0002046632107F082F9627B21690095012385
:102FD000204608F09DFB4FF4C8700CF027F92046FE
:102FE0000A2108F0CDFA2946204607F06FF920465D
:102FF0002E2107F06BF92046192107F067F92046CA
:10300000192107F063F9627B2169009501232046AD
:1030100008F07EFB20460A2108F0B2FA2946204635
:1030200007F054F92046042107F050F929462046BC
:1030300007F04CF92046042107F048F9627B21692A
:1030400000950123204608F063FB20460A2108F082
:1030500097FA2946204607F039F92046062107F05D
:1030600035F92046012107F031F92046302107F0DB
:103070002DF9627B216900950123204608F048FB69
:1030800020460A2108F07CFA2946204607F01EF95E
:1030900020460A2107F01AF92946204607F016F9BA
:1030A0002946204607F012F9627B21690095012329
:1030B000204608F02DFB20460A2108F061FA294637
:1030C000204607F003F920460E2107F0FFF82946B5
:1030D000204607F0FBF82046082107F0F7F8627B4E
:1030E000216900950123204608F012FB20460A21A1
:1030F00008F046FA2946204607F0E8F82046102155
:1031000007F0E4F82046FF2107F0E0F820463C21D4
:1031100007F0DCF8627B216900950123204608F066
:10312000F7FA20460A2108F02BFA2946204607F034
:10313000CDF82046222107F0C9F820467F2107F06C
:10314000C5F820467F2107F0C1F8627B2169009510
:103150000123204608F0DCFA20460A2108F010FA84
:103160002046012107F0B2F82046242107F0AEF8EE
:103170002946204607F0AAF82946204602E000BF6B
:10318000BC24002007F0A2F8627B2169009501238E
:10319000204608F0BDFA20460A2108F0F1F9294638
:1031A000204607F093F82046242107F08FF829469F
:1031B000204607F08BF82046142107F087F8627B41
:1031C000216900950123204608F0A2FA20460A2131
:1031D00008F0D6F92946204607F078F820462A213B
:1031E00007F074F82946204607F070F82946204673
:1031F00007F06CF8627B216900950123204608F0F6
:1032000087FA20460A2108F0BBF92946204607F034
:103210005DF82046202107F059F82946204607F09E
:1032200055F82946204607F051F8627B2169009540
:103230002046012308F06CFA012003B030BD00BF26
:103240002DE9F041974C984D82B02978204608F03E
:1032500097F92421204607F039F84021204607F04D
:1032600035F80023627B216900932046012308F092
:103270004FFA074605200BF0D9FF002F40F0FD80E4
:10328000DFF828822978D8F80030204663F07F03E1
:10329000DEB208F075F92521204607F017F831460F
:1032A000204607F013F8627B21690097012320462E
:1032B00008F02EFA064605200BF0B8FF002E40F06D
:1032C000DF802978204608F05BF92621204606F0A9
:1032D000FDFF0321204606F0F9FF627B216900967D
:1032E0000123204608F014FA064605200BF09EFF45
:1032F000002E40F0B8802978204608F041F92721B7
:10330000204606F0E3FFD621204606F0DFFF627B71
:10331000216900960123204608F0FAF906460520A7
:103320000BF084FF002E40F0AE80297898F80070F2
:10333000204608F025F92821204606F0C7FF394627
:10334000204606F0C3FF627B2169009601232046D8
:1033500008F0DEF9064605200BF068FF002E40F06D
:1033600095802978204608F00BF92921204606F09F
:10337000ADFF0A21204606F0A9FF627B2169009675
:103380000123204608F0C4F9064605200BF04EFF45
:10339000002E7ED12978204608F0F2F82A21204616
:1033A00006F094FF8121204606F090FF627B2169A0
:1033B00000960123204608F0ABF9064605200BF0E5
:1033C00035FF002E68D12978204608F0D9F864210D
:1033D000204606F07BFF1121204606F077FF627B36
:1033E000216900960123204608F092F9064605203F
:1033F0000BF01CFF002E52D12978204608F0C0F8AF
:103400006721204606F062FF0321204606F05EFF9A
:10341000627B216900960123204608F079F906466F
:1034200005200BF003FF1EBB2046297808F0A8F802
:103430000121204606F04AFF8021204606F046FF83
:10344000627B216900962046012308F061F9044659
:1034500005200BF0EBFE002C14BF6FF00E000020D7
:1034600002B0BDE8F0816FF0070002B0BDE8F08166
:103470006FF00D0002B0BDE8F0816FF00500EFE7DE
:103480006FF00600ECE76FF00800E9E76FF0090065
:10349000E6E76FF00A00E3E76FF00B00E0E76FF09C
:1034A0000C00DDE7BC24002040F1FF1FFCF0FF1FF3
:1034B0002DE9F0477B4F7C4A3B681278013382B09C
:1034C0003B60002A40F01281784EDFF818823168A4
:1034D000D7F800A0764D4FF07E5011F0E9FB04467E
:1034E000D8F8000011F0DCFA0146204611F02CFB60
:1034F0008146504611F0D4FA4FF07C51824648463E
:1035000011F022FB0146504611F0D0FC2C784FF010
:103510000103E4B200B9034613F0FF0F07D0654B77
:103520001B78012B14BF002404F0010434BB38685D
:103530005C4C11F0B5FA494611F0B8FCD8B15E4BBD
:103540001B7800262660002B40F0B081594F3E7852
:10355000012E00F07382022E00F05B82574B1B6835
:10356000002B40F02982564B1B78002B40F0328212
:103570003B78002B55D102B0BDE8F087514C762145
:10358000204607F0FDFF4FF000090021204606F01D
:103590009DFE627B2169CDF800900123204608F052
:1035A000B7F80123617B2069009376220323CDF8CD
:1035B000049008F0A7FA2369D3F83811D3F834211E
:1035C00091420DD0DFF82091184608F033FB2369B3
:1035D00009F8010BD3F83811D3F834219142F3D113
:1035E0007621384807F0CCFF5821364806F06EFEA9
:1035F000627B2169334800240123009408F088F895
:1036000031682C704FF07E5011F052FB0446D8F810
:10361000000011F045FA0146204611F095FA814666
:1036200085E7294B29491A78294C0968D2B244F810
:1036300022101A780132D2B21A701A78282A00F0B1
:10364000E081244924481A7800780D78214E82427E
:1036500034BF00220122AA4203D9204D01222A7040
:1036600032701A781E4D184E2D68D2B244F822508E
:103670001A780132D2B21A701A78282A00F04182E0
:103680001B780A781349834234BF002301239342F5
:103690007FF671AF114A012313700B7002B0BDE8C1
:1036A000F08700BF340D00202CF1FF1F48F1FF1FF1
:1036B000C41C0020680400200CF1FF1FC42100205E
:1036C0004CF1FF1FBC240020680E00206404002081
:1036D000400D0020520F00206CF1FF1FC821002078
:1036E000D01C00205CF1FF1F3C0D0020664B674C96
:1036F0001E782046314607F043FF00253B21204637
:1037000006F0E4FD627B216900952B46204607F018
:10371000FFFF0123617B206900933246142301954A
:1037200008F0F0F920695A4ED0F83821D0F8343139
:103730009A420DD008F07EFAEBB2C0B2F054206984
:10374000D0F83821D0F834319A4205F10105F1D191
:10375000504B514A18683178C9B211541968013177
:10376000196018687178C9B211541968013119606B
:103770001868B178C9B21154196801311960186814
:10378000F178C9B21154196801311960186831799A
:10379000C9B2115419680131196018687179C9B238
:1037A00011541968013119601868317AC9B211547D
:1037B0001968013119601868717AC9B21154196811
:1037C000013119601868B17AC9B211541968013110
:1037D00019601868F17AC9B2115419680131196079
:1037E0001868317BC9B21154196801311960186821
:1037F000717BC9B211541968013119601868B17B25
:10380000C9B211541968013119601868F17BC9B245
:1038100011541968013119601868317CC9B211540A
:103820001968013119601868717CC9B2115419689E
:10383000013119601868B17CC9B21154196801319D
:1038400019601868F17CC9B211541A6801321A6003
:103850001A68B2F5E16F00F04C81104A10491B68FC
:10386000096812780D488B42B4BF002301239342AC
:1038700003D90C4A012313700370317873780A4A14
:1038800043EA012313801FE640F1FF1FBC24002000
:10389000CC210020D00E002088040020961C00209F
:1038A00064F1FF1FD80E0020841C00200B20FFF7BE
:1038B000FDF8A74CA74F20800920FFF7F7F83880C4
:1038C0000D20FFF7F3F8A44BA44A19782478DFF809
:1038D000D8E2C9B2AEF80000545419780131C9B227
:1038E00019701978C9B2565419780131C9B21970D2
:1038F0001978782900F01D81994C9A4E19783678FC
:1039000094F800E0DFF858C2B14234BF0021012131
:10391000714506D9DFF850E201218EF800108CF8CD
:103920000010197897F800C0DFF82CE2C9B2002720
:1039300002F801C019780131C9B219701978C9B2F9
:10394000575419780131C9B219701978782900F0E3
:10395000E78019782778DFF808E2B14234BF002108
:103960000121B94204D9804F012139708EF800102D
:103970001978794FC9B2C0B2505419780131C9B21F
:1039800019701978C9B2002050541A780132D2B295
:103990001A701A78782A00F0BD801B782278704956
:1039A000B34234BF0026012696427FF6CFAD6E4A61
:1039B000012313700B70C9E56C4B186808F004FD07
:1039C0006B4A6C4B52F820201A606B4B1B78002B13
:1039D0003FF4CEAD022169480CF066FF654B1868D4
:1039E00010F008FC022402460B46009464480DF0D7
:1039F0003BFE63480DF0B8FD3B78002B3FF4BBADB8
:103A00000FE660486049002202251A7005700A70AE
:103A100018E6FDF74DFC5D4C5D4B2046197807F02C
:103A2000AFFD2046AC2106F051FC0023627B2169EA
:103A300000932046012307F06BFE8FE5534C76215F
:103A4000204607F09DFD4FF000080021204606F0BB
:103A50003DFC627B2169CDF800803346204607F0AB
:103A600057FE617B2069032376228DE8400108F030
:103A700049F82369D3F83811D3F8342191420CD096
:103A8000444E184608F0D6F8236906F8010BD3F81F
:103A90003811D3F834219142F3D176213B4807F015
:103AA0006FFD4821394806F011FC0023627B216933
:103AB00036480093012307F02BFEFDF74BFB012353
:103AC0002C4A2B701068344A11681C4611F0DAF940
:103AD000F0B114F0FF0F35D1304B1968A1F101019D
:103AE000B1FA81F1490969BB08200BF00DFB3E7862
:103AF00031E52B482B4A0021022419600470117013
:103B0000ACE6204C00220225327025700A70B7E521
:103B10000446DEE7144A38700221117020703CE739
:103B200011498EF800704FF0020E81F800E0277006
:103B30000FE70D490A4C1E704FF0020E81F800E0AD
:103B40002670DAE6012108200BF0DEFA3E7802E565
:103B5000C40F0020D41C0020920B0020E00D002098
:103B6000880F002044F1FF1F9A1C00206C040020E5
:103B700000F0FF1FD40E00204CF1FF1F28C80100E9
:103B8000B4F9FF1FC8210020520F0020BC240020E0
:103B900028F1FF1F4C0F002078F1FF1F940F002029
:103BA000D80E0020961C0020B80B00202DE9F04113
:103BB000A94CAA4DAA4F297882B0204607F0E0FC14
:103BC0006B21204606F082FB00260121204606F0EC
:103BD0007DFB627B216900960123204607F098FD5A
:103BE000804605200BF022FB2978204607F0C8FC10
:103BF0001A21204606F06AFB0321204606F066FBE8
:103C0000627B216900960123204607F081FD052093
:103C10000BF00CFB2978204607F0B2FC1B21204654
:103C200006F054FB1021204606F050FB627B216910
:103C300000960123204607F06BFD05200BF0F6FAF5
:103C40002978204607F09CFC1921204606F03EFB0F
:103C50000921204606F03AFB627B21690096012388
:103C6000204607F055FD05200BF0E0FA29782046A4
:103C700007F086FC1C21204606F028FB1821204670
:103C800006F024FB0123627B21690096204607F0A1
:103C90003FFD05200BF0CAFA3B68022B7AD0042BBB
:103CA00000F0A880082B00F0BF8029786A4807F050
:103CB00067FC1D21684806F009FB002603216648C1
:103CC00006F004FB627B216900960123624807F03D
:103CD0001FFD05200BF0AAFA29785F4807F050FC79
:103CE00037215D4806F0F2FA22215B4806F0EEFA31
:103CF000627B216900960123574807F009FD0520E2
:103D00000BF094FA2978544807F03AFC38215248CD
:103D100006F0DCFA0121504806F0D8FA627B2169EE
:103D2000009601234C4807F0F3FC05200BF07EFAC7
:103D3000FFF786FA2978484807F022FC6A214648AE
:103D400006F0C4FA0721444806F0C0FA627B2169F4
:103D500000960123404807F0DBFC05200BF066FAD3
:103D600029783D4807F00CFC6A213B4806F0AEFA82
:103D70006021394806F0AAFA627B21690096012386
:103D8000354807F0C5FC05200BF050FA404602B05C
:103D9000BDE8F0812978204607F0F2FB1C2120467F
:103DA00006F094FA3146204606F090FA0123627B31
:103DB00021690096204607F0ABFC05200BF036FA8F
:103DC0003B68042B16D0082B7FF46FAF2978204670
:103DD00007F0D6FB1C21204606F078FA1021204679
:103DE00006F074FA627B216900960123204607F0F1
:103DF0008FFC2DE02978204607F0C2FB1C212046CD
:103E000006F064FA0821204606F060FA0123627B7E
:103E100021690096204607F07BFC05200BF006FA8E
:103E20003B68082B7FF441AF29780B4807F0A8FBCB
:103E30001C21094806F04AFA1021074806F046FA04
:103E400000230093627B21690348012307F060FC93
:103E500005200BF0EBF928E7BC24002040F1FF1F00
:103E6000F0F0FF1F2DE9F04F012185B004200BF089
:103E70007DF9012115200BF079F9012114200BF0B7
:103E800075F9012111200BF071F9012110200BF0BF
:103E90006DF9002114200BF069F9012105200BF0C8
:103EA00065F9012102200BF061F9012108200BF0D6
:103EB0005DF9002128200BF059F9002123200BF097
:103EC00055F9002103200BF051F900200AF08CFD78
:103ED000012104200BF018F9002115200BF014F932
:103EE000012114200BF010F90B215648564C0CF010
:103EF000DBFC56480DF038FB012111200BF004F9D2
:103F0000012105200BF000F9012108200BF0FCF83D
:103F1000012110200BF0F8F80B214D480CF0C4FCE7
:103F20004A480DF021FB40F6B8300BF07FF9002134
:103F300011200BF0E9F8002105200BF0E5F8002135
:103F400008200BF0E1F823200BF080FB0021414812
:103F50000DF090FA3F480DF007FB2378002B40F05E
:103F600091803D4B1B78002B40F0A2803B4B1B788F
:103F7000002B40F0A381FDF729FC394B00241C7075
:103F8000FEF70EFD002840F09F84364BDFF8EC80F2
:103F9000DFF8ECB00393FEF785FB002840F0EC82DD
:103FA000112131480CF080FC039B186810F022F9B5
:103FB000022402460B46009424480DF055FB23488A
:103FC0000DF0D2FA072129480CF06EFCD8F8000059
:103FD00010F010F9009402460B461C480DF044FB0B
:103FE0001A480DF0C1FA0D2121480CF05DFCDBF8F8
:103FF000000010F0FFF8009402460B4613480DF045
:1040000033FB12480DF0B0FA154B1B78002B00F073
:104010008582184B1B6813B10023C8F800300021BB
:1040200010200BF071F80C2113480CF03DFC0748F0
:104030000DF09AFA40F6B83005B0BDE8F04F0BF03D
:10404000F5B800BF38C801004CF1FF1FB4F9FF1FDD
:1040500044C8010094F9FF1F2CF1FF1F0CF1FF1F52
:10406000680400206404002000C901004CC701005E
:1040700014C90100C421002040C90100D40E002051
:10408000D01C00200721C5480CF00EFC0021C448BC
:104090000DF0F0F9C2480DF067FAC24B1B78002B07
:1040A0003FF464AF23781BB10921BF480CF0FCFB3F
:1040B000DFF8FC92DFF86CB3FFF778FD4FF00008F3
:1040C000CDF80CA0B94BBA481D78294607F058FA2C
:1040D00000243B21B64806F0F9F899F80D20D9F8EC
:1040E0001010B3480094234607F012FB01232A4620
:1040F000009399F80D10D9F810000194142307F0DB
:1041000001FDD9F81000D0F83831D0F834219A42A6
:104110000FD007F08FFDE3B2C0B20BF80300D9F85F
:104120001000D0F83821D0F834319A4204F101045B
:10413000EFD1DFF8F4A29F4F9F4EA04DFCF70AFF8E
:10414000FDF766FD09219E480CF0AEFBBAF90010A0
:1041500093480DF08FF901219A480CF0A5FB9A4B7A
:104160008F48B3F900100DF085F9012195480CF046
:104170009BFB964B8A48B3F900100DF07BF90121A7
:1041800090480CF091FBB7F9001085480DF072F9DA
:1041900001218C480CF088FBB6F9001080480DF026
:1041A00069F9012187480CF07FFBB5F900107C48C4
:1041B0000DF060F9012183480CF076FB844B7848C0
:1041C000B3F900100DF056F901217E480CF06CFB9C
:1041D000804B7348B3F900100DF04CF90121794878
:1041E0000CF062FB7C4B6E48B3F900100DF042F905
:1041F000012174480CF058FB784B18680FF0FAFF57
:1042000002240B460246009465480DF02DFA6448DE
:104210000DF0AAF9FDF7DAFA0822714971480DF09C
:1042200015F970480DF0A0F9B8F10E0F40F30B81AD
:1042300003226D496B480DF009F96C4B18680FF0BB
:10424000D9FF00940B46024666480DF00DFA65480A
:104250000DF08AF90322664962480DF0F7F8654BC4
:1042600018680FF0C7FF00940B4602465D480DF03A
:10427000FBF95C480DF078F903225F4959480DF0CD
:10428000E5F85E4B18680FF0B5FF009402460B4648
:1042900054480DF0E9F953480AF05AF808F10108BA
:1042A000C8200AF0C3FFB8F1320F7FF40BAF544BB4
:1042B000DDF80CA01B78002B3FF45DAE0A215148BD
:1042C000514F524E524D0CF0EFFA35480DF04CF96B
:1042D00000223F210D20FEF725FC1E240B20FEF7B7
:1042E000E5FB38800920FEF7E1FB30800D20FEF76A
:1042F000DDFB0221288047480CF0D6FAB7F9001000
:1043000027480DF0B7F826480DF02EF90221424853
:104310000CF0CAFAB6F9001021480DF0ABF82048AD
:104320000DF022F902213D480CF0BEFAB5F900105B
:104330001B480DF09FF81A480DF016F9FDF746FAE4
:104340000A22374927480DF081F826480DF00CF96C
:104350000222304923480DF079F8B7F900102148BE
:104360000DF088F81F480DF0FFF802222A491D4879
:104370000DF06CF8B6F900101A480DF07BF81948EA
:104380000DF0F2F80222254916480DF05FF8B5F954
:10439000001014480DF06EF848E000BF40C701005F
:1043A000B4F9FF1F2CF1FF1F2CC8010040F1FF1FC3
:1043B000BC2400208004002082040020CA210020A8
:1043C00050C8010058C80100861C0020900B002036
:1043D0007004002072040020740400206C0E002081
:1043E0005CC80100D40C002074C80100C80C002077
:1043F00078C801007C0400207CC80100CC0E00209D
:104400000CF1FF1F1CC80100C40F0020D41C0020A9
:10441000B80B002080C801006CC8010084C80100EE
:1044200088C80100CC210020841C002046480DF0E3
:104430009BF8454809F08CFFC8200AF0F7FE013CC4
:104440007FF44CAF97E5224640493F480CF0FEFF11
:10445000BAF900103C480DF00DF801223C493A48E9
:104460000CF0F4FF3B4B3848B3F900100DF002F8A4
:104470000122374934480CF0E9FF374B3248B3F991
:1044800000100CF0F7FF30480DF06EF8224633496B
:104490002D480CF0DBFFB7F900102B480CF0EAFFB9
:1044A00001222B4928480CF0D1FFB6F9001026480C
:1044B0000CF0E0FF0122264923480CF0C7FFB5F9B4
:1044C000001021480CF0D6FF1F480DF04DF8224691
:1044D00023491D480CF0BAFF224B1B48B3F90010CA
:1044E0000CF0C8FF01221A4917480CF0AFFF1E4B11
:1044F0001548B3F900100CF0BDFF01221449124811
:104500000CF0A4FF194B1048B3F900100CF0B2FFE7
:1045100001220F490C480CF099FFBCE6FDF756F953
:104520000822134908480CF091FF07480DF01CF8C9
:104530000D22104904480CF089FF03480DF014F8CF
:10454000014809F005FF64E5D40C002068C80100AB
:1045500010C90100861C0020900B00206CC80100CF
:1045600070C8010070040020720400207404002050
:1045700024C9010030C90100C64BDFF82893C648A2
:10458000012414211C700CF08FF9C4480CF0ECFFCE
:104590004846762106F0F4FF00254821484605F0FC
:1045A00095FE99F80D20D9F810100095234648463D
:1045B00007F0AEF832200AF039FE4846762106F0C0
:1045C000DFFF2946484605F081FE99F80D20D9F80D
:1045D000101000952346484607F09AF899F80D10F8
:1045E000D9F81000032376228DE8300007F08AFA0C
:1045F000D9F81030D3F83821D3F8341191420DD0C6
:10460000A74C184607F016FBD9F8103004F8010B38
:10461000D3F83811D3F834219142F2D17621A14850
:1046200006F0AEFF002458219E4805F04FFE99F891
:104630000D20D9F810109B480094012307F068F86A
:1046400032200AF0F3FD7621964806F099FF2146C4
:10465000944805F03BFE99F80D20D9F8101000940D
:104660000123904807F054F8012399F80D100093A6
:1046700076220323D9F81000019407F043FAD9F801
:104680001030D3F83821D3F8341191420DD0864C34
:10469000184607F0CFFAD9F8103004F8010BD3F818
:1046A0003811D3F834219142F2D100267F4D34469F
:1046B00076217C4806F064FF48217A4805F006FE22
:1046C00099F80D20D9F8101000940123754807F0CF
:1046D0001FF832200AF0AAFD7621724806F050FF3A
:1046E0000021704805F0F2FD99F80D20D9F810105E
:1046F000009401236B4807F00BF8012399F80D1083
:10470000009376220323D9F81000019407F0FAF9F8
:10471000D9F81030D3F83811D3F8342191420DD0A4
:104720005F4F184607F086FAD9F8103007F8010BEA
:10473000D3F83811D3F834219142F2D17621594877
:1047400006F01EFF5821574805F0C0FD99F80D20CE
:10475000D9F8101000940123524806F0D9FF3220F6
:104760000AF064FD76214F4806F00AFF00214D480B
:1047700005F0ACFD99F80D20D9F810100094012334
:10478000484806F0C5FF012399F80D1000937622E2
:104790000323D9F81000019407F0B4F9D9F81030C8
:1047A000D3F83811D3F8342191420DD03E4F18463A
:1047B00007F040FAD9F8103007F8010BD3F8381198
:1047C000D3F834219142F2D1FCF7C4FC039B50464C
:1047D000196810F0B1F88246304610F061F90146D0
:1047E000504610F065FA034664202B600AF01EFD67
:1047F000FCF7ECFF0B222E492E480CF027FE2D482B
:104800000CF0B2FE0C222C492A480CF01FFE28683E
:104810000FF0F0FC02270B460246009725480CF0EB
:1048200023FF24480CF0A0FE0622244921480CF066
:104830000DFED8F800000FF0DDFC00970B46024695
:104840001C480CF011FF1B480CF08EFE05221C4981
:1048500018480CF0FBFDDBF800000FF0CBFC0097D4
:1048600002460B4613480CF0FFFE12480CF07CFE8B
:104870000136104809F06CFD322E7FF419AFFCF7B9
:1048800069FC0A4B0F49186810F012FA074B1860C0
:10489000FFF786BB68040020DCC80100B4F9FF1FE5
:1048A0003C0D0020BC2400204C0F0020640E002092
:1048B000F4C80100D40C0020BCC80100CCC8010021
:1048C000D4C80100000048424C4ADFF848914C48E7
:1048D0004C4F4D4DDFF85481DFF854B102231821BD
:1048E00013700BF0E1FF494B494803930CF03CFE79
:1048F0003978484606F044FEAC21484605F0E6FC0F
:1049000099F80D20D9F8101000940123484606F0BC
:10491000FFFE14200AF08AFCFCF7CAFC39783D48F7
:1049200006F02EFEAC213B4805F0D0FC002399F8A0
:104930000D20D9F8101000933648012306F0E8FE48
:1049400014200AF073FCFCF7B3FC64200AF06EFC40
:10495000039B504619680FF0EFFF8246204610F087
:104960009FF80146504610F0A3F92860FCF72EFF8F
:104970000A22294929480CF069FD28480CF0F4FD69
:104980000C22274925480CF061FD28680FF032FC05
:1049900002260B460246009620480CF065FE1F4892
:1049A0000CF0E2FD06221F491C480CF04FFDD8F820
:1049B00000000FF01FFC00960B46024617480CF053
:1049C00053FE16480CF0D0FD0522174913480CF091
:1049D0003DFDDBF800000FF00DFC009602460B4693
:1049E0000E480CF041FE0D480CF0BEFD01340B48A2
:1049F00009F0AEFC322C91D1FFF7CDBA680400204B
:104A000094C8010028F1FF1F640E002064040020F8
:104A1000B4F9FF1FBC240020B0C80100D40C002052
:104A2000BCC80100CCC80100D4C80100D40E0020CD
:104A3000D01C00202DE9F0479AB01AAF0AA803F065
:104A40001BF912A80123914A914903F0EBF957F899
:104A5000134D9DF84C007968BA683B7B8DF82C00AB
:104A6000CDF83910CDF83D2014999DF854208DF8DB
:104A7000413012A8199B0C918DF834201193CDF878
:104A8000354003F007F90AA803F026F9804600280C
:104A900000F0F480002426468DF808604FF00009ED
:104AA0000AA803F05DF81AABC2B203EB09010D2AA4
:104AB00009F101031BB212D0542A0AA801F8602C94
:104AC00007D1012B05D103F0F1F80124451EA146C1
:104AD000E6E71D2B07DC0A2A05D09946E0E7B9F185
:104AE0001D0FDDDD4B46013B9BB21AAA1A440FFA9B
:104AF00083F902F8606C9DF808202F2A04D0012B5E
:104B000002D902A8FCF754FC0AA803F00BF882466D
:104B10000028C1D10AA803F0D1F8002C73D10123D9
:104B20005C4A5B4912A803F07DF99DF84C20149B68
:104B30009DF85460B9683D687C688DF82C200C9312
:104B40003A7B199B8DF8412012A811938DF834609F
:104B5000CDF83D10CDF83550CDF8394003F09AF836
:104B60000A214D480BF0A0FE4C480CF0FDFC0AA8B1
:104B700003F0B2F8064600283ED0494D012406E075
:104B80001E2C03F8010C0CD00A280AD001340AA804
:104B900002F0E6FFC0B202AB0D282344F0D11E2C78
:104BA000F4D10BF055FF05EB89023E4902A811F044
:104BB0009BF9494639480CF05DFC01213A480BF05D
:104BC00073FE55F829000FF015FB022409F10109C5
:104BD00002460B46009431480FFA89F90CF044FD67
:104BE000B9F13C0F04D00AA802F09CFF0028C5D1FF
:104BF0000AA8B04603F062F80AA803F04BF8404652
:104C00001AB0BDE8F0870B2128480BF04DFE534643
:104C100029460A2221480CF0C9FC20480CF0A4FCCB
:104C200012A81323194A1A4903F0FCF89DF84C20E6
:104C3000149B3868B9689DF854607C688DF82C2006
:104C40000C933A7B199BCDF8350012A88DF84120C2
:104C50001193CDF83D108DF83460CDF8394003F054
:104C600019F829460AA803F017F8022210490AA8E1
:104C700002F064FF0AA803F021F850E714210D4860
:104C80000BF012FE05480CF06FFCB5E750C90100AF
:104C90003C22002084C9010090C90100B4F9FF1F23
:104CA00000F0FF1F9CC9010010C901005CC9010090
:104CB00068C901006CC901002DE9F04F7F4A804BA3
:104CC0008048127841F2B35191B083E80300002A82
:104CD00040F0E2807C4B079372B67C4C7C4B7D4964
:104CE00041250E208022257008701C461A702378FA
:104CF000774A1906FBD57849784B0D78784C794876
:104D00001D700339247800780978D9705C70987028
:104D100062B672B66D4D6F4841260F2480212E7009
:104D20000470154611702A781206FCD56A4C6C483E
:104D30006C496D4A2478007809781278DA711C7110
:104D40005871997162B643F698200AF0BFFA674D20
:104D5000674C4FF4FA700AF069FA664B697B286970
:104D60000393012600231A460293009304960196AA
:104D700006F094FA2B6942F21072C3F868222046BA
:104D800009F064FC84F82960FCF720FD0A225A49E6
:104D900020460CF05BFB20460CF0E6FB204609F0B9
:104DA000D7FA0721554802F05BFE0E21534802F066
:104DB00087FE0A21524802F097FF002840F0B48095
:104DC0001C2150480BF070FD4F480CF0CDFB4848BB
:104DD00009F01CF9002128200AF0C8F92025282014
:104DE00009F08EFE013DFAD1012128200AF0BEF91A
:104DF000294628200AF0BAF900262025282009F0A3
:104E00007FFE0FF04DFE014630460FF095FD013D4F
:104E10000646F3D1012128200AF0A8F93B49304683
:104E20000FF092FE4FF06A510FF08EFE4FF074516A
:104E30000FF08AFE60622E4809F020FB01212C4809
:104E400008F00AFB01212A4808F000FB2A462946FF
:104E5000274808F0F7FA08222D4925480CF0F6FA01
:104E600023480CF081FB224809F072FA03256420E4
:104E70000AF0DCF9012111200AF046F964200AF059
:104E8000D5F9002111200AF03FF9013DEFD14FF48F
:104E9000C8700AF0CBF99AE70B4B1E4E1E4D1F4C03
:104EA0001F48204907931F460022012332702A70B1
:104EB000227003700B703B600EE700BFF80E0020FD
:104EC000700E0020B1133401CC0C0020070002400A
:104ED00000000240060002400B000240881C002037
:104EE0000A0002400900024008000240BC240020E1
:104EF000D40C0020801A0600A0C901007CF1FF1F1D
:104F00003C220020ACC90100B4F9FF1F8EC2DD4075
:104F1000CCC901002CF1FF1F0CF1FF1F34F1FF1F62
:104F200020F1FF1F000D0020FFF784FDFEF79AFF20
:104F300008A81623C54AC64902F074FF08A802F063
:104F4000CBFE50B13622C34908A802F0F7FD08A8ED
:104F50000CF00AFB08A802F0B1FEDFF8849308A861
:104F600002F098FEFBF77CFF99F80030002B40F030
:104F7000CE81012106200AF0F9F8002106200AF06E
:104F8000C3F8002106200AF0F1F84FF4FA700AF095
:104F90004DF90A21B0480BF087FCB0480CF0E4FA58
:104FA000012111200AF0B0F8012115200AF0ACF817
:104FB00099F8003003BB06200AF0CAF80121D8B1E5
:104FC00006200AF0D3F8002106200AF09DF80021FF
:104FD00006200AF0CBF84FF4FA700AF027F91420F3
:104FE0000AF0B6F80028E6D10A200AF01FF91420CA
:104FF0000AF0AEF80028DED1994807F08DFB99F849
:1050000000301BB1092197480BF04EFCFEF7CEFD96
:10501000FBF79CFD09F068FF934B944F1B683860C9
:10502000022B07D1924B934A1B68C3EB031300EB8F
:1050300083031360904A914B11681B68DFF8A482C8
:105040004FF4616202FB03F3C1EB011103EB810337
:105050001A18C8F800204BB9894B1A6800F13C03B4
:1050600093FBF2F302FB0322C8F80020DFF878A2DA
:105070008449DAF800000968834E0244012932604D
:1050800003D1FCF72FFDDAF80000DFF860B27F4EA5
:105090000FF006FD7E4909680FF056FD4FF06E5186
:1050A0000FF052FD0FF016FF7A493060DBF8000078
:1050B0000E687949861B26EAE67681FB0631314483
:1050C000F017C0EBE1200FF083F80DF015FD0FF0A5
:1050D00095FB7249724B01FB00667249186081FBB7
:1050E00006313144F017C0EB61100FF071F80DF08C
:1050F00003FD0FF083FB6C4AA0EB001106EB810669
:1051000016606A4A03461021694813600BF0CCFB15
:10511000634B524819680CF0ADF9644B4F4819685D
:105120000CF0A8F9604B4D4819680CF0A3F94B48F6
:105130000CF01AFA08215F480BF0B6FBDAF8001001
:1051400046480CF097F945480CF00EFA08215A48E9
:105150000BF0AAFBDBF8001040480CF08BF93F483D
:105160000CF002FA0E2155480BF09EFB3868FCF754
:1051700073FC0C2152480BF097FBD8F80000FCF7A9
:105180006BFCD8F800303A684E48C2EB030B15218F
:105190000BF08AFB594631480CF06CF92F480CF0A3
:1051A000E3F90A26FCF712FB09F09EFE0C224649A1
:1051B000386046480CF04AF944480CF0D5F9D8F864
:1051C00000100E20FCF74EFB39681920FCF74AFB53
:1051D0003E4809F0BDF84FF47A700AF027F8013E16
:1051E000E0D1BBF13C0F00F3A2803848384D09F004
:1051F0002DFA01236421374884F829300BF0A8FCEC
:10520000FDF7F2FD28465522202101F0CDFB38B1F3
:10521000EA8842F0040292B22846242101F0C4FB3D
:1052200000212B482C4C01F061FF2C4B28481A78A8
:10523000114601F045FC264801F0E4FB244801F04A
:105240006FFC0121152009F05FFF51E0C4C7010088
:105250003C220020CCC70100A0C90100B4F9FF1F07
:10526000590700002CC80100600E00206C040020CB
:10527000780400205C0400202C0D0020C01C0020BD
:1052800038F1FF1F900F00208C0F0020CC1C002055
:1052900060F1FF1F18F1FF1FC5B3A291F0F1FFFFEE
:1052A0006004002089888888BC1C0020B40B002082
:1052B000ECC9010000CA01000CCA010018CA0100B3
:1052C00028CA010038CA010050CA0100D40C0020CD
:1052D000C80F00200082FF1FCC0C00203CF1FF1FF4
:1052E0004CF1FF1FC80E002074F1FF1F801C00202E
:1052F000079B1968002940F0E9808249824B002011
:105300004FF0FF3208601A6011B0BDE8F08F122133
:105310007E480BF0C9FA032609F0E6FDFCF79CFB7A
:105320004FF47A7009F082FF013EF5D121E6314653
:10533000152009F0E9FE0A21754806F021F93146E9
:10534000734804F0C3FF3021714804F0BFFF3146B9
:105350006F4804F0BBFF31466D4804F0B7FF6A7B2D
:1053600029696B480096012306F0D2F90A216848A2
:1053700006F006F93146664804F0A8FF02216448A9
:1053800004F0A4FF3146624804F0A0FF31466048B3
:1053900004F09CFF6A7B29695D480096012306F0B2
:1053A000B7F93146102009F0AFFE99F800301BB173
:1053B000092158480BF078FA574B5548197806F0F0
:1053C000DFF86B21524804F081FF0026402150484D
:1053D00004F07CFF6A7B29694D480096012306F0A2
:1053E00097F9052009F022FF324630463F21FDF7AC
:1053F00099FBAE21494808F011FE0121112009F066
:1054000083FE002211461423454806F083FE0A203D
:1054100009F00CFF0021112009F076FE414806F04A
:1054200051FC09F061FDD8F8003038601B1A3C2BA4
:10543000DFDC99F800301BB1092136480BF034FA53
:10544000FEF7B4FB0A2138480BF02EFA37480CF06F
:105450008BF800223F210D20FDF764FB0A212C4828
:1054600006F08EF800212A4804F030FF3021284849
:1054700004F02CFF0021264804F028FF0026AB2171
:10548000234804F023FF6A7B296921480096012301
:1054900006F03EF90A211E4806F072F831461C4813
:1054A00004F014FF02211A4804F010FF3146184896
:1054B00004F00CFF6321164804F008FF6A7B296999
:1054C00013480096012306F023F98EE6012907D13F
:1054D000042009F019FE40F6B83009F0A7FE216853
:1054E00002290BD10121042009F00EFE4FF4FA60CD
:1054F00009F09CFE0021042009F006FE0C4B01225D
:105500001A70FAE644150020D80F0020D8C901000F
:10551000BC2400202CC8010040F1FF1FD40C002047
:10552000880E0020040D00201CC80100B4F9FF1FE4
:10553000DC0F00202DE9F04FADF2145D09F0D4FC32
:10554000BD4FBE4D386006F075FF2B68BC4C9842CD
:1055500000F06D81237833B10A21BA480BF0A4F929
:10556000B9480CF001F83868B84EDFF8389306F007
:1055700061FF2860386806F081FFB5492B68024654
:10558000B44810F08BFCB349B348C6F8009002F061
:10559000BDFCDFF8FC82386898F80030002B40F042
:1055A0002C8106F035FF0546386806F055FF834626
:1055B000386806F009FF8246386806F017FFCDF814
:1055C00000B00290CDF804A02B46A24AA349A448FB
:1055D00010F064FC00212820C6F8009009F0C6FDF8
:1055E00000262025282009F08BFA0FF059FA0146F1
:1055F00030460FF0A1F9013D0646F3D199490FF06D
:10560000A3FA4FF06A510FF09FFA4FF074510FF068
:105610009BFA01218146282009F0A8FD0DF21440D3
:105620001623914A8C4902F0FDFB0DF2144002F062
:1056300053FB002840F010822378002B40F0988222
:105640008A4B8B4ADFF84CA21A600DF2144002F02C
:1056500021FB3223824A8049864D0DF2144002F02C
:10566000E1FB0DF5A2639DF8180453F8EF1DC5F892
:105670000D10DDF81C142871A9609DF82004DDF8D8
:1056800030142873E961586899681B7BC5F81100CC
:105690006B760DF21440C5F8151002F0FBFA237872
:1056A0005BB36F4810F0CCFC01466D480BF0FCF882
:1056B00065480BF059FF0A216F480BF0F5F86F4B66
:1056C00018680EF097FD022602460B4600965E48CB
:1056D0000BF0CAFF5C480BF047FF48460EF08AFD0E
:1056E000009602460B4658480BF0BEFF0121644865
:1056F0000BF0DAF854480BF037FF624E059458E08F
:10570000336898F80040564801331A4633600CB1AC
:105710005D49534810F0C2FB3223514A4E490DF205
:10572000144002F07FFB9DF81814DDF81C349DF83E
:1057300020249DF822C49DF823E49DF824042971B7
:10574000AB609DF825149DF827342A739DF8262414
:105750009DF821B485F80EC085F80FE09DF828C4A7
:105760009DF829E4287469749DF82A049DF82B1487
:10577000AA74EB749DF82C249DF82D3485F814C080
:1057800085F815E0E9752A76A87585F80DB06B7671
:105790000DF21440DDF83034EB6102F07BFA304852
:1057A00010F04EFC01462E480BF07EF826480BF018
:1057B000DBFE304802F090FA34490028A0D098F877
:1057C0000030059C324E002B6ED0012BCAF814908D
:1057D000304E00F0A78023785BB109212E480BF0F2
:1057E00063F82E4B184819680BF044FE16480BF06E
:1057F000BBFE0DF2145DBDE8F08F06F009FE054614
:10580000386806F029FE8346386806F0DDFD8246DA
:10581000386806F0EBFDCDF800B00290CDF804A09A
:105820002B460C4A1E490E4810F038FBD2E6074EB4
:10583000DFF87090ADE600BF6C040020D80F0020A8
:105840004CF1FF1F60CA0100B4F9FF1F982200202D
:105850006CCA0100B80C00203C22002078CA01006C
:10586000300400208EC2DD40C4C701000CED00E012
:105870000400FA059C1C002004CB0100C81C002079
:1058800010CB0100C00F002020CB010014CB010081
:1058900034F1FF1F700E002070CB0100CC1C0020E3
:1058A00090CA01005D070000B649B74DB74AB84B32
:1058B000DFF8F4E203C9286092E80300A86093E8E7
:1058C0000300DEF800B0E86001234FF01008AB825F
:1058D000EB825846C5F810800FF022FB5946A861AC
:1058E00058460FF029F80FF01BFBAA4AAA4BE861B3
:1058F00092E803001B6868625B02022003F1240E39
:10590000288429462C22A548AB62A5F82280C5F838
:1059100004E002F013F93378CAF81490012BA04E7A
:105920007FF459AF38689F4D06F060FD30723868DB
:1059300006F04AFD7072386806F08EFDB072386865
:1059400006F066FDF072386806F074FD3073386852
:1059500006F094FD00273082314618228F48778266
:1059600002F0ECF8904B9149D3F80080FC2209A892
:1059700008F08EFE08228E49284610F01FFC4FF4D6
:105980008076022309A9FC22C5F80C3105F110002C
:105990002F81C5F81081EE6008F07AFE29464FF499
:1059A0008A727E4802F0CAF8013002D1814B824AE5
:1059B0001A60824B824F1B786420C8214FF4967284
:1059C00000267860B960FA603E60002B40F00D82DE
:1059D0004FF0020A4FF00108D3464646794B1B7838
:1059E000002B40F0BF81784B1B78002B40F07A8170
:1059F0004FF48A7909FB0655FC2274490DF21440D4
:105A000008F046FE08227249284610F0D7FB002312
:105A1000C5F8103100230DF21441FC222B81EB60FC
:105A2000C5F80C3105F1100008F032FE4A4629464F
:105A30005A4802F083F8013002D15E4B5E4A1A6088
:105A40003601BB196420C8214FF4967247F80680CE
:105A500058609960DA60BEE65E485F4D10F0F0FA7B
:105A60005C4902460DF2144002F068F82C210DF258
:105A7000144002F0AFF805F1080615F8011F0023E5
:105A80000A220DF214400BF091FDAE42F5D12C210B
:105A90000DF2144002F09EF8504BDFF804A1186894
:105AA0004F4D0EF0A7FB022602460B4600960DF264
:105AB00014400BF0D9FD2C210DF2144002F08AF8AD
:105AC00048460EF097FB009602460B460DF2144036
:105AD0000BF0CAFD2C210DF2144002F07BF8414B73
