:1000000000800020BD010000C5AB00007DAB0000FA
:100010007DAB00007DAB00007DAB00007DAB000040
:100020007DAB00007DAB00007DAB0000C5AB0000E8
:10003000C5AB00007DAB00002DCA000031CB000035
:10004000C5AB0000C5AB0000C5AB0000C5AB0000F0
:10005000C5AB0000C5AB0000C5AB0000C5AB0000E0
:10006000C5AB0000C5AB0000C5AB0000C5AB0000D0
:10007000C5AB0000C5AB0000C5AB0000C5AB0000C0
:10008000C5AB0000C5AB0000C5AB0000C5AB0000B0
:10009000C5AB0000C5AB0000C5AB0000C5AB0000A0
:1000A000998C0000A58C0000C5AB0000C5AB00001A
:1000B000C5AB0000C5AB0000C5AB0000C5AB000080
:1000C000C5AB0000C5AB0000C5AB0000C5AB000070
:1000D000C5AB0000C5AB0000C5AB0000C5AB000060
:1000E000C5AB0000C5AB0000C5AB0000C5AB000050
:1000F000C5AB0000F5B60000C5AB00002DD1000077
:10010000C5AB000059D20000C5AB0000C5AB000074
:10011000C5AB0000C5AB0000C5AB0000C5AB00001F
:10012000C5AB0000C5AB0000C5AB0000C5AB00000F
:10013000C5AB0000C5AB0000C5AB000031A6000098
:10014000C5AB0000C5AB0000C5AB0000C5AB0000EF
:1001500009CD00001DCD000031CD000045CD0000CF
:10016000C5AB000071B90000C5AB0000C5AB000015
:10017000C5AB0000C5AB0000C5AB0000C5AB0000BF
:10018000C5AB0000C5AB0000C5AB0000C5AB0000AF
:10019000C5AB0000C5AB0000C5AB0000C5AB00009F
:1001A000C5AB0000C5AB0000C5AB0000C5AB00008F
:1001B000C5AB0000C5AB0000E9C70000564B4CF2D0
:1001C000205210B51A804DF628121A8000BF00BFC9
:1001D00000F014FB514B4FF010621A60504A9A60C5
:1001E000504ADA60504A136813F4807304D14F49BF
:1001F0000B604FF4A85313604D4B1A78110703D5C9
:100200001A7842F008021A704A4B4B492A221A7097
:100210004A4A4B4B8B4204D252F8040F43F8040B6A
:10022000F8E7484B484900228B4202D243F8042B9E
:10023000FAE74649464A002352F8230041F82300D2
:1002400001336F2BF8D1434B434A802103F8011B44
:100250009342FBD1414B3D4A1A60414B8A221A70AE
:10026000A3F5805324225A70A0221A709A7992071B
:10027000FCD59A79D406FCD43A4A937903F00C035E
:10028000082B384BF9D103221A7140225A719A79FE
:100290009006FCD5334A9179324B4906FBD5324A58
:1002A000324911600221516020221A709A7902F0BD
:1002B0000C020C2AFAD12E4B2E4A1A602E4B4BF60A
:1002C0007F321A6000225A60072243F8042C2B4A1E
:1002D000C3F80C2D62B60AF07BFE144B1B68DA07DC
:1002E00005D527480AF0D8FD264B274A1A60274B28
:1002F0001B785B0609D5234C234B22689A4204D114
:100300001F480AF0C9FD0023236010F0B7FA0AF075
:100310005DFC0CF065FEFEE70E20054030800440D9
:10032000823F04000100002B10D0034014D0034092
:1003300002D0074000E0074010040020508E020069
:1003400020EFFF1F100400208028002000EAFF1F7C
:100350000000000000E400E05FE400E008ED00E0E1
:100360000050064000400640448004400000131145
:1003700004800440C010050014E000E000002020CC
:100380005718A95A1CE00340A5C3945A00F007402F
:10039000FFFFFFFFFFFFFFFFFFFFFFFFFFFFFFFF6D
:1003A000FFFFFFFFFFFFFFFFFFFFFFFFFFFFFFFF5D
:1003B000FFFFFFFFFFFFFFFFFFFFFFFFFFFFFFFF4D
:1003C000FFFFFFFFFFFFFFFFFFFFFFFFFFFFFFFF3D
:1003D000FFFFFFFFFFFFFFFFFFFFFFFFFFFFFFFF2D
:1003E000FFFFFFFFFFFFFFFFFFFFFFFFFFFFFFFF1D
:1003F000FFFFFFFFFFFFFFFFFFFFFFFFFFFFFFFF0D
:10040000FFFFFFFFFFFFFFFFFFFFFFFFDEF9FFFF23
:1004100010B5054C237833B9044B13B10448AFF33E
:1004200000800123237010BD100400200000000094
:100430004C8E0200084B10B51BB108490848AFF3B9
:1004400000800848036803B910BD074B002BFBD0A0
:10045000BDE81040184700BF000000001404002051
:100460004C8E0200100400200000000000207047A5
:10047000704700BFF8B55548554D564C297803785C
:100480002278DFF868E1544F544E120442EA032305
:10049000FF222A700270802022708EF800003870CF
:1004A000B2794F480B4312F00C0FC36002D1B379FD
:1004B000DC063DD4494A9379C3F38103032B40D032
:1004C000464B9A79C2F38102022A42D0434A937979
:1004D000C3F38103022B53D0404A9379C3F38103C2
:1004E000022B61D03D4A9379C3F38103012B51D094
:1004F0003A4A9379C3F38103012B5CD0374B9A7945
:1005000012F00C0F03D19A79D20600D49B79354DA5
:10051000354B2A7853F82240D4B1236820469B6893
:1005200098472B7804EB83046468002CF5D1F8BD60
:10053000B3799806EBD5294A9379C3F38103032B4A
:10054000BED19379D906BBD493799B06DFD4B7E7A4
:10055000F8BD9A79D706B9D49A799606B6D559785E
:1005600001F0020101F0FF020029AFD120211A7031
:100570001A461970937903F00C030C2BFAD1C6E7D5
:100580009379DD06A8D493799C06A5D4537898076F
:10059000BDD5A1E79379DF06AAD593799E06A7D4A6
:1005A00053789D07B3D4A3E79379D9069AD45378A7
:1005B0009B07ACD496E79379DC069FD59379980690
:1005C0009CD453789907A2D598E700BF06C007408E
:1005D00005C0074007C0074009C00740004006406B
:1005E0005828002010250020D024002008C00740F3
:1005F00090F92410104B03604B1C06D0F0B40F4E42
:1006000056F82130984201D0F0BC70470C4F57F893
:10061000213033B18D0000245A1953685460002BE7
:10062000FAD1084C23780022013B237047F821209F
:1006300046F82120E8E700BF4C7B0100F0240020B1
:10064000D02400201125002038B590F924506B1CCF
:100650001BD00E4B0E4953F825400E4BEDB24FF018
:10066000FF320D701A6084B1AD0002E02C44646862
:100670005CB194F82530002BF8D0236820462C4438
:100680001B6898476468002CF3D138BDD024002043
:100690001025002090E9FF1F704700BF90F924103B
:1006A000104B03604B1C06D0F0B40F4E56F82130AF
:1006B000984201D0F0BC70470C4F57F8213033B14D
:1006C0008D0000245A1953685460002BFAD1084C4D
:1006D00023780022013B237047F8212046F821208F
:1006E000E8E700BF4C7B0100F0240020D02400206C
:1006F0001125002090F92410104B03604B1C06D0EC
:10070000F0B40F4E56F82130984201D0F0BC70473B
:100710000C4F57F8213033B18D0000245A1953681B
:100720005460002BFAD1084C23780022013B23703F
:1007300047F8212046F82120E8E700BF4C7B010064
:10074000F0240020D02400201125002010B50446FC
:100750000CF0B8FA204610BD0AF098BB2DE9F04124
:100760000E4680460AF092FB174D286008F0A0FE66
:100770000746286808F08EFE0446286808F07CFECC
:100780006401C0B204F4FF54BFB20443A7F2BC77C3
:1007900044EA4724A8F80040286808F043FE0746CA
:1007A000286808F04DFE0446286808F057FEFF024E
:1007B000640107F4FF2704F4FF54C0F346003C43F0
:1007C00004433480BDE8F0816C04002070B5044619
:1007D00008460D4610F034FF23680246294620469D
:1007E0005B68BDE87040184738B505460CF018FB4B
:1007F000044628460CF0C4FA204438BD404A414B18
:10080000102010801B781B072CD5F0B53E4E3F4DB5
:100810003F4C31782B7822783E4FDFF810E1824050
:1008200042EA03230B43FF22802132702A70227098
:100830008EF800103970DF07374A0CD51A23936001
:10084000364D374C3748384900232B70D36023701E
:1008500003700B70F0BD1E0705D4DD0606D504231A
:100860009360EDE7704721239360E9E79C0604D489
:10087000590604D516239360E2E79060E0E71F066F
:1008800002D509239360DBE7DE0502D50A239360D6
:10089000D6E79D0502D50D239360D1E75C0502D50F
:1008A0000B239360CCE7180502D51E239360C7E79E
:1008B000D90402D502239360C2E79F0402D507231F
:1008C0009360BDE75E0402D506239360B8E71D047C
:1008D00002D515239360B3E7DC0302D5242393608C
:1008E000AEE7980302D522239360A9E7D90202D587
:1008F00025239360A4E79B0244BF232393609FE7D3
:100900000020054002D0074005C0074006C0074050
:1009100007C0074009C007405828002000C0074012
:1009200001C0074002C0074003C0074008C007409D
:10093000002976D02DE9F04F0C469100631883B062
:100940005D68002D57D06B185E68002E50D073186C
:100950005F68002F49D07B18D3F80480B8F1000FEE
:100960003CD008EB0103D3F80490B9F1000F32D06A
:1009700009EB0103D3F804A0BAF1000F27D00AEB6A
:100980000103D3F804B0BBF1000F18D00BEB010347
:100990005B6863B1194401934968FFF7C9FF019B84
:1009A00093F825201AB11A681846536898479BF89F
:1009B000253023B1DBF8003058465B6898479AF839
:1009C000253023B1DAF8003050465B68984799F833
:1009D0002530002B35D198F8253063BB97F82530AA
:1009E0001BB13B6838465B68984796F82530CBB911
:1009F00095F8253063B994F8253013B903B0BDE8F4
:100A0000F08F23685B68204603B0BDE8F04F1847BD
:100A10002B6828465B68984794F82530002BEDD06A
:100A2000EFE77047336830465B68984795F82530A4
:100A3000002BE0D0ECE7D8F8003040465B689847E0
:100A4000CCE7D9F8003048465B689847C3E700BF59
:100A500090F92420531C26D01B4B2DE9F04153F86C
:100A60002240D2B2ECB19300E1184D68B5B1E9185B
:100A70004E6866B1F1184F6837B13B445968FFF7CB
:100A800057FF97F82530A3B996F8253063B995F844
:100A900025301BB12B6828465B68984794F82530B1
:100AA00063B9BDE8F0817047336830465B689847AA
:100AB000EDE73B6838465B689847E5E723682046E2
:100AC0005B68BDE8F0411847D024002038B50D21FF
:100AD000154C16480BF080FC15480CF051F9258890
:100AE000144810210BF078FC294611480CF098F9B5
:100AF0000F480CF045F900230F4A1946112082F8DF
:100B0000F6300AF0DBF90D4B0D4A1B781288228073
:100B100013B10C480CF0D6F80B4805F033FB6420F9
:100B2000BDE838400AF006BADC260020907B0100C0
:100B3000B0F9FF1FA07B0100BC0B002030F1FF1FAC
:100B4000042700207C0F0020981C00209B4B93E87A
:100B5000030070B59A4C9B4D0123238184E8030068
:100B60000822994904F10C0010F028FE0822974948
:100B700004F1140010F022FE0822954904F11C0033
:100B800010F01CFE0822934904F1240010F016FE18
:100B90000822914904F16C0010F010FE08228E49E1
:100BA00004F1740010F00AFE08228B4904F17C0065
:100BB00010F004FE0822884904F1840010F0FEFDC4
:100BC000864A874B106819680FF0BEF9854BC4F848
:100BD000CC001B78C4F8D000012B0CBF824983499C
:100BE000C4F8D400C4F8D800082204F1FC0010F0C6
:100BF000E5FD7F4B93E8030004F5847383E803006D
:100C00000223A4F8043108227A4904F5887010F010
:100C1000D5FD0822784904F5B47010F0CFFD774A6D
:100C20004FF07E5392E80300C4F8CC31C4F8C831C9
:100C3000734B04F5B87282E8030093E803000323C2
:100C400085E803000822A4F800326E4905F10C0083
:100C500010F0B4FD08226C4905F1140010F0AEFD4F
:100C600008226A4905F11C0010F0A8FD684B69498B
:100C7000C4F8C41293E80300674A05F16C0686E8DD
:100C8000030005F17C0305F1740686E8030083E8A0
:100C9000030092E8030005F1FC0383E803005F4BC7
:100CA000C4F8C8325E4E5F49C4F8CC620923A4F888
:100CB000FC32082205F5847010F080FD08225A49A4
:100CC00005F5887010F07AFD0822584905F58C70FA
:100CD00010F074FD0822564905F5907010F06EFD75
:100CE0000822544905F5947010F068FD0822524915
:100CF00005F5987010F062FD0822504905F59C70CA
:100D000010F05CFD08224E4905F5A07010F056FD6C
:100D100008224C4905F5A47010F050FD08224A49FC
:100D200005F5B47010F04AFD0822474905F5B87082
:100D300010F044FD0822444905F5BC7010F03EFD5A
:100D4000424B93E8030005F5C07282E8030005F505
:100D5000C87305F5C47282E8030083E80300082223
:100D60003B4905F5CC7010F029FD0822384905F5FE
:100D7000D07010F023FD0822354905F5D47010F02D
:100D80001DFD344B18680FF093F94FF060510FF0D0
:100D9000E3F9314A314BC4F8C003C4F8C403C4F8C2
:100DA000C803C4F8CC23C4F8D023C4F8D423C4F8AF
:100DB000D833C4F8DC33C4F8E03370BDB47B010031
:100DC000D81C0020D01E0020C07B0100C87B010081
:100DD000D07B0100D87B0100E07B01004C040020A7
:100DE00050F1FF1F68040020E47B0100147C010027
:100DF000EC7B0100F87B0100007C0100087C010015
:100E00001C7C0100287C01002C7C0100347C01004A
:100E10003C7C01000000A039947C01000000903966
:100E20000000F039487C0100507C0100587C010032
:100E3000607C0100687C0100707C0100787C01000E
:100E4000807C0100887C01009C7B01009C7C01006F
:100E5000907C0100F0F0FF1F0000FA3C0000163EFD
:100E600010B5294C29482278114604F08DFC2368DE
:100E70000F2B0CD8DFE803F00C1014181C202428CA
:100E80002C3034383C404408214B224A1A6010BDB3
:100E90001F4B214A1A6010BD1D4B204A1A6010BD1D
:100EA0001B4B1F4A1A6010BD194B1E4A1A6010BD19
:100EB000174B1D4A1A6010BD154B1C4A1A6010BD15
:100EC000134B1B4A1A6010BD114B1A4A1A6010BD11
:100ED0000F4B194A1A6010BD0D4B184A1A6010BD0D
:100EE0000B4B174A1A6010BD094B164A1A6010BD09
:100EF000074B154A1A6010BD054B144A1A6010BD05
:100F0000034B134A1A6010BD38F1FF1FC40F0020B5
:100F10004C040020BD549341103377C0993918C058
:100F2000BE0D68BFCE71153F8D090340CCC962402C
:100F300009A7A3407DDBD140C416014154FC1741F1
:100F4000D0E83041195546419FAB5F41A041764101
:100F50005E2E864110B4114A13780133DBB2137050
:100F60001378282B11D00E490E4B10781B780A7875
:100F70000B4983428CBF00230123934203D90A4AC1
:100F8000012313700B7010BC7047074804490023FD
:100F90000224137004700B70E6E700BF640E00209B
:100FA0004E0F002068F1FF1F580E002010B4174BA1
:100FB00017491A78D2B2C0B288541A780132D2B224
:100FC0001A701A78D2B2002088541A780132D2B23C
:100FD0001A701A78782A11D00E4A0F4819780378B7
:100FE00012780C488B428CBF00230123934203D913
:100FF0000A4A01231370037010BC70470749054A61
:10100000187002240C701070E7E700BF8E0B0020F0
:10101000DC0D0020840F002040F1FF1F961C0020F3
:1010200070B41C4B1C4C1D4D00221868A15CC9B249
:101030002954196801320131062A1960F5D10822B4
:101040001868A15C134EC9B22954196801320131E4
:10105000142A1960F4D13268B2F5E16F11D0104A48
:1010600010491B68096812780D488B42B4BF0023F1
:101070000123934203D90C4A01231370037070BCFF
:1010800070470948064A002102243160047011703B
:10109000E6E700BFCC0E0020CC2100208404002015
:1010A000921C002060F1FF1FD40E002070B472B6B5
:1010B0001B491C4B1C4841250E2480220D700470D6
:1010C00019461A700B78174A1806FBD5174B1848A3
:1010D0001D78184C18490570033B247809781B7853
:1010E000C3704470817062B672B60D490E4C4126D1
:1010F0000F2580230E702570114613700B781B0688
:10110000FCD50A4C0B490C4A0C4B24780978127810
:101110001B78C37104714171827162B670BC7047F3
:101120000700024000000240060002400B0002409F
:10113000841C00200A00024009000240080002400E
:1011400038B50021282009F0CDFE002520242820D4
:1011500009F04EFC0EF0ACFF014628460EF0F4FEFE
:10116000013C0546F3D109490EF0F6FF4FF06A51F4
:101170000EF0F2FF01210446282009F0B3FE2046BC
:101180004FF074510EF0E8FF38BD00BF8EC2DD4055
:101190002DE9F041244C254E94F800E06578A778BD
:1011A000E27894F804C06379A079E17941EA0020FB
:1011B00045EA0E2143EA0C2331801D4D1D491E4E88
:1011C00042EA07225B422A800B8000B20EF070FFD9
:1011D000227A637A94F80AC0E57A94F80C80677BE7
:1011E000306043EA0223154A94F80EE01380E17B55
:1011F00047EA0820277C627CA67CE37C42EA07223F
:1012000045EA0C240E4F0F4D40422C8038800E4D85
:101210000E4C0F48228041EA0E2143EA0623298022
:101220000380BDE8F08100BFCC210020801C00209D
:10123000821C00208C0B0020680E002080040020FF
:10124000CA210020C8210020720400207004002060
:101250007404002010B5114C2168012915D0022911
:1012600003D00F4B01221A7010BD0121042009F098
:1012700025FE4FF4FA6009F05DFE0021042009F01C
:101280001DFE074B01221A7010BD042009F016FE46
:1012900040F6B83009F04EFE2168E0E7C80C0020A7
:1012A000D80F0020124B10B51C68012C0FD0012163
:1012B000042009F003FE4FF4FA7009F03BFE002110
:1012C000042009F0FBFD0B4B01221A7010BD002118
:1012D000042009F0F3FD4FF47A7009F02BFE21464B
:1012E000042009F0EBFD034B01221A7010BD00BF72
:1012F000C80C0020D80F0020114B10B51C68012C21
:101300000CD00121042009F0D9FD642009F012FE5F
:1013100000210420BDE8104009F0D0BD00210420C8
:1013200009F0CCFD4FF4C87009F004FE21460420FA
:1013300009F0C4FD41F27070BDE8104009F0FABD3B
:10134000C80C002008B5104B1B68012B0FD00121E1
:10135000042009F0B3FD40F6B83009F0EBFD0021A0
:10136000042009F0ABFD094B00221A7008BD4FF4B0
:101370007A7009F0DFFD0021042009F09FFD034B86
:1013800000221A7008BD00BFC80C0020D80F002032
:1013900008B5114A114B106819680FF07BF880B935
:1013A000034613F0FF0F11D10D4B1968A1F1010194
:1013B000B1FA81F1490949B90820BDE8084009F0AE
:1013C0007DBD4FF0010313F0FF0FEDD00121082088
:1013D000BDE8084009F072BDD00E002074F1FF1F77
:1013E000900F00202DE9F041464B474C59781F786B
:1013F000627898782378A678444D0902120241EA6F
:10140000074142EA034308431E430EF04DFE404BA2
:10141000044618880EF048FE4FF087410EF09CFEFF
:10142000014620460EF08EFD3A4B044618880EF019
:101430003BFE21460EF090FE4FF050510EF08CFE18
:1014400035490EF081FD35490EF03AFF344B2860E6
:10145000074618880EF028FE21460EF07DFE4FF05C
:101460006E510EF079FE2F4B804618880EF01CFE50
:101470004FF08E410EF070FE014640460EF064FDC6
:10148000804630460EF010FE014640460EF064FEE7
:101490004FF054510EF060FE234B064618880EF0B4
:1014A00003FE21460EF058FE4FF070510EF054FE30
:1014B0001E4B044618880EF0F7FD4FF08F410EF0DA
:1014C0004BFE014620460EF03FFD014630460EF031
:1014D00039FD4FF064510EF03FFE15490EF0F0FE5D
:1014E000144B02461A60196813480EF02BFD13497D
:1014F00000F100400EF0E4FE114B18602F60BDE8D3
:10150000F08100BF480F0020380D0020D01C0020C3
:1015100082040020F60E00200000FA440000C842B9
:10152000941C00204C0F0020E4210020901C00207F
:10153000000020416404002000807C4406C1DE429B
:10154000D00E002030B5314B314D1A78697B2869B7
:1015500085B0012300248DE81800052307F09EF8CC
:101560002B69D3F83821D3F8341191420ED002AC54
:10157000184607F0ADF82B69D3F83811D3F83421A9
:1015800020EAE070914204F8010BF1D19DF80A20A5
:101590009DF809001F4B42EA00201C680EF088FDF0
:1015A0004FF08D410EF0CEFC1B4B054621461868CE
:1015B0000EF0C8FC014628460EF0CEFD4FF06051FB
:1015C0000EF0CAFD21460EF0BFFC14490EF0C4FD1A
:1015D000124904460EF074FE9DF80C30104A014684
:1015E0009DF80B00116043EA0020001118380EF03E
:1015F0005FFD0C490EF0B0FD0B490EF0A3FC0B4A49
:101600000B4B10601C6005B030BD00BF24F1FF1F04
:10161000BC240020C00C00206CF1FF1F00007A44A5
:10162000D00E0020CDCC4C3D00004842D01C002004
:101630006404002010B50D4C204608F0C5FCFFF7EF
:101640007FFDFFF77DFD6062204608F0F5FE204635
:10165000012108F00FFA2046012108F005FA0022C6
:1016600020461146BDE8104008F0FAB9D00C002021
:1016700010B501220446084908480BF06DFB092CFF
:1016800004DC0122064905480BF066FB21460348AD
:10169000BDE810400BF0C4BB287F0100D00C002037
:1016A000A47C010038B50C4605460121234808F00A
:1016B000DBF92AB20021214808F0D2F9204607F0D0
:1016C000F7FE01461D480BF0ABFB2D211B4808F02F
:1016D0008DF9204607F0DEFE014618480BF0A0FB0E
:1016E0002D21164808F082F9204607F0C5FE014674
:1016F00012480BF095FB0222114910480BF02CFB0D
:10170000204607F08FFE092804DC01220D490B4812
:101710000BF022FB204607F085FE014607480BF040
:101720007FFB204607F08CFEFFF7A2FF204607F064
:1017300095FEBDE83840FFF79BBF00BFD00C0020EE
:10174000A87C0100A47C010010B501213448354C6F
:1017500008F08AF90121324808F08CF9002211467C
:101760002F4808F07DF92368002B3BD0012B51D086
:10177000082200212A4808F073F92B4B1B684BB153
:101780002A4B08201968FFF78DFF022228492448B8
:101790000BF0E2FA10220021214808F061F904223E
:1017A00024491F480BF0D8FA234B1D4819680BF049
:1017B00037FB012221491A480BF0CEFA08222049B2
:1017C00017480BF0C9FA1F4B154819680BF028FB96
:1017D00001221A4912480BF0BFFA1148BDE8104027
:1017E0000BF0CEBA082218490D480BF0B5FA174A8B
:1017F000174B11681B680A48C91A0BF011FB01222C
:101800000E4907480BF0A8FA05480BF0B9FA23680F
:10181000012BADD107220F4901480BF09DFAA7E734
:10182000D00C002040150020600E00205C04002039
:10183000C47C0100C87C010070F1FF1FB87C01006E
:10184000D07C01007C1C0020AC7C0100C40E002078
:101850006C040020BC7C010030B583B002AD079C55
:1018600005F8082D8DF80200069A8DF804304E34E4
:1018700028468DF801108DF805208DF8064007F0F8
:1018800027FE09F009FB03B030BD00BF70B58CB076
:1018900004460FF0D5FE00B2012829DDB4F900306E
:1018A00044F65212934200F0C68124DC44F25242C4
:1018B000934200F0C9813FDD44F24172934200F04F
:1018C000B1816EDD44F64412934200F04D8144F63E
:1018D0005012934200F0E28044F25372934207D1D7
:1018E00009AAE01CA9490FF007FEA94B099A1A6042
:1018F00001200CB070BD45F24B02934200F0AD8167
:1019000034DD45F24432934200F0328140F3A98045
:1019100045F25042934200F01C8145F242729342DC
:1019200000F0E28045F24C329342E1D199499A4A63
:1019300001230B701370DBE744F24C42934200F03A
:101940006D8140DC44F25012934200F0BA8044F2C0
:1019500048329342CCD1E01C09AA8C498F4C0FF03D
:10196000CBFD09980EF0A4FB2060C1E744F6495274
:10197000934200F0438137DC44F64242934200F048
:10198000AB8044F642529342B2D109AA7F49E01C8F
:101990000FF0B2FD824A0999824B116002221A604F
:1019A000A6E744F25342934200F09A8044F2506218
:1019B00093429DD109AAE01C74490FF09DFD7A4B1A
:1019C000099A1A6094E744F24E42934275D044F269
:1019D000504293428CD109AAE01C6C490FF08CFD57
:1019E000724B099A1A6083E744F6505293424CD0E6
:1019F00044F6545293427FF47BAF09AD08A907AA7D
:101A000004AB039502910192009306AA05ABE01C7A
:101A100067490FF071FD069C059D049B07A804F51E
:101A2000FA6407C800950194FFF716FF1121614879
:101A30000AF0D2FC07F0CAFD01465F480BF0F0F94E
:101A40005D480BF09DF91B215C480AF0C5FC09F0CC
:101A50001DFA014658480BF0E3F957480BF090F98E
:101A600046E745F24D02934221D045F2502293427F
:101A70007FF43EAFE01C09AA4449514C0FF03CFDF5
:101A800009980EF015FB206032E709AAE01C3F49D7
:101A90000FF032FD4B4B099A1A6029E709AAE01CA6
:101AA0003A490FF029FD484B099A1A6020E7474947
:101AB000394A01230B7013701AE7454B01221A6053
:101AC00016E7E01C09AA3149424C0FF015FD0998B0
:101AD0000EF0EEFA20600BE73F4B01221A708CE704
:101AE0003E4B01221A6003E709AD08A907AA04AB1F
:101AF000039502910192009306AA05ABE01C2C49C4
:101B0000374C0FF0F9FC069B09980499059A089E3A
:101B1000079D8DF828001E330AA88DF82E308DF809
:101B20002C108DF82D208DF829608DF82A5007F0A3
:101B3000CFFC1C4B206001220A212A481A600AF0BF
:101B40004BFC21681C480BF06BF91B480BF018F993
:101B5000CEE6E01C09AA0D49234C0FF0CDFC0998F4
:101B60000EF0A6FA2060C3E6204B01221A70BFE6F1
:101B70000AAB09AA1E49E01C0FF0BEFC1D491E4B12
:101B800009980A9A08601A60B2E600BFDC7C01007E
:101B900038F1FF1F0CF1FF1F30F1FF1F50F1FF1F45
:101BA00078040020600E00208C1C002004F1FF1F30
:101BB000E07C0100F47C0100B0F9FF1F087D01000A
:101BC00048F1FF1FF4F0FF1F10F1FF1F6804002011
:101BD000CC0C002008F1FF1FFC0C0020C4210020C9
:101BE0005C040020247D010058F1FF1FC81C002068
:101BF000EC7C0100BC1C0020280D002009AA1A4919
:101C0000E01C0FF079FC0998184C0EF051FA1849B5
:101C1000184A206001230B70137069E6164B0022EE
:101C20001A7065E609AAE01C0F490FF065FC134B1A
:101C3000099A1A605CE609AAE01C0B490FF05CFCEB
:101C40000F4B099A1A6053E609AAE01C06490FF0E7
:101C500053FC0C4B099A1A604AE60B49044B0220CC
:101C6000012208701A7043E6DC7C01004CF1FF1F72
:101C700030F1FF1F28F1FF1F00F1FF1FF0F0FF1FE1
:101C80007C1C002070F1FF1F6804002038B5054659
:101C900007F00EFC1E4C014620460BF0C1F82D202B
:101CA0000AF01EFC284607F0F5FB014620460BF023
:101CB000B7F82D200AF014FC284607F0DDFB01469A
:101CC00020460BF0ADF8012112480AF085FB2846AA
:101CD00007F0A8FB014620460BF0A2F83A200AF0D4
:101CE000FFFB284607F0ACFB014620460BF098F8B6
:101CF0003A200AF0F5FB284607F0B0FB01462046E3
:101D00000BF08EF82046BDE838400BF039B800BF24
:101D1000B0F9FF1FE47E01002DE9F043434A444B34
:101D2000DFF81891DFF81881424D98F80010167806
:101D300099F800701A78286883B03C2313FB0717C2
:101D400013FB062607F06EFB0446286807F078FBB5
:101D5000C4EB041400EB8404286807F0A9FB00F12D
:101D60004E0328688DF8063007F094FB8DF80500C7
:101D7000286807F081FBB7428DF8040006D2A7421D
:101D800032D8A64230D303B0BDE8F083A742FAD9D7
:101D9000A642F8D202A8002399F8002000F8083DD6
:101DA00098F800308DF801308DF8022007F090FB94
:101DB0000F21286020480AF00FFB2868FFF766FF14
:101DC00009F064F82B68834204DA03F5A83303F5BD
:101DD000C0732B600F2118480AF0FEFA2868FFF73D
:101DE00055FF03B0BDE8F08302A8002399F8002056
:101DF00000F8083D98F800308DF801308DF8022089
:101E000007F066FB0F2128600B480A4C0AF0E4FA41
:101E10002868FFF73BFF09F039F82B688342D9DACD
:101E200003F5A83303F5C0732360D3E7D10F002077
:101E3000D00F0020C40E0020307D0100C11C002006
:101E4000D90F00202DE9F04F6D4A6E4D6E4C6F4B4F
:101E50006F48DFF8DCA1D3F800C0D0F800E0D2F87A
:101E6000008023882A88BAF800106A4E6A4FB6F9B3
:101E70000000CCEB0202CEEB030387B02A80238064
:101E8000C8EB0101AAF800100DF0AAFC80468946B3
:101E9000B7F900000DF0A4FC42464B460CF000FAE6
:101EA0000DF0FCFF02900DF0ADFC804689460CF071
:101EB000B3F90DF0F3FF4946834640460CF0D6F8DF
:101EC0000DF0ECFF8046B5F900000EF0F1F8814608
:101ED000B4F900000EF0ECF8504B0190B3F900009B
:101EE00040420EF0E5F80446B7F900000EF0E0F8C5
:101EF00059460EF031F90546B6F900000EF0D8F853
:101F000041460EF029F9014628460EF01DF801461B
:101F100020460EF0D5F90DF075FC0BF009FF0DF021
:101F2000BDFF03900DF06EFC04460D460CF074F9F5
:101F300006460F46204629460CF098F802460B4606
:101F400058464946CDE904230EF006F901990446A6
:101F500040460EF001F9014620460DF0F5FF3946E6
:101F6000044630460DF09AFF014620460EF0F4F884
:101F70000446BAF900002A4F2A4E0EF099F8DDE91E
:101F800004230546194610460DF088FF01462846F1
:101F90000EF0E2F8014620460DF0D6FF0DF032FCBF
:101FA00004460D46404649460EF0D6F80199804653
:101FB00058460EF0D1F8014640460DF0C3FF00F13F
:101FC00000400DF01FFC22462B460CF069F9044638
:101FD0000D46039814490EF0BFF8144B12491860CF
:101FE00002980EF0B9F82946386020460DF056FFE9
:101FF0000D490EF0B1F8306007B0BDE8F08F00BFBA
:10200000340D00207204002074040020540E0020BF
:10201000F00E00208C0B0020821C0020801C002071
:102020007C040020C80E0020E12E6542C40C002074
:102030007004002010B50446232009F04DFA214613
:102040000B480AF0EDFE0A480AF09AFE094B1B788D
:1020500003B910BD072108480AF0BEF92146074818
:102060000AF0DEFE0548BDE810400AF089BE00BF58
:1020700090F9FF1FC81C0020407D0100B0F9FF1F30
:102080002DE9F04FDFF8D492DFF8D482D9F80000C0
:10209000D8F8001085B00EF01BFA40B19E4BD9F86D
:1020A00000201B78C8F80020002B40F0AA809B4C31
:1020B0009B4E23689B4D002B48D19B4A2B68376869
:1020C0001268DFF8A0A2D9F80000DAF80010FB1AB5
:1020D0009342D4BF4FF0000B4FF0010B0EF0F8F914
:1020E000924B1A684FF00103002800F08680002A06
:1020F00014BF002303F001031BEA030B74D0864ACC
:102100008A4B127801211960002A57D1D9F80010A2
:10211000DFF85492D8F800000DF014FFD9F8001041
:102120000EF0D6F94FF00101002868D0DFF80C82DC
:102130007F4AD8F8000012689042ACBF002201F03C
:1021400001021BEA020A40F08A802368326828688C
:10215000A3F1010ABAFA8AFA4FEA5A1A824202DB5A
:10216000BAF1000F04D1022B18D005B0BDE8F08FF2
:10217000704F022338682360FFF75CFF6E4A3B68AC
:1021800012686E49013393423B60A4BF00233B6059
:102190000A6823680132022B0A60E6D1684A336874
:1021A000296812685B1A9342DFDD0021102008F0D5
:1021B00085FE0023236005B0BDE8F08F192161483A
:1021C0000AF00AF9DAF800000DF01CFB4FF0020EDD
:1021D00002460B46CDF800E05B480AF029FE5A485B
:1021E0000AF0CEFD514B1A68022A1DD0A2F1010B54
:1021F000BBFA8BFB4FEA5B1B88E7034677E7014698
:1022000094E70B2151480AF0E7F8D8F800000DF0E8
:10221000F9FA022402460B4600944B480AF008FEE5
:1022200049480AF0ADFD42E7DFF840A1D9F80000C7
:10223000DAF800100392DFF824B10EF02BF950B158
:10224000354BDBF80010394A1B78C8F80010002124
:1022500011609346CBB92368D9F8002076E70121B5
:10226000102008F02BFE2C4B326893F800C02F4F43
:10227000DFF8A8B0901C01210223286021603B6098
:10228000BCF1000F1CD10B4668E70D2130480AF065
:10229000A3F8DAF800000DF0B5FA039A00920B46A5
:1022A000024629480AF0C4FD27480AF069FDDBF818
:1022B0000030A3F1010BBBFA8BFB4FEA5B1B25E758
:1022C0000E21244803930AF087F8D9F800000DF096
:1022D00099FA039B009302460B461B480AF0A8FD9F
:1022E00019480AF04DFD11211B480AF075F8D8F87D
:1022F000001015480AF094FD13480AF041FDDBF880
:102300000030074A074912680868A3F1010ABAFABF
:102310008AFA4FEA5A1A21E7C81C0020500400200C
:102320006C0400202C04002010F1FF1FE02100208D
:10233000F4F0FF1FB80B00208C1C00205804002074
:1023400004F1FF1F547D0100B0F9FF1F487D01001B
:10235000707D0100807D0100907D0100D00E002085
:10236000BC0C002058F1FF1F08F1FF1F48F1FF1FB0
:102370002DE9F04F0546934E934FDFF85C8296F8B7
:1023800000E02F60FF2085F82400DFF8509298F8D5
:102390000000BEF1060F59F820E04FF000038DB0A9
:1023A0000C4685F8253085F8263098BF3370BEF18D
:1023B000000F00F0AD808E455ED07346810001E0D5
:1023C0009C4259D00B445B68002BF9D1734600E066
:1023D00053460B44D3F804A0BAF1000FF8D15C6067
:1023E0003478029705EB010B4FFA80FCFF23062C93
:1023F000CBF804A08DF82DA08DF82EA085F824C070
:102400008DF82C30744604D800233370002C00F073
:10241000B480A24229D0234601E0934225D00B4448
:102420005B68002BF9D104EB010EDEF80440002CB0
:10243000F9D1CEF804200CAB1944BCF1FF3F00F1F8
:1024400001034FF0000041F8240C88F800308DF8AB
:102450002CC0029705D05D4951F82C2002AB9A425E
:1024600076D028460DB0BDE8F08F013088F8000026
:1024700028460DB0BDE8F08F31780297FF24002385
:1024800006298DF82C408DF82D308DF82E304D4CCE
:1024900000D823709645E8D07346810001E09A4247
:1024A000E3D00B445B68002BF9D18E44DEF8044086
:1024B0002CB1A6468E44DEF80440002CF9D10CABBA
:1024C00046B219440130731CCEF8042088F800008D
:1024D00041F8244C02978DF82C60C2D03B4951F84A
:1024E000262002AB9A42BCD159F82630B00023B165
:1024F0001A1853685460002BFAD198F80030002263
:10250000013B88F8003049F8262041F82620A8E74A
:1025100000283AD02D4B96F800E043F82050810077
:1025200005EB010C002349F820408DF82D30CCF844
:1025300004308DF82E304FFA80FCFF23BEF1060FD9
:10254000029785F824C08DF82C307FF65DAF5DE7EB
:1025500059F82C304FEA8C0423B11A195368506093
:10256000002BFAD198F800300022013B88F80030A7
:1025700049F82C2041F82C2073E798B1134B49F807
:10258000202002AA43F8202055E711490192152086
:1025900008F0B4FB0F4B019A4FF40011196098F842
:1025A0000000B7E70A490192152008F0A7FB094B84
:1025B000019A4FF40011196098F800004FFA80FC5E
:1025C0008100DBE794E9FF1F4C7B0100F024002031
:1025D0007504000000E100E011250020D024002057
:1025E0002DE9F041814C824E824D834F08F07EFAF6
:1025F0004FF0FF31204607F0D3FC804B3268236058
:10260000012100230020606284F8281084F829103A
:102610002F606B722B612B72EB600AB9E0E01A46F7
:102620005369002BFBD15561754C764B71482B607B
:102630004FF00008C5F81480A5F80480A5F80680BE
:1026400003F0E2F9012004F2247243464146276078
:1026500084F80880C4F80C8060722261A64601E00C
:10266000DEF8102042F82310627A654801339A425E
:10267000F6DC32685E4B0AB9B4E01A465369002BA7
:10268000FBD154614FF000085F49DFF8D8E12160C9
:10269000424601234FF480715C48C4F81480A4F8CA
:1026A0000480A4F80680C4F818E184F8218784F82F
:1026B00022870BF061FA564AC4F81C814FF0010ED4
:1026C00002F118011760082782F809E043464046E6
:1026D00082F80880C2F80C801161964684F8207751
:1026E00001E0DEF8101041F82300517A484F013321
:1026F0009942F6DC31683E4B09B975E019464B69E1
:10270000002BFBD14A61434B43495A600026566176
:102710009680D680184682F8F460C2F8F06082F89D
:10272000F560116082F8F6601D601E725E72DE60F8
:102730000AF02AF8394B3A4F1E7218461D605C6049
:102740005E72DE600AF020F8364A374B1168374A6D
:102750001A600A221A724FF087400DF0B1FD344C16
:10276000344D38604FF0FF08334B84F82560012763
:1027700084F82480314A324966632046A66384F88F
:102780003C60236084F826700EF066F82D4B2B4ACF
:102790002D4985F82480284685F825602B6085F82A
:1027A00026700EF059F8224629462848FFF7E0FD2A
:1027B000224A274925480EF04FF8264803F0C0FC6E
:1027C0001E4A254923480EF047F8244B1B4A1E6039
:1027D00080241C7122491846BDE8F0410EF03CB837
:1027E000356021E718604DE71F608CE7D00C0020B2
:1027F000D8260020D80E0020407B0100607B01001D
:102800004415002004840100DC8301006C1C0020BE
:10281000BC0B0020900B002010840100A00B0020B6
:102820005C0E00205CF1FF1FC40F0020E883010054
:10283000840E0020940F002080860100FCEFFF1F13
:102840009D06000094860100F5060000000D0020A2
:10285000F1050000981C00205D6100007C0F002045
:102860004D070000D481010010B51D48ADF5007D75
:1028700003F030FA012829DD1A491B4C0B68226845
:102880001748013301320B60226003F055FA4FF410
:1028900080720146684607F0D9FE114803F06AFAD3
:1028A0000F4803F049FA4FF4807201460DEB020025
:1028B00007F0CCFE0A4803F05DFA0C4B1B7843B9D5
:1028C00069464FF400720A4803F0C0FB0DF5007D25
:1028D00010BD10220749064803F0B8FBF0E700BF1F
:1028E000BC0B00202C0D00205404002030F1FF1FF1
:1028F000981C0020F80E00202DE9F845194CDDF851
:1029000020814FF48A7707FB00449246054608224F
:1029100020461E460EF052FF479BC4F80C31FC22A5
:1029200008A904F11000A4F808A0E660C4F810811A
:1029300007F08CFE3A4621460B4803F087FB013036
:1029400002D10A4B0A4A1A600A492A018B186427E5
:10295000C8264FF496748D505F609E60DC60BDE8C1
:10296000F88500BFDC0F0020981C00200CED00E073
:102970000400FA05F80E002000B589B06846162359
:102980000C4A0D4903F062FD684603F009FC50B1A2
:102990002A220A49684603F059FB68460AF0F0F912
:1029A000684603F0EFFB684603F0D8FB09B05DF81A
:1029B00004FB00BFC47D01003C220020CC7D01004F
:1029C00070B5B44B1B7884B0002B40F05B81B24CE7
:1029D0007621204605F0AEFB00251E21204605F09D
:1029E000B5F8627B216900950123204605F02EFE93
:1029F000052008F09FFA2046762105F09BFBA221D6
:102A0000204605F0A3F8627B21690095012320464A
:102A100005F01CFE0123617B0093762202232069CE
:102A2000019505F03BFE2369D3F83811D3F8342122
:102A300091420CD003AD184605F04AFE236905F813
:102A4000010BD3F83811D3F834219142F3D19DF81A
:102A50000D209DF80C50914B8F4842EA05257621B8
:102A60001D80002605F066FBA4218B4805F06EF85A
:102A7000627B216988480096012305F0E7FD012368
:102A8000617B0093762202232069019605F006FE01
:102A90002369D3F83811D3F83421914212D003AD11
:102AA000184605F015FE236905F8010BD3F8381117
:102AB000D3F834219142F3D19DF80C509DF80D309C
:102AC00043EA0525764B74481D80762105F032FBDC
:102AD0000026A621704805F039F8627B21696E480E
:102AE0000096012305F0B2FD0123617B009376225D
:102AF00002232069019605F0D1FD2369D3F838211E
:102B0000D3F83411914212D003AD184605F0E0FD20
:102B1000236905F8010BD3F83811D3F83421914219
:102B2000F3D19DF80C509DF80D3043EA05255D4B1F
:102B300059481D80762105F0FDFA0026A821564847
:102B400005F004F8627B216953480096012305F0E3
:102B50007DFD0123617B009376220223206901968B
:102B600005F09CFD2369D3F83821D3F83411914244
:102B700012D003AD184605F0ABFD236905F8010B33
:102B8000D3F83811D3F834219142F3D19DF80C5089
:102B90009DF80D3043EA0525434B3F481D807621C3
:102BA00005F0C8FA0026AA213B4804F0CFFF627B5B
:102BB000216939480096012305F048FD0123617B16
:102BC0000093762202232069019605F067FD2369B0
:102BD000D3F83821D3F83411914212D003AD1846FE
:102BE00005F076FD236905F8010BD3F83811D3F809
:102BF00034219142F3D19DF80C509DF80D3043EAF9
:102C000005252A4B24481D80762105F093FA0026DD
:102C1000AC21214804F09AFF627B21691E4800968E
:102C2000012305F013FD0123617B0093762202232B
:102C30002069019605F032FD2369D3F83811D3F8E5
:102C40003421914219D0354603AE184605F040FDB7
:102C500023697055D3F83811D3F83421914205F126
:102C60000105F2D19DF80D309DF80C5043EA052581
:102C70000F4B01201D8004B070BD0D4B30461D80F0
:102C800004B070BD0B210B4809F0A6FB0A480AF0FE
:102C900077F89CE6C81C0020BC2400204C0F0020C4
:102CA000901C0020941C0020E421002082040020BD
:102CB000F60E0020F87D0100B0F9FF1F10B50A4C98
:102CC00082B02046762105F035FA2046482104F0EE
:102CD0003DFF00230093627B21692046012305F01C
:102CE000B5FC02B010BD00BFBC24002010B50A4CDA
:102CF00082B02046762105F01DFA2046582104F0C6
:102D000025FF00230093627B21692046012305F003
:102D10009DFC02B010BD00BFBC240020F0B5284FC0
:102D20003B7885B0002B43D1264C274E2046317886
:102D300005F000FA00250021204604F007FF627B21
:102D4000216900950123204605F080FC022008F04F
:102D5000F1F801233278617B009320690195022309
:102D600005F09CFC022008F0E5F803AE2369D3F8D7
:102D700038211846D3F834319A4213D005F0A8FC14
:102D80003B7820EAE07006F8010B0135002BEDD00E
:102D900000230A2231780D480AF002F80B4809F0A6
:102DA000EFFFE3E7002DD4BF0020012005B0F0BD08
:102DB0000B21074809F010FB044809F0E1FFB3E7D5
:102DC000C81C0020BC24002024F1FF1FB0F9FF1F05
:102DD000047E010010B50A4B0A4C197882B02046D7
:102DE00005F0A8F92046AC2104F0B0FE00230093C2
:102DF000627B21692046012305F028FC02B010BD4A
:102E000024F1FF1FBC24002070B5134C82B006468D
:102E10000D4620460A2105F08DF9C6F3072120460C
:102E200004F094FEF1B2204604F090FEC5F30721B1
:102E3000204604F08BFEE9B2204604F087FE002312
:102E40000093627B21692046012305F0FFFBB0FA65
:102E500080F0400902B070BDBC24002008B50021FC
:102E60003020FFF7D1FF00210220BDE80840FFF726
:102E7000CBBF00BF08B5AB213020FFF7C5FF6321F2
:102E80000220BDE80840FFF7BFBF00BF08B544F20D
:102E900060013020FFF7B8FF6C212620FFF7B4FF58
:102EA0004FF4F8712820FFF7AFFF00212A20FFF729
:102EB000ABFF40F622712C20FFF7A6FF44F24641FB
:102EC0003C20FFF7A1FF40F237112420FFF79CFFC1
:102ED000FFF7D0FF4FF4C87008F02CF841F6191135
:102EE0002E20FFF791FF04210846FFF78DFF4FF4D6
:102EF00098710620FFF788FF00210A20FFF784FF62
:102F000008210E20FFF780FF4FF63C711020FFF7DD
:102F10007BFF47F67F712220FFF776FF00214FF4F9
:102F20009270FFF771FF14212420FFF76DFF00213D
:102F30002A20FFF769FF00212020FFF765FF01200D
:102F400008BD00BF10B5114CFFF7A0FF2046552269
:102F5000202102F047FB38B1E28842F0040292B22D
:102F60002046242102F03EFB0021084802F056FCD6
:102F7000074B06481A78114602F006FC034802F097
:102F8000F9FB0248BDE8104002F00ABCC40F002063
:102F900038F1FF1FF0B5174C174D83B0297806465E
:102FA000204605F0C7F831462046002604F0CEFD45
:102FB000627B216900960123204605F047FB2978B2
:102FC000204605F0B7F82A78617B20690196012533
:102FD0002B46009505F062FB206905F079FB627BCA
:102FE0002169009607462B46204605F02FFBF8B2D4
:102FF00003B0F0BDBC24002014F1FF1F2DE9F04107
:103000001A4C1B4D82B029780646204605F092F8EE
:1030100031462046002604F099FD627B2169009626
:103020000123204605F012FB01272978204605F0F0
:1030300081F82A78617B206901960223009705F0C8
:103040002DFB206905F044FB0546206905F040FB97
:10305000627B2169009680463B46204605F0F6FAE1
:1030600045EA082080B202B0BDE8F081BC2400200F
:1030700014F1FF1F08B50B20FFF7C0FF064B1880A7
:103080000920FFF7BBFF054B18800D20FFF7B6FFA7
:10309000034B188008BD00BFC00F0020D41C0020C7
:1030A000B40B002070B50D4B0D4C82B006460D469A
:1030B0002046197805F03EF83146204604F046FDDA
:1030C0002946204604F042FD00230093627B2169DB
:1030D0002046012305F0BAFA02B070BD14F1FF1FBB
:1030E000BC240020F8B504460E46012021461546B2
:1030F000FFF7D8FF31460220FFF7D4FF294603200F
:10310000FFF7D0FF0120FFF745FF07460220FFF73A
:1031100041FF864204BFE41BB4FA84F44FF003007D
:103120000CBF64090024FFF735FF85420CBF204621
:103130000020F8BD08B50A21064809F04DF90648F7
:1031400009F01EFE00223F210D20BDE80840FFF7D8
:10315000C9BF00BF107E0100B0F9FF1F70B50F4C52
:1031600082B00E4601462046154604F0E3FF314684
:10317000204604F0EBFC2946204604F0E7FC00233F
:10318000627B216900932046012305F05FFA044623
:10319000052007F0CFFE204602B070BDBC24002001
:1031A00038B5324C402220782421FFF7D7FF002881
:1031B00040D12F4D20782A6862F07F02D2B22521BB
:1031C000FFF7CCFF002838D1032226212078FFF713
:1031D000C5FF002834D1D62227212078FFF7BEFF73
:1031E00088BB2A7820782821FFF7B8FF70BB0A2215
:1031F00029212078FFF7B2FF58BB81222A212078AD
:10320000FFF7ACFF40BB112264212078FFF7A6FF37
:1032100028BB032267212078FFF7A0FF10BB20788E
:1032200080220121FFF79AFF002814BF6FF00E00E3
:10323000002038BD6FF0050038BD6FF0060038BDC6
:103240006FF0070038BD6FF0080038BD6FF009005F
:1032500038BD6FF00A0038BD6FF00B0038BD6FF05D
:103260000C0038BD6FF00D0038BD00BF3CF1FF1FF2
:10327000FCF0FF1F344B1B7870B50446002B41D186
:10328000002C45D0314C324E207801226B21FFF7C3
:1032900065FF03221A2105462078FFF75FFF102201
:1032A0001B212078FFF75AFF092219212078FFF708
:1032B00055FF207818221C21FFF750FF3368022B9E
:1032C0002DD0042B32D0082B37D003221D2120789B
:1032D000FFF744FF222237212078FFF73FFF01222A
:1032E00038212078FFF73AFFFFF75AFF07226A21BB
:1032F0002078FFF733FF207860226A21FFF72EFF46
:10330000284670BD0921134809F066F8002CB9D190
:103310000E4B402218786B21FFF720FF70BD002272
:103320001C212078FFF71AFF3368CAE708221C2106
:103330002078FFF713FF3368C5E710221C2120789F
:10334000FFF70CFFC1E700BFC81C00203CF1FF1FC6
:10335000F0F0FF1F1C7E010030B5184C83B07621C1
:10336000204604F0E7FE00250021204604F0EEFB95
:10337000627B216900950123204605F067F901234E
:10338000617B0093762203232069019505F086F97D
:103390002369D3F83811D3F8342191420CD0084D69
:1033A000184605F095F9236905F8010BD3F8381193
:1033B000D3F834219142F3D103B030BDBC240020B6
:1033C000380D002030B5184C83B07621204604F02B
:1033D000B1FE00250021204604F0B8FB627B216984
:1033E00000950123204605F031F90123617B00930C
:1033F000762203232069019505F050F92369D3F85B
:103400003811D3F8342191420CD0084D184605F0FC
:103410005FF9236905F8010BD3F83811D3F834218B
:103420009142F3D103B030BDBC240020480F0020EE
:103430002DE9F0411C4D074682B00C46284639461E
:1034400090461E4604F076FE21462846002404F0ED
:103450007DFB6A7B296900942346284605F0F6F82F
:103460004FF0010E43463A46697B28690194CDF836
:1034700000E005F013F92869D0F83821D0F834318C
:103480009A420DD005F024F9E3B2C0B2F054286995
:10349000D0F83821D0F834319A4204F10104F1D146
:1034A00002B0BDE8F08100BFBC2400202DE9F04748
:1034B000704C714A23681278013382B02360002A6D
:1034C00040F08380DFF80492DFF80482D9F800101E
:1034D000D4F800A0694F4FF07E500CF0F1FE054685
:1034E000D8F800000CF0E4FD014628460CF034FE4C
:1034F000064650460CF0DCFD4FF07C5182463046CB
:103500000CF02AFE014650460CF0D8FF3D784FF0F3
:103510000103EDB200B9034613F0FF0F07D0584B7B
:103520001B78012B14BF002505F001050DBB206899
:10353000504C0CF0BDFD31460CF0C0FFB0B1514B0A
:103540001B7800222260002B66D14D4D2C78012C77
:1035500000F08480022C7CD04B4B1B68002B6AD17E
:103560004A4B1B78002B41D12B78CBB902B0BDE878
:10357000F087FFF7F1FEFFF7B9FB0023D9F8001041
:103580003B704FF07E500CF09BFE0546D8F80000D3
:103590000CF08EFD014628460CF0DEFD0646C6E71F
:1035A0003B4D3C4A2B783C4C1268DBB244F823205C
:1035B000FDF7D0FC2B78394ADBB2126844F823209F
:1035C00002B0BDE8F047FDF7C5BC354D354A2B4686
:1035D00010783B211422FFF72BFFFDF721FD2978FE
:1035E0006B78314A43EA012313806BE702212F48AD
:1035F00008F0F2FE2E4B18680CF004F90224024683
:103600000B4600942B4809F013FC2A4809F0B8FB3C
:103610002B78002BAAD0C3E7FFF72CFD264B188888
:10362000FDF7C4FC254B1888FDF7C0FC244B188817
:10363000FDF7BCFC89E7234B186805F001FF224A1F
:103640001B4B52F820201A60104B1B78002B8BD09C
:10365000CCE7FDF777FFFFF7BDFB7DE7FFF7B2FE95
:10366000FFF72CFBFDF7BEFE3C70FDF791FE2C78BA
:1036700070E700BF300D002028F1FF1FC01C0020A4
:10368000680400200CF1FF1FC4210020C81C00208A
:10369000640E0020640400203C0D0020D01C00209B
:1036A000CC2100203CF1FF1F801C0020287E01005F
:1036B000D00E0020B0F9FF1FC00F0020D41C002046
:1036C000B40B00206C04002000F0FF1F44F1FF1F2A
:1036D00054F1FF1F2DE9F04F012183B0042007F0C2
:1036E00001FC0121152007F0FDFB0121142007F04A
:1036F000F9FB0121112007F0F5FB0121102007F053
:10370000F1FB0021142007F0EDFB0121052007F05B
:10371000E9FB0121022007F0E5FB0121082007F069
:10372000E1FB0021282007F0DDFB0021232007F02A
:10373000D9FB0021032007F0D5FB002007F032F968
:103740000121042007F0BAFB0021152007F0B6FB89
:103750000121142007F0B2FB0B21734808F03CFE56
:10376000724809F00DFB0121112007F0A7FB012190
:10377000052007F0A3FB0121082007F09FFB012192
:10378000102007F09BFB0B21694808F025FE6748D5
:1037900009F0F6FA40F6B83007F0CCFB0021112012
:1037A00007F08CFB0021052007F088FB0021082092
:1037B00007F084FB0020FEF73DFC5E4B1B78002BDE
:1037C00040F0AB805C4B1B78002B40F097825B4D48
:1037D000FDF730FF00232B70FFF7A0FA002840F020
:1037E0002B82FFF7EDF8002840F0F681DFF88481A6
:1037F0005348544E544F112108F0EEFDD8F8000004
:103800000CF000F8022402460B460094474809F0E9
:103810000FFB464809F0B4FA07214C4808F0DCFDDC
:1038200030680BF0EFFF009402460B463F4809F06A
:10383000FFFA3E4809F0A4FA0D21454808F0CCFDF6
:1038400038680BF0DFFF009402460B46374809F05A
:10385000EFFA364809F094FA2B784BBB08223D4921
:103860003D4809F079FA3C4809F08AFA0D223B49B3
:10387000394809F071FA384809F082FA364806F0FA
:1038800045FD374B1B680BB100233360002110202E
:1038900007F014FB0C21334808F09EFD234809F083
:1038A0006FFA40F6B83003B0BDE8F04F07F042BB06
:1038B00006222D49284809F04FFAD8F800000BF0ED
:1038C000A1FF00940B460246234809F0B1FA2248B2
:1038D00009F056FA062225491F4809F03DFA3068DA
:1038E0000BF090FF00940B4602461B4809F0A0FA2B
:1038F000194809F045FA05221D49174809F02CFA24
:1039000038680BF07FFF009402460B46124809F01E
:103910008FFA114809F034FAB0E70120FFF7AAFC4A
:103920004FF0000867E000BF2C7E0100B0F9FF1FD8
:10393000387E010028F1FF1F0CF1FF1F68040020F2
:10394000D47E0100D00E0020D01C00204C7D010050
:10395000E87E0100F87E0100D00C0020047F010009
:10396000C42100202C7F0100147F01001C7F010076
:10397000247F0100640400200322C149C14809F0EA
:10398000EBF9C14B18680BF03DFF00940B46024663
:10399000BC4809F04DFABB4809F0F2F90322BB49D3
:1039A000B84809F0D9F9BA4B18680BF02BFF00940E
:1039B0000B460246B34809F03BFAB24809F0E0F979
:1039C0000322B449AF4809F0C7F9B34B18680BF0AC
:1039D00019FF009402460B46AA4809F029FAA948A3
:1039E00006F094FC08F10108C82007F0A3FAB8F12A
:1039F000320F3FF4E7AEA94AA94B1078DFF8F0B2D6
:103A0000DFF8F0A2DFF8F092A64FA74EA74D1422E0
:103A10003B21FFF70DFDFDF7BBFBFEF713FA092174
:103A2000A34808F0D9FCBBF90010A24809F0F8F946
:103A30000121A14808F0D0FCBAF900109D4809F016
:103A4000EFF901219C4808F0C7FCB9F9001099482A
:103A500009F0E6F90121984808F0BEFC974B95481B
:103A6000B3F9001009F0DCF90121934808F0B4FC27
:103A7000B7F900108F4809F0D3F901218E4808F0FA
:103A8000ABFCB6F900108B4809F0CAF901218A484D
:103A900008F0A2FCB5F90010864809F0C1F901212F
:103AA000854808F099FC864B8248B3F9001009F06C
:103AB000B7F90121804808F08FFC824B7D48B3F9AB
:103AC000001009F0ADF901217B4808F085FC7E4B20
:103AD00018680BF097FE02240B46024600947548C6
:103AE00009F0A6F9734809F04BF9FDF7A3FD082288
:103AF0007649644809F030F9624809F041F9B8F1B3
:103B00000E0F3FF739AF224671495E4809F024F99C
:103B1000BBF900105B4809F083F901226D4959484F
:103B200009F01AF9BAF90010564809F079F901229A
:103B30006849544809F010F9B9F90010514809F0E2
:103B40006FF9504809F01CF9224663494D4809F0C5
:103B500003F95A4B4B48B3F9001009F061F90122FF
:103B60005C49484809F0F8F8B7F90010454809F0F1
:103B700057F901225749434809F0EEF8B6F9001009
:103B8000404809F04DF93F4809F0FAF822465349F8
:103B90003C4809F0E1F8B5F900103A4809F040F95D
:103BA00001224C49374809F0D7F8454B3548B3F95D
:103BB000001009F035F901224649324809F0CCF8E5
:103BC000404B3048B3F9001009F02AF9012241496D
:103BD0002C4809F0C1F802E70123142140482B705A
:103BE00008F0FAFB334809F0CBF80B223D49254891
:103BF00009F0B2F8234809F0C3F8FFF75FF8322064
:103C000007F098F9FFF7A8FBFFF770F8322007F0EC
:103C100091F9FFF7D7FBFFF751F8322007F08AF947
:103C2000FFF79AFBFFF762F8322007F083F9FFF7FE
:103C3000C9FBFDF7D7FBD9E5022318212A482B70D1
:103C400008F0CAFB1B4809F09BF8FFF7C3F81420E3
:103C500007F070F9FDF776FC0A2007F06BF9FFF723
:103C6000B9F8142007F066F9FDF76CFC0A221F4929
:103C7000044809F071F8034809F082F8B1E500BF83
:103C8000687E0100D00C0020C40C00206C7E010076
:103C90007C040020707E0100C80E00203CF1FF1F54
:103CA000CC210020C8210020CA210020700400205F
:103CB000447E0100B0F9FF1F4C7E0100800400200B
:103CC0007204002074040020680E0020507E010061
:103CD0005C7E0100E47E0100607E0100647E0100E4
:103CE000B07E0100C87E0100887E0100A47E010034
:103CF000801C0020821C00208C0B0020FFF71AFA89
:103D0000314F324E324D1E24FFF7B4F902213148B3
:103D100008F062FBB7F900102F4809F081F82E482F
:103D200009F02EF802212D4808F056FBB6F90010D4
:103D3000294809F075F8284809F022F80221284896
:103D400008F04AFBB5F90010234809F069F8224849
:103D500009F016F8FDF76EFC0A222249224808F005
:103D6000FBFF214809F00CF802221A491E4808F00E
:103D7000F3FFB7F900101C4809F052F81A4808F090
:103D8000FFFF02221549184808F0E6FFB6F90010B7
:103D9000154809F045F8144808F0F2FF02221049CE
:103DA000114808F0D9FFB5F900100F4809F038F8AC
:103DB0000D4808F0E5FF0C4806F0A8FAC82007F007
:103DC000B9F8013CA0D102E5C00F0020D41C0020AE
:103DD000B40B0020747E0100B0F9FF1F607E01006B
:103DE000787E01007C7E0100D00C00202DE9F04798
:103DF0009AB00AA802F0A4F901238E4A8E4912A8AB
:103E000002F024FB149A9DF854309DF84C100C924B
:103E10008DF834308DF82C1015AA0DF135030DF105
:103E2000420612F8011F03F8011BB342F9D1199B96
:103E3000119312A802F092F90AA802F0B1F9804693
:103E4000002800F0EE80002427468DF808704FF01F
:103E500000090AA802F00CF91AABC2B203EB09017F
:103E60000D2A09F101031BB212D0542A0AA801F845
:103E7000602C07D1012B05D102F07CF90124451EED
:103E8000A146E6E71D2B07DC0A2A05D09946E0E7A4
:103E9000B9F11D0FDDDD4B46013B9BB21AAA1A4456
:103EA0000FFA83F902F8607C9DF808202F2A04D0CD
:103EB000012B02D902A8FDF7E9FC0AA802F0BAF822
:103EC00082460028C1D10AA802F05CF9002C70D10A
:103ED00001235A4A584912A802F0B8FA9DF84C300A
:103EE00014989DF854108DF82C3015AA0DF1350357
:103EF0000C908DF8341012F8011F03F8011BB34227
:103F0000F9D1199B119312A802F028F90A214C4803
:103F100008F062FA4B4808F033FF0AA802F040F9B3
:103F2000064600283ED0484D012406E01E2C03F82A
:103F3000010C0CD00A280AD001340AA802F098F823
:103F4000C0B202AB0D282344F0D11E2CF4D108F0EE
:103F5000C7FA05EB89023D4902A80DF0CDFA4946A2
:103F6000384808F05DFF0121394808F035FA55F866
:103F700029000BF047FC022409F1010902460B4617
:103F8000009430480FFA89F908F052FFB9F13C0F5C
:103F900004D00AA802F04EF80028C5D10AA8B046FD
:103FA00002F0F0F80AA802F0D9F840461AB0BDE8CD
:103FB000F0870B21274808F00FFA53460A222946BA
:103FC000204808F0EDFE1F4808F0DAFE1323194AD6
:103FD000194912A802F03AFA149A9DF854309DF843
:103FE0004C100C928DF834308DF82C1015AA0DF170
:103FF000350312F8011F03F8011BB342F9D1199BD5
:10400000119312A802F0AAF829460AA802F0A8F80B
:10401000022211490AA802F019F80AA802F0B2F81F
:1040200056E714210D4808F0D7F9064808F0A8FE15
:10403000B8E700BF3C7F01003C220020707F0100F8
:104040007C7F0100B0F9FF1F00F0FF1F887F010097
:10405000E47E0100487F0100547F0100587F010089
:104060002DE9F04F3A4A3B4B3B48127841F2B351AD
:1040700089B083E80300002A40F06E82374F384E43
:10408000384CFDF713F842F2107007F063F84FF464
:10409000FA7006F04FFF344B717B306903930125B2
:1040A00000231A46029300930495019503F05CFFE8
:1040B000336942F21072C3F86822204606F0A4FA6F
:1040C00084F82950FDF7B6FA0A222849204608F05C
:1040D00043FE204608F054FE204606F017F907215B
:1040E000234801F039FF0E21214801F065FF0A2124
:1040F000204802F00DF9002844D11C211E4808F088
:104100006BF91E4808F03CFEFDF794FA08221C49A2
:10411000144808F021FE134808F032FE114806F05A
:10412000F5F80324642006F005FF0121112006F0B4
:10413000C5FE642006F0FEFE0021112006F0BEFE42
:10414000013CEFD14FF4C87006F0F4FEDCE700BF8D
:10415000F40E00206C0E00205AED3301C80C002034
:10416000BC240020D00C0020801A06008C7F0100A7
:1041700078F1FF1F3C220020987F0100B0F9FF1F5B
:10418000B87F0100C64EFFF731FEFEF7F5FBFFF7E3
:10419000A1FAFCF765FE3378002B40F0CD810121B8
:1041A000062006F09FFE0021062006F087FE002173
:1041B000062006F097FE4FF4FA7006F0BBFE0A21C7
:1041C000B84808F009F9B84808F0DAFD01211120D3
:1041D00006F074FE0121152006F070FE3378002BE6
:1041E00000F04281B148B24E05F040FA0120FFF7DD
:1041F00041F8FCF7ABFC06F049FEAE4B30601B68A3
:10420000022B07D1AC4BAD4A1B68C3EB031300EB89
:1042100083031360AA4AAB4B11681A68AA4D4FF486
:10422000616303FB02F3C1EB011103EB810213187D
:104230002B6042B9A54B1B6800F13C0292FBF3F2E4
:1042400003FB02332B60DFF8E082A14AD8F80000BC
:104250001268A0490344012A0B6003D1FDF75CFDFD
:10426000D8F800009C4B07930BF022FF9B49DFF826
:10427000BC920968DFF8B8B2DFF8B8A20BF06CFFA7
:104280004FF06E510BF068FF0CF02CF9079B94492E
:1042900018600868D9F8003092491B1A23EAE373C2
:1042A00081FB03211944D817C0EBE12007930BF0E1
:1042B00097FA09F029FF0BF0A9FD079B8A49CBF873
:1042C000000001FB00338949079381FB0321194456
:1042D000D817C0EB61100BF083FA09F015FF0BF053
:1042E00095FD079B0246A0EB00118148CAF800200B
:1042F00003EB8103036010217E4808F06DF8DBF8C2
:104300000010694808F08CFDDAF80010664808F0E3
:1043100087FD774B6448196808F082FD624808F011
:104320002FFD0821744808F057F8D8F800105E48AF
:1043300008F076FD5C4808F023FD08216F4808F07E
:104340004BF8D9F80010584808F06AFD564808F0B4
:1043500017FD0E216A4808F03FF83068FDF796FC1B
:104360000C21684808F038F82868FDF78FFC2B68A6
:1043700032686548C2EB0308152108F02DF8414664
:10438000494808F04DFD484808F0FAFC4FF00A098A
:10439000FDF750F906F07AFD0C225C4930605C486C
:1043A00008F0DAFC5A4808F0EBFC29680E20FDF70B
:1043B00079F931681920FDF775F9554805F0A6FF20
:1043C0004FF47A7006F0B6FDB9F10109E0D1B8F109
:1043D0003C0F22DDAE214E4805F0FEFD00211520E8
:1043E00006F06CFD0121112006F068FD0022114647
:1043F0001423484804F00CFF0A2006F09BFD00211E
:10440000112006F05BFD444804F0E8FC06F03EFD98
:104410002B6830601B1A3C2BDCDC3D48012506F084
:10442000F3F864213D4884F8295008F0D9F8FEF7E4
:1044300089FD2946152006F041FD3B680BB1FCF7CC
:1044400009FF3749374B00204FF0FF3208601A60F0
:1044500009B0BDE8F08F0A2006F06CFD142006F0CC
:1044600033FD00283FF4BEAE062006F02DFD0121ED
:1044700000283FF4B7AE062006F034FD00210620E8
:1044800006F01CFD0021062006F02CFD4FF4FA700A
:1044900006F050FD142006F017FD0028E4D1DAE7FD
:1044A000C81C00208C7F0100B0F9FF1F59070000D5
:1044B0006C040020600E0020780400205C040020C2
:1044C000280D0020BC1C0020C40E002034F1FF1F6A
:1044D0008C0F0020880F0020CC1C00205CF1FF1FF7
:1044E00018F1FF1FC5B3A291F0F1FFFF89888888FA
:1044F000B81C0020D87F0100EC7F0100F87F01008C
:104500000480010014800100248001003C8001002F
:10451000D00C0020840E0020000D00200082FF1F20
:1045200040150020D40F002070F1FF1F7C1C0020DC
:1045300060040020B00B002012210F4807F04CFF50
:10454000032506F0A3FCFDF7A1FB4FF47A7006F0FB
:10455000F1FC013DF5D122E6084E094D094C0A480F
:104560000A490B4F0022012332702A702270037017
:104570000B703B6083E500BFC47F010028F1FF1F83
:104580000CF1FF1F30F1FF1F20F1FF1FFC0C00207A
:10459000C80C00202DE9F04FCDB006F077FCDFF815
:1045A000E4A29E4CCAF8000004F074FF2368DFF810
:1045B000D8B2984200F02E819BF8003033B10A2126
:1045C000974807F009FF974808F0DAFBDAF800008F
:1045D000954D964E04F05EFF2060DAF8000004F07E
:1045E00067FF93492368024692480CF05FFF9149A8
:1045F00091482E6001F09EFFDFF87482DAF8000027
:1046000098F80030002B40F0E98004F035FF0446B4
:10461000DAF8000004F006FF8146DAF8000004F042
:104620000FFF0746DAF8000004F018FFCDF80090FD
:104630000290019723467F4A804981480CF036FF5B
:104640002E60FCF77DFD162342907E4A7A4944A8ED
:1046500001F0FCFE44A801F0A3FD002840F04981D0
:104660009BF80030002B40F0B181774B774A7849B6
:1046700043911A604CAF44A801F070FD3223704A98
:104680006D49744D44A801F0E1FE17F8141D9DF822
:104690001421469B2A71AB6029733A4605F10D033C
:1046A00005F11A0412F8011F03F8011BA34269491E
:1046B000F8D14B9BCB6144A801F050FD9BF8003032
:1046C0005BB35F480CF0BCFF01465D4807F084FE19
:1046D000544808F055FB0A215F4807F07DFE5F4B08
:1046E00018680BF08FF8022602460B4600964D48DC
:1046F00008F09EFB4B4808F043FB42980BF082F811
:10470000009602460B46474808F092FB01215448A8
:1047100007F062FE434808F033FB4E48514EDFF885
:10472000349101F03DFD002835D1326898F8003011
:1047300001323260002B4CD14B4941480CF0B6FE9F
:1047400032233F4A3C4944A801F080FE9DF81C21D9
:104750009DF814014699454B2A732871A9603A4681
:1047600012F8011F03F8011BA342F9D14B9BC9F8B2
:104770001C3044A801F0F2FC31480CF061FF014606
:104780002F4807F029FE274808F0FAFA314801F0CF
:1047900007FD0028C9D098F80040354D002C75D091
:1047A000439B429A5A61012C294D00F018819BF8D5
:1047B00000305BB109212F4807F00EFE2E4B19483F
:1047C000196808F02DFB174808F0DAFA4DB0BDE87B
:1047D000F08F2A491A480CF069FEB1E704F04CFE4C
:1047E0000446DAF8000004F01DFE8146DAF8000005
:1047F00004F026FE0746DAF8000004F02FFECDF89C
:1048000000900290019723460A4A1D490C480CF07B
:104810004DFE15E7044D054EEEE600BFD40F002017
:104820004C800100B0F9FF1F982200205D070000B6
:1048300058800100B40C00203C220020648001005C
:1048400030040020C47D01000CED00E00400FA05F6
:104850006C0E0020981C0020F0800100C41C002079
:10486000FC800100BC0F002000810100A51C00207D
:1048700030F1FF1F5C810100CC1C00200C81010085
:104880007C8001006C040020C81C0020AC49AD4CA9
:10489000AD4AAE4BAE4E03C9206092E80300A06063
:1048A00093E803003768E06001231026A382E382C7
:1048B000266138460BF03CFE3946A06138460BF0C5
:1048C00043FB0BF035FEA34AA34BE06192E80300E3
:1048D0001B6860625B0202206684208403F1240668
:1048E00021462C229D48A362666001F0AFFB2C7824
:1048F00056E79B489B4C0CF0A3FE9949024644A8FE
:1049000001F0A4FB2C2144A801F088FB04F1080568
:1049100014F8011F00230A2244A808F041FAA54216
:10492000F6D12C2144A801F079FB8F4B8F4A1868EF
:10493000439215460AF066FF022402460B46009495
:1049400044A808F075FA2C2144A801F067FB4298AE
:104950000AF058FF009402460B4644A808F068FA93
:104960002C2144A801F05AFB814B44A8196808F097
:1049700057FA2C2144A801F051FB296800230A2290
:1049800044A808F00DFA44A808F0FAF9794A7A4BDD
:10499000106819680BF09CFD4FF00105E8B17749EC
:1049A00042980BF077FD4FF00103A0B1744C2B43FC
:1049B0002268DBB213427DD1724942980BF06AFD46
:1049C00000285FD144A801F0DDFB53E60E216E48BC
:1049D00007F002FD49E60346E8E70546DFE7DAF8B7
:1049E000000004F03BFD2872DAF8000004F028FD16
:1049F0006872DAF8000004F015FDA872DAF8000019
:104A000004F03AFDE872DAF8000004F043FD287380
:104A1000DAF8000004F04CFD00262882294618220E
:104A20004E486E8201F012FB494B58491B68409377
:104A3000FC22022568463F9505F008FE4FF480737E
:104A4000324630465249FDF757FF524B1B78002B38
:104A500040F0C280504B1B78002B5BD14F4B1B7832
:104A6000002B40D1002500234D494093FC2268468D
:104A70003F9505F0EBFD2B462A4620464949FDF7B8
:104A80003BFF94E62822484944A801F0DFFA44A8F5
:104A900008F076F944A801F075FB03E047F23050C6
:104AA00006F048FAFCF74CFB36490BF0F3FC002803
:104AB000F4D187E7FCF720FCFCF744FC9BF80030BE
:104AC0000022226033B10F21384807F085FC3848B6
:104AD00008F056F90E22374944A801F0B7FA44A865
:104AE00008F04EF968E7344B344A1B6812683449C1
:104AF000409203EBD3735D10FC22022368463F9380
:104B000005F0A4FD20462B4600222E49FDF7F4FEB9
:104B10000134A7E72C4A2D4B15781B682C4940938C
:104B2000FC2202236D0868463F9305F08FFD204666
:104B30002B4600222749FDF7DFFE01348EE700BF38
:104B400018810100500F0020208101002881010000
:104B50005CF1FF1F30810100CC1C0020981C00205C
:104B600030040020831C00204C0400206C0E002028
:104B7000900F0020C41C00201CF1FF1FD7A3704021
:104B8000C80C002000004040E0800100D81C00203C
:104B900038810100680400200CF1FF1F28F1FF1F7D
:104BA000C820002058810100B480010094800100D9
:104BB000B0F9FF1FA480010060F1FF1F4CF1FF1F3F
:104BC000CC1F00205081010040F1FF1F44F1FF1F66
:104BD000D01E002048810100094A0A4B17781B6843
:104BE000409309490523FC2268463F9305F02EFDBA
:104BF0003B463246204605492C46FDF77DFE29E717
:104C000068F1FF1F44F1FF1FD41D00204081010007
:104C100010B50E211D4807F0DFFB1D4808F0B0F865
:104C2000FFF7B8FC1B4B1B78A3B11B4A1B4B126848
:104C300093FBF2F2002A03DB194B511E99421CD957
:104C4000184B1968FF221A7121B1174B17480B44F2
:104C50001B111A54164C174B204600221A6001F003
:104C600045F801230B21144884F8F63007F0B4FB13
:104C70000748BDE8104008F083B802EB4202120179
:104C8000013A0E49074807F0D3FFD9E768810100D0
:104C9000B0F9FF1F30F1FF1F54F1FF1F40420F001A
:104CA000575555057C0F0020008FFCBF44E400E001
:104CB000BC0B00205404002078810100AD340000BA
:104CC0002DE9F84FA54E3378002B00F0CC80A44D91
:104CD000DFF8A48206F0DAF8A24BC8F800001B68DF
:104CE000834203DCA04B1B68002B27DC2F6807BB2B
:104CF0009E4B1B68002B68D19D4C9E4A23681178FF
:104D0000D8F800209C4F181F9042CCBF002101F022
:104D1000010141B199490968012904D198490968FB
:104D2000002940F013819A425CDA642006F002F90F
:104D30002F68012F00F0A680BDE8F88F0121052023
:104D400006F0BCF80121082006F0B8F80021112077
:104D500006F0B4F88B4B01221A60FCF7F1F98A498E
:104D60000BF098FB0028C1D02B68012B00F04A8380
:104D7000834B1B68002B40F03F83844801F002FA0C
:104D8000FEF76CF80021152006F098F8002110209D
:104D900006F094F80023194602227D4804F038FA00
:104DA0007C4804F01BF80A240121112006F086F843
:104DB000C82006F0BFF80021112006F07FF864201B
:104DC00006F0B8F8013CE5D0EEE7FCF733FCFCF761
:104DD000BBFCD8F800101920FCF764FC6E4805F005
:104DE00095FA89E70D216D486D4F07F0F5FA6D488A
:104DF00007F0C6FFFCF71EFC674805F087FA3B6822
:104E0000002B00F0F182684B684A694920681B68F2
:104E100012680968674F03441A44012922603B6005
:104E200000F0DF820E21644807F0D6FA06F02EF873
:104E3000FCF72CFF0B21614807F0CEFA3868FCF72D
:104E400025FF0B215E4807F0C7FA2068FCF71EFF1C
:104E5000FDF74CFFAE21504805F0BEF801232B6052
:104E6000FFF7D6FE61E7062006F02EF83C4D00283D
:104E70003FF42EAF2B68012B00F0B082514B524A09
:104E80001A6025E7FDF7F0FC142006F01DF8002855
:104E900000F053824D4C2378012B00F027822378B9
:104EA000022B00F0C5814A4C2378012B00F0A7812A
:104EB0002378022B00F08881464C2378012B00F0E8
:104EC0006B812378022B00F04E81434B1B68002B33
:104ED00001DDFDF7D5F8414C414B22681B689A4231
:104EE000FFF62AAF304B3F4F18680BF0E1F83E4910
:104EF0000BF0E6F939680BF027F84FF07E51386077
:104F00000BF0E6FA10B1394B00221A70274B1B68E0
:104F1000002B71D1337883B135492248FBF756FC19
:104F2000344B20481988FBF75FFC23491D48FBF7E9
:104F30004DFCD8F80000FCF7A9FE144801F022F956
:104F4000FFF728FB00232360BDE8F88FFCF7AAF9E0
:104F50003A6823689A42FFF6E8AE43E7C81C00208F
:104F6000401500205C040020600E00202CF1FF1F83
:104F7000C40E0020D80F00206C04002064F1FF1F35
:104F8000C80C0020900F002066666640981C002028
:104F9000840E0020000D0020D00C00208481010030
:104FA000CC0C0020B0F9FF1F70F1FF1F7C1C00200B
:104FB0008C0F0020880F00200480010094810100E4
:104FC000A08101000CED00E00400FA05D40E0020E1
:104FD000580E0020961C00208C1C00205404002039
:104FE000CC1C0020C41C002000006145F8F0FF1F0D
:104FF000A07B0100DC2600209E4FFBF767FD3B688D
:1050000023B1FCF779F9642005F094FF9A4BDFF89F
:10501000CC821C68DFF8C892DFF8C8B205F036FF12
:10502000964A974B1268201A841A24EAE47483FB88
:1050300004232344E017C0EBE3200AF0D1FB09F07E
:1050400063F80AF0E3FE8F4A8F4BC8F8000002FBBA
:10505000004483FB042323448246E017C0EB631023
:105060000AF0BEFB09F050F80AF0D0FE03011A1A4C
:10507000C31A04EB830492004FF4616303FB0A2A12
:10508000C9F800405444092CCBF800000DDC7F4BDC
:105090001B6833B17E4C204605F0B6FA012384F834
:1050A000293000232B60BDE8F88F7A4C00211520B1
:1050B00005F004FF237813B10020FEF7DBF8DFF8DA
:1050C00028A29AF8003023B1002210463F21FEF7B3
:1050D00009F8FDF7C3FE3B680BB1FCF733F93378F1
:1050E000B3B105F0D3FEFCF7D1FD6B496B48FBF77C
:1050F0006DFBD8F80010694807F092FEDBF800104D
:10510000664807F08DFED9F800106448FBF76CFB89
:10511000642005F00FFF99F800309BF8002098F804
:1051200000105F4804F074F85E4803F057FE3378CF
:105130001BB105F0ABFEFCF7A9FD0121152005F020
:10514000BDFEFDF797FE3B680BB1FCF783F89AF8BC
:1051500000300BB1FDF7EEFF2378002B97D0012034
:10516000FEF788F893E710224F49504800F06EFF91
:10517000013002D14E4B4F4A1A604F4B4F491A78BB
:105180004A48114400F062FF013002D1484B494ABD
:105190001A600023237098E610224349434800F028
:1051A00055FF013002D1424B424A1A60424B4349FB
:1051B0001A783E4800F04AFF013002D13C4B3D4A8C
:1051C0001A60002323707CE610223D49374800F026
:1051D0003DFF013002D1364B364A1A60394B3A490D
:1051E0001B7832489A0001EB830100F02FFF013059
:1051F00002D12F4B2F4A1A60002323705CE6102245
:105200002F492A4800F022FF013002D1284B294AB9
:105210001A602C4B2C491A782448920000F016FF93
:10522000013002D1224B234A1A60002323703FE64B
:10523000102226491D4800F009FF013002D11C4B05
:105240001C4A1A60224B23491A681848114400F07E
:10525000FDFE013002D1164B164A1A6000211E4B8A
:1052600021701B78002B3FF41EAE112005F026FEA6
:1052700019E600BFC80C0020C40E002018F1FF1F63
:10528000C5B3A291F0F1FFFF898888882CF1FF1F38
:10529000D00C002028F1FF1FD87F0100B0F9FF1FBC
:1052A000840E0020000D0020180F0020981C002004
:1052B0000CED00E00400FA0540F1FF1FDC0D0020BA
:1052C000080F002068F1FF1F3C0D0020280F002070
:1052D00060F1FF1F8404002000F1FF1F6004002024
:1052E000B81C0020B00B00200CF1FF1F1022474912
:1052F000474800F0ABFE013002D1464B464A1A60E7
:10530000464B47491A68424800F0A0FE013002D1DE
:10531000404B414A1A600021424B434A21701B789E
:105320001278DBB2002A3FF4BAAD002B3FF4B7ADE0
:105330000121112005F0C2FDB1E50A2005F0FAFDBA
:10534000142005F0C1FD00287FF4A4ADDFF8EC9037
:10535000FBF7BCFB3946112005F0B0FDD9F8003051
:10536000EBB1324C204605F04FF94FF47A7084F8D7
:10537000297005F0DFFDFCF75DF907222C49204676
:1053800007F0EAFC204607F0FBFC204607F0F8FC9B
:1053900020462849FBF71AFA204604F0B7FF4EF2E0
:1053A000902005F0C7FDD9F8003083B1FCF742F931
:1053B00021491E48FBF70AFA1C4804F0A7FF4FF4E6
:1053C000FA6005F0B7FDAE21184804F005FEFFF7BE
:1053D000E1F80021112005F071FD5BE5FBF776FB9C
:1053E0004CE5FCF799FC1DE50A210E20FDF70CFDAC
:1053F0004FF0FF333B6006E5FBF77EFF642005F0CE
:1054000099FDBAE4FBF762FBB2E400BF280F00206D
:10541000981C00200CED00E00400FA0560F1FF1F6D
:105420008404002000F1FF1FF8F0FF1FD00C0020C3
:10543000AC810100B4810100C88101002CF1FF1F83
:10544000F8B50021054607F093F9002855D0D5F8A6
:105450001C710646002F4ED005F58E743B1D22466A
:1054600005F5907107F5827733F8020B42F8040FC7
:105470009F42F9D1331D05F5477206F5827733F85F
:10548000020B42F8040FBB42F9D1D5F8180180B1E4
:1054900005F5927200F5007E32F9043C30F9027B8A
:1054A00003FB07F3DB13864522F8043C02F10402F8
:1054B000F2D105F5E56008F041FB95F82177EFB9E9
:1054C00005F21C5C95F82027E64605F21C7154F89D
:1054D000043F23FB03F3B3FBF2F34EF8043F7145A3
:1054E000F5D17B1CDBB2934220D085F82137D5F86B
:1054F0001C0107F0F9F8C5F81C61F8BD05F21C5C49
:1055000095F82027E64605F21C7154F8043F23FB6A
:1055100003F35EF8040FB3FBF2F371450344CEF8D6
:105520000030F2D17B1CDBB29342DED10023DFF8E6
:105530003CE085F82137604605F1160750F8044F26
:10554000B4FA84F381423EF81320B4FBF2F31A4418
:105550004FEA5203B4FBF3F423444FEA530327F812
:10556000023FEBD1012385F82237C0E71484010004
:10557000002070470020704770B5194C064682B075
:105580000D462046317A02F0D5FDC5F307212046AD
:1055900002F0DCFAE9B2204602F0D8FA0023627B7E
:1055A00021690093204603F051F810B1002002B0A9
:1055B00070BD2569327A617B0190012300932846F2
:1055C000022303F06BF80128F0D9206903F080F87A
:1055D0000502206903F07CF8284302B070BD00BFCB
:1055E000BC24002070B5154C242908BFC28082B0AD
:1055F0000D46017A2046164602F09CFDC5F30721B0
:10560000204602F0A3FAE9B2204602F09FFAC6F360
:105610000721204602F09AFAF1B2204602F096FAEB
:1056200000230093627B21692046012303F00EF8DA
:10563000B0FA80F0400902B070BD00BFBC24002069
:105640002DE9F0413E4B012606715F7BD3F81080B7
:1056500086B00446384602F073FB0025394B0190B2
:1056600039462A464046039304962B4602950095F8
:1056700002F07AFC052005F05DFC204644F2600251
:105680003021FFF7AFFF20466C222621FFF7AAFF4B
:1056900020464FF4F9722821FFF7A4FF204640F678
:1056A00022722C21FFF79EFF204644F246423C2105
:1056B000FFF798FF204640F237122421FFF792FFB0
:1056C000204644F2FF023021FFF78CFF73220221B3
:1056D0002046FFF787FF4FF4C87005F02BFC2046EB
:1056E00041F61D522E21FFF77DFF04221146204670
:1056F000FFF778FF20464FF498720621FFF772FFFC
:10570000204610220A21FFF76DFF2A4620460E216F
:10571000FFF768FF204643F63C421021FFF762FF87
:10572000204647F67F722221FFF75CFF2046362293
:105730002421FFF757FF3046667206B0BDE8F081BE
:10574000BC240020A0860100F8B51C46154606467C
:105750000F46FFF711FF20EA040040EA050439462E
:1057600030462246FFF73EFF002814BF20460020A7
:10577000F8BD00BF08B5002201234FF49271FFF776
:10578000E3FF80B208BD00BF0F2928BF0F210F2AF9
:1057900028BF0F2242EA01122021FFF723BF00BFDA
:1057A00010B510220A210446FFF71CFF30B1204635
:1057B00000224FF48071FFF715FF80B210BD00BFCB
:1057C00010B5044619B1012911D0002010BD552291
:1057D0002021FFF707FF0028F7D0E28842F00402FB
:1057E000204692B22421BDE81040FFF7FBBE40F2F4
:1057F00073122A21FFF7F6FE0028E6D08822202126
:105800002046FFF7EFFE0028DFD0E288204622F096
:1058100004022421BDE81040FFF7E4BE38B5054678
:10582000F1B1802903799ABFC1F1800444EA0424CC
:10583000002433B9224628462221BDE83840FFF72C
:10584000D1BEC288002322F0100203712421FFF789
:10585000C9FE224628462221BDE83840FFF7C2BED5
:105860000123037147F67F722221FFF7BBFEEA880E
:1058700042F01002284692B22421BDE83840FFF7DA
:10588000B1BE00BF0B4610B50749044618460AF0E2
:1058900063FC06490AF058FB0AF04AFE014620461E
:1058A000BDE81040FFF7BABF00000143EE7CFF3EA9
:1058B00010B5044607F03EF8204610BD024A0349E1
:1058C00003480AF0C9BF00BFFCEFFF1FB15800003A
:1058D000E82100201B4A1C4B11681C48096970B460
:1058E00099421279027009D2194A127832B3194AD0
:1058F0004FF08041116003F5807402E01C46A3F56F
:105900008073154A154912680D68AAB1A5B1144EE5
:105910003088402810D841000A44403029440232DF
:105920000231308033F9040B22F8020F9C4233F924
:10593000020C21F8020FF5D870BC704703F5807493
:10594000DFE700BFF821002090E8FF1F1F80004024
:10595000F221002008E200E000220020F4210020D3
:10596000F0210020F8B5064606F06AFE0446E8B1CC
:1059700006F066FE054600283AD072B61F4B1A881C
:105980007F2A19D8002C31D01D490A6842B162B66D
:10599000204606F0A9FE2846BDE8F84006F0A4BE61
:1059A00018480C601A80056062B6F8BD054672B6EC
:1059B000124B1A887F2AE5D9114A124917681460D8
:1059C00000220C681A800D6062B63946304606F037
:1059D000B5FE384606F088FE30462146012206F024
:1059E000ADFE2046BDE8F84006F07EBE62B6F8BDCA
:1059F000204606F079FE2C46BFE700BFF0210020CC
:105A000000220020F4210020F8B5284C284E204622
:105A1000012106F02BFF00F083F8264B264A274889
:105A20004FF480611960236800211A6099802279FF
:105A3000186102F1804202F5043240F20110D88070
:105A40009E614FF48075022006278E26DD82D96084
:105A5000DD8398609F8398821170167006F0ACFE0B
:105A60001749184B2279184F08701A703968227933
:105A7000164C174D174E41F0124141F001015311E0
:105A800039609B00206803F1604302F1100703F5C1
:105A9000614302F01F02012140F0104001FA02F2BE
:105AA000206045F827601A60F8BD00BFF82100208B
:105AB00000FEFFFF14B00440A0F0024090E7FF1F7B
:105AC000F22100201B80004080F0024000F00240E4
:105AD00000EAFF1FD5580000024A034903480AF0B4
