:1000000000800020BD010000DDAA000095AA0000CC
:1000100095AA000095AA000095AA000095AA0000E4
:1000200095AA000095AA000095AA0000DDAA00008C
:10003000DDAA000095AA000045C9000049CA0000D9
:10004000DDAA0000DDAA0000DDAA0000DDAA000094
:10005000DDAA0000DDAA0000DDAA0000DDAA000084
:10006000DDAA0000DDAA0000DDAA0000DDAA000074
:10007000DDAA0000DDAA0000DDAA0000DDAA000064
:10008000DDAA0000DDAA0000DDAA0000DDAA000054
:10009000DDAA0000DDAA0000DDAA0000DDAA000044
:1000A000B18B0000BD8B0000DDAA0000DDAA0000BE
:1000B000DDAA0000DDAA0000DDAA0000DDAA000024
:1000C000DDAA0000DDAA0000DDAA0000DDAA000014
:1000D000DDAA0000DDAA0000DDAA0000DDAA000004
:1000E000DDAA0000DDAA0000DDAA0000DDAA0000F4
:1000F000DDAA00000DB60000DDAA000045D000001A
:10010000DDAA000071D10000DDAA0000DDAA000018
:10011000DDAA0000DDAA0000DDAA0000DDAA0000C3
:10012000DDAA0000DDAA0000DDAA0000DDAA0000B3
:10013000DDAA0000DDAA0000DDAA000049A500003C
:10014000DDAA0000DDAA0000DDAA0000DDAA000093
:1001500021CC000035CC000049CC00005DCC000073
:10016000DDAA000089B80000DDAA0000DDAA0000B9
:10017000DDAA0000DDAA0000DDAA0000DDAA000063
:10018000DDAA0000DDAA0000DDAA0000DDAA000053
:10019000DDAA0000DDAA0000DDAA0000DDAA000043
:1001A000DDAA0000DDAA0000DDAA0000DDAA000033
:1001B000DDAA0000DDAA000001C70000564B4CF28A
:1001C000205210B51A804DF628121A8000BF00BFC9
:1001D00000F014FB514B4FF010621A60504A9A60C5
:1001E000504ADA60504A136813F4807304D14F49BF
:1001F0000B604FF4A85313604D4B1A78110703D5C9
:100200001A7842F008021A704A4B4B492A221A7097
:100210004A4A4B4B8B4204D252F8040F43F8040B6A
:10022000F8E7484B484900228B4202D243F8042B9E
:10023000FAE74649464A002352F8230041F82300D2
:1002400001336F2BF8D1434B434A802103F8011B44
:100250009342FBD1414B3D4A1A60414B8A221A70AE
:10026000A3F5805324225A70A0221A709A7992071B
:10027000FCD59A79D406FCD43A4A937903F00C035E
:10028000082B384BF9D103221A7140225A719A79FE
:100290009006FCD5334A9179324B4906FBD5324A58
:1002A000324911600221516020221A709A7902F0BD
:1002B0000C020C2AFAD12E4B2E4A1A602E4B4BF60A
:1002C0007F321A6000225A60072243F8042C2B4A1E
:1002D000C3F80C2D62B60AF007FE144B1B68DA0750
:1002E00005D527480AF064FD264B274A1A60274B9C
:1002F0001B785B0609D5234C234B22689A4204D114
:100300001F480AF055FD0023236010F043FA0AF05D
:10031000E9FB0CF0F1FDFEE70E20054030800440C3
:10032000823F04000100002B10D0034014D0034092
:1003300002D0074000E0074018040020508D020062
:1003400020EFFF1F180400207C28002000EAFF1F78
:100350000000000000E400E05FE400E008ED00E0E1
:100360000050064000400640448004400000131145
:1003700004800440C010050014E000E000002020CC
:10038000B35D845A1CE00340A5C3945A00F00740B3
:10039000FFFFFFFFFFFFFFFFFFFFFFFFFFFFFFFF6D
:1003A000FFFFFFFFFFFFFFFFFFFFFFFFFFFFFFFF5D
:1003B000FFFFFFFFFFFFFFFFFFFFFFFFFFFFFFFF4D
:1003C000FFFFFFFFFFFFFFFFFFFFFFFFFFFFFFFF3D
:1003D000FFFFFFFFFFFFFFFFFFFFFFFFFFFFFFFF2D
:1003E000FFFFFFFFFFFFFFFFFFFFFFFFFFFFFFFF1D
:1003F000FFFFFFFFFFFFFFFFFFFFFFFFFFFFFFFF0D
:10040000FFFFFFFFFFFFFFFFFFFFFFFFDEF9FFFF23
:1004100010B5054C237833B9044B13B10448AFF33E
:1004200000800123237010BD18040020000000008C
:100430004C8D0200084B10B51BB108490848AFF3BA
:1004400000800848036803B910BD074B002BFBD0A0
:10045000BDE81040184700BF000000001C04002049
:100460004C8D02001804002000000000002070479E
:10047000704700BFF8B55548554D564C297803785C
:100480002278DFF868E1544F544E120442EA032305
:10049000FF222A700270802022708EF800003870CF
:1004A000B2794F480B4312F00C0FC36002D1B379FD
:1004B000DC063DD4494A9379C3F38103032B40D032
:1004C000464B9A79C2F38102022A42D0434A937979
:1004D000C3F38103022B53D0404A9379C3F38103C2
:1004E000022B61D03D4A9379C3F38103012B51D094
:1004F0003A4A9379C3F38103012B5CD0374B9A7945
:1005000012F00C0F03D19A79D20600D49B79354DA5
:10051000354B2A7853F82240D4B1236820469B6893
:1005200098472B7804EB83046468002CF5D1F8BD60
:10053000B3799806EBD5294A9379C3F38103032B4A
:10054000BED19379D906BBD493799B06DFD4B7E7A4
:10055000F8BD9A79D706B9D49A799606B6D559785E
:1005600001F0020101F0FF020029AFD120211A7031
:100570001A461970937903F00C030C2BFAD1C6E7D5
:100580009379DD06A8D493799C06A5D4537898076F
:10059000BDD5A1E79379DF06AAD593799E06A7D4A6
:1005A00053789D07B3D4A3E79379D9069AD45378A7
:1005B0009B07ACD496E79379DC069FD59379980690
:1005C0009CD453789907A2D598E700BF06C007408E
:1005D00005C0074007C0074009C00740004006406B
:1005E000542800200C250020CC24002008C00740FF
:1005F00090F92410104B03604B1C06D0F0B40F4E42
:1006000056F82130984201D0F0BC70470C4F57F893
:10061000213033B18D0000245A1953685460002BE7
:10062000FAD1084C23780022013B237047F821209F
:1006300046F82120E8E700BF4C7A0100EC240020B6
:10064000CC2400200D25002038B590F924506B1CD7
:100650001BD00E4B0E4953F825400E4BEDB24FF018
:10066000FF320D701A6084B1AD0002E02C44646862
:100670005CB194F82530002BF8D0236820462C4438
:100680001B6898476468002CF3D138BDCC24002047
:100690000C25002090E9FF1F704700BF90F924103F
:1006A000104B03604B1C06D0F0B40F4E56F82130AF
:1006B000984201D0F0BC70470C4F57F8213033B14D
:1006C0008D0000245A1953685460002BFAD1084C4D
:1006D00023780022013B237047F8212046F821208F
:1006E000E8E700BF4C7A0100EC240020CC24002075
:1006F0000D25002090F92410104B03604B1C06D0F0
:10070000F0B40F4E56F82130984201D0F0BC70473B
:100710000C4F57F8213033B18D0000245A1953681B
:100720005460002BFAD1084C23780022013B23703F
:1007300047F8212046F82120E8E700BF4C7A010065
:10074000EC240020CC2400200D25002010B5044608
:100750000CF044FA204610BD0AF024BB2DE9F0410C
:100760000E4680460AF01EFB174D286008F02CFE4E
:100770000746286808F01AFE0446286808F008FEB4
:100780006401C0B204F4FF54BFB20443A7F2BC77C3
:1007900044EA4724A8F80040286808F0CFFD07463F
:1007A000286808F0D9FD0446286808F0E3FDFF0238
:1007B000640107F4FF2704F4FF54C0F346003C43F0
:1007C00004433480BDE8F0816C04002070B5044619
:1007D00008460D4610F0B4FE23680246294620461E
:1007E0005B68BDE87040184738B505460CF0A4FAC0
:1007F000044628460CF050FA204438BD404A414B8C
:10080000102010801B781B072CD5F0B53E4E3F4DB5
:100810003F4C31782B7822783E4FDFF810E1824050
:1008200042EA03230B43FF22802132702A70227098
:100830008EF800103970DF07374A0CD51A23936001
:10084000364D374C3748384900232B70D36023701E
:1008500003700B70F0BD1E0705D4DD0606D504231A
:100860009360EDE7704721239360E9E79C0604D489
:10087000590604D516239360E2E79060E0E71F066F
:1008800002D509239360DBE7DE0502D50A239360D6
:10089000D6E79D0502D50D239360D1E75C0502D50F
:1008A0000B239360CCE7180502D51E239360C7E79E
:1008B000D90402D502239360C2E79F0402D507231F
:1008C0009360BDE75E0402D506239360B8E71D047C
:1008D00002D515239360B3E7DC0302D5242393608C
:1008E000AEE7980302D522239360A9E7D90202D587
:1008F00025239360A4E79B0244BF232393609FE7D3
:100900000020054002D0074005C0074006C0074050
:1009100007C0074009C007405428002000C0074016
:1009200001C0074002C0074003C0074008C007409D
:10093000002976D02DE9F04F0C469100631883B062
:100940005D68002D57D06B185E68002E50D073186C
:100950005F68002F49D07B18D3F80480B8F1000FEE
:100960003CD008EB0103D3F80490B9F1000F32D06A
:1009700009EB0103D3F804A0BAF1000F27D00AEB6A
:100980000103D3F804B0BBF1000F18D00BEB010347
:100990005B6863B1194401934968FFF7C9FF019B84
:1009A00093F825201AB11A681846536898479BF89F
:1009B000253023B1DBF8003058465B6898479AF839
:1009C000253023B1DAF8003050465B68984799F833
:1009D0002530002B35D198F8253063BB97F82530AA
:1009E0001BB13B6838465B68984796F82530CBB911
:1009F00095F8253063B994F8253013B903B0BDE8F4
:100A0000F08F23685B68204603B0BDE8F04F1847BD
:100A10002B6828465B68984794F82530002BEDD06A
:100A2000EFE77047336830465B68984795F82530A4
:100A3000002BE0D0ECE7D8F8003040465B689847E0
:100A4000CCE7D9F8003048465B689847C3E700BF59
:100A500090F92420531C26D01B4B2DE9F04153F86C
:100A60002240D2B2ECB19300E1184D68B5B1E9185B
:100A70004E6866B1F1184F6837B13B445968FFF7CB
:100A800057FF97F82530A3B996F8253063B995F844
:100A900025301BB12B6828465B68984794F82530B1
:100AA00063B9BDE8F0817047336830465B689847AA
:100AB000EDE73B6838465B689847E5E723682046E2
:100AC0005B68BDE8F0411847CC24002038B50D2103
:100AD000154C16480BF00CFC15480CF0DDF8258879
:100AE000144810210BF004FC294611480CF024F99D
:100AF0000F480CF0D1F800230F4A1946112082F854
:100B0000F6300AF067F90D4B0D4A1B7812882280E7
:100B100013B10C480CF062F80B4805F0BFFA6420E2
:100B2000BDE838400AF092B9D8260020907A01003A
:100B3000B8F9FF1FA07A0100B80B002038F1FF1FA1
:100B400000270020780F0020941C00209B4B93E886
:100B5000030070B59A4C9B4D0123238184E8030068
:100B60000822994904F10C0010F0A8FD08229749C9
:100B700004F1140010F0A2FD0822954904F11C00B4
:100B800010F09CFD0822934904F1240010F096FD1A
:100B90000822914904F16C0010F090FD08228E4962
:100BA00004F1740010F08AFD08228B4904F17C00E6
:100BB00010F084FD0822884904F1840010F07EFDC5
:100BC000864A874B106819680FF04AF9854BC4F8BC
:100BD000CC001B78C4F8D000012B0CBF824983499C
:100BE000C4F8D400C4F8D800082204F1FC0010F0C6
:100BF00065FD7F4B93E8030004F5847383E80300ED
:100C00000223A4F8043108227A4904F5887010F010
:100C100055FD0822784904F5B47010F04FFD774A6D
:100C20004FF07E5392E80300C4F8CC31C4F8C831C9
:100C3000734B04F5B87282E8030093E803000323C2
:100C400085E803000822A4F800326E4905F10C0083
:100C500010F034FD08226C4905F1140010F02EFD4F
:100C600008226A4905F11C0010F028FD684B69490B
:100C7000C4F8C41293E80300674A05F16C0686E8DD
:100C8000030005F17C0305F1740686E8030083E8A0
:100C9000030092E8030005F1FC0383E803005F4BC7
:100CA000C4F8C8325E4E5F49C4F8CC620923A4F888
:100CB000FC32082205F5847010F000FD08225A4924
:100CC00005F5887010F0FAFC0822584905F58C707B
:100CD00010F0F4FC0822564905F5907010F0EEFC77
:100CE0000822544905F5947010F0E8FC0822524996
:100CF00005F5987010F0E2FC0822504905F59C704B
:100D000010F0DCFC08224E4905F5A07010F0D6FC6E
:100D100008224C4905F5A47010F0D0FC08224A497D
:100D200005F5B47010F0CAFC0822474905F5B87003
:100D300010F0C4FC0822444905F5BC7010F0BEFC5C
:100D4000424B93E8030005F5C07282E8030005F505
:100D5000C87305F5C47282E8030083E80300082223
:100D60003B4905F5CC7010F0A9FC0822384905F57F
:100D7000D07010F0A3FC0822354905F5D47010F0AE
:100D80009DFC344B18680FF01FF94FF060510FF0C5
:100D90006FF9314A314BC4F8C003C4F8C403C4F836
:100DA000C803C4F8CC23C4F8D023C4F8D423C4F8AF
:100DB000D833C4F8DC33C4F8E03370BDB47A010032
:100DC000D41C0020CC1E0020C07A0100C87A01008B
:100DD000D07A0100D87A0100E07A010054040020A2
:100DE00058F1FF1F68040020E47A0100147B010021
:100DF000EC7A0100F87A0100007B0100087B010019
:100E00001C7B0100287B01002C7B0100347B01004E
:100E10003C7B01000000A039947B01000000903968
:100E20000000F039487B0100507B0100587B010035
:100E3000607B0100687B0100707B0100787B010012
:100E4000807B0100887B01009C7A01009C7B010073
:100E5000907B0100F4F0FF1F0000FA3C0000163EFA
:100E600010B5294C29482278114604F019FC236852
:100E70000F2B0CD8DFE803F00C1014181C202428CA
:100E80002C3034383C404408214B224A1A6010BDB3
:100E90001F4B214A1A6010BD1D4B204A1A6010BD1D
:100EA0001B4B1F4A1A6010BD194B1E4A1A6010BD19
:100EB000174B1D4A1A6010BD154B1C4A1A6010BD15
:100EC000134B1B4A1A6010BD114B1A4A1A6010BD11
:100ED0000F4B194A1A6010BD0D4B184A1A6010BD0D
:100EE0000B4B174A1A6010BD094B164A1A6010BD09
:100EF000074B154A1A6010BD054B144A1A6010BD05
:100F0000034B134A1A6010BD40F1FF1FC00F0020B1
:100F100054040020BD549341103377C0993918C050
:100F2000BE0D68BFCE71153F8D090340CCC962402C
:100F300009A7A3407DDBD140C416014154FC1741F1
:100F4000D0E83041195546419FAB5F41A041764101
:100F50005E2E864110B4114A13780133DBB2137050
:100F60001378282B11D00E490E4B10781B780A7875
:100F70000B4983428CBF00230123934203D90A4AC1
:100F8000012313700B7010BC7047074804490023FD
:100F90000224137004700B70E6E700BF580E0020A7
:100FA000480F002070F1FF1F4C0E002010B4174BAB
:100FB00017491A78D2B2C0B288541A780132D2B224
:100FC0001A701A78D2B2002088541A780132D2B23C
:100FD0001A701A78782A11D00E4A0F4819780378B7
:100FE00012780C488B428CBF00230123934203D913
:100FF0000A4A01231370037010BC70470749054A61
:10100000187002240C701070E7E700BF8E0B0020F0
:10101000D00D0020800F002048F1FF1F8E1C002003
:1010200070B41C4B1C4C1D4D00221868A15CC9B249
:101030002954196801320131062A1960F5D10822B4
:101040001868A15C134EC9B22954196801320131E4
:10105000142A1960F4D13268B2F5E16F11D0104A48
:1010600010491B68096812780D488B42B4BF0023F1
:101070000123934203D90C4A01231370037070BCFF
:1010800070470948064A002102243160047011703B
:10109000E6E700BFC00E0020C82100208404002025
:1010A0008A1C002068F1FF1FC80E002070B472B6C1
:1010B0001B491C4B1C4841250E2480220D700470D6
:1010C00019461A700B78174A1806FBD5174B1848A3
:1010D0001D78184C18490570033B247809781B7853
:1010E000C3704470817062B672B60D490E4C4126D1
:1010F0000F2580230E702570114613700B781B0688
:10110000FCD50A4C0B490C4A0C4B24780978127810
:101110001B78C37104714171827162B670BC7047F3
:101120000700024000000240060002400B0002409F
:10113000801C00200A000240090002400800024012
:1011400038B50021282009F059FE00252024282048
:1011500009F0DAFB0EF038FF014628460EF080FE5B
:10116000013C0546F3D109490EF082FF4FF06A5168
:101170000EF07EFF01210446282009F03FFE2046A4
:101180004FF074510EF074FF38BD00BF8EC2DD40C9
:101190002DE9F041244C254E94F800E06578A778BD
:1011A000E27894F804C06379A079E17941EA0020FB
:1011B00045EA0E2143EA0C2331801D4D1D491E4E88
:1011C00042EA07225B422A800B8000B20EF0FCFE4E
:1011D000227A637A94F80AC0E57A94F80C80677BE7
:1011E000306043EA0223154A94F80EE01380E17B55
:1011F00047EA0820277C627CA67CE37C42EA07223F
:1012000045EA0C240E4F0F4D40422C8038800E4D85
:101210000E4C0F48228041EA0E2143EA0623298022
:101220000380BDE8F08100BFC82100207C1C0020A5
:101230007E1C00208C0B00205C0E0020800400200F
:10124000C6210020C4210020720400207004002068
:101250007404002010B5114C2168012915D0022911
:1012600003D00F4B01221A7010BD0121042009F098
:10127000B1FD4FF4FA6009F0E9FD0021042009F006
:10128000A9FD074B01221A7010BD042009F0A2FD30
:1012900040F6B83009F0DAFD2168E0E7BC0C002028
:1012A000D40F0020124B10B51C68012C0FD0012167
:1012B000042009F08FFD4FF4FA7009F0C7FD0021FA
:1012C000042009F087FD0B4B01221A7010BD00218C
:1012D000042009F07FFD4FF47A7009F0B7FD214634
:1012E000042009F077FD034B01221A7010BD00BFE6
:1012F000BC0C0020D40F0020114B10B51C68012C31
:101300000CD00121042009F065FD642009F09EFD48
:1013100000210420BDE8104009F05CBD002104203C
:1013200009F058FD4FF4C87009F090FD21460420E3
:1013300009F050FD41F27070BDE8104009F086BD23
:10134000BC0C002008B5104B1B68012B0FD00121ED
:10135000042009F03FFD40F6B83009F077FD002188
:10136000042009F037FD094B00221A7008BD4FF424
:101370007A7009F06BFD0021042009F02BFD034B6E
:1013800000221A7008BD00BFBC0C0020D40F002042
:1013900008B5114A114B106819680FF007F880B9A9
:1013A000034613F0FF0F11D10D4B1968A1F1010194
:1013B000B1FA81F1490949B90820BDE8084009F0AE
:1013C00009BD4FF0010313F0FF0FEDD001210820FC
:1013D000BDE8084009F0FEBCC40E00207CF1FF1FF0
:1013E0008C0F00202DE9F041464B474C59781F786F
:1013F000627898782378A678444D0902120241EA6F
:10140000074142EA034308431E430EF0D9FD404B17
:10141000044618880EF0D4FD4FF087410EF028FEE8
:10142000014620460EF01AFD3A4B044618880EF08D
:10143000C7FD21460EF01CFE4FF050510EF018FE75
:1014400035490EF00DFD35490EF0C6FE344B2860CF
:10145000074618880EF0B4FD21460EF009FE4FF045
:101460006E510EF005FE2F4B804618880EF0A8FD39
:101470004FF08E410EF0FCFD014640460EF0F0FCB0
:10148000804630460EF09CFD014640460EF0F0FDD1
:101490004FF054510EF0ECFD234B064618880EF029
:1014A0008FFD21460EF0E4FD4FF070510EF0E0FD8F
:1014B0001E4B044618880EF083FD4FF08F410EF04E
:1014C000D7FD014620460EF0CBFC014630460EF01B
:1014D000C5FC4FF064510EF0CBFD15490EF07CFEBB
:1014E000144B02461A60196813480EF0B7FC1349F2
:1014F00000F100400EF070FE114B18602F60BDE847
:10150000F08100BF3C0F00202C0D0020CC1C0020DF
:1015100082040020EA0E00200000FA440000C842C5
:101520008C1C0020400F0020E0210020881C00209F
:10153000000020416404002000807C4406C1DE429B
:10154000C40E002030B5314B314D1A78697B2869C3
:1015500085B0012300248DE81800052307F02AF840
:101560002B69D3F83821D3F8341191420ED002AC54
:10157000184607F039F82B69D3F83811D3F834211D
:1015800020EAE070914204F8010BF1D19DF80A20A5
:101590009DF809001F4B42EA00201C680EF014FD64
:1015A0004FF08D410EF05AFC1B4B05462146186842
:1015B0000EF054FC014628460EF05AFD4FF06051E3
:1015C0000EF056FD21460EF04BFC14490EF050FD76
:1015D000124904460EF000FE9DF80C30104A0146F8
:1015E0009DF80B00116043EA0020001118380EF03E
:1015F000EBFC0C490EF03CFD0B490EF02FFC0B4AA6
:101600000B4B10601C6005B030BD00BF2CF1FF1FFC
:10161000B8240020B40C002074F1FF1F00007A44AD
:10162000C40E0020CDCC4C3D00004842CC1C002014
:101630006404002010B50D4C204608F051FCFFF763
:101640007FFDFFF77DFD6062204608F081FE2046A9
:10165000012108F09BF92046012108F091F90022B0
:1016600020461146BDE8104008F086B9C40C0020A1
:1016700010B501220446084908480BF0F9FA092C74
:1016800004DC0122064905480BF0F2FA2146034822
:10169000BDE810400BF050BB347E0100C40C0020AC
:1016A000A47B010038B50C4605460121234808F00B
:1016B00067F92AB20021214808F05EF9204607F0B8
:1016C00083FE01461D480BF037FB2D211B4808F017
:1016D00019F9204607F06AFE014618480BF02CFB6A
:1016E0002D21164808F00EF9204607F051FE01465C
:1016F00012480BF021FB0222114910480BF0B8FAF6
:10170000204607F01BFE092804DC01220D490B4886
:101710000BF0AEFA204607F011FE014607480BF029
:101720000BFB204607F018FEFFF7A2FF204607F04C
:1017300021FEBDE83840FFF79BBF00BFC40C00206E
:10174000A87B0100A47B010010B501213448354C71
:1017500008F016F90121324808F018F90022114664
:101760002F4808F009F92368002B3BD0012B51D0FA
:10177000082200212A4808F0FFF82B4B1B684BB1C8
:101780002A4B08201968FFF78DFF022228492448B8
:101790000BF06EFA10220021214808F0EDF8042227
:1017A00024491F480BF064FA234B1D4819680BF0BD
:1017B000C3FA012221491A480BF05AFA082220499B
:1017C00017480BF055FA1F4B154819680BF0B4FA7F
:1017D00001221A4912480BF04BFA1148BDE810409B
:1017E0000BF05ABA082218490D480BF041FA174A73
:1017F000174B11681B680A48C91A0BF09DFA0122A1
:101800000E4907480BF034FA05480BF045FA2368F7
:10181000012BADD107220F4901480BF029FAA7E7A8
:10182000C40C00203C150020540E00205C04002055
:10183000C47B0100C87B010078F1FF1FB87B010069
:10184000D07B0100781C0020AC7B0100B80E00208A
:101850006C040020BC7B010030B583B002AD079C56
:1018600005F8082D8DF80200069A8DF804304E34E4
:1018700028468DF801108DF805208DF8064007F0F8
:10188000B3FD09F095FA03B030BD00BF70B58CB060
:1018900004460FF055FE00B2012829DDB4F90030EE
:1018A00044F65212934200F0DB8124DC44F25242AF
:1018B000934200F0DE813FDD44F24172934200F03A
:1018C000C6816EDD44F64412934200F04D8144F629
:1018D0005012934200F0E28044F25372934207D1D7
:1018E0000AAAE01CA2490FF093FDA24B0A9A1A60C3
:1018F00001200CB070BD45F24B02934200F0C28152
:1019000034DD45F25322934200F0648140F3A98014
:1019100045F25042934200F01C8145F242729342DC
:1019200000F0E28045F24C329342E1D19249934A71
:1019300001230B701370DBE744F24C42934200F03A
:10194000828140DC44F25012934200F0BA8044F2AB
:1019500048329342CCD1E01C0AAA8549884C0FF04A
:1019600057FD0A980EF030FB2060C1E744F649525B
:10197000934200F0588137DC44F64242934200F033
:10198000AB8044F642529342B2D10AAA7849E01C95
:101990000FF03EFD7B4A0A997B4B116002221A60D0
:1019A000A6E744F25342934200F09A8044F2506218
:1019B00093429DD10AAAE01C6D490FF029FD734B9B
:1019C0000A9A1A6094E744F24E42934275D044F268
:1019D000504293428CD10AAAE01C65490FF018FDD1
:1019E0006B4B0A9A1A6083E744F6505293424CD0EC
:1019F00044F6545293427FF47BAF09AD08A907AA7D
:101A000004AB039502910192009306AA05ABE01C7A
:101A100060490FF0FDFC069C059D049B07A804F59A
:101A2000FA6407C800950194FFF716FF11215A4880
:101A30000AF05EFC07F056FD014658480BF07CF9B1
:101A400056480BF029F91B2155480AF051FC09F0C2
:101A5000A9F9014651480BF06FF950480BF01CF9F9
:101A600046E745F24D02934221D045F2502293427F
:101A70007FF43EAFE01C0AAA3D494A4C0FF0C8FC77
:101A80000A980EF0A1FA206032E70AAAE01C384951
:101A90000FF0BEFC444B0A9A1A6029E70AAAE01C20
:101AA00033490FF0B5FC414B0A9A1A6020E74049D0
:101AB000324A01230B7013701AE73E4B01221A6061
:101AC00016E7E01C0AAA2A493B4C0FF0A1FC0A9831
:101AD0000EF07AFA20600BE7384B01221A708CE77F
:101AE000374B01221A6003E709AD08A907AA04AB26
:101AF000E01C039502910192009306AA05AB2549CB
:101B0000304C0FF085FC069B09980499059A089EB5
:101B1000079D8DF828001E330AA88DF82E308DF809
:101B20002C108DF82D208DF829608DF82A5007F0A3
:101B30005BFC154B2060012223481A600A210AF041
:101B4000D7FB216815480BF0F7F814480BF0A4F800
:101B5000CEE6E01C0AAA06491C4C0FF059FC0A9874
:101B60000EF032FA2060C3E6194B01221A70BFE66C
:101B7000DC7B010040F1FF1F14F1FF1F38F1FF1F54
:101B800058F1FF1F78040020540E00200CF1FF1FB5
:101B900008F1FF1FE07B0100F47B0100B8F9FF1F93
:101BA000087C010004F1FF1FF8F0FF1F18F1FF1F70
:101BB00068040020C00C002010F1FF1FF00C002072
:101BC000C02100205C040020247C010060F1FF1F84
:101BD00050F1FF1F09AD08A907AA04ABE01C03954B
:101BE00002910192009306AA05AB2A492A4C0FF0F4
:101BF0000FFC069B09980499089E079D059A8DF88D
:101C0000280030330AA88DF82C108DF82E308DF86E
:101C100029608DF82A508DF82D2007F0E5FB122160
:101C200020601E488BE70AAA1D49E01C0FF0F0FB5C
:101C30000A981C4C0EF0C8F91B491C4A206001236D
:101C40000B70137054E61A4B00221A7050E60AAA61
:101C5000E01C13490FF0DCFB164B0A9A1A6047E6AA
:101C60000AAAE01C0E490FF0D3FB134B0A9A1A6024
:101C70003EE60AAAE01C0A490FF0CAFB0F4B0A9A7B
:101C80001A6035E60E49084B0220012208701A70CE
:101C90002EE600BFE07B0100B80E0020307C010082
:101CA000DC7B010054F1FF1F38F1FF1F30F1FF1FF3
:101CB000F0F0FF1FF4F0FF1F781C002078F1FF1FE9
:101CC0006804002038B5054607F07EFB1E4C01462F
:101CD00020460BF031F82D200AF08EFB284607F045
:101CE00065FB014620460BF027F82D200AF084FB07
:101CF000284607F04DFB014620460BF01DF8012158
:101D000012480AF0F5FA284607F018FB014620466B
:101D10000BF012F83A200AF06FFB284607F01CFB84
:101D2000014620460BF008F83A200AF065FB2846E9
:101D300007F020FB014620460AF0FEFF2046BDE8E2
:101D400038400AF0A9BF00BFB8F9FF1FF07D0100BD
:101D50002DE9F043434A444BDFF81891DFF818812E
:101D6000424D98F80010167899F800701A78286893
:101D700083B03C2313FB071713FB062607F0DEFA9C
:101D80000446286807F0E8FAC4EB041400EB840466
:101D9000286807F019FB00F14E0328688DF806301B
:101DA00007F004FB8DF80500286807F0F1FAB74248
:101DB0008DF8040006D2A74232D8A64230D303B031
:101DC000BDE8F083A742FAD9A642F8D202A80023C0
:101DD00099F8002000F8083D98F800308DF801309F
:101DE0008DF8022007F000FB0F21286020480AF040
:101DF0007FFA2868FFF766FF08F0D4FF2B6883425C
:101E000004DA03F5A83303F5C0732B600F211848DB
:101E10000AF06EFA2868FFF755FF03B0BDE8F083BB
:101E200002A8002399F8002000F8083D98F8003037
:101E30008DF801308DF8022007F0D6FA0F212860C6
:101E40000B480A4C0AF054FA2868FFF73BFF08F0E9
:101E5000A9FF2B688342D9DA03F5A83303F5C073D1
:101E60002360D3E7CD0F0020CC0F0020B80E002058
:101E7000447C0100C11C0020D50F00202DE9F04F4B
:101E80006D4A6E4D6E4C6F4B6F48DFF8DCA1D3F896
:101E900000C0D0F800E0D2F8008023882A88BAF881
:101EA00000106A4E6A4FB6F90000CCEB0202CEEB8E
:101EB000030387B02A802380C8EB0101AAF8001031
:101EC0000DF01AFC80468946B7F900000DF014FCAD
:101ED00042464B460CF070F90DF06CFF02900DF08D
:101EE0001DFC804689460CF023F90DF063FF49463E
:101EF000834640460CF046F80DF05CFF8046B5F98D
:101F000000000EF061F88146B4F900000EF05CF8B4
:101F1000504B0190B3F9000040420EF055F80446D2
:101F2000B7F900000EF050F859460EF0A1F805463A
:101F3000B6F900000EF048F841460EF099F8014657
:101F400028460DF08DFF014620460EF045F90DF0B4
:101F5000E5FB0BF079FE0DF02DFF03900DF0DEFB9D
:101F600004460D460CF0E4F806460F462046294686
:101F70000CF008F802460B4658464946CDE90423C2
:101F80000EF076F80199044640460EF071F80146CD
:101F900020460DF065FF3946044630460DF00AFF35
:101FA000014620460EF064F80446BAF900002A4FB4
:101FB0002A4E0EF009F8DDE90423054619461046BD
:101FC0000DF0F8FE014628460EF052F80146204674
:101FD0000DF046FF0DF0A2FB04460D464046494673
:101FE0000EF046F80199804658460EF041F8014639
:101FF00040460DF033FF00F100400DF08FFB22460C
:102000002B460CF0D9F804460D46039814490EF0FF
:102010002FF8144B1249186002980EF029F829463F
:10202000386020460DF0C6FE0D490EF021F83060F4
:1020300007B0BDE8F08F00BF280D0020720400201B
:1020400074040020480E0020901C00208C0B0020FF
:102050007E1C00207C1C00207C040020BC0E002084
:10206000E12E6542B80C00207004002010B5044633
:10207000232009F0BDF921460B480AF05DFE0A480D
:102080000AF00AFE094B1B7803B910BD0721084866
:102090000AF02EF9214607480AF04EFE0548BDE831
:1020A00010400AF0F9BD00BF98F9FF1F50F1FF1F63
:1020B000547C0100B8F9FF1F2DE9F04FDFF8D492EE
:1020C000DFF8D482D9F80000D8F8001085B00EF0FF
:1020D0008BF940B19E4BD9F800201B78C8F800203E
:1020E000002B40F0AA809B4C9B4E23689B4D002BFD
:1020F00048D19B4A2B6837681268DFF8A0A2D9F84C
:102100000000DAF80010FB1A9342D4BF4FF0000B26
:102110004FF0010B0EF068F9924B1A684FF0010373
:10212000002800F08680002A14BF002303F001037A
:102130001BEA030B74D0864A8A4B1278012119607E
:10214000002A57D1D9F80010DFF85492D8F80000CF
:102150000DF084FED9F800100EF046F94FF00101A1
:10216000002868D0DFF80C827F4AD8F80000126897
:102170009042ACBF002201F001021BEA020A40F0CB
:102180008A80236832682868A3F1010ABAFA8AFAB9
:102190004FEA5A1A824202DBBAF1000F04D1022B35
:1021A00018D005B0BDE8F08F704F02233868236067
:1021B000FFF75CFF6E4A3B6812686E490133934239
:1021C0003B60A4BF00233B600A6823680132022BF6
:1021D0000A60E6D1684A3368296812685B1A93423C
:1021E000DFDD0021102008F0F5FD0023236005B09D
:1021F000BDE8F08F192161480AF07AF8DAF800009A
:102200000DF08CFA4FF0020E02460B46CDF800E0BE
:102210005B480AF099FD5A480AF03EFD514B1A6896
:10222000022A1DD0A2F1010BBBFA8BFB4FEA5B1B0C
:1022300088E7034677E7014694E70B2151480AF007
:1022400057F8D8F800000DF069FA022402460B4650
:1022500000944B480AF078FD49480AF01DFD42E71A
:10226000DFF840A1D9F80000DAF800100392DFF897
:1022700024B10EF09BF850B1354BDBF80010394A11
:102280001B78C8F80010002111609346CBB9236871
:10229000D9F8002076E70121102008F09BFD2C4B97
:1022A000326893F800C02F4FDFF8A8B0901C0121CE
:1022B0000223286021603B60BCF1000F1CD10B465B
:1022C00068E70D2130480AF013F8DAF800000DF045
:1022D00025FA039A00920B46024629480AF034FD7B
:1022E00027480AF0D9FCDBF80030A3F1010BBBFA58
:1022F0008BFB4FEA5B1B25E70E212448039309F073
:10230000F7FFD9F800000DF009FA039B009302468D
:102310000B461B480AF018FD19480AF0BDFC1121B4
:102320001B4809F0E5FFD8F8001015480AF004FD35
:1023300013480AF0B1FCDBF80030074A074912687D
:102340000868A3F1010ABAFA8AFA4FEA5A1A21E791
:1023500050F1FF1FE40E00206C0400203404002024
:1023600018F1FF1FDC210020F8F0FF1FB40B002044
:102370000CF1FF1F440F002008F1FF1F687C0100D3
:10238000B8F9FF1F5C7C0100847C0100947C010093
:10239000A47C0100C40E0020B00C002060F1FF1FDF
:1023A00010F1FF1F04F1FF1F2DE9F04F0546934E7A
:1023B000934FDFF85C8296F800E02F60FF2085F8ED
:1023C0002400DFF8509298F80000BEF1060F59F88B
:1023D00020E04FF000038DB00C4685F8253085F8DD
:1023E000263098BF3370BEF1000F00F0AD808E45EF
:1023F0005ED07346810001E09C4259D00B445B687B
:10240000002BF9D1734600E053460B44D3F804A0E7
:10241000BAF1000FF8D15C603478029705EB010B3C
:102420004FFA80FCFF23062CCBF804A08DF82DA0DA
:102430008DF82EA085F824C08DF82C30744604D871
:1024400000233370002C00F0B480A24229D0234630
:1024500001E0934225D00B445B68002BF9D104EBDB
:10246000010EDEF80440002CF9D1CEF804200CABAC
:102470001944BCF1FF3F00F101034FF0000041F8A7
:10248000240C88F800308DF82CC0029705D05D49E7
:1024900051F82C2002AB9A4276D028460DB0BDE808
:1024A000F08F013088F8000028460DB0BDE8F08FAD
:1024B00031780297FF24002306298DF82C408DF8EF
:1024C0002D308DF82E304D4C00D823709645E8D035
:1024D0007346810001E09A42E3D00B445B68002B15
:1024E000F9D18E44DEF804402CB1A6468E44DEF8C5
:1024F0000440002CF9D10CAB46B219440130731CD6
:10250000CEF8042088F8000041F8244C02978DF89A
:102510002C60C2D03B4951F8262002AB9A42BCD174
:1025200059F82630B00023B11A1853685460002BB4
:10253000FAD198F800300022013B88F8003049F8C1
:10254000262041F82620A8E700283AD02D4B96F8FF
:1025500000E043F82050810005EB010C002349F80E
:1025600020408DF82D30CCF804308DF82E304FFA05
:1025700080FCFF23BEF1060F029785F824C08DF87A
:102580002C307FF65DAF5DE759F82C304FEA8C04B4
:1025900023B11A1953685060002BFAD198F8003013
:1025A0000022013B88F8003049F82C2041F82C200B
:1025B00073E798B1134B49F8202002AA43F8202072
:1025C00055E711490192152008F024FB0F4B019AA1
:1025D0004FF40011196098F80000B7E70A4901921A
:1025E000152008F017FB094B019A4FF400111960F0
:1025F00098F800004FFA80FC8100DBE794E9FF1FA8
:102600004C7A0100EC2400207504000000E100E099
:102610000D250020CC2400202DE9F041814C824E74
:10262000824D834F08F0EEF94FF0FF31204607F05E
:1026300043FC804B3268236001210023002060624C
:1026400084F8281084F829102F606B722B612B728C
:10265000EB600AB9E0E01A465369002BFBD15561E3
:10266000754C764B71482B604FF00008C5F814800C
:10267000A5F80480A5F8068003F052F9012004F2C1
:10268000247243464146276084F80880C4F80C80D1
:1026900060722261A64601E0DEF8102042F82310A5
:1026A000627A654801339A42F6DC32685E4B0AB9B9
:1026B000B4E01A465369002BFBD154614FF0000877
:1026C0005F49DFF8D8E12160424601234FF4807171
:1026D0005C48C4F81480A4F80480A4F80680C4F808
:1026E00018E184F8218784F822870BF0D1F9564A43
:1026F000C4F81C814FF0010E02F118011760082781
:1027000082F809E04346404682F80880C2F80C800F
:102710001161964684F8207701E0DEF8101041F848
:102720002300517A484F01339942F6DC31683E4B21
:1027300009B975E019464B69002BFBD14A61434B3F
:1027400043495A60002656619680D680184682F822
:10275000F460C2F8F06082F8F560116082F8F6600B
:102760001D601E725E72DE6009F09AFF394B3A4FAF
:102770001E7218461D605C605E72DE6009F090FF9C
:10278000364A374B1168374A1A600A221A724FF0DC
:1027900087400DF021FD344C344D38604FF0FF0878
:1027A000334B84F82560012784F82480314A32496C
:1027B00066632046A66384F83C60236084F8267034
:1027C0000DF0D6FF2D4B2B4A2D4985F82480284645
:1027D00085F825602B6085F826700DF0C9FF22462C
:1027E00029462848FFF7E0FD224A274925480DF0F1
:1027F000BFFF264803F030FC1E4A254923480DF050
:10280000B7FF244B1B4A1E6080241C7122491846C6
:10281000BDE8F0410DF0ACBF356021E718604DE731
:102820001F608CE7C40C0020D4260020CC0E0020B2
:10283000407A0100607A0100401500200083010009
:10284000D8820100681C0020B80B0020900B0020EB
:102850000C830100A00B0020500E002064F1FF1F2C
:10286000C00F0020E4820100780E0020900F0020AD
:102870007C850100FCEFFF1F9D0600009085010094
:10288000F5060000F40C0020F1050000941C002067
:1028900075600000780F00204D070000D080010017
:1028A00010B51D48ADF5007D03F0A0F9012829DD24
:1028B0001A491B4C0B6822681748013301320B6020
:1028C000226003F0C5F94FF480720146684607F0B4
:1028D00049FE114803F0DAF90F4803F0B9F94FF453
:1028E000807201460DEB020007F03CFE0A4803F03F
:1028F000CDF90C4B1B7843B969464FF400720A4876
:1029000003F030FB0DF5007D10BD1022074906488D
:1029100003F028FBF0E700BFB80B0020200D0020DB
:102920005804002038F1FF1F941C0020EC0E0020FA
:102930002DE9F845194CDDF820814FF48A7707FB23
:10294000004492460546082220461E460EF0B6FE7A
:10295000479BC4F80C31FC2208A904F11000A4F82C
:1029600008A0E660C4F8108107F0FCFD3A46214655
:102970000B4803F0F7FA013002D10A4B0A4A1A60F9
:102980000A492A018B186427C8264FF496748D5083
:102990005F609E60DC60BDE8F88500BFD80F002056
:1029A000941C00200CED00E00400FA05EC0E002061
:1029B00000B589B0684616230C4A0D4903F0D2FCD5
:1029C000684603F079FB50B122220A49684603F0B9
:1029D000C9FA68460AF060F9684603F05FFB68468A
:1029E00003F048FB09B05DF804FB00BFD87C010090
:1029F00038220020E07C010070B5B44B1B7884B015
:102A0000002B40F05B81B24C7621204605F01EFB86
:102A100000251E21204605F025F8627B21690095DE
:102A20000123204605F09EFD052008F00FFA204600
:102A3000762105F00BFBA221204605F013F8627BFE
:102A4000216900950123204605F08CFD0123617B5F
:102A50000093762202232069019505F0ABFD2369DE
:102A6000D3F83811D3F8342191420CD003AD184675
:102A700005F0BAFD236905F8010BD3F83811D3F836
:102A800034219142F3D19DF80D209DF80C50914BCB
:102A90008F4842EA052576211D80002605F0D6FAEA
:102AA000A4218B4804F0DEFF627B216988480096F0
:102AB000012305F057FD0123617B00937622022359
:102AC0002069019605F076FD2369D3F83811D3F813
:102AD0003421914212D003AD184605F085FD2369DB
:102AE00005F8010BD3F83811D3F834219142F3D112
:102AF0009DF80C509DF80D3043EA0525764B74483F
:102B00001D80762105F0A2FA0026A621704804F067
:102B1000A9FF627B21696E480096012305F022FD22
:102B20000123617B0093762202232069019605F040
:102B300041FD2369D3F83821D3F83411914212D0E2
:102B400003AD184605F050FD236905F8010BD3F8D5
:102B50003811D3F834219142F3D19DF80C509DF8EF
:102B60000D3043EA05255D4B59481D80762105F05F
:102B70006DFA0026A821564804F074FF627B216993
:102B800053480096012305F0EDFC0123617B00937F
:102B9000762202232069019605F00CFD2369D3F803
:102BA0003821D3F83411914212D003AD184605F004
:102BB0001BFD236905F8010BD3F83811D3F8342134
:102BC0009142F3D19DF80C509DF80D3043EA052554
:102BD000434B3F481D80762105F038FA0026AA2194
:102BE0003B4804F03FFF627B21693948009601238E
:102BF00005F0B8FC0123617B009376220223206953
:102C0000019605F0D7FC2369D3F83821D3F83411A5
:102C1000914212D003AD184605F0E6FC236905F891
:102C2000010BD3F83811D3F834219142F3D19DF838
:102C30000C509DF80D3043EA05252A4B24481D8091
:102C4000762105F003FA0026AC21214804F00AFFA2
:102C5000627B21691E480096012305F083FC012355
:102C6000617B0093762202232069019605F0A2FC85
:102C70002369D3F83811D3F83421914219D035465D
:102C800003AE184605F0B0FC23697055D3F838112F
:102C9000D3F83421914205F10105F2D19DF80D30B0
:102CA0009DF80C5043EA05250F4B01201D8004B010
:102CB00070BD0D4B30461D8004B070BD0B210B481C
:102CC00009F016FB0A4809F0E7FF9CE650F1FF1FE8
:102CD000B8240020400F0020881C00208C1C0020FD
:102CE000E021002082040020EA0E0020047D010083
:102CF000B8F9FF1F10B50A4C82B02046762105F0C6
:102D0000A5F92046482104F0ADFE00230093627B24
:102D100021692046012305F025FC02B010BD00BF4B
:102D2000B824002010B50A4C82B02046762105F068
:102D30008DF92046582104F095FE00230093627B14
:102D400021692046012305F00DFC02B010BD00BF33
:102D5000B8240020F0B5284F3B7885B0002B43D134
:102D6000264C274E2046317805F070F900250021C9
:102D7000204604F077FE627B2169009501232046FE
:102D800005F0F0FB022008F061F801233278617B46
:102D9000009320690195022305F00CFC022008F045
:102DA00055F803AE2369D3F838211846D3F83431E7
:102DB0009A4213D005F018FC3B7820EAE07006F840
:102DC000010B0135002BEDD000230A2231780D488C
:102DD00009F072FF0B4809F05FFFE3E7002DD4BF55
:102DE0000020012005B0F0BD0B21074809F080FA52
:102DF000044809F051FFB3E750F1FF1FB824002049
:102E00002CF1FF1FB8F9FF1F107D010010B50A4B10
:102E10000A4C197882B0204605F018F92046AC21FA
:102E200004F020FE00230093627B216920460123E9
:102E300005F098FB02B010BD2CF1FF1FB824002054
:102E400070B5134C82B006460D4620460A2105F0A7
:102E5000FDF8C6F30721204604F004FEF1B2204637
:102E600004F000FEC5F30721204604F0FBFDE9B2A3
:102E7000204604F0F7FD00230093627B2169204681
:102E8000012305F06FFBB0FA80F0400902B070BD7D
:102E9000B824002008B500213020FFF7D1FF002121
:102EA0000220BDE80840FFF7CBBF00BF08B5AB214B
:102EB0003020FFF7C5FF63210220BDE80840FFF77F
:102EC000BFBF00BF08B544F260013020FFF7B8FF74
:102ED0006C212620FFF7B4FF4FF4F8712820FFF78C
:102EE000AFFF00212A20FFF7ABFF40F622712C2014
:102EF000FFF7A6FF44F246413C20FFF7A1FF40F256
:102F000037112420FFF79CFFFFF7D0FF4FF4C87064
:102F100007F09CFF41F619112E20FFF791FF0421C5
:102F20000846FFF78DFF4FF498710620FFF788FFE2
:102F300000210A20FFF784FF08210E20FFF780FF01
:102F40004FF63C711020FFF77BFF47F67F71222080
:102F5000FFF776FF00214FF49270FFF771FF142105
:102F60002420FFF76DFF00212A20FFF769FF0021D1
:102F70002020FFF765FF012008BD00BF10B5114CF0
:102F8000FFF7A0FF20465522202102F0B7FA38B102
:102F9000E28842F0040292B22046242102F0AEFA06
:102FA0000021084802F0C6FB074B06481A78114674
:102FB00002F076FB034802F069FB0248BDE81040CE
:102FC00002F07ABBC00F002040F1FF1FF0B5174C94
:102FD000174D83B029780646204605F037F831466C
:102FE0002046002604F03EFD627B21690096012305
:102FF000204605F0B7FA2978204605F027F82A7808
:10300000617B2069019601252B46009505F0D2FAD7
:10301000206905F0E9FA627B2169009607462B4694
:10302000204605F09FFAF8B203B0F0BDB8240020A6
:103030001CF1FF1F2DE9F0411A4C1B4D82B029787D
:103040000646204605F002F831462046002604F0E8
:1030500009FD627B216900960123204605F082FA72
:1030600001272978204604F0F1FF2A78617B206946
:1030700001960223009705F09DFA206905F0B4FA45
:103080000546206905F0B0FA627B2169009680460A
:103090003B46204605F066FA45EA082080B202B0B9
:1030A000BDE8F081B82400201CF1FF1F08B50B20FB
:1030B000FFF7C0FF064B18800920FFF7BBFF054B49
:1030C00018800D20FFF7B6FF034B188008BD00BF26
:1030D000BC0F0020D01C00201C0D002070B50D4B33
:1030E0000D4C82B006460D462046197804F0AEFF1E
:1030F0003146204604F0B6FC2946204604F0B2FCD6
:1031000000230093627B21692046012305F02AFAFF
:1031100002B070BD1CF1FF1FB8240020F8B50446B2
:103120000E46012021461546FFF7D8FF3146022002
:10313000FFF7D4FF29460320FFF7D0FF0120FFF758
:1031400045FF07460220FFF741FF864204BFE41B0C
:10315000B4FA84F44FF003000CBF64090024FFF7B5
:1031600035FF85420CBF20460020F8BD08B50A2176
:10317000064809F0BDF8064809F08EFD00223F21FF
:103180000D20BDE80840FFF7C9BF00BF1C7D01004E
:10319000B8F9FF1F70B50F4C82B00E4601462046AD
:1031A000154604F053FF3146204604F05BFC2946E7
:1031B000204604F057FC0023627B216900932046DF
:1031C000012305F0CFF90446052007F03FFE204615
:1031D00002B070BDB824002038B5324C40222078AF
:1031E0002421FFF7D7FF002840D12F4D20782A68EF
:1031F00062F07F02D2B22521FFF7CCFF002838D140
:10320000032226212078FFF7C5FF002834D1D622DB
:1032100027212078FFF7BEFF88BB2A782078282155
:10322000FFF7B8FF70BB0A2229212078FFF7B2FF11
:1032300058BB81222A212078FFF7ACFF40BB112226
:1032400064212078FFF7A6FF28BB0322672120789E
:10325000FFF7A0FF10BB207880220121FFF79AFF23
:10326000002814BF6FF00E00002038BD6FF005007D
:1032700038BD6FF0060038BD6FF0070038BD6FF045
:10328000080038BD6FF0090038BD6FF00A0038BD86
:103290006FF00B0038BD6FF00C0038BD6FF00D0003
:1032A00038BD00BF44F1FF1F00F1FF1F344B1B78F6
:1032B00070B50446002B41D1002C45D0314C324E24
:1032C000207801226B21FFF765FF03221A210546B2
:1032D0002078FFF75FFF10221B212078FFF75AFFAD
:1032E000092219212078FFF755FF207818221C2188
:1032F000FFF750FF3368022B2DD0042B32D0082B60
:1033000037D003221D212078FFF744FF22223721E6
:103310002078FFF73FFF012238212078FFF73AFF9E
:10332000FFF75AFF07226A212078FFF733FF207842
:1033300060226A21FFF72EFF284670BD092113483D
:1033400008F0D6FF002CB9D10E4B402218786B2123
:10335000FFF720FF70BD00221C212078FFF71AFF25
:103360003368CAE708221C212078FFF713FF33686F
:10337000C5E710221C212078FFF70CFFC1E700BF32
:1033800050F1FF1F44F1FF1FF4F0FF1F287D0100E3
:1033900030B5184C83B07621204604F057FE002546
:1033A0000021204604F05EFB627B21690095012329
:1033B000204605F0D7F80123617B00937622032392
:1033C0002069019505F0F6F82369D3F83811D3F890
:1033D000342191420CD0084D184605F005F92369B7
:1033E00005F8010BD3F83811D3F834219142F3D109
:1033F00003B030BDB82400202C0D002030B5184C8F
:1034000083B07621204604F021FE002500212046CD
:1034100004F028FB627B216900950123204605F01A
:10342000A1F80123617B0093762203232069019593
:1034300005F0C0F82369D3F83811D3F8342191424C
:103440000CD0084D184605F0CFF8236905F8010B9C
:10345000D3F83811D3F834219142F3D103B030BD01
:10346000B82400203C0F00202DE9F0411C4D0746F8
:1034700082B00C462846394690461E4604F0E6FDCA
:1034800021462846002404F0EDFA6A7B296900945D
:103490002346284605F066F84FF0010E43463A46AB
:1034A000697B28690194CDF800E005F083F828696C
:1034B000D0F83821D0F834319A420DD005F094F884
:1034C000E3B2C0B2F0542869D0F83821D0F83431D2
:1034D0009A4204F10104F1D102B0BDE8F08100BFCD
:1034E000B82400202DE9F047704C714A2368127807
:1034F000013382B02360002A40F08380DFF8049219
:10350000DFF80482D9F80010D4F800A0694F4FF01A
:103510007E500CF061FE0546D8F800000CF054FD1A
:10352000014628460CF0A4FD064650460CF04CFD22
:103530004FF07C51824630460CF09AFD01465046D1
:103540000CF048FF3D784FF00103EDB200B903469F
:1035500013F0FF0F07D0584B1B78012B14BF002529
:1035600005F001050DBB2068504C0CF02DFD3146D7
:103570000CF030FFB0B1514B1B7800222260002BC1
:1035800066D14D4D2C78012C00F08480022C7CD02B
:103590004B4B1B68002B6AD14A4B1B78002B41D147
:1035A0002B78CBB902B0BDE8F087FFF7F1FEFFF74B
:1035B000B9FB0023D9F800103B704FF07E500CF09F
:1035C0000BFE0546D8F800000CF0FEFC014628462C
:1035D0000CF04EFD0646C6E73B4D3C4A2B783C4C72
:1035E0001268DBB244F82320FDF7B4FC2B78394A8B
:1035F000DBB2126844F8232002B0BDE8F047FDF7C3
:10360000A9BC354D354A2B4610783B211422FFF7D3
:103610002BFFFDF705FD29786B78314A43EA01233A
:1036200013806BE702212F4808F062FE2E4B1868CA
:103630000CF074F8022402460B4600942B4809F063
:1036400083FB2A4809F028FB2B78002BAAD0C3E77C
:10365000FFF72CFD264B1888FDF7A8FC254B188892
:10366000FDF7A4FC244B1888FDF7A0FC89E7234B49
:10367000186805F071FE224A1B4B52F820201A6090
:10368000104B1B78002B8BD0CCE7FDF75BFFFFF7CF
:10369000BDFB7DE7FFF7B2FEFFF72CFBFDF7A2FEB7
:1036A0003C70FDF775FE2C7870E700BF240D0020FC
:1036B00030F1FF1FC01C00206804002014F1FF1F20
:1036C000C021002050F1FF1F580E0020640400208C
:1036D000300D0020CC1C0020C821002044F1FF1F29
:1036E0007C1C0020347D0100C40E0020B8F9FF1FAF
:1036F000BC0F0020D01C00201C0D00206C040020FA
:1037000000F0FF1F4CF1FF1F5CF1FF1F2DE9F04F90
:10371000012183B0042007F071FB0121152007F07F
:103720006DFB0121142007F069FB0121112007F036
:1037300065FB0121102007F061FB0021142007F038
:103740005DFB0121052007F059FB0121022007F054
:1037500055FB0121082007F051FB0021282007F02C
:103760004DFB0021232007F049FB0021032007F037
:1037700045FB002007F0A2F80121042007F02AFBF6
:103780000021152007F026FB0121142007F022FB61
:103790000B21734808F0ACFD724809F07DFA012155
:1037A000112007F017FB0121052007F013FB012171
:1037B000082007F00FFB0121102007F00BFB0B2165
:1037C000694808F095FD674809F066FA40F6B83098
:1037D00007F03CFB0021112007F0FCFA0021052036
:1037E00007F0F8FA0021082007F0F4FA0020FEF7AD
:1037F0003DFC5E4B1B78002B40F0AB805C4B1B7894
:10380000002B40F097825B4DFDF714FF00232B70D7
:10381000FFF7A0FA002840F02B82FFF7EDF8002810
:1038200040F0F681DFF884815348544E544F112103
:1038300008F05EFDD8F800000BF070FF022402468D
:103840000B460094474809F07FFA464809F024FAED
:1038500007214C4808F04CFD30680BF05FFF0094E6
:1038600002460B463F4809F06FFA3E4809F014FA49
:103870000D21454808F03CFD38680BF04FFF0094DF
:1038800002460B46374809F05FFA364809F004FA59
:103890002B784BBB08223D493D4809F0E9F93C48EB
:1038A00009F0FAF90D223B49394809F0E1F93848A5
:1038B00009F0F2F9364806F0B5FC374B1B680BB13E
:1038C000002333600021102007F084FA0C213348D4
:1038D00008F00EFD234809F0DFF940F6B83003B0D8
:1038E000BDE8F04F07F0B2BA06222D49284809F08A
:1038F000BFF9D8F800000BF011FF00940B46024608
:10390000234809F021FA224809F0C6F90622254980
:103910001F4809F0ADF930680BF000FF00940B462A
:1039200002461B4809F010FA194809F0B5F90522BA
:103930001D49174809F09CF938680BF0EFFE009418
:1039400002460B46124809F0FFF9114809F0A4F9A4
:10395000B0E70120FFF7AAFC4FF0000867E000BFC6
:10396000387D0100B8F9FF1F447D010030F1FF1FD1
:1039700014F1FF1F68040020E07D0100C40E002048
:10398000CC1C0020607C0100F47D0100047E01005D
:10399000C40C0020107E0100C0210020387E0100F0
:1039A000207E0100287E0100307E0100640400209A
:1039B0000322C149C14809F05BF9C14B18680BF0FB
:1039C000ADFE00940B460246BC4809F0BDF9BB4869
:1039D00009F062F90322BB49B84809F049F9BA4B2A
:1039E00018680BF09BFE00940B460246B34809F0A2
:1039F000ABF9B24809F050F90322B449AF4809F0D5
:103A000037F9B34B18680BF089FE009402460B4659
:103A1000AA4809F099F9A94806F004FC08F1010840
:103A2000C82007F013FAB8F1320F3FF4E7AEA94A05
:103A3000A94B1078DFF8F0B2DFF8F0A2DFF8F092CF
:103A4000A64FA74EA74D14223B21FFF70DFDFDF712
:103A50009FFBFEF713FA0921A34808F049FCBBF9C4
:103A60000010A24809F068F90121A14808F040FCC3
:103A7000BAF900109D4809F05FF901219C4808F04F
:103A800037FCB9F90010994809F056F90121984816
:103A900008F02EFC974B9548B3F9001009F04CF94B
:103AA0000121934808F024FCB7F900108F4809F071
:103AB00043F901218E4808F01BFCB6F900108B4831
:103AC00009F03AF901218A4808F012FCB5F9001012
:103AD000864809F031F90121854808F009FC864B38
:103AE0008248B3F9001009F027F90121804808F055
:103AF000FFFB824B7D48B3F9001009F01DF901214D
:103B00007B4808F0F5FB7E4B18680BF007FE02249B
:103B10000B4602460094754809F016F9734809F0FF
:103B2000BBF8FDF787FD08227649644809F0A0F844
:103B3000624809F0B1F8B8F10E0F3FF739AF2246ED
:103B400071495E4809F094F8BBF900105B4809F030
:103B5000F3F801226D49594809F08AF8BAF90010C2
:103B6000564809F0E9F801226849544809F080F8FC
:103B7000B9F90010514809F0DFF8504809F08CF805
:103B8000224663494D4809F073F85A4B4B48B3F944
:103B9000001009F0D1F801225C49484809F068F8A2
:103BA000B7F90010454809F0C7F8012257494348C2
:103BB00009F05EF8B6F90010404809F0BDF83F483A
:103BC00009F06AF8224653493C4809F051F8B5F922
:103BD00000103A4809F0B0F801224C49374809F082
:103BE00047F8454B3548B3F9001009F0A5F8012214
:103BF0004649324809F03CF8404B3048B3F90010D0
:103C000009F09AF8012241492C4809F031F802E7FD
:103C10000123142140482B7008F06AFB334809F057
:103C20003BF80B223D49254809F022F8234809F0CA
:103C300033F8FFF75FF8322007F008F9FFF7A8FB29
:103C4000FFF770F8322007F001F9FFF7D7FBFFF715
:103C500051F8322007F0FAF8FFF79AFBFFF762F805
:103C6000322007F0F3F8FFF7C9FBFDF7BBFBD9E5FE
:103C7000022318212A482B7008F03AFB1B4809F050
:103C80000BF8FFF7C3F8142007F0E0F8FDF75AFC33
:103C90000A2007F0DBF8FFF7B9F8142007F0D6F890
:103CA000FDF750FC0A221F49044808F0E1FF0348D1
:103CB00008F0F2FFB1E500BF747D0100C40C0020E4
:103CC000B80C0020787D01007C0400207C7D010080
:103CD000BC0E002044F1FF1FC8210020C421002099
:103CE000C621002070040020507D0100B8F9FF1F9C
:103CF000587D01008004002072040020740400201C
:103D00005C0E00205C7D0100687D0100F07D0100FB
:103D10006C7D0100707D0100BC7D0100D47D01003F
:103D2000947D0100B07D01007C1C00207E1C0020E1
:103D30008C0B0020FFF71AFA314F324E324D1E2401
:103D4000FFF7B4F90221314808F0D2FAB7F90010B0
:103D50002F4808F0F1FF2E4808F09EFF02212D4861
:103D600008F0C6FAB6F90010294808F0E5FF28481F
:103D700008F092FF0221284808F0BAFAB5F90010BD
:103D8000234808F0D9FF224808F086FFFDF752FCCF
:103D90000A222249224808F06BFF214808F07CFFE4
:103DA00002221A491E4808F063FFB7F900101C48A8
:103DB00008F0C2FF1A4808F06FFF022215491848A0
:103DC00008F056FFB6F90010154808F0B5FF144882
:103DD00008F062FF02221049114808F049FFB5F9C6
:103DE00000100F4808F0A8FF0D4808F055FF0C48D8
:103DF00006F018FAC82007F029F8013CA0D102E526
:103E0000BC0F0020D01C00201C0D0020807D010074
:103E1000B8F9FF1F6C7D0100847D0100887D0100E1
:103E2000C40C00202DE9F0479AB00AA802F014F95A
:103E300001238E4A8E4912A802F094FA149A9DF832
:103E400054309DF84C100C928DF834308DF82C10B5
:103E500015AA0DF135030DF1420612F8011F03F802
:103E6000011BB342F9D1199B119312A802F002F978
:103E70000AA802F021F98046002800F0EE80002414
:103E800027468DF808704FF000090AA802F07CF868
:103E90001AABC2B203EB09010D2A09F101031BB2EF
:103EA00012D0542A0AA801F8602C07D1012B05D1A1
:103EB00002F0ECF80124451EA146E6E71D2B07DCC5
:103EC0000A2A05D09946E0E7B9F11D0FDDDD4B4622
:103ED000013B9BB21AAA1A440FFA83F902F8607CDC
:103EE0009DF808202F2A04D0012B02D902A8FDF743
:103EF000CDFC0AA802F02AF882460028C1D10AA8FF
:103F000002F0CCF8002C70D101235A4A584912A86B
:103F100002F028FA9DF84C3014989DF854108DF852
:103F20002C3015AA0DF135030C908DF8341012F8D1
:103F3000011F03F8011BB342F9D1199B119312A879
:103F400002F098F80A214C4808F0D2F94B4808F0E2
:103F5000A3FE0AA802F0B0F8064600283ED0484D5D
:103F6000012406E01E2C03F8010C0CD00A280AD00C
:103F700001340AA802F008F8C0B202AB0D282344AD
:103F8000F0D11E2CF4D108F037FA05EB89023D4937
:103F900002A80DF03DFA4946384808F0CDFE01214F
:103FA000394808F0A5F955F829000BF0B7FB0224B1
:103FB00009F1010902460B46009430480FFA89F9CD
:103FC00008F0C2FEB9F13C0F04D00AA801F0BEFF10
:103FD0000028C5D10AA8B04602F060F80AA802F08D
:103FE00049F840461AB0BDE8F0870B21274808F091
:103FF0007FF953460A222946204808F05DFE1F48F3
:1040000008F04AFE1323194A194912A802F0AAF926
:10401000149A9DF854309DF84C100C928DF8343061
:104020008DF82C1015AA0DF1350312F8011F03F8B5
:10403000011BB342F9D1199B119312A802F01AF88F
:1040400029460AA802F018F8022211490AA801F02C
:1040500089FF0AA802F022F856E714210D4808F05B
:1040600047F9064808F018FEB8E700BF487E01008F
:10407000382200207C7E0100887E0100B8F9FF1FF5
:1040800000F0FF1F947E0100F07D0100547E0100CE
:10409000607E0100647E01002DE9F04FC84AC94BE3
:1040A000C948127841F2B35187B083E80300002A6F
:1040B00040F0EC81C54EC64FC64CFCF7F7FF42F20C
:1040C000107006F0D3FF4FF4FA7006F0BFFEC24B3B
:1040D000797B38690393012500231A4602930093E4
:1040E0000495019503F0CCFE3B6942F21072C3F8CF
:1040F0006822204606F014FA84F82950FDF79AFA4F
:104100000A22B649204608F0B3FD204608F0C4FD57
:10411000204606F087F80721B14801F0A9FE0E21DC
:10412000AF4801F0D5FE0A21AE4802F07DF848BB49
:104130001C21AD4808F0DCF8AC4808F0ADFDFDF7F7
:1041400079FA0822AA49A34808F092FDA14808F08C
:10415000A3FDA04806F066F80324642006F076FE6E
:104160000121112006F036FE642006F06FFE0021CA
:10417000112006F02FFE013CEFD14FF4C87006F07D
:1041800065FEDCE79B4DFFF74DFEFEF711FCFFF7E8
:10419000BDFAFCF765FE2B78002B40F0678101210A
:1041A000062006F02BFE0021062006F013FE00215B
:1041B000062006F023FE4FF4FA7006F047FE0A21AF
:1041C000864808F095F8894808F066FD012111201D
:1041D00006F000FE0121152006F0FCFD2B78002BD7
:1041E00000F0E7808448854F05F0CCF90120FFF707
:1041F0005DF8FCF7ABFC06F0D5FD814A386012682B
:10420000022A034607D17F4A7F491268C2EB021295
:1042100000EB82020A607D49DFF840A27C4C09680D
:10422000DAF8000024687B4DDFF834823C3393FBDE
:10423000F1F301FB03110B18012C2B60C8F80010DF
:1042400003D1FDF785FDDAF80000DFF81892724C13
:10425000DFF814B20BF0B8FE704909680BF008FFE4
:104260004FF06E510BF004FF0CF0C8F86C49206061
:104270000D68D9F800006B496B4C401B20EAE075D3
:1042800081FB05312944E817C0EBE1200BF034FA3B
:1042900009F0C6FE0BF046FD6449CBF8000004FBB4
:1042A000005481FB04312144E017C0EB61100BF096
:1042B00023FA09F0B5FE0BF035FD5D4BA0EB0011C4
:1042C00004EB81041C605B4B054610215A481D60BD
:1042D00008F00EF8DBF80010444808F02DFD554BAF
:1042E0004248196808F028FD514B4048196808F009
:1042F00023FD3E4808F0D0FC0821504807F0F8FFA5
:10430000DAF80010394808F017FD384808F0C4FC06
:1043100008214B4807F0ECFFD9F80010334808F0AB
:104320000BFD324808F0B8FC0E21464807F0E0FFCC
:104330003868FDF7C7FC0C21434807F0D9FFD8F8CF
:104340000000FDF7BFFCD8F800303C683F481C1B5C
:10435000152107F0CDFF2146244808F0EDFC234845
:1043600008F09AFC64213A4808F0C6F8FEF706FE09
:104370000121152006F02EFD33680BB1FCF76AFF12
:104380003449354B00204FF0FF3208601A6007B007
:10439000BDE8F08F062006F031FD0021062006F072
:1043A00019FD0620002106F029FD4FF4FA7006F0F1
:1043B0004DFD062006F014FD01210028EAD111E789
:1043C000E80E0020600E002042AF2000BC0C002050
:1043D000B8240020C40C0020801A0600987E01003A
:1043E00080F1FF1F38220020A47E0100B8F9FF1FD2
:1043F000C47E010050F1FF1F590700006C0400202B
:10440000540E0020780400205C0400203CF1FF1FC3
:10441000880F0020840F0020C81C002064F1FF1FBB
:1044200020F1FF1FC5B3A291F0F1FFFF89888888B2
:10443000B41C0020B00B0020E47E0100F87E0100D7
:10444000047F0100107F0100207F0100307F010008
:104450000082FF1F3C150020D00F002078F1FF1FC5
:10446000B80E0020781C00206004002012210F48A4
:1044700007F03EFF032406F095FCFDF723FC4FF404
:104480007A7006F0E3FC013CF5D188E6084F094D4F
:10449000094C0A480A490B4E002201233A702A703F
:1044A000227003700B70336005E600BFD07E010000
:1044B00030F1FF1F14F1FF1F38F1FF1F28F1FF1F1C
:1044C000F00C0020BC0C00202DE9F04FCDB006F020
:1044D00069FCDFF8DCA29C4CCAF8000004F066FF1F
:1044E0002368DFF8D0B2984200F02B819BF80030AF
:1044F00033B10A21954807F0FBFE954808F0CCFB44
:10450000DAF80000934D944E04F050FF2060DAF882
:10451000000004F059FF91492368024690480CF0CE
:1045200051FF8F498F482E6001F090FFDFF86882BD
:10453000DAF8000098F80030002B40F0E68004F034
:1045400027FF0446DAF8000004F0F8FE8146DAF8A6
:10455000000004F001FF0746DAF8000004F00AFF4B
:10456000CDF800900290019723467D4A7E497F480E
:104570000CF028FF2E60FCF7E3FD162343907C4AE5
:10458000784944A801F0EEFE44A801F095FD00280A
:1045900040F09F819BF80030002B40F0F981754B73
:1045A000754A1A604CAF44A801F064FD32236F4A8B
:1045B0006C49724D44A801F0D5FE17F8141D9DF802
:1045C0001421469B2A71AB6029733A4605F10D030D
:1045D00005F11A0412F8011F03F8011BA3426749F1
:1045E000F8D14B9BCB6144A801F044FD9BF800300F
:1045F0005BB35E480CF0A4FF01465C4807F078FE10
:10460000534808F049FB0A215D4807F071FE5D4BF5
:1046100018680BF083F8022602460B4600964C48B9
:1046200008F092FB4A4808F037FB43980BF076F805
:10463000009602460B46464808F086FB0121524888
:1046400007F056FE424808F027FB4C484F4EDFF873
:104650002C9101F031FD002835D1326898F80030F6
:1046600001323260002B4BD1494940480CF0AAFE80
:1046700032233E4A3B4944A801F074FE9DF81C21B8
:104680009DF814014699434B2A732871A9603A4654
:1046900012F8011F03F8011BA342F9D14B9BC9F883
:1046A0001C3044A801F0E6FC30480CF049FF0146FC
:1046B0002E4807F01DFE264808F0EEFA2F4801F0BC
:1046C000FBFC0028C9D098F80040334D002C73D073
:1046D000324D439B6B61012C00F0A6809BF80030AB
:1046E0005BB109212E4807F003FE2E4B18481968CC
:1046F00008F022FB164808F0CFFA4DB0BDE8F08F65
:1047000029491A480CF05EFEB2E704F041FE044667
:10471000DAF8000004F012FE8146DAF8000004F036
:104720001BFE0746DAF8000004F024FECDF80090E6
:104730000290019723460A4A1C490C480CF042FE9D
:1047400018E7044D044EF1E6D00F0020487F010029
:10475000B8F9FF1F942200205D070000547F01007C
:10476000B81C002038220020607F0100380400209F
:10477000D87C01000CED00E00400FA05941C002038
:10478000EC7F0100C41C0020F87F0100B80F00205E
:10479000FC7F0100A11C002038F1FF1F600E0020EB
:1047A00058800100C81C002008800100787F0100AB
:1047B0006C04002050F1FF1FB249B34CB34AB44B14
:1047C000B44E03C9206092E80300A06093E80300A0
:1047D0003768E06001231026A382E3822661384611
:1047E0000BF032FE3946A06138460BF039FB0BF076
:1047F0002BFEA94AA94BE06192E803001B686062A6
:104800005B0202206684208403F1240621462C22C8
:10481000A348A362666001F0A5FB2C78A14D439BE1
:104820006B61012C7FF45AAFDAF8000004F0A2FDAE
:104830002872DAF8000004F08FFD6872DAF80000E0
:1048400004F07CFDA872DAF8000004F0A1FDE87223
:10485000DAF8000004F0AAFD2873DAF8000004F08A
:10486000B3FD00262882294618228D486E8201F069
:1048700079FB884B8C491B684093FC2202256846D3
:104880003F9505F06FFE4FF48073324630468749FE
:10489000FEF74EF8864B1B78002B40F0DF80854BEF
:1048A0001B78002B40F0C580834B1B78002B40F019
:1048B000A9800025002381494093FC2268463F954A
:1048C00005F050FE2B462A4620467D49FEF730F87B
:1048D00004E77C487C4C0CF033FE7A49024644A83D
:1048E00001F040FB2C2144A801F024FB04F1080551
:1048F00014F8011F00230A2244A808F0DDF9A5429C
:10490000F6D12C2144A801F015FB704B18680AF071
:1049100005FF022402460B46009444A808F014FA4E
:104920002C2144A801F006FB43980AF0F7FE0094FE
:1049300002460B4644A808F007FA2C2144A801F0CF
:10494000F9FA634B44A8196808F0F6F944A808F08E
:10495000A3F9604A604B106819680BF045FD4FF0F1
:104960000105E0B15D4943980BF020FD4FF00103D4
:1049700098B15B4C2B432268DBB2134229D15949D1
:1049800043980BF013FD60B944A801F087FB09E6DA
:104990000E21554807F0ACFC01E60346E9E7054661
:1049A000E0E72822514944A801F0DCFA44A808F0C5
:1049B00073F944A801F072FB03E047F2305006F0AF
:1049C00045FAFCF7BDFB47490BF0F0FC0028F4D199
:1049D000DAE7FCF791FCFCF7B5FC9BF8003000220D
:1049E000226033B10F21424807F082FC414808F0B1
:1049F00053F90E22404944A801F0B4FA44A808F043
:104A00004BF9BCE73D4B3E4A1B6812683D4940925A
:104A100003EBD3735D10FC22022368463F9305F03D
:104A2000A1FD20462B4600223749FDF781FF0134C6
:104A30003FE7364A364B15781B6836494093FC22CF
:104A400002236D0868463F9305F08CFD20462B46F7
:104A500000223149FDF76CFF013425E72F4A2C4B2A
:104A600017781B6840932E490523FC2268463F9324
:104A700005F078FD3B46324620462A492C46FDF794
:104A800057FF0CE7148001004C0F00201C80010030
:104A90002480010064F1FF1F2C800100C81C00204D
:104AA000941C0020600E0020D41C002034800100E3
:104AB0006804002014F1FF1F30F1FF1FC420002004
:104AC00054800100380400207F1C00205404002082
:104AD0008C0F0020C41C002024F1FF1FD7A37040BE
:104AE000BC0C002000004040DC7F0100B07F0100D2
:104AF000907F0100B8F9FF1FA07F010068F1FF1F40
:104B000054F1FF1FC81F00204C80010048F1FF1F17
:104B10004CF1FF1FCC1E00204480010070F1FF1FEC
:104B2000D01D00203C80010010B50E211D4807F06B
:104B3000DFFB1D4808F0B0F8FFF7C6FC1B4B1B78E5
:104B4000A3B11B4A1B4B126893FBF2F2002A03DB52
:104B5000194B511E99421CD9184B1968FF221A7122
:104B600021B1174B17480B441B111A54164C174B05
:104B7000204600221A6001F045F801230B21144859
:104B800084F8F63007F0B4FB0748BDE8104008F0A1
:104B900083B802EB42021201013A0E49074807F0BE
:104BA000D3FFD9E764800100B8F9FF1F38F1FF1F78
:104BB0005CF1FF1F40420F0057555505780F00204C
:104BC000008FFCBF44E400E0B80B00205804002034
:104BD00074800100E53400002DE9F84FA54E3378CC
:104BE000002B00F0CC80A44DDFF8A48206F0DAF8A8
:104BF000A24BC8F800001B68834203DCA04B1B6873
:104C0000002B27DC2F6807BB9E4B1B68002B68D14D
:104C10009D4C9E4A23681178D8F800209C4F181F9D
:104C20009042CCBF002101F0010141B199490968CE
:104C3000012904D198490968002940F013819A425A
:104C40005CDA642006F002F92F68012F00F0A680DC
:104C5000BDE8F88F0121052006F0BCF801210820ED
:104C600006F0B8F80021112006F0B4F88B4B0122B1
:104C70001A60FCF765FA8A490BF098FB0028C1D04E
:104C80002B68012B00F04A83834B1B68002B40F0FC
:104C90003F83844801F002FAFEF7FCF8002115205A
:104CA00006F098F80021102006F094F80023194629
:104CB00002227D4804F038FA7C4804F01BF80A24EC
:104CC0000121112006F086F8C82006F0BFF8002167
:104CD000112006F07FF8642006F0B8F8013CE5D01A
:104CE000EEE7FCF7A7FCFCF72FFDD8F80010192021
:104CF000FCF7D8FC6E4805F095FA89E70D216D4860
:104D00006D4F07F0F5FA6D4807F0C6FFFCF792FC0F
:104D1000674805F087FA3B68002B00F0F182684B8A
:104D2000684A694920681B6812680968674F03442C
:104D30001A44012922603B6000F0DF820E216448A2
:104D400007F0D6FA06F02EF8FCF7BCFF0B216148FD
:104D500007F0CEFA3868FCF7B5FF0B215E4807F084
:104D6000C7FA2068FCF7AEFFFDF7DCFFAE21504824
:104D700005F0BEF801232B60FFF7D6FE61E70620A1
:104D800006F02EF83C4D00283FF42EAF2B68012B87
:104D900000F0B082514B524A1A6025E7FDF780FDC2
:104DA000142006F01DF8002800F053824D4C2378A3
:104DB000012B00F027822378022B00F0C5814A4C9A
:104DC0002378012B00F0A7812378022B00F0888143
:104DD000464C2378012B00F06B812378022B00F0E6
:104DE0004E81434B1B68002B01DDFDF765F9414CFB
:104DF000414B22681B689A42FFF62AAF304B3F4F67
:104E000018680BF0E1F83E490BF0E6F939680BF051
:104E100027F84FF07E5138600BF0E6FA10B1394BAD
:104E200000221A70274B1B68002B71D1337883B195
:104E300035492248FBF7CAFC344B20481988FBF758
:104E4000D3FC23491D48FBF7C1FCD8F80000FCF750
:104E500039FF144801F022F9FFF736FB00232360E5
:104E6000BDE8F88FFCF71EFA3A6823689A42FFF60D
:104E7000E8AE43E750F1FF1F3C1500205C04002022
:104E8000540E002034F1FF1FB80E0020D40F002074
:104E90006C0400206CF1FF1FBC0C00208C0F002064
:104EA00066666640941C0020780E0020F40C0020FA
:104EB000C40C002080800100C00C0020B8F9FF1F46
:104EC00078F1FF1F781C0020880F0020840F00203D
:104ED000107F0100908001009C8001000CED00E03B
:104EE0000400FA05C80E00204C0E00208E1C002085
:104EF0000CF1FF1F58040020C81C0020C41C002017
:104F000000006145FCF0FF1FA07A0100D8260020B8
:104F10009E4FFBF7DBFD3B6823B1FCF7EDF9642006
:104F200005F094FF9A4BDFF8CC821C68DFF8C8923A
:104F3000DFF8C8B205F036FF964A974B1268201A80
:104F4000841A24EAE47483FB04232344E017C0EBAF
:104F5000E3200AF0D1FB09F063F80AF0E3FE8F4A80
:104F60008F4BC8F8000002FB004483FB042323445A
:104F70008246E017C0EB63100AF0BEFB09F050F860
:104F80000AF0D0FE03011A1AC31A04EB830492003C
:104F90004FF4616303FB0A2AC9F800405444092C0A
:104FA000CBF800000DDC7F4B1B6833B17E4C2046F4
:104FB00005F0B6FA012384F8293000232B60BDE800
:104FC000F88F7A4C0021152005F004FF237813B1E7
:104FD0000020FEF76BF9DFF828A29AF8003023B121
:104FE000002210463F21FEF799F8FDF753FF3B687A
:104FF0000BB1FCF7A7F93378B3B105F0D3FEFCF79A
:1050000061FE6B496B48FBF7E1FBD8F8001069487B
:1050100007F092FEDBF80010664807F08DFED9F825
:1050200000106448FBF7E0FB642005F00FFF99F8DF
:1050300000309BF8002098F800105F4804F074F8E6
:105040005E4803F057FE33781BB105F0ABFEFCF76A
:1050500039FE0121152005F0BDFEFDF727FF3B6855
:105060000BB1FCF7F7F89AF800300BB1FEF77EF8B9
:105070002378002B97D00120FEF718F993E7102230
:105080004F49504800F06EFF013002D14E4B4F4A5D
:105090001A604F4B4F491A784A48114400F062FF9A
:1050A000013002D1484B494A1A600023237098E628
:1050B00010224349434800F055FF013002D1424BD2
:1050C000424A1A60424B43491A783E4800F04AFF70
:1050D000013002D13C4B3D4A1A60002323707CE62C
:1050E00010223D49374800F03DFF013002D1364BD8
:1050F000364A1A60394B3A491B7832489A0001EB1C
:10510000830100F02FFF013002D12F4B2F4A1A608C
:10511000002323705CE610222F492A4800F022FF6A
:10512000013002D1284B294A1A602C4B2C491A789D
:105130002448920000F016FF013002D1224B234A8E
:105140001A60002323703FE6102226491D4800F014
:1051500009FF013002D11C4B1C4A1A60224B234923
:105160001A681848114400F0FDFE013002D1164BB8
:10517000164A1A6000211E4B21701B78002B3FF449
:105180001EAE112005F026FE19E600BFBC0C002063
:10519000B80E002020F1FF1FC5B3A291F0F1FFFF70
:1051A0008988888834F1FF1FC40C002030F1FF1F6C
:1051B000E47E0100B8F9FF1F780E0020F40C0020F7
:1051C0000C0F0020941C00200CED00E00400FA05F8
:1051D00048F1FF1FD00D0020FC0E002070F1FF1FD2
:1051E000300D00201C0F002068F1FF1F84040020F8
:1051F000F0F0FF1F60040020B41C0020B00B002062
:1052000014F1FF1F10224749474800F0ABFE013060
:1052100002D1464B464A1A60464B47491A684248F3
:1052200000F0A0FE013002D1404B414A1A6000213B
:10523000424B434A21701B781278DBB2002A3FF4BC
:10524000BAAD002B3FF4B7AD0121112005F0C2FD2E
:10525000B1E50A2005F0FAFD142005F0C1FD002893
:105260007FF4A4ADDFF8EC90FBF730FC3946112059
:1052700005F0B0FDD9F80030EBB1324C204605F016
:105280004FF94FF47A7084F8297005F0DFFDFCF7D0
:10529000D1F907222C49204607F0EAFC204607F006
:1052A000FBFC204607F0F8FC20462849FBF78EFA65
:1052B000204604F0B7FF4EF2902005F0C7FDD9F864
:1052C000003083B1FCF7B6F921491E48FBF77EFA9E
:1052D0001C4804F0A7FF4FF4FA6005F0B7FDAE21BB
:1052E000184804F005FEFFF7EFF80021112005F043
:1052F00071FD5BE5FBF7EAFB4CE5FCF729FD1DE5DD
:105300000A210E20FDF79CFD4FF0FF333B6006E5C0
:10531000FBF7F2FF642005F099FDBAE4FBF7D6FB3A
:10532000B2E400BF1C0F0020941C00200CED00E034
:105330000400FA0568F1FF1F84040020F0F0FF1F4D
:10534000FCF0FF1FC40C0020A8800100B080010009
:10535000C480010034F1FF1FF8B50021054607F0B5
:1053600093F9002855D0D5F81C710646002F4ED071
:1053700005F58E743B1D224605F5907107F5827781
:1053800033F8020B42F8040F9F42F9D1331D05F5A3
:10539000477206F5827733F8020B42F8040FBB42DE
:1053A000F9D1D5F8180180B105F5927200F5007EAB
:1053B00032F9043C30F9027B03FB07F3DB1386452B
:1053C00022F8043C02F10402F2D105F5E56008F090
:1053D00041FB95F82177EFB905F21C5C95F8202781
:1053E000E64605F21C7154F8043F23FB03F3B3FBBC
:1053F000F2F34EF8043F7145F5D17B1CDBB29342CA
:1054000020D085F82137D5F81C0107F0F9F8C5F848
:105410001C61F8BD05F21C5C95F82027E64605F2F4
:105420001C7154F8043F23FB03F35EF8040FB3FB35
:10543000F2F371450344CEF80030F2D17B1CDBB2AD
:105440009342DED10023DFF83CE085F82137604647
:1054500005F1160750F8044FB4FA84F381423EF880
:105460001320B4FBF2F31A444FEA5203B4FBF3F4F3
:1054700023444FEA530327F8023FEBD1012385F879
:105480002237C0E7108301000020704700207047DA
:1054900070B5194C064682B00D462046317A02F0AE
:1054A000D5FDC5F30721204602F0DCFAE9B220461B
:1054B00002F0D8FA0023627B21690093204603F0B2
:1054C00051F810B1002002B070BD2569327A617BBD
:1054D0000190012300932846022303F06BF8012872
:1054E000F0D9206903F080F80502206903F07CF808
:1054F000284302B070BD00BFB824002070B5154C21
:10550000242908BFC28082B00D46017A2046164683
:1055100002F09CFDC5F30721204602F0A3FAE9B290
:10552000204602F09FFAC6F30721204602F09AFABD
:10553000F1B2204602F096FA00230093627B2169C3
:105540002046012303F00EF8B0FA80F0400902B0C3
:1055500070BD00BFB82400202DE9F0413E4B01266C
:1055600006715F7BD3F8108086B00446384602F09F
:1055700073FB0025394B019039462A464046039378
:1055800004962B460295009502F07AFC052005F062
:105590005DFC204644F260023021FFF7AFFF204659
:1055A0006C222621FFF7AAFF20464FF4F97228212A
:1055B000FFF7A4FF204640F622722C21FFF79EFF42
:1055C000204644F246423C21FFF798FF204640F235
:1055D00037122421FFF792FF204644F2FF023021C8
:1055E000FFF78CFF732202212046FFF787FF4FF45D
:1055F000C87005F02BFC204641F61D522E21FFF706
:105600007DFF042211462046FFF778FF20464FF425
:1056100098720621FFF772FF204610220A21FFF739
:105620006DFF2A4620460E21FFF768FF204643F60D
:105630003C421021FFF762FF204647F67F7222218D
:10564000FFF75CFF204636222421FFF757FF304644
:10565000667206B0BDE8F081B8240020A086010083
:10566000F8B51C46154606460F46FFF711FF20EA1F
:10567000040040EA0504394630462246FFF73EFF63
:10568000002814BF20460020F8BD00BF08B5002246
:1056900001234FF49271FFF7E3FF80B208BD00BF12
:1056A0000F2928BF0F210F2A28BF0F2242EA01121B
:1056B0002021FFF723BF00BF10B510220A210446A6
:1056C000FFF71CFF30B1204600224FF48071FFF736
:1056D00015FF80B210BD00BF10B5044619B10129F5
:1056E00011D0002010BD55222021FFF707FF002810
:1056F000F7D0E28842F00402204692B22421BDE8AD
:105700001040FFF7FBBE40F273122A21FFF7F6FEAE
:105710000028E6D0882220212046FFF7EFFE00284F
:10572000DFD0E288204622F004022421BDE81040A8
:10573000FFF7E4BE38B50546F1B1802903799ABF79
:10574000C1F1800444EA0424002433B922462846E7
:105750002221BDE83840FFF7D1BEC288002322F0E5
:10576000100203712421FFF7C9FE22462846222198
:10577000BDE83840FFF7C2BE0123037147F67F72D0
:105780002221FFF7BBFEEA8842F01002284692B2BF
:105790002421BDE83840FFF7B1BE00BF0B4610B56D
:1057A0000749044618460AF063FC06490AF058FB0C
:1057B0000AF04AFE01462046BDE81040FFF7BABF96
:1057C00000000143EE7CFF3E10B5044607F03EF8B2
:1057D000204610BD024A034903480AF0C9BF00BF72
:1057E000FCEFFF1FC9570000E42100201B4A1C4B9F
:1057F00011681C48096970B499421279027009D283
:10580000194A127832B3194A4FF08041116003F5FA
:10581000807402E01C46A3F58073154A154912688E
:105820000D68AAB1A5B1144E3088402810D84100A7
:105830000A444030294402320231308033F9040BEB
:1058400022F8020F9C4233F9020C21F8020FF5D81E
:1058500070BC704703F58074DFE700BFF4210020BF
:1058600090E8FF1F1F800040EE21002008E200E0CA
:10587000FC210020F0210020EC210020F8B5064694
:1058800006F06AFE0446E8B106F066FE054600280A
:105890003AD072B61F4B1A887F2A19D8002C31D003
:1058A0001D490A6842B162B6204606F0A9FE2846A4
:1058B000BDE8F84006F0A4BE18480C601A800560E8
:1058C00062B6F8BD054672B6124B1A887F2AE5D932
:1058D000114A12491768146000220C681A800D6082
:1058E00062B63946304606F0B5FE384606F088FE08
:1058F00030462146012206F0ADFE2046BDE8F840C4
:1059000006F07EBE62B6F8BD204606F079FE2C4653
:10591000BFE700BFEC210020FC210020F021002087
:10592000F8B5284C284E2046012106F02BFF00F048
:1059300083F8264B264A27484FF480611960236874
:1059400000211A6099802279186102F1804202F5E3
:10595000043240F20110D8809E614FF4807502201D
:1059600006278E26DD82D960DD8398609F8398822A
:105970001170167006F0ACFE1749184B2279184FBB
:1059800008701A7039682279164C174D174E41F07D
:10599000124141F00101531139609B00206803F16D
:1059A000604302F1100703F5614302F01F02012179
:1059B00040F0104001FA02F2206045F827601A60BA
:1059C000F8BD00BFF421002000FEFFFF14B004402A
:1059D000A0F0024090E7FF1FEE2100201B80004056
:1059E00080F0024000F0024000EAFF1FED57000087
:1059F000024A034903480AF0BBBE00BFFCEFFF1F89
:105A0000C9570000F4210020024A034903480AF064
:105A1000AFBE00BFFCEFFF1FC957000000220020EF
:105A2000024A034903480AF0A3BE00BFFCEFFF1F70
:105A3000C957000008220020284B29491A68294824
:105A400042F400421A600A6842F002020A601A68D0
:105A500042F002021A600368002B3DDB224B1B68F8
:105A6000002B39DB214A4FF0864313601368002B6B
:105A7000FCDBF0B51E4C1F48DFF8ACE01E491F4BA5
:105A80001F4A204F204E214D41F2100CC4F800C097
:105A9000002404600120CEF80000DFF890E0C1F897
:105AA00000E04FF480311960194B1360DFF880E09B
:105AB000184A3A60346028601748CEF80000174C46
:105AC000B9671748174946F8503C4FF4C0632A613C
:105AD000236003600B60F0BD704700BF3C80044052
