:1000000000800020BD0100008DAB000045AB00006A
:1000100045AB000045AB000045AB000045AB000020
:1000200045AB000045AB000045AB00008DAB0000C8
:100030008DAB000045AB0000F5C90000F9CA000017
:100040008DAB00008DAB00008DAB00008DAB0000D0
:100050008DAB00008DAB00008DAB00008DAB0000C0
:100060008DAB00008DAB00008DAB00008DAB0000B0
:100070008DAB00008DAB00008DAB00008DAB0000A0
:100080008DAB00008DAB00008DAB00008DAB000090
:100090008DAB00008DAB00008DAB00008DAB000080
:1000A000618C00006D8C00008DAB00008DAB0000FA
:1000B0008DAB00008DAB00008DAB00008DAB000060
:1000C0008DAB00008DAB00008DAB00008DAB000050
:1000D0008DAB00008DAB00008DAB00008DAB000040
:1000E0008DAB00008DAB00008DAB00008DAB000030
:1000F0008DAB0000BDB600008DAB0000F5D0000058
:100100008DAB000021D200008DAB00008DAB000054
:100110008DAB00008DAB00008DAB00008DAB0000FF
:100120008DAB00008DAB00008DAB00008DAB0000EF
:100130008DAB00008DAB00008DAB0000F9A5000079
:100140008DAB00008DAB00008DAB00008DAB0000CF
:10015000D1CC0000E5CC0000F9CC00000DCD0000B2
:100160008DAB000039B900008DAB00008DAB0000F5
:100170008DAB00008DAB00008DAB00008DAB00009F
:100180008DAB00008DAB00008DAB00008DAB00008F
:100190008DAB00008DAB00008DAB00008DAB00007F
:1001A0008DAB00008DAB00008DAB00008DAB00006F
:1001B0008DAB00008DAB0000B1C70000564B4CF278
:1001C000205210B51A804DF628121A8000BF00BFC9
:1001D00000F014FB514B4FF010621A60504A9A60C5
:1001E000504ADA60504A136813F4807304D14F49BF
:1001F0000B604FF4A85313604D4B1A78110703D5C9
:100200001A7842F008021A704A4B4B492A221A7097
:100210004A4A4B4B8B4204D252F8040F43F8040B6A
:10022000F8E7484B484900228B4202D243F8042B9E
:10023000FAE74649464A002352F8230041F82300D2
:1002400001336F2BF8D1434B434A802103F8011B44
:100250009342FBD1414B3D4A1A60414B8A221A70AE
:10026000A3F5805324225A70A0221A709A7992071B
:10027000FCD59A79D406FCD43A4A937903F00C035E
:10028000082B384BF9D103221A7140225A719A79FE
:100290009006FCD5334A9179324B4906FBD5324A58
:1002A000324911600221516020221A709A7902F0BD
:1002B0000C020C2AFAD12E4B2E4A1A602E4B4BF60A
:1002C0007F321A6000225A60072243F8042C2B4A1E
:1002D000C3F80C2D62B60AF05FFE144B1B68DA07F8
:1002E00005D527480AF0BCFD264B274A1A60274B44
:1002F0001B785B0609D5234C234B22689A4204D114
:100300001F480AF0ADFD0023236010F09BFA0AF0AD
:1003100041FC0CF049FEFEE70E2005403080044011
:10032000823F04000100002B10D0034014D0034092
:1003300002D0074000E0074010040020088E0200B1
:1003400020EFFF1F100400207C28002000EAFF1F80
:100350000000000000E400E05FE400E008ED00E0E1
:100360000050064000400640448004400000131145
:1003700004800440C010050014E000E000002020CC
:100380009912A95A1CE00340A5C3945A00F00740F3
:10039000FFFFFFFFFFFFFFFFFFFFFFFFFFFFFFFF6D
:1003A000FFFFFFFFFFFFFFFFFFFFFFFFFFFFFFFF5D
:1003B000FFFFFFFFFFFFFFFFFFFFFFFFFFFFFFFF4D
:1003C000FFFFFFFFFFFFFFFFFFFFFFFFFFFFFFFF3D
:1003D000FFFFFFFFFFFFFFFFFFFFFFFFFFFFFFFF2D
:1003E000FFFFFFFFFFFFFFFFFFFFFFFFFFFFFFFF1D
:1003F000FFFFFFFFFFFFFFFFFFFFFFFFFFFFFFFF0D
:10040000FFFFFFFFFFFFFFFFFFFFFFFFDEF9FFFF23
:1004100010B5054C237833B9044B13B10448AFF33E
:1004200000800123237010BD100400200000000094
:10043000048E0200084B10B51BB108490848AFF301
:1004400000800848036803B910BD074B002BFBD0A0
:10045000BDE81040184700BF000000001404002051
:10046000048E0200100400200000000000207047ED
:10047000704700BFF8B55548554D564C297803785C
:100480002278DFF868E1544F544E120442EA032305
:10049000FF222A700270802022708EF800003870CF
:1004A000B2794F480B4312F00C0FC36002D1B379FD
:1004B000DC063DD4494A9379C3F38103032B40D032
:1004C000464B9A79C2F38102022A42D0434A937979
:1004D000C3F38103022B53D0404A9379C3F38103C2
:1004E000022B61D03D4A9379C3F38103012B51D094
:1004F0003A4A9379C3F38103012B5CD0374B9A7945
:1005000012F00C0F03D19A79D20600D49B79354DA5
:10051000354B2A7853F82240D4B1236820469B6893
:1005200098472B7804EB83046468002CF5D1F8BD60
:10053000B3799806EBD5294A9379C3F38103032B4A
:10054000BED19379D906BBD493799B06DFD4B7E7A4
:10055000F8BD9A79D706B9D49A799606B6D559785E
:1005600001F0020101F0FF020029AFD120211A7031
:100570001A461970937903F00C030C2BFAD1C6E7D5
:100580009379DD06A8D493799C06A5D4537898076F
:10059000BDD5A1E79379DF06AAD593799E06A7D4A6
:1005A00053789D07B3D4A3E79379D9069AD45378A7
:1005B0009B07ACD496E79379DC069FD59379980690
:1005C0009CD453789907A2D598E700BF06C007408E
:1005D00005C0074007C0074009C00740004006406B
:1005E000542800200C250020CC24002008C00740FF
:1005F00090F92410104B03604B1C06D0F0B40F4E42
:1006000056F82130984201D0F0BC70470C4F57F893
:10061000213033B18D0000245A1953685460002BE7
:10062000FAD1084C23780022013B237047F821209F
:1006300046F82120E8E700BF0C7B0100EC240020F5
:10064000CC2400200D25002038B590F924506B1CD7
:100650001BD00E4B0E4953F825400E4BEDB24FF018
:10066000FF320D701A6084B1AD0002E02C44646862
:100670005CB194F82530002BF8D0236820462C4438
:100680001B6898476468002CF3D138BDCC24002047
:100690000C25002090E9FF1F704700BF90F924103F
:1006A000104B03604B1C06D0F0B40F4E56F82130AF
:1006B000984201D0F0BC70470C4F57F8213033B14D
:1006C0008D0000245A1953685460002BFAD1084C4D
:1006D00023780022013B237047F8212046F821208F
:1006E000E8E700BF0C7B0100EC240020CC240020B4
:1006F0000D25002090F92410104B03604B1C06D0F0
:10070000F0B40F4E56F82130984201D0F0BC70473B
:100710000C4F57F8213033B18D0000245A1953681B
:100720005460002BFAD1084C23780022013B23703F
:1007300047F8212046F82120E8E700BF0C7B0100A4
:10074000EC240020CC2400200D25002010B5044608
:100750000CF09CFA204610BD0AF07CBB2DE9F0415C
:100760000E4680460AF076FB174D286008F084FE9E
:100770000746286808F072FE0446286808F060FE04
:100780006401C0B204F4FF54BFB20443A7F2BC77C3
:1007900044EA4724A8F80040286808F027FE0746E6
:1007A000286808F031FE0446286808F03BFEFF0286
:1007B000640107F4FF2704F4FF54C0F346003C43F0
:1007C00004433480BDE8F0816C04002070B5044619
:1007D00008460D4610F014FF2368024629462046BD
:1007E0005B68BDE87040184738B505460CF0FCFA68
:1007F000044628460CF0A8FA204438BD404A414B34
:10080000102010801B781B072CD5F0B53E4E3F4DB5
:100810003F4C31782B7822783E4FDFF810E1824050
:1008200042EA03230B43FF22802132702A70227098
:100830008EF800103970DF07374A0CD51A23936001
:10084000364D374C3748384900232B70D36023701E
:1008500003700B70F0BD1E0705D4DD0606D504231A
:100860009360EDE7704721239360E9E79C0604D489
:10087000590604D516239360E2E79060E0E71F066F
:1008800002D509239360DBE7DE0502D50A239360D6
:10089000D6E79D0502D50D239360D1E75C0502D50F
:1008A0000B239360CCE7180502D51E239360C7E79E
:1008B000D90402D502239360C2E79F0402D507231F
:1008C0009360BDE75E0402D506239360B8E71D047C
:1008D00002D515239360B3E7DC0302D5242393608C
:1008E000AEE7980302D522239360A9E7D90202D587
:1008F00025239360A4E79B0244BF232393609FE7D3
:100900000020054002D0074005C0074006C0074050
:1009100007C0074009C007405428002000C0074016
:1009200001C0074002C0074003C0074008C007409D
:10093000002976D02DE9F04F0C469100631883B062
:100940005D68002D57D06B185E68002E50D073186C
:100950005F68002F49D07B18D3F80480B8F1000FEE
:100960003CD008EB0103D3F80490B9F1000F32D06A
:1009700009EB0103D3F804A0BAF1000F27D00AEB6A
:100980000103D3F804B0BBF1000F18D00BEB010347
:100990005B6863B1194401934968FFF7C9FF019B84
:1009A00093F825201AB11A681846536898479BF89F
:1009B000253023B1DBF8003058465B6898479AF839
:1009C000253023B1DAF8003050465B68984799F833
:1009D0002530002B35D198F8253063BB97F82530AA
:1009E0001BB13B6838465B68984796F82530CBB911
:1009F00095F8253063B994F8253013B903B0BDE8F4
:100A0000F08F23685B68204603B0BDE8F04F1847BD
:100A10002B6828465B68984794F82530002BEDD06A
:100A2000EFE77047336830465B68984795F82530A4
:100A3000002BE0D0ECE7D8F8003040465B689847E0
:100A4000CCE7D9F8003048465B689847C3E700BF59
:100A500090F92420531C26D01B4B2DE9F04153F86C
:100A60002240D2B2ECB19300E1184D68B5B1E9185B
:100A70004E6866B1F1184F6837B13B445968FFF7CB
:100A800057FF97F82530A3B996F8253063B995F844
:100A900025301BB12B6828465B68984794F82530B1
:100AA00063B9BDE8F0817047336830465B689847AA
:100AB000EDE73B6838465B689847E5E723682046E2
:100AC0005B68BDE8F0411847CC24002038B50D2103
:100AD000154C16480BF064FC15480CF035F92588C8
:100AE000144810210BF05CFC294611480CF07CF9ED
:100AF0000F480CF029F900230F4A1946112082F8FB
:100B0000F6300AF0BFF90D4B0D4A1B78128822808F
:100B100013B10C480CF0BAF80B4805F017FB642031
:100B2000BDE838400AF0EAB9D8260020507B010021
:100B3000B4F9FF1F607B0100BC0B002030F1FF1FE8
:100B4000002700207C0F0020981C00209B4B93E87E
:100B5000030070B59A4C9B4D0123238184E8030068
:100B60000822994904F10C0010F008FE0822974968
:100B700004F1140010F002FE0822954904F11C0053
:100B800010F0FCFD0822934904F1240010F0F6FD5A
:100B90000822914904F16C0010F0F0FD08228E4902
:100BA00004F1740010F0EAFD08228B4904F17C0086
:100BB00010F0E4FD0822884904F1840010F0DEFD05
:100BC000864A874B106819680FF0A2F9854BC4F864
:100BD000CC001B78C4F8D000012B0CBF824983499C
:100BE000C4F8D400C4F8D800082204F1FC0010F0C6
:100BF000C5FD7F4B93E8030004F5847383E803008D
:100C00000223A4F8043108227A4904F5887010F010
:100C1000B5FD0822784904F5B47010F0AFFD774AAD
:100C20004FF07E5392E80300C4F8CC31C4F8C831C9
:100C3000734B04F5B87282E8030093E803000323C2
:100C400085E803000822A4F800326E4905F10C0083
:100C500010F094FD08226C4905F1140010F08EFD8F
:100C600008226A4905F11C0010F088FD684B6949AB
:100C7000C4F8C41293E80300674A05F16C0686E8DD
:100C8000030005F17C0305F1740686E8030083E8A0
:100C9000030092E8030005F1FC0383E803005F4BC7
:100CA000C4F8C8325E4E5F49C4F8CC620923A4F888
:100CB000FC32082205F5847010F060FD08225A49C4
:100CC00005F5887010F05AFD0822584905F58C701A
:100CD00010F054FD0822564905F5907010F04EFDB5
:100CE0000822544905F5947010F048FD0822524935
:100CF00005F5987010F042FD0822504905F59C70EA
:100D000010F03CFD08224E4905F5A07010F036FDAC
:100D100008224C4905F5A47010F030FD08224A491C
:100D200005F5B47010F02AFD0822474905F5B870A2
:100D300010F024FD0822444905F5BC7010F01EFD9A
:100D4000424B93E8030005F5C07282E8030005F505
:100D5000C87305F5C47282E8030083E80300082223
:100D60003B4905F5CC7010F009FD0822384905F51E
:100D7000D07010F003FD0822354905F5D47010F04D
:100D8000FDFC344B18680FF077F94FF060510FF00D
:100D9000C7F9314A314BC4F8C003C4F8C403C4F8DE
:100DA000C803C4F8CC23C4F8D023C4F8D423C4F8AF
:100DB000D833C4F8DC33C4F8E03370BD747B010071
:100DC000D41C0020CC1E0020807B0100887B010009
:100DD000907B0100987B0100A07B01004C04002067
:100DE00054F1FF1F68040020A47B0100D47B0100A4
:100DF000AC7B0100B87B0100C07B0100C87B010017
:100E0000DC7B0100E87B0100EC7B0100F47B01004E
:100E1000FC7B01000000A039547C010000009039E7
:100E20000000F039087C0100107C0100187C0100F2
:100E3000207C0100287C0100307C0100387C01000E
:100E4000407C0100487C01005C7B01005C7C01006F
:100E5000507C0100F0F0FF1F0000FA3C0000163E3D
:100E600010B5294C29482278114604F071FC2368FA
:100E70000F2B0CD8DFE803F00C1014181C202428CA
:100E80002C3034383C404408214B224A1A6010BDB3
:100E90001F4B214A1A6010BD1D4B204A1A6010BD1D
:100EA0001B4B1F4A1A6010BD194B1E4A1A6010BD19
:100EB000174B1D4A1A6010BD154B1C4A1A6010BD15
:100EC000134B1B4A1A6010BD114B1A4A1A6010BD11
:100ED0000F4B194A1A6010BD0D4B184A1A6010BD0D
:100EE0000B4B174A1A6010BD094B164A1A6010BD09
:100EF000074B154A1A6010BD054B144A1A6010BD05
:100F0000034B134A1A6010BD38F1FF1FC40F0020B5
:100F10004C040020BD549341103377C0993918C058
:100F2000BE0D68BFCE71153F8D090340CCC962402C
:100F300009A7A3407DDBD140C416014154FC1741F1
:100F4000D0E83041195546419FAB5F41A041764101
:100F50005E2E864110B4114A13780133DBB2137050
:100F60001378282B11D00E490E4B10781B780A7875
:100F70000B4983428CBF00230123934203D90A4AC1
:100F8000012313700B7010BC7047074804490023FD
:100F90000224137004700B70E6E700BF640E00209B
:100FA0004E0F00206CF1FF1F580E002010B4174B9D
:100FB00017491A78D2B2C0B288541A780132D2B224
:100FC0001A701A78D2B2002088541A780132D2B23C
:100FD0001A701A78782A11D00E4A0F4819780378B7
:100FE00012780C488B428CBF00230123934203D913
:100FF0000A4A01231370037010BC70470749054A61
:10100000187002240C701070E7E700BF8E0B0020F0
:10101000DC0D0020840F002040F1FF1F961C0020F3
:1010200070B41C4B1C4C1D4D00221868A15CC9B249
:101030002954196801320131062A1960F5D10822B4
:101040001868A15C134EC9B22954196801320131E4
:10105000142A1960F4D13268B2F5E16F11D0104A48
:1010600010491B68096812780D488B42B4BF0023F1
:101070000123934203D90C4A01231370037070BCFF
:1010800070470948064A002102243160047011703B
:10109000E6E700BFCC0E0020C82100208404002019
:1010A000921C002064F1FF1FD40E002070B472B6B1
:1010B0001B491C4B1C4841250E2480220D700470D6
:1010C00019461A700B78174A1806FBD5174B1848A3
:1010D0001D78184C18490570033B247809781B7853
:1010E000C3704470817062B672B60D490E4C4126D1
:1010F0000F2580230E702570114613700B781B0688
:10110000FCD50A4C0B490C4A0C4B24780978127810
:101110001B78C37104714171827162B670BC7047F3
:101120000700024000000240060002400B0002409F
:10113000841C00200A00024009000240080002400E
:1011400038B50021282009F0B1FE002520242820F0
:1011500009F032FC0EF090FF014628460EF0D8FE52
:10116000013C0546F3D109490EF0DAFF4FF06A5110
:101170000EF0D6FF01210446282009F097FE2046F4
:101180004FF074510EF0CCFF38BD00BF8EC2DD4071
:101190002DE9F041244C254E94F800E06578A778BD
:1011A000E27894F804C06379A079E17941EA0020FB
:1011B00045EA0E2143EA0C2331801D4D1D491E4E88
:1011C00042EA07225B422A800B8000B20EF054FFF5
:1011D000227A637A94F80AC0E57A94F80C80677BE7
:1011E000306043EA0223154A94F80EE01380E17B55
:1011F00047EA0820277C627CA67CE37C42EA07223F
:1012000045EA0C240E4F0F4D40422C8038800E4D85
:101210000E4C0F48228041EA0E2143EA0623298022
:101220000380BDE8F08100BFC8210020801C0020A1
:10123000821C00208C0B0020680E002080040020FF
:10124000C6210020C4210020720400207004002068
:101250007404002010B5114C2168012915D0022911
:1012600003D00F4B01221A7010BD0121042009F098
:1012700009FE4FF4FA6009F041FE0021042009F054
:1012800001FE074B01221A7010BD042009F0FAFD7F
:1012900040F6B83009F032FE2168E0E7C80C0020C3
:1012A000D80F0020124B10B51C68012C0FD0012163
:1012B000042009F0E7FD4FF4FA7009F01FFE002149
:1012C000042009F0DFFD0B4B01221A7010BD002134
:1012D000042009F0D7FD4FF47A7009F00FFE214683
:1012E000042009F0CFFD034B01221A7010BD00BF8E
:1012F000C80C0020D80F0020114B10B51C68012C21
:101300000CD00121042009F0BDFD642009F0F6FD98
:1013100000210420BDE8104009F0B4BD00210420E4
:1013200009F0B0FD4FF4C87009F0E8FD2146042033
:1013300009F0A8FD41F27070BDE8104009F0DEBD73
:10134000C80C002008B5104B1B68012B0FD00121E1
:10135000042009F097FD40F6B83009F0CFFD0021D8
:10136000042009F08FFD094B00221A7008BD4FF4CC
:101370007A7009F0C3FD0021042009F083FD034BBE
:1013800000221A7008BD00BFC80C0020D80F002032
:1013900008B5114A114B106819680FF05FF880B951
:1013A000034613F0FF0F11D10D4B1968A1F1010194
:1013B000B1FA81F1490949B90820BDE8084009F0AE
:1013C00061BD4FF0010313F0FF0FEDD001210820A4
:1013D000BDE8084009F056BDD00E002078F1FF1F8F
:1013E000900F00202DE9F041464B474C59781F786B
:1013F000627898782378A678444D0902120241EA6F
:10140000074142EA034308431E430EF031FE404BBE
:10141000044618880EF02CFE4FF087410EF080FE37
:10142000014620460EF072FD3A4B044618880EF035
:101430001FFE21460EF074FE4FF050510EF070FE6C
:1014400035490EF065FD35490EF01EFF344B28601E
:10145000074618880EF00CFE21460EF061FE4FF094
:101460006E510EF05DFE2F4B804618880EF000FE88
:101470004FF08E410EF054FE014640460EF048FDFE
:10148000804630460EF0F4FD014640460EF048FE20
:101490004FF054510EF044FE234B064618880EF0D0
:1014A000E7FD21460EF03CFE4FF070510EF038FE85
:1014B0001E4B044618880EF0DBFD4FF08F410EF0F6
:1014C0002FFE014620460EF023FD014630460EF069
:1014D0001DFD4FF064510EF023FE15490EF0D4FEB1
:1014E000144B02461A60196813480EF00FFD134999
:1014F00000F100400EF0C8FE114B18602F60BDE8EF
:10150000F08100BF480F0020380D0020CC1C0020C7
:1015100082040020F60E00200000FA440000C842B9
:10152000941C00204C0F0020E0210020901C002083
:10153000000020416404002000807C4406C1DE429B
:10154000D00E002030B5314B314D1A78697B2869B7
:1015500085B0012300248DE81800052307F082F8E8
:101560002B69D3F83821D3F8341191420ED002AC54
:10157000184607F091F82B69D3F83811D3F83421C5
:1015800020EAE070914204F8010BF1D19DF80A20A5
:101590009DF809001F4B42EA00201C680EF06CFD0C
:1015A0004FF08D410EF0B2FC1B4B054621461868EA
:1015B0000EF0ACFC014628460EF0B2FD4FF0605133
:1015C0000EF0AEFD21460EF0A3FC14490EF0A8FD6E
:1015D000124904460EF058FE9DF80C30104A0146A0
:1015E0009DF80B00116043EA0020001118380EF03E
:1015F00043FD0C490EF094FD0B490EF087FC0B4A9D
:101600000B4B10601C6005B030BD00BF24F1FF1F04
:10161000B8240020C00C002070F1FF1F00007A44A5
:10162000D00E0020CDCC4C3D00004842CC1C002008
:101630006404002010B50D4C204608F0A9FCFFF70B
:101640007FFDFFF77DFD6062204608F0D9FE204651
:10165000012108F0F3F92046012108F0E9F9002200
:1016600020461146BDE8104008F0DEB9D00C00203D
:1016700010B501220446084908480BF051FB092C1B
:1016800004DC0122064905480BF04AFB21460348C9
:10169000BDE810400BF0A8BBE07E0100D00C00209C
:1016A000647C010038B50C4605460121234808F04A
:1016B000BFF92AB20021214808F0B6F9204607F008
:1016C000DBFE01461D480BF08FFB2D211B4808F067
:1016D00071F9204607F0C2FE014618480BF084FB62
:1016E0002D21164808F066F9204607F0A9FE0146AC
:1016F00012480BF079FB0222114910480BF010FB45
:10170000204607F073FE092804DC01220D490B482E
:101710000BF006FB204607F069FE014607480BF078
:1017200063FB204607F070FEFFF7A2FF204607F09C
:1017300079FEBDE83840FFF79BBF00BFD00C00200A
:10174000687C0100647C010010B501213448354CEF
:1017500008F06EF90121324808F070F900221146B4
:101760002F4808F061F92368002B3BD0012B51D0A2
:10177000082200212A4808F057F92B4B1B684BB16F
:101780002A4B08201968FFF78DFF022228492448B8
:101790000BF0C6FA10220021214808F045F9042276
:1017A00024491F480BF0BCFA234B1D4819680BF065
:1017B0001BFB012221491A480BF0B2FA08222049EA
:1017C00017480BF0ADFA1F4B154819680BF00CFBCE
:1017D00001221A4912480BF0A3FA1148BDE8104043
:1017E0000BF0B2BA082218490D480BF099FA174AC3
:1017F000174B11681B680A48C91A0BF0F5FA012249
:101800000E4907480BF08CFA05480BF09DFA236847
:10181000012BADD107220F4901480BF081FAA7E750
:10182000D00C002040150020600E00205C04002039
:10183000847C0100887C010074F1FF1F787C01002A
:10184000907C01007C1C00206C7C0100C40E0020F8
:101850006C0400207C7C010030B583B002AD079C95
:1018600005F8082D8DF80200069A8DF804304E34E4
:1018700028468DF801108DF805208DF8064007F0F8
:101880000BFE09F0EDFA03B030BD00BF70B58CB0AF
:1018900004460FF0B5FE00B2012829DDB4F900308E
:1018A00044F65212934200F0C68124DC44F25242C4
:1018B000934200F0C9813FDD44F24172934200F04F
:1018C000B1816EDD44F64412934200F04D8144F63E
:1018D0005012934200F0E28044F25372934207D1D7
:1018E00009AAE01CA9490FF0EBFDA94B099A1A605F
:1018F00001200CB070BD45F24B02934200F0AD8167
:1019000034DD45F24432934200F0328140F3A98045
:1019100045F25042934200F01C8145F242729342DC
:1019200000F0E28045F24C329342E1D199499A4A63
:1019300001230B701370DBE744F24C42934200F03A
:101940006D8140DC44F25012934200F0BA8044F2C0
:1019500048329342CCD1E01C09AA8C498F4C0FF03D
:10196000AFFD09980EF088FB2060C1E744F64952AC
:10197000934200F0438137DC44F64242934200F048
:10198000AB8044F642529342B2D109AA7F49E01C8F
:101990000FF096FD824A0999824B116002221A606B
:1019A000A6E744F25342934200F09A8044F2506218
:1019B00093429DD109AAE01C74490FF081FD7A4B36
:1019C000099A1A6094E744F24E42934275D044F269
:1019D000504293428CD109AAE01C6C490FF070FD73
:1019E000724B099A1A6083E744F6505293424CD0E6
:1019F00044F6545293427FF47BAF09AD08A907AA7D
:101A000004AB039502910192009306AA05ABE01C7A
:101A100067490FF055FD069C059D049B07A804F53A
:101A2000FA6407C800950194FFF716FF1121614879
:101A30000AF0B6FC07F0AEFD01465F480BF0D4F9A2
:101A40005D480BF081F91B215C480AF0A9FC09F004
:101A500001FA014658480BF0C7F957480BF074F9E2
:101A600046E745F24D02934221D045F2502293427F
:101A70007FF43EAFE01C09AA4449514C0FF020FD11
:101A800009980EF0F9FA206032E709AAE01C3F49F4
:101A90000FF016FD4B4B099A1A6029E709AAE01CC2
:101AA0003A490FF00DFD484B099A1A6020E7474963
:101AB000394A01230B7013701AE7454B01221A6053
:101AC00016E7E01C09AA3149424C0FF0F9FC0998CD
:101AD0000EF0D2FA20600BE73F4B01221A708CE720
:101AE0003E4B01221A6003E709AD08A907AA04AB1F
:101AF000039502910192009306AA05ABE01C2C49C4
:101B0000374C0FF0DDFC069B09980499059A089E56
:101B1000079D8DF828001E330AA88DF82E308DF809
:101B20002C108DF82D208DF829608DF82A5007F0A3
:101B3000B3FC1C4B206001220A212A481A600AF0DB
:101B40002FFC21681C480BF04FF91B480BF0FCF8E8
:101B5000CEE6E01C09AA0D49234C0FF0B1FC099810
:101B60000EF08AFA2060C3E6204B01221A70BFE60D
:101B70000AAB09AA1E49E01C0FF0A2FC1D491E4B2E
:101B800009980A9A08601A60B2E600BF9C7C0100BE
:101B900038F1FF1F0CF1FF1F30F1FF1F54F1FF1F41
:101BA00078040020600E00208C1C002004F1FF1F30
:101BB000A07C0100B47C0100B4F9FF1FC87C0100C7
:101BC0004CF1FF1FF4F0FF1F10F1FF1F680400200D
:101BD000CC0C002008F1FF1FFC0C0020C0210020CD
:101BE0005C040020E47C01005CF1FF1F48F1FF1F52
:101BF000AC7C0100BC1C0020280D002009AA1A4959
:101C0000E01C0FF05DFC0998184C0EF035FA1849ED
:101C1000184A206001230B70137069E6164B0022EE
:101C20001A7065E609AAE01C0F490FF049FC134B36
:101C3000099A1A605CE609AAE01C0B490FF040FC07
:101C40000F4B099A1A6053E609AAE01C06490FF0E7
:101C500037FC0C4B099A1A604AE60B49044B0220E8
:101C6000012208701A7043E69C7C010050F1FF1FAE
:101C700030F1FF1F28F1FF1F00F1FF1FF0F0FF1FE1
:101C80007C1C002074F1FF1F6804002038B5054655
:101C900007F0F2FB1E4C014620460BF0A5F82D2064
:101CA0000AF002FC284607F0D9FB014620460BF05B
:101CB0009BF82D200AF0F8FB284607F0C1FB0146EF
:101CC00020460BF091F8012112480AF069FB2846E2
:101CD00007F08CFB014620460BF086F83A200AF00C
:101CE000E3FB284607F090FB014620460BF07CF80A
:101CF0003A200AF0D9FB284607F094FB014620461B
:101D00000BF072F82046BDE838400BF01DB800BF5C
:101D1000B4F9FF1F9C7E01002DE9F043434A444B78
:101D2000DFF81891DFF81881424D98F80010167806
:101D300099F800701A78286883B03C2313FB0717C2
:101D400013FB062607F052FB0446286807F05CFBED
:101D5000C4EB041400EB8404286807F08DFB00F149
:101D60004E0328688DF8063007F078FB8DF80500E3
:101D7000286807F065FBB7428DF8040006D2A74239
:101D800032D8A64230D303B0BDE8F083A742FAD9D7
:101D9000A642F8D202A8002399F8002000F8083DD6
:101DA00098F800308DF801308DF8022007F074FBB0
:101DB0000F21286020480AF0F3FA2868FFF766FF31
:101DC00009F048F82B68834204DA03F5A83303F5D9
:101DD000C0732B600F2118480AF0E2FA2868FFF759
:101DE00055FF03B0BDE8F08302A8002399F8002056
:101DF00000F8083D98F800308DF801308DF8022089
:101E000007F04AFB0F2128600B480A4C0AF0C8FA79
:101E10002868FFF73BFF09F01DF82B688342D9DAE9
:101E200003F5A83303F5C0732360D3E7D10F002077
:101E3000D00F0020C40E0020F07C0100C11C002047
:101E4000D90F00202DE9F04F6D4A6E4D6E4C6F4B4F
:101E50006F48DFF8DCA1D3F800C0D0F800E0D2F87A
:101E6000008023882A88BAF800106A4E6A4FB6F9B3
:101E70000000CCEB0202CEEB030387B02A80238064
:101E8000C8EB0101AAF800100DF08EFC80468946CF
:101E9000B7F900000DF088FC42464B460CF0E4F91F
:101EA0000DF0E0FF02900DF091FC804689460CF0A9
:101EB00097F90DF0D7FF4946834640460CF0BAF833
:101EC0000DF0D0FF8046B5F900000EF0D5F8814640
:101ED000B4F900000EF0D0F8504B0190B3F90000B7
:101EE00040420EF0C9F80446B7F900000EF0C4F8FD
:101EF00059460EF015F90546B6F900000EF0BCF88B
:101F000041460EF00DF9014628460EF001F8014653
:101F100020460EF0B9F90DF059FC0BF0EDFE0DF076
:101F2000A1FF03900DF052FC04460D460CF058F949
:101F300006460F46204629460CF07CF802460B4622
:101F400058464946CDE904230EF0EAF801990446C3
:101F500040460EF0E5F8014620460DF0D9FF39461F
:101F6000044630460DF07EFF014620460EF0D8F8BC
:101F70000446BAF900002A4F2A4E0EF07DF8DDE93A
:101F800004230546194610460DF06CFF014628460D
:101F90000EF0C6F8014620460DF0BAFF0DF016FC13
:101FA00004460D46404649460EF0BAF8019980466F
:101FB00058460EF0B5F8014640460DF0A7FF00F177
:101FC00000400DF003FC22462B460CF04DF9044670
:101FD0000D46039814490EF0A3F8144B12491860EB
:101FE00002980EF09DF82946386020460DF03AFF21
:101FF0000D490EF095F8306007B0BDE8F08F00BFD6
:10200000340D00207204002074040020540E0020BF
:10201000F00E00208C0B0020821C0020801C002071
:102020007C040020C80E0020E12E6542C40C002074
:102030007004002010B50446232009F031FA21462F
:102040000B480AF0D1FE0A480AF07EFE094B1B78C5
:1020500003B910BD072108480AF0A2F92146074834
:102060000AF0C2FE0548BDE810400AF06DBE00BF90
:1020700094F9FF1F48F1FF1F007D0100B4F9FF1F15
:102080002DE9F04FDFF8D492DFF8D482D9F80000C0
:10209000D8F8001085B00EF0FFF940B19E4BD9F88A
:1020A00000201B78C8F80020002B40F0AA809B4C31
:1020B0009B4E23689B4D002B48D19B4A2B68376869
:1020C0001268DFF8A0A2D9F80000DAF80010FB1AB5
:1020D0009342D4BF4FF0000B4FF0010B0EF0DCF930
:1020E000924B1A684FF00103002800F08680002A06
:1020F00014BF002303F001031BEA030B74D0864ACC
:102100008A4B127801211960002A57D1D9F80010A2
:10211000DFF85492D8F800000DF0F8FED9F800105E
:102120000EF0BAF94FF00101002868D0DFF80C82F8
:102130007F4AD8F8000012689042ACBF002201F03C
:1021400001021BEA020A40F08A802368326828688C
:10215000A3F1010ABAFA8AFA4FEA5A1A824202DB5A
:10216000BAF1000F04D1022B18D005B0BDE8F08FF2
:10217000704F022338682360FFF75CFF6E4A3B68AC
:1021800012686E49013393423B60A4BF00233B6059
:102190000A6823680132022B0A60E6D1684A336874
:1021A000296812685B1A9342DFDD0021102008F0D5
:1021B00069FE0023236005B0BDE8F08F1921614856
:1021C0000AF0EEF8DAF800000DF000FB4FF0020E16
:1021D00002460B46CDF800E05B480AF00DFE5A4877
:1021E0000AF0B2FD514B1A68022A1DD0A2F1010B70
:1021F000BBFA8BFB4FEA5B1B88E7034677E7014698
:1022000094E70B2151480AF0CBF8D8F800000DF004
:10221000DDFA022402460B4600944B480AF0ECFD1E
:1022200049480AF091FD42E7DFF840A1D9F80000E3
:10223000DAF800100392DFF824B10EF00FF950B174
:10224000354BDBF80010394A1B78C8F80010002124
:1022500011609346CBB92368D9F8002076E70121B5
:10226000102008F00FFE2C4B326893F800C02F4F5F
:10227000DFF8A8B0901C01210223286021603B6098
:10228000BCF1000F1CD10B4668E70D2130480AF065
:1022900087F8DAF800000DF099FA039A00920B46DD
:1022A000024629480AF0A8FD27480AF04DFDDBF850
:1022B0000030A3F1010BBBFA8BFB4FEA5B1B25E758
:1022C0000E21244803930AF06BF8D9F800000DF0B2
:1022D0007DFA039B009302460B461B480AF08CFDD7
:1022E00019480AF031FD11211B480AF059F8D8F8B5
:1022F000001015480AF078FD13480AF025FDDBF8B8
:102300000030074A074912680868A3F1010ABAFABF
:102310008AFA4FEA5A1A21E748F1FF1F50040020B9
:102320006C0400202C04002010F1FF1FDC21002091
:10233000F4F0FF1FB80B00208C1C00205804002074
:1023400004F1FF1F147D0100B4F9FF1F087D010097
:10235000307D0100407D0100507D0100D00E002045
:10236000BC0C00205CF1FF1F08F1FF1F4CF1FF1FA8
:102370002DE9F04F0546934E934FDFF85C8296F8B7
:1023800000E02F60FF2085F82400DFF8509298F8D5
:102390000000BEF1060F59F820E04FF000038DB0A9
:1023A0000C4685F8253085F8263098BF3370BEF18D
:1023B000000F00F0AD808E455ED07346810001E0D5
:1023C0009C4259D00B445B68002BF9D1734600E066
:1023D00053460B44D3F804A0BAF1000FF8D15C6067
:1023E0003478029705EB010B4FFA80FCFF23062C93
:1023F000CBF804A08DF82DA08DF82EA085F824C070
:102400008DF82C30744604D800233370002C00F073
:10241000B480A24229D0234601E0934225D00B4448
:102420005B68002BF9D104EB010EDEF80440002CB0
:10243000F9D1CEF804200CAB1944BCF1FF3F00F1F8
:1024400001034FF0000041F8240C88F800308DF8AB
:102450002CC0029705D05D4951F82C2002AB9A425E
:1024600076D028460DB0BDE8F08F013088F8000026
:1024700028460DB0BDE8F08F31780297FF24002385
:1024800006298DF82C408DF82D308DF82E304D4CCE
:1024900000D823709645E8D07346810001E09A4247
:1024A000E3D00B445B68002BF9D18E44DEF8044086
:1024B0002CB1A6468E44DEF80440002CF9D10CABBA
:1024C00046B219440130731CCEF8042088F800008D
:1024D00041F8244C02978DF82C60C2D03B4951F84A
:1024E000262002AB9A42BCD159F82630B00023B165
:1024F0001A1853685460002BFAD198F80030002263
:10250000013B88F8003049F8262041F82620A8E74A
:1025100000283AD02D4B96F800E043F82050810077
:1025200005EB010C002349F820408DF82D30CCF844
:1025300004308DF82E304FFA80FCFF23BEF1060FD9
:10254000029785F824C08DF82C307FF65DAF5DE7EB
:1025500059F82C304FEA8C0423B11A195368506093
:10256000002BFAD198F800300022013B88F80030A7
:1025700049F82C2041F82C2073E798B1134B49F807
:10258000202002AA43F8202055E711490192152086
:1025900008F098FB0F4B019A4FF40011196098F85E
:1025A0000000B7E70A490192152008F08BFB094BA0
:1025B000019A4FF40011196098F800004FFA80FC5E
:1025C0008100DBE794E9FF1F0C7B0100EC24002075
:1025D0007504000000E100E00D250020CC2400205F
:1025E0002DE9F041814C824E824D834F08F062FA12
:1025F0004FF0FF31204607F0B7FC804B3268236074
:10260000012100230020606284F8281084F829103A
:102610002F606B722B612B72EB600AB9E0E01A46F7
:102620005369002BFBD15561754C764B71482B607B
:102630004FF00008C5F81480A5F80480A5F80680BE
:1026400003F0C6F9012004F2247243464146276094
:1026500084F80880C4F80C8060722261A64601E00C
:10266000DEF8102042F82310627A654801339A425E
:10267000F6DC32685E4B0AB9B4E01A465369002BA7
:10268000FBD154614FF000085F49DFF8D8E12160C9
:10269000424601234FF480715C48C4F81480A4F8CA
:1026A0000480A4F80680C4F818E184F8218784F82F
:1026B00022870BF045FA564AC4F81C814FF0010EF0
:1026C00002F118011760082782F809E043464046E6
:1026D00082F80880C2F80C801161964684F8207751
:1026E00001E0DEF8101041F82300517A484F013321
:1026F0009942F6DC31683E4B09B975E019464B69E1
:10270000002BFBD14A61434B43495A600026566176
:102710009680D680184682F8F460C2F8F06082F89D
:10272000F560116082F8F6601D601E725E72DE60F8
:102730000AF00EF8394B3A4F1E7218461D605C6065
:102740005E72DE600AF004F8364A374B1168374A89
:102750001A600A221A724FF087400DF095FD344C32
:10276000344D38604FF0FF08334B84F82560012763
:1027700084F82480314A324966632046A66384F88F
:102780003C60236084F826700EF04AF82D4B2B4AEB
:102790002D4985F82480284685F825602B6085F82A
:1027A00026700EF03DF8224629462848FFF7E0FD46
:1027B000224A274925480EF033F8264803F0A4FCA6
:1027C0001E4A254923480EF02BF8244B1B4A1E6055
:1027D00080241C7122491846BDE8F0410EF020B853
:1027E000356021E718604DE71F608CE7D00C0020B2
:1027F000D4260020D80E0020007B0100207B0100A1
:1028000044150020BC830100948301006C1C00204F
:10281000BC0B0020900B0020C8830100A00B0020FF
:102820005C0E002060F1FF1FC40F0020A083010098
:10283000840E0020940F002038860100FCEFFF1F5B
:102840009D0600004C860100F5060000000D0020EA
:10285000F1050000981C0020256100007C0F00207D
:102860004D0700008C81010010B51D48ADF5007DBD
:1028700003F014FA012829DD1A491B4C0B68226861
:102880001748013301320B60226003F039FA4FF42C
:1028900080720146684607F0BDFE114803F04EFA0B
:1028A0000F4803F02DFA4FF4807201460DEB020041
:1028B00007F0B0FE0A4803F041FA0C4B1B7843B90D
:1028C00069464FF400720A4803F0A4FB0DF5007D41
:1028D00010BD10220749064803F09CFBF0E700BF3B
:1028E000BC0B00202C0D00205404002030F1FF1FF1
:1028F000981C0020F80E00202DE9F845194CDDF851
:1029000020814FF48A7707FB00449246054608224F
:1029100020461E460EF032FF479BC4F80C31FC22C5
:1029200008A904F11000A4F808A0E660C4F810811A
:1029300007F070FE3A4621460B4803F06BFB01306E
:1029400002D10A4B0A4A1A600A492A018B186427E5
:10295000C8264FF496748D505F609E60DC60BDE8C1
:10296000F88500BFDC0F0020981C00200CED00E073
:102970000400FA05F80E002000B589B06846162359
:102980000C4A0D4903F046FD684603F0EDFB50B1DB
:1029900022220A49684603F03DFB68460AF0D4F952
:1029A000684603F0D3FB684603F0BCFB09B05DF852
:1029B00004FB00BF847D0100382200208C7D0100D3
:1029C00070B5B44B1B7884B0002B40F05B81B24CE7
:1029D0007621204605F092FB00251E21204605F0B9
:1029E00099F8627B216900950123204605F012FECB
:1029F000052008F083FA2046762105F07FFBA2210E
:102A0000204605F087F8627B216900950123204666
:102A100005F000FE0123617B0093762202232069EA
:102A2000019505F01FFE2369D3F83811D3F834213E
:102A300091420CD003AD184605F02EFE236905F82F
:102A4000010BD3F83811D3F834219142F3D19DF81A
:102A50000D209DF80C50914B8F4842EA05257621B8
:102A60001D80002605F04AFBA4218B4805F052F892
:102A7000627B216988480096012305F0CBFD012384
:102A8000617B0093762202232069019605F0EAFD1E
:102A90002369D3F83811D3F83421914212D003AD11
:102AA000184605F0F9FD236905F8010BD3F8381134
:102AB000D3F834219142F3D19DF80C509DF80D309C
:102AC00043EA0525764B74481D80762105F016FBF8
:102AD0000026A621704805F01DF8627B21696E482A
:102AE0000096012305F096FD0123617B0093762279
:102AF00002232069019605F0B5FD2369D3F838213A
:102B0000D3F83411914212D003AD184605F0C4FD3C
:102B1000236905F8010BD3F83811D3F83421914219
:102B2000F3D19DF80C509DF80D3043EA05255D4B1F
:102B300059481D80762105F0E1FA0026A821564863
:102B400004F0E8FF627B216953480096012305F0F9
:102B500061FD0123617B00937622022320690196A7
:102B600005F080FD2369D3F83821D3F83411914260
:102B700012D003AD184605F08FFD236905F8010B4F
:102B8000D3F83811D3F834219142F3D19DF80C5089
:102B90009DF80D3043EA0525434B3F481D807621C3
:102BA00005F0ACFA0026AA213B4804F0B3FF627B93
:102BB000216939480096012305F02CFD0123617B32
:102BC0000093762202232069019605F04BFD2369CC
:102BD000D3F83821D3F83411914212D003AD1846FE
:102BE00005F05AFD236905F8010BD3F83811D3F825
:102BF00034219142F3D19DF80C509DF80D3043EAF9
:102C000005252A4B24481D80762105F077FA0026F9
:102C1000AC21214804F07EFF627B21691E480096AA
:102C2000012305F0F7FC0123617B00937622022348
:102C30002069019605F016FD2369D3F83811D3F801
:102C40003421914219D0354603AE184605F024FDD3
:102C500023697055D3F83811D3F83421914205F126
:102C60000105F2D19DF80D309DF80C5043EA052581
:102C70000F4B01201D8004B070BD0D4B30461D80F0
:102C800004B070BD0B210B4809F08AFB0A480AF01A
:102C90005BF89CE648F1FF1FB82400204C0F002091
:102CA000901C0020941C0020E021002082040020C1
:102CB000F60E0020B07D0100B4F9FF1F10B50A4CDC
:102CC00082B02046762105F019FA2046482104F00A
:102CD00021FF00230093627B21692046012305F038
:102CE00099FC02B010BD00BFB824002010B50A4CFA
:102CF00082B02046762105F001FA2046582104F0E2
:102D000009FF00230093627B21692046012305F01F
:102D100081FC02B010BD00BFB8240020F0B5284FE0
:102D20003B7885B0002B43D1264C274E2046317886
:102D300005F0E4F900250021204604F0EBFE627B5B
:102D4000216900950123204605F064FC022008F06B
:102D5000D5F801233278617B009320690195022325
:102D600005F080FC022008F0C9F803AE2369D3F80F
:102D700038211846D3F834319A4213D005F08CFC30
:102D80003B7820EAE07006F8010B0135002BEDD00E
:102D900000230A2231780D4809F0E6FF0B4809F0BC
:102DA000D3FFE3E7002DD4BF0020012005B0F0BD24
:102DB0000B21074809F0F4FA044809F0C5FFB3E70E
:102DC00048F1FF1FB824002024F1FF1FB4F9FF1FB2
:102DD000BC7D010010B50A4B0A4C197882B0204620
:102DE00005F08CF92046AC2104F094FE00230093FA
:102DF000627B21692046012305F00CFC02B010BD66
:102E000024F1FF1FB824002070B5134C82B0064691
:102E10000D4620460A2105F071F9C6F30721204628
:102E200004F078FEF1B2204604F074FEC5F30721E9
:102E3000204604F06FFEE9B2204604F06BFE00234A
:102E40000093627B21692046012305F0E3FBB0FA81
:102E500080F0400902B070BDB824002008B5002100
:102E60003020FFF7D1FF00210220BDE80840FFF726
:102E7000CBBF00BF08B5AB213020FFF7C5FF6321F2
:102E80000220BDE80840FFF7BFBF00BF08B544F20D
:102E900060013020FFF7B8FF6C212620FFF7B4FF58
:102EA0004FF4F8712820FFF7AFFF00212A20FFF729
:102EB000ABFF40F622712C20FFF7A6FF44F24641FB
:102EC0003C20FFF7A1FF40F237112420FFF79CFFC1
:102ED000FFF7D0FF4FF4C87008F010F841F6191151
:102EE0002E20FFF791FF04210846FFF78DFF4FF4D6
:102EF00098710620FFF788FF00210A20FFF784FF62
:102F000008210E20FFF780FF4FF63C711020FFF7DD
:102F10007BFF47F67F712220FFF776FF00214FF4F9
:102F20009270FFF771FF14212420FFF76DFF00213D
:102F30002A20FFF769FF00212020FFF765FF01200D
:102F400008BD00BF10B5114CFFF7A0FF2046552269
:102F5000202102F02BFB38B1E28842F0040292B249
:102F60002046242102F022FB0021084802F03AFC0E
:102F7000074B06481A78114602F0EAFB034802F0B4
:102F8000DDFB0248BDE8104002F0EEBBC40F00209C
:102F900038F1FF1FF0B5174C174D83B0297806465E
:102FA000204605F0ABF831462046002604F0B2FD7D
:102FB000627B216900960123204605F02BFB2978CE
:102FC000204605F09BF82A78617B2069019601254F
:102FD0002B46009505F046FB206905F05DFB627B02
:102FE0002169009607462B46204605F013FBF8B2F0
:102FF00003B0F0BDB824002014F1FF1F2DE9F0410B
:103000001A4C1B4D82B029780646204605F076F80A
:1030100031462046002604F07DFD627B2169009642
:103020000123204605F0F6FA01272978204605F00D
:1030300065F82A78617B206901960223009705F0E4
:1030400011FB206905F028FB0546206905F024FBEB
:10305000627B2169009680463B46204605F0DAFAFD
:1030600045EA082080B202B0BDE8F081B824002013
:1030700014F1FF1F08B50B20FFF7C0FF064B1880A7
:103080000920FFF7BBFF054B18800D20FFF7B6FFA7
:10309000034B188008BD00BFC00F0020D01C0020CB
:1030A000B40B002070B50D4B0D4C82B006460D469A
:1030B0002046197805F022F83146204604F02AFD12
:1030C0002946204604F026FD00230093627B2169F7
:1030D0002046012305F09EFA02B070BD14F1FF1FD7
:1030E000B8240020F8B504460E46012021461546B6
:1030F000FFF7D8FF31460220FFF7D4FF294603200F
:10310000FFF7D0FF0120FFF745FF07460220FFF73A
:1031100041FF864204BFE41BB4FA84F44FF003007D
:103120000CBF64090024FFF735FF85420CBF204621
:103130000020F8BD08B50A21064809F031F9064813
:1031400009F002FE00223F210D20BDE80840FFF7F4
:10315000C9BF00BFC87D0100B4F9FF1F70B50F4C97
:1031600082B00E4601462046154604F0C7FF3146A0
:10317000204604F0CFFC2946204604F0CBFC002377
:10318000627B216900932046012305F043FA04463F
:10319000052007F0B3FE204602B070BDB824002021
:1031A00038B5324C402220782421FFF7D7FF002881
:1031B00040D12F4D20782A6862F07F02D2B22521BB
:1031C000FFF7CCFF002838D1032226212078FFF713
:1031D000C5FF002834D1D62227212078FFF7BEFF73
:1031E00088BB2A7820782821FFF7B8FF70BB0A2215
:1031F00029212078FFF7B2FF58BB81222A212078AD
:10320000FFF7ACFF40BB112264212078FFF7A6FF37
:1032100028BB032267212078FFF7A0FF10BB20788E
:1032200080220121FFF79AFF002814BF6FF00E00E3
:10323000002038BD6FF0050038BD6FF0060038BDC6
:103240006FF0070038BD6FF0080038BD6FF009005F
:1032500038BD6FF00A0038BD6FF00B0038BD6FF05D
:103260000C0038BD6FF00D0038BD00BF3CF1FF1FF2
:10327000FCF0FF1F344B1B7870B50446002B41D186
:10328000002C45D0314C324E207801226B21FFF7C3
:1032900065FF03221A2105462078FFF75FFF102201
:1032A0001B212078FFF75AFF092219212078FFF708
:1032B00055FF207818221C21FFF750FF3368022B9E
:1032C0002DD0042B32D0082B37D003221D2120789B
:1032D000FFF744FF222237212078FFF73FFF01222A
:1032E00038212078FFF73AFFFFF75AFF07226A21BB
:1032F0002078FFF733FF207860226A21FFF72EFF46
:10330000284670BD0921134809F04AF8002CB9D1AC
:103310000E4B402218786B21FFF720FF70BD002272
:103320001C212078FFF71AFF3368CAE708221C2106
:103330002078FFF713FF3368C5E710221C2120789F
:10334000FFF70CFFC1E700BF48F1FF1F3CF1FF1F73
:10335000F0F0FF1FD47D010030B5184C83B076210A
:10336000204604F0CBFE00250021204604F0D2FBCD
:10337000627B216900950123204605F04BF901236A
:10338000617B0093762203232069019505F06AF999
:103390002369D3F83811D3F8342191420CD0084D69
:1033A000184605F079F9236905F8010BD3F83811AF
:1033B000D3F834219142F3D103B030BDB8240020BA
:1033C000380D002030B5184C83B07621204604F02B
:1033D00095FE00250021204604F09CFB627B2169BC
:1033E00000950123204605F015F90123617B009328
:1033F000762203232069019505F034F92369D3F877
:103400003811D3F8342191420CD0084D184605F0FC
:1034100043F9236905F8010BD3F83811D3F83421A7
:103420009142F3D103B030BDB8240020480F0020F2
:103430002DE9F0411C4D074682B00C46284639461E
:1034400090461E4604F05AFE21462846002404F009
:1034500061FB6A7B296900942346284605F0DAF867
:103460004FF0010E43463A46697B28690194CDF836
:1034700000E005F0F7F82869D0F83821D0F83431A9
:103480009A420DD005F008F9E3B2C0B2F0542869B1
:10349000D0F83821D0F834319A4204F10104F1D146
:1034A00002B0BDE8F08100BFB82400202DE9F0474C
:1034B000704C714A23681278013382B02360002A6D
:1034C00040F08380DFF80492DFF80482D9F800101E
:1034D000D4F800A0694F4FF07E500CF0D5FE0546A1
:1034E000D8F800000CF0C8FD014628460CF018FE84
:1034F000064650460CF0C0FD4FF07C5182463046E7
:103500000CF00EFE014650460CF0BCFF3D784FF02B
:103510000103EDB200B9034613F0FF0F07D0584B7B
:103520001B78012B14BF002505F001050DBB206899
:10353000504C0CF0A1FD31460CF0A4FFB0B1514B42
:103540001B7800222260002B66D14D4D2C78012C77
:1035500000F08480022C7CD04B4B1B68002B6AD17E
:103560004A4B1B78002B41D12B78CBB902B0BDE878
:10357000F087FFF7F1FEFFF7B9FB0023D9F8001041
:103580003B704FF07E500CF07FFE0546D8F80000EF
:103590000CF072FD014628460CF0C2FD0646C6E757
:1035A0003B4D3C4A2B783C4C1268DBB244F823205C
:1035B000FDF7D0FC2B78394ADBB2126844F823209F
:1035C00002B0BDE8F047FDF7C5BC354D354A2B4686
:1035D00010783B211422FFF72BFFFDF721FD2978FE
:1035E0006B78314A43EA012313806BE702212F48AD
:1035F00008F0D6FE2E4B18680CF0E8F802240246BC
:103600000B4600942B4809F0F7FB2A4809F09CFB75
:103610002B78002BAAD0C3E7FFF72CFD264B188888
:10362000FDF7C4FC254B1888FDF7C0FC244B188817
:10363000FDF7BCFC89E7234B186805F0E5FE224A3C
:103640001B4B52F820201A60104B1B78002B8BD09C
:10365000CCE7FDF777FFFFF7BDFB7DE7FFF7B2FE95
:10366000FFF72CFBFDF7BEFE3C70FDF791FE2C78BA
:1036700070E700BF300D002028F1FF1FC01C0020A4
:10368000680400200CF1FF1FC021002048F1FF1F3B
:10369000640E0020640400203C0D0020CC1C00209F
:1036A000C82100203CF1FF1F801C0020E07D0100AC
:1036B000D00E0020B4F9FF1FC00F0020D01C002046
:1036C000B40B00206C04002000F0FF1F44F1FF1F2A
:1036D00058F1FF1F2DE9F04F012183B0042007F0BE
:1036E000E5FB0121152007F0E1FB0121142007F083
:1036F000DDFB0121112007F0D9FB0121102007F08B
:10370000D5FB0021142007F0D1FB0121052007F093
:10371000CDFB0121022007F0C9FB0121082007F0A1
:10372000C5FB0021282007F0C1FB0021232007F062
:10373000BDFB0021032007F0B9FB002007F016F9BC
:103740000121042007F09EFB0021152007F09AFBC1
:103750000121142007F096FB0B21734808F020FE8E
:10376000724809F0F1FA0121112007F08BFB0121C9
:10377000052007F087FB0121082007F083FB0121CA
:10378000102007F07FFB0B21694808F009FE67480D
:1037900009F0DAFA40F6B83007F0B0FB002111204A
:1037A00007F070FB0021052007F06CFB00210820CA
:1037B00007F068FB0020FEF73DFC5E4B1B78002BFA
:1037C00040F0AB805C4B1B78002B40F097825B4D48
:1037D000FDF730FF00232B70FFF7A0FA002840F020
:1037E0002B82FFF7EDF8002840F0F681DFF88481A6
:1037F0005348544E544F112108F0D2FDD8F8000020
:103800000BF0E4FF022402460B460094474809F0FF
:10381000F3FA464809F098FA07214C4808F0C0FD31
:1038200030680BF0D3FF009402460B463F4809F086
:10383000E3FA3E4809F088FA0D21454808F0B0FD4A
:1038400038680BF0C3FF009402460B46374809F076
:10385000D3FA364809F078FA2B784BBB08223D4959
:103860003D4809F05DFA3C4809F06EFA0D223B49EB
:10387000394809F055FA384809F066FA364806F032
:1038800029FD374B1B680BB100233360002110204A
:1038900007F0F8FA0C21334808F082FD234809F0BC
:1038A00053FA40F6B83003B0BDE8F04F07F026BB3E
:1038B00006222D49284809F033FAD8F800000BF009
:1038C00085FF00940B460246234809F095FA2248EA
:1038D00009F03AFA062225491F4809F021FA306812
:1038E0000BF074FF00940B4602461B4809F084FA63
:1038F000194809F029FA05221D49174809F010FA5C
:1039000038680BF063FF009402460B46124809F03A
:1039100073FA114809F018FAB0E70120FFF7AAFC82
:103920004FF0000867E000BFE47D0100B4F9FF1F1D
:10393000F07D010028F1FF1F0CF1FF1F680400203B
:103940008C7E0100D00E0020CC1C00200C7D0100DC
:10395000A07E0100B07E0100D00C0020BC7E0100E2
:10396000C0210020E47E0100CC7E0100D47E010055
:10397000DC7E0100640400200322C149C14809F033
:10398000CFF9C14B18680BF021FF00940B4602469B
:10399000BC4809F031FABB4809F0D6F90322BB490B
:1039A000B84809F0BDF9BA4B18680BF00FFF009446
:1039B0000B460246B34809F01FFAB24809F0C4F9B1
:1039C0000322B449AF4809F0ABF9B34B18680BF0C8
:1039D000FDFE009402460B46AA4809F00DFAA948DC
:1039E00006F078FC08F10108C82007F087FAB8F162
:1039F000320F3FF4E7AEA94AA94B1078DFF8F0B2D6
:103A0000DFF8F0A2DFF8F092A64FA74EA74D1422E0
:103A10003B21FFF70DFDFDF7BBFBFEF713FA092174
:103A2000A34808F0BDFCBBF90010A24809F0DCF97E
:103A30000121A14808F0B4FCBAF900109D4809F032
:103A4000D3F901219C4808F0ABFCB9F90010994862
:103A500009F0CAF90121984808F0A2FC974B954853
:103A6000B3F9001009F0C0F90121934808F098FC5F
:103A7000B7F900108F4809F0B7F901218E4808F016
:103A80008FFCB6F900108B4809F0AEF901218A4885
:103A900008F086FCB5F90010864809F0A5F9012167
:103AA000854808F07DFC864B8248B3F9001009F088
:103AB0009BF90121804808F073FC824B7D48B3F9E3
:103AC000001009F091F901217B4808F069FC7E4B58
:103AD00018680BF07BFE02240B46024600947548E2
:103AE00009F08AF9734809F02FF9FDF7A3FD0822C0
:103AF0007649644809F014F9624809F025F9B8F1EB
:103B00000E0F3FF739AF224671495E4809F008F9B8
:103B1000BBF900105B4809F067F901226D4959486B
:103B200009F0FEF8BAF90010564809F05DF90122D3
:103B30006849544809F0F4F8B9F90010514809F0FF
:103B400053F9504809F000F9224663494D4809F0FD
:103B5000E7F85A4B4B48B3F9001009F045F9012238
:103B60005C49484809F0DCF8B7F90010454809F00D
:103B70003BF901225749434809F0D2F8B6F9001041
:103B8000404809F031F93F4809F0DEF82246534930
:103B90003C4809F0C5F8B5F900103A4809F024F995
:103BA00001224C49374809F0BBF8454B3548B3F979
:103BB000001009F019F901224649324809F0B0F81D
:103BC000404B3048B3F9001009F00EF90122414989
:103BD0002C4809F0A5F802E70123142140482B7076
:103BE00008F0DEFB334809F0AFF80B223D492548C9
:103BF00009F096F8234809F0A7F8FFF75FF832209C
:103C000007F07CF9FFF7A8FBFFF770F8322007F008
:103C100075F9FFF7D7FBFFF751F8322007F06EF97F
:103C2000FFF79AFBFFF762F8322007F067F9FFF71A
:103C3000C9FBFDF7D7FBD9E5022318212A482B70D1
:103C400008F0AEFB1B4809F07FF8FFF7C3F814201B
:103C500007F054F9FDF776FC0A2007F04FF9FFF75B
:103C6000B9F8142007F04AF9FDF76CFC0A221F4945
:103C7000044809F055F8034809F066F8B1E500BFBB
:103C8000207E0100D00C0020C40C0020247E010006
:103C90007C040020287E0100C80E00203CF1FF1F9C
:103CA000C8210020C4210020C6210020700400206B
:103CB000FC7D0100B4F9FF1F047E01008004002098
:103CC0007204002074040020680E0020087E0100A9
:103CD000147E01009C7E0100187E01001C7E010004
:103CE000687E0100807E0100407E01005C7E010054
:103CF000801C0020821C00208C0B0020FFF71AFA89
:103D0000314F324E324D1E24FFF7B4F902213148B3
:103D100008F046FBB7F900102F4809F065F82E4867
:103D200009F012F802212D4808F03AFBB6F900100C
:103D3000294809F059F8284809F006F802212848CE
:103D400008F02EFBB5F90010234809F04DF8224881
:103D500008F0FAFFFDF76EFC0A222249224808F01B
:103D6000DFFF214808F0F0FF02221A491E4808F040
:103D7000D7FFB7F900101C4809F036F81A4808F0C8
:103D8000E3FF02221549184808F0CAFFB6F90010EF
:103D9000154809F029F8144808F0D6FF0222104906
:103DA000114808F0BDFFB5F900100F4809F01CF8E4
:103DB0000D4808F0C9FF0C4806F08CFAC82007F03F
:103DC0009DF8013CA0D102E5C00F0020D01C0020CE
:103DD000B40B00202C7E0100B4F9FF1F187E0100F7
:103DE000307E0100347E0100D00C00202DE9F04728
:103DF0009AB00AA802F088F901238E4A8E4912A8C7
:103E000002F008FB149A9DF854309DF84C100C9267
:103E10008DF834308DF82C1015AA0DF135030DF105
:103E2000420612F8011F03F8011BB342F9D1199B96
:103E3000119312A802F076F90AA802F095F98046CB
:103E4000002800F0EE80002427468DF808704FF01F
:103E500000090AA802F0F0F81AABC2B203EB09019C
:103E60000D2A09F101031BB212D0542A0AA801F845
:103E7000602C07D1012B05D102F060F90124451E09
:103E8000A146E6E71D2B07DC0A2A05D09946E0E7A4
:103E9000B9F11D0FDDDD4B46013B9BB21AAA1A4456
:103EA0000FFA83F902F8607C9DF808202F2A04D0CD
:103EB000012B02D902A8FDF7E9FC0AA802F09EF83E
:103EC00082460028C1D10AA802F040F9002C70D126
:103ED00001235A4A584912A802F09CFA9DF84C3026
:103EE00014989DF854108DF82C3015AA0DF1350357
:103EF0000C908DF8341012F8011F03F8011BB34227
:103F0000F9D1199B119312A802F00CF90A214C481F
:103F100008F046FA4B4808F017FF0AA802F024F907
:103F2000064600283ED0484D012406E01E2C03F82A
:103F3000010C0CD00A280AD001340AA802F07CF83F
:103F4000C0B202AB0D282344F0D11E2CF4D108F0EE
:103F5000ABFA05EB89023D4902A80DF0B1FA4946DA
:103F6000384808F041FF0121394808F019FA55F89E
:103F700029000BF02BFC022409F1010902460B4633
:103F8000009430480FFA89F908F036FFB9F13C0F78
:103F900004D00AA802F032F80028C5D10AA8B04619
:103FA00002F0D4F80AA802F0BDF840461AB0BDE805
:103FB000F0870B21274808F0F3F953460A222946D7
:103FC000204808F0D1FE1F4808F0BEFE1323194A0E
:103FD000194912A802F01EFA149A9DF854309DF85F
:103FE0004C100C928DF834308DF82C1015AA0DF170
:103FF000350312F8011F03F8011BB342F9D1199BD5
:10400000119312A802F08EF829460AA802F08CF843
:10401000022211490AA801F0FDFF0AA802F096F851
:1040200056E714210D4808F0BBF9064808F08CFE4D
:10403000B8E700BFF47E010038220020287F01008D
:10404000347F0100B4F9FF1F00F0FF1F407F010023
:104050009C7E0100007F01000C7F0100107F0100A9
:104060002DE9F04F3A4A3B4B3B48127841F2B351AD
:1040700089B083E80300002A40F06282374F384E4F
:10408000384CFDF713F842F2107007F047F84FF480
:10409000FA7006F033FF344B717B306903930125CE
:1040A00000231A46029300930495019503F040FF04
:1040B000336942F21072C3F86822204606F088FA8B
:1040C00084F82950FDF7B6FA0A222849204608F05C
:1040D00027FE204608F038FE204606F0FBF80721B0
:1040E000234801F01DFF0E21214801F049FF0A215C
:1040F000204802F0F1F8002844D11C211E4808F0A5
:104100004FF91E4808F020FEFDF794FA08221C49DA
:10411000144808F005FE134808F016FE114806F092
:10412000D9F80324642006F0E9FE0121112006F0ED
:10413000A9FE642006F0E2FE0021112006F0A2FE96
:10414000013CEFD14FF4C87006F0D8FEDCE700BFA9
:10415000F40E00206C0E00205AED3301C80C002034
:10416000B8240020D00C0020801A0600447F0100F3
:104170007CF1FF1F38220020507F0100B4F9FF1F9F
:10418000707F0100C74EFFF731FEFEF7F5FBFFF72A
:10419000A1FAFCF765FE3378002B40F07281012113
:1041A000062006F083FE0021062006F06BFE0021AB
:1041B000062006F07BFE4FF4FA7006F09FFE0A21FF
:1041C000B94808F0EDF8B94808F0BEFD012111200A
:1041D00006F058FE0121152006F054FE3378002B1E
:1041E00000F04881B248B34D05F024FA0120FFF7F2
:1041F00041F8FCF7ABFC06F02DFEAF4B28601B68C6
:10420000022B07D1AD4BAE4A1B68C3EB031300EB87
:1042100083031360AB4AAC4B11681A68AB4E4FF482
:10422000616303FB02F3C1EB011103EB810213187D
:10423000336042B9A64B1B6800F13C0292FBF3F2DB
:1042400003FB02333360DFF8E882A24AD8F80000AB
:104250001268A1490344012A0B6003D1FDF75CFDFC
:10426000D8F800009D4B07930BF006FF9C49DFF840
:10427000C4920968DFF8C0B2DFF8C0A20BF050FFAB
:104280004FF06E510BF04CFF0CF010F9079B954965
:1042900018600868D9F8003093491B1A23EAE373C1
:1042A00081FB03211944D817C0EBE12007930BF0E1
:1042B0007BFA09F00DFF0BF08DFD079B8B49CBF8C6
:1042C000000001FB00338A49079381FB0321194455
:1042D000D817C0EB61100BF067FA09F0F9FE0BF08C
:1042E00079FD079B0246A0EB00118248CAF8002026
:1042F00003EB8103036010217F4808F051F8DBF8DD
:1043000000106A4808F070FDDAF80010674808F0FD
:104310006BFD784B6548196808F066FD634808F046
:1043200013FD0821754808F03BF8D8F800105F48E5
:1043300008F05AFD5D4808F007FD0821704808F0B4
:104340002FF8D9F80010594808F04EFD574808F0EA
:10435000FBFC0E216B4808F023F82868FDF796FC5B
:104360000C21694808F01CF83068FDF78FFC3368B1
:104370002A686648C2EB0308152108F011F8414687
:104380004A4808F031FD494808F0DEFC4FF00A09C0
:10439000FDF750F906F05EFD0C225D4928605D488E
:1043A00008F0BEFC5B4808F0CFFC31680E20FDF73A
:1043B00079F929681920FDF775F9564805F08AFF43
:1043C0004FF47A7006F09AFDB9F10109E0D1B8F125
:1043D0003C0F22DDAE214F4805F0E2FD0021152003
:1043E00006F050FD0121112006F04CFD002211467F
:1043F0001423494804F0F0FE0A2006F07FFD002156
:10440000112006F03FFD454804F0CCFC06F022FDEB
:10441000336828601B1A3C2BDCDC3E48012506F083
:10442000D7F864213E4884F8295008F0BDF8FEF71B
:1044300089FD2946152006F025FD3B680BB1FCF7E8
:1044400009FF3849384B00204FF0FF3208601A60EE
:1044500009B0BDE8F08F062006F028FD00210620F7
:1044600006F010FD0620002106F020FD4FF4FA7042
:1044700006F044FD062006F00BFD01210028EAD1DC
:10448000B0E61221294807F08BFF032506F0E2FC75
:10449000FDF7FCFB4FF47A7006F030FD013DF5D1DD
:1044A0007DE600BF48F1FF1F447F0100B4F9FF1F04
:1044B000590700006C040020600E002078040020E2
:1044C0005C040020280D0020BC1C0020C40E00202D
:1044D00034F1FF1F8C0F0020880F0020C81C002023
:1044E00060F1FF1F18F1FF1FC5B3A291F0F1FFFFAC
:1044F00089888888B81C0020907F0100A47F010073
:10450000B07F0100BC7F0100CC7F0100DC7F010097
:10451000F47F0100D00C0020840E0020000D00204C
:104520000082FF1F40150020D40F00207C7F010077
:1045300074F1FF1F7C1C002060040020B00B0020E1
:10454000074E084D084C094809490A4F002201232B
:1045500032702A70227003700B703B608FE500BFD1
:1045600028F1FF1F0CF1FF1F30F1FF1F20F1FF1F8B
:10457000FC0C0020C80C00202DE9F04FCDB006F057
:1045800069FCDFF8DCA29C4CCAF8000004F066FF6E
:104590002368DFF8D0B2984200F02B819BF80030FE
:1045A00033B10A21954807F0FBFE954808F0CCFB93
:1045B000DAF80000934D944E04F050FF2060DAF8D2
:1045C000000004F059FF91492368024690480CF01E
:1045D00051FF8F498F482E6001F090FFDFF868820D
:1045E000DAF8000098F80030002B40F0E68004F084
:1045F00027FF0446DAF8000004F0F8FE8146DAF8F6
:10460000000004F001FF0746DAF8000004F00AFF9A
:10461000CDF800900290019723467D4A7E497F485D
:104620000CF028FF2E60FCF78BFD162343907C4A8C
:10463000784944A801F0EEFE44A801F095FD002859
:1046400040F09F819BF80030002B40F0F981754BC2
:10465000754A1A604CAF44A801F064FD32236F4ADA
:104660006C49724D44A801F0D5FE17F8141D9DF851
:104670001421469B2A71AB6029733A4605F10D035C
:1046800005F11A0412F8011F03F8011BA342674940
:10469000F8D14B9BCB6144A801F044FD9BF800305E
:1046A0005BB35E480CF0ACFF01465C4807F078FE57
:1046B000534808F049FB0A215D4807F071FE5D4B45
:1046C00018680BF083F8022602460B4600964C4809
:1046D00008F092FB4A4808F037FB43980BF076F855
:1046E000009602460B46464808F086FB01215248D8
:1046F00007F056FE424808F027FB4C484F4EDFF8C3
:104700002C9101F031FD002835D1326898F8003045
:1047100001323260002B4BD1494940480CF0AAFECF
:1047200032233E4A3B4944A801F074FE9DF81C2107
:104730009DF814014699434B2A732871A9603A46A3
:1047400012F8011F03F8011BA342F9D14B9BC9F8D2
:104750001C3044A801F0E6FC30480CF051FF014643
:104760002E4807F01DFE264808F0EEFA2F4801F00B
:10477000FBFC0028C9D098F80040334D002C73D0C2
:10478000324D439B6B61012C00F0A6809BF80030FA
:104790005BB109212E4807F003FE2E4B184819681B
:1047A00008F022FB164808F0CFFA4DB0BDE8F08FB4
:1047B00029491A480CF05EFEB2E704F041FE0446B7
:1047C000DAF8000004F012FE8146DAF8000004F086
:1047D0001BFE0746DAF8000004F024FECDF8009036
:1047E0000290019723460A4A1C490C480CF042FEED
:1047F00018E7044D044EF1E6D40F002004800100B8
:10480000B4F9FF1F942200205D0700001080010012
:10481000B40C0020382200201C800100300400204D
:10482000847D01000CED00E00400FA05981C0020D6
:10483000A8800100C41C0020B4800100BC0F00202F
:10484000B8800100A51C002030F1FF1F6C0E002075
:1048500014810100C81C0020C480010034800100C4
:104860006C04002048F1FF1FB249B34CB34AB44B6B
:10487000B44E03C9206092E80300A06093E80300EF
:104880003768E06001231026A382E3822661384660
:104890000BF032FE3946A06138460BF039FB0BF0C5
:1048A0002BFEA94AA94BE06192E803001B686062F5
:1048B0005B0202206684208403F1240621462C2218
:1048C000A348A362666001F0A5FB2C78A14D439B31
:1048D0006B61012C7FF45AAFDAF8000004F0A2FDFE
:1048E0002872DAF8000004F08FFD6872DAF8000030
:1048F00004F07CFDA872DAF8000004F0A1FDE87273
:10490000DAF8000004F0AAFD2873DAF8000004F0D9
:10491000B3FD00262882294618228D486E8201F0B8
:1049200079FB884B8C491B684093FC220225684622
:104930003F9505F06FFE4FF480733246304687494D
:10494000FDF7DAFF864B1B78002B40F0DF80854BAC
:104950001B78002B40F0C580834B1B78002B40F068
:10496000A9800025002381494093FC2268463F9599
:1049700005F050FE2B462A4620467D49FDF7BCFF38
:1049800004E77C487C4C0CF03BFE7A49024644A884
:1049900001F040FB2C2144A801F024FB04F10805A0
:1049A00014F8011F00230A2244A808F0DDF9A542EB
:1049B000F6D12C2144A801F015FB704B18680AF0C1
:1049C00005FF022402460B46009444A808F014FA9E
:1049D0002C2144A801F006FB43980AF0F7FE00944E
:1049E00002460B4644A808F007FA2C2144A801F01F
:1049F000F9FA634B44A8196808F0F6F944A808F0DE
:104A0000A3F9604A604B106819680BF045FD4FF040
:104A10000105E0B15D4943980BF020FD4FF0010323
:104A200098B15B4C2B432268DBB2134229D1594920
:104A300043980BF013FD60B944A801F087FB09E629
:104A40000E21554807F0ACFC01E60346E9E70546B0
:104A5000E0E72822514944A801F0DCFA44A808F014
:104A600073F944A801F072FB03E047F2305006F0FE
:104A700045FAFCF765FB47490BF0F0FC0028F4D140
:104A8000DAE7FCF739FCFCF75DFC9BF8003000220C
:104A9000226033B10F21424807F082FC414808F000
:104AA00053F90E22404944A801F0B4FA44A808F092
:104AB0004BF9BCE73D4B3E4A1B6812683D494092AA
:104AC00003EBD3735D10FC22022368463F9305F08D
:104AD000A1FD20462B4600223749FDF70DFF01348A
:104AE0003FE7364A364B15781B6836494093FC221F
:104AF00002236D0868463F9305F08CFD20462B4647
:104B000000223149FDF7F8FE013425E72F4A2C4BEE
:104B100017781B6840932E490523FC2268463F9373
:104B200005F078FD3B46324620462A492C46FDF7E3
:104B3000E3FE0CE7D0800100500F0020D880010078
:104B4000E080010060F1FF1FE8800100C81C002028
:104B5000981C00206C0E0020D41C0020F080010066
:104B6000680400200CF1FF1F28F1FF1FC420002063
:104B70001081010030040020831C00204C04002020
:104B8000900F0020C41C00201CF1FF1FD7A3704011
:104B9000C80C002000004040988001006C8001009B
:104BA0004C800100B4F9FF1F5C80010064F1FF1F1D
:104BB00050F1FF1FC81F00200881010040F1FF1FB6
:104BC00044F1FF1FCC1E0020008101006CF1FF1F8B
:104BD000D01D0020F880010010B50E211D4807F0FF
:104BE000DFFB1D4808F0B0F8FFF7C6FC1B4B1B7835
:104BF000A3B11B4A1B4B126893FBF2F2002A03DBA2
:104C0000194B511E99421CD9184B1968FF221A7171
:104C100021B1174B17480B441B111A54164C174B54
:104C2000204600221A6001F045F801230B211448A8
:104C300084F8F63007F0B4FB0748BDE8104008F0F0
:104C400083B802EB42021201013A0E49074807F00D
:104C5000D3FFD9E720810100B4F9FF1F30F1FF1F16
:104C600058F1FF1F40420F00575555057C0F00209B
:104C7000008FFCBF44E400E0BC0B00205404002083
:104C800030810100AD3400002DE9F84FA54E337896
:104C9000002B00F0CC80A44DDFF8A48206F0DAF8F7
:104CA000A24BC8F800001B68834203DCA04B1B68C2
:104CB000002B27DC2F6807BB9E4B1B68002B68D19D
:104CC0009D4C9E4A23681178D8F800209C4F181FED
:104CD0009042CCBF002101F0010141B1994909681E
:104CE000012904D198490968002940F013819A42AA
:104CF0005CDA642006F002F92F68012F00F0A6802C
:104D0000BDE8F88F0121052006F0BCF8012108203C
:104D100006F0B8F80021112006F0B4F88B4B012200
:104D20001A60FCF70DFA8A490BF098FB0028C1D0F5
:104D30002B68012B00F04A83834B1B68002B40F04B
:104D40003F83844801F002FAFEF788F8002115201D
:104D500006F098F80021102006F094F80023194678
:104D600002227D4804F038FA7C4804F01BF80A243B
:104D70000121112006F086F8C82006F0BFF80021B6
:104D8000112006F07FF8642006F0B8F8013CE5D069
:104D9000EEE7FCF74FFCFCF7D7FCD8F80010192021
:104DA000FCF780FC6E4805F095FA89E70D216D4807
:104DB0006D4F07F0F5FA6D4807F0C6FFFCF73AFCB7
:104DC000674805F087FA3B68002B00F0F182684BDA
:104DD000684A694920681B6812680968674F03447C
:104DE0001A44012922603B6000F0DF820E216448F2
:104DF00007F0D6FA06F02EF8FCF748FF0B216148C1
:104E000007F0CEFA3868FCF741FF0B215E4807F047
:104E1000C7FA2068FCF73AFFFDF768FFAE2150485B
:104E200005F0BEF801232B60FFF7D6FE61E70620F0
:104E300006F02EF83C4D00283FF42EAF2B68012BD6
:104E400000F0B082514B524A1A6025E7FDF70CFD85
:104E5000142006F01DF8002800F053824D4C2378F2
:104E6000012B00F027822378022B00F0C5814A4CE9
:104E70002378012B00F0A7812378022B00F0888192
:104E8000464C2378012B00F06B812378022B00F035
:104E90004E81434B1B68002B01DDFDF7F1F8414CBF
:104EA000414B22681B689A42FFF62AAF304B3F4FB6
:104EB00018680BF0E1F83E490BF0E6F939680BF0A1
:104EC00027F84FF07E5138600BF0E6FA10B1394BFD
:104ED00000221A70274B1B68002B71D1337883B1E5
:104EE00035492248FBF772FC344B20481988FBF700
:104EF0007BFC23491D48FBF769FCD8F80000FCF750
:104F0000C5FE144801F022F9FFF736FB00232360A9
:104F1000BDE8F88FFCF7C6F93A6823689A42FFF6B5
:104F2000E8AE43E748F1FF1F401500205C04002075
:104F3000600E00202CF1FF1FC40E0020D80F0020AF
:104F40006C04002068F1FF1FC80C0020900F0020A7
:104F500066666640981C0020840E0020000D00202C
:104F6000D00C00203C810100CC0C0020B4F9FF1FC4
:104F700074F1FF1F7C1C00208C0F0020880F002084
:104F8000BC7F01004C810100588101000CED00E064
:104F90000400FA05D40E0020580E0020961C0020B4
:104FA0008C1C002054040020C81C0020C41C0020BD
:104FB00000006145F8F0FF1F607B0100D82600204B
:104FC0009E4FFBF783FD3B6823B1FCF795F9642006
:104FD00005F094FF9A4BDFF8CC821C68DFF8C8928A
:104FE000DFF8C8B205F036FF964A974B1268201AD0
:104FF000841A24EAE47483FB04232344E017C0EBFF
:10500000E3200AF0D1FB09F063F80AF0E3FE8F4ACF
:105010008F4BC8F8000002FB004483FB04232344A9
:105020008246E017C0EB63100AF0BEFB09F050F8AF
:105030000AF0D0FE03011A1AC31A04EB830492008B
:105040004FF4616303FB0A2AC9F800405444092C59
:10505000CBF800000DDC7F4B1B6833B17E4C204643
:1050600005F0B6FA012384F8293000232B60BDE84F
:10507000F88F7A4C0021152005F004FF237813B136
:105080000020FEF7F7F8DFF828A29AF8003023B1E5
:10509000002210463F21FEF725F8FDF7DFFE3B68B2
:1050A0000BB1FCF74FF93378B3B105F0D3FEFCF741
:1050B000EDFD6B496B48FBF789FBD8F80010694898
:1050C00007F092FEDBF80010664807F08DFED9F875
:1050D00000106448FBF788FB642005F00FFF99F887
:1050E00000309BF8002098F800105F4804F074F836
:1050F0005E4803F057FE33781BB105F0ABFEFCF7BA
:10510000C5FD0121152005F0BDFEFDF7B3FE3B688E
:105110000BB1FCF79FF89AF800300BB1FEF70AF8D4
:105120002378002B97D00120FEF7A4F893E71022F4
:105130004F49504800F06EFF013002D14E4B4F4AAC
:105140001A604F4B4F491A784A48114400F062FFE9
:10515000013002D1484B494A1A600023237098E677
:1051600010224349434800F055FF013002D1424B21
:10517000424A1A60424B43491A783E4800F04AFFBF
:10518000013002D13C4B3D4A1A60002323707CE67B
:1051900010223D49374800F03DFF013002D1364B27
:1051A000364A1A60394B3A491B7832489A0001EB6B
:1051B000830100F02FFF013002D12F4B2F4A1A60DC
:1051C000002323705CE610222F492A4800F022FFBA
:1051D000013002D1284B294A1A602C4B2C491A78ED
:1051E0002448920000F016FF013002D1224B234ADE
:1051F0001A60002323703FE6102226491D4800F064
:1052000009FF013002D11C4B1C4A1A60224B234972
:105210001A681848114400F0FDFE013002D1164B07
:10522000164A1A6000211E4B21701B78002B3FF498
:105230001EAE112005F026FE19E600BFC80C0020A6
:10524000C40E002018F1FF1FC5B3A291F0F1FFFFBB
:10525000898888882CF1FF1FD00C002028F1FF1FBF
:10526000907F0100B4F9FF1F840E0020000D002084
:10527000180F0020981C00200CED00E00400FA0537
:1052800040F1FF1FDC0D0020080F00206CF1FF1F14
:105290003C0D0020280F002064F1FF1F8404002033
:1052A00000F1FF1F60040020B81C0020B00B00209C
:1052B0000CF1FF1F10224749474800F0ABFE0130B8
:1052C00002D1464B464A1A60464B47491A68424843
:1052D00000F0A0FE013002D1404B414A1A6000218B
:1052E000424B434A21701B781278DBB2002A3FF40C
:1052F000BAAD002B3FF4B7AD0121112005F0C2FD7E
:10530000B1E50A2005F0FAFD142005F0C1FD0028E2
:105310007FF4A4ADDFF8EC90FBF7D8FB3946112001
:1053200005F0B0FDD9F80030EBB1324C204605F065
:105330004FF94FF47A7084F8297005F0DFFDFCF71F
:1053400079F907222C49204607F0EAFC204607F0AD
:10535000FBFC204607F0F8FC20462849FBF736FA0C
:10536000204604F0B7FF4EF2902005F0C7FDD9F8B3
:10537000003083B1FCF75EF921491E48FBF726FA9D
:105380001C4804F0A7FF4FF4FA6005F0B7FDAE210A
:10539000184804F005FEFFF7EFF80021112005F092
:1053A00071FD5BE5FBF792FB4CE5FCF7B5FC1DE5F9
:1053B0000A210E20FDF728FD4FF0FF333B6006E584
:1053C000FBF79AFF642005F099FDBAE4FBF77EFB3A
:1053D000B2E400BF280F0020981C00200CED00E074
:1053E0000400FA0564F1FF1F8404002000F1FF1F90
:1053F000F8F0FF1FD00C0020648101006C810100D7
:10540000808101002CF1FF1FF8B50021054607F04F
:1054100093F9002855D0D5F81C710646002F4ED0C0
:1054200005F58E743B1D224605F5907107F58277D0
:1054300033F8020B42F8040F9F42F9D1331D05F5F2
:10544000477206F5827733F8020B42F8040FBB422D
:10545000F9D1D5F8180180B105F5927200F5007EFA
:1054600032F9043C30F9027B03FB07F3DB1386457A
:1054700022F8043C02F10402F2D105F5E56008F0DF
:1054800041FB95F82177EFB905F21C5C95F82027D0
:10549000E64605F21C7154F8043F23FB03F3B3FB0B
:1054A000F2F34EF8043F7145F5D17B1CDBB2934219
:1054B00020D085F82137D5F81C0107F0F9F8C5F898
:1054C0001C61F8BD05F21C5C95F82027E64605F244
:1054D0001C7154F8043F23FB03F35EF8040FB3FB85
:1054E000F2F371450344CEF80030F2D17B1CDBB2FD
:1054F0009342DED10023DFF83CE085F82137604697
:1055000005F1160750F8044FB4FA84F381423EF8CF
:105510001320B4FBF2F31A444FEA5203B4FBF3F442
:1055200023444FEA530327F8023FEBD1012385F8C8
:105530002237C0E7CC83010000207047002070476D
:1055400070B5194C064682B00D462046317A02F0FD
:10555000D5FDC5F30721204602F0DCFAE9B220466A
:1055600002F0D8FA0023627B21690093204603F001
:1055700051F810B1002002B070BD2569327A617B0C
:105580000190012300932846022303F06BF80128C1
:10559000F0D9206903F080F80502206903F07CF857
:1055A000284302B070BD00BFB824002070B5154C70
:1055B000242908BFC28082B00D46017A20461646D3
:1055C00002F09CFDC5F30721204602F0A3FAE9B2E0
:1055D000204602F09FFAC6F30721204602F09AFA0D
:1055E000F1B2204602F096FA00230093627B216913
:1055F0002046012303F00EF8B0FA80F0400902B013
:1056000070BD00BFB82400202DE9F0413E4B0126BB
:1056100006715F7BD3F8108086B00446384602F0EE
:1056200073FB0025394B019039462A4640460393C7
:1056300004962B460295009502F07AFC052005F0B1
:105640005DFC204644F260023021FFF7AFFF2046A8
:105650006C222621FFF7AAFF20464FF4F972282179
:10566000FFF7A4FF204640F622722C21FFF79EFF91
:10567000204644F246423C21FFF798FF204640F284
:1056800037122421FFF792FF204644F2FF02302117
:10569000FFF78CFF732202212046FFF787FF4FF4AC
:1056A000C87005F02BFC204641F61D522E21FFF755
:1056B0007DFF042211462046FFF778FF20464FF475
:1056C00098720621FFF772FF204610220A21FFF789
:1056D0006DFF2A4620460E21FFF768FF204643F65D
:1056E0003C421021FFF762FF204647F67F722221DD
:1056F000FFF75CFF204636222421FFF757FF304694
:10570000667206B0BDE8F081B8240020A0860100D2
:10571000F8B51C46154606460F46FFF711FF20EA6E
:10572000040040EA0504394630462246FFF73EFFB2
:10573000002814BF20460020F8BD00BF08B5002295
:1057400001234FF49271FFF7E3FF80B208BD00BF61
:105750000F2928BF0F210F2A28BF0F2242EA01126A
:105760002021FFF723BF00BF10B510220A210446F5
:10577000FFF71CFF30B1204600224FF48071FFF785
:1057800015FF80B210BD00BF10B5044619B1012944
:1057900011D0002010BD55222021FFF707FF00285F
:1057A000F7D0E28842F00402204692B22421BDE8FC
:1057B0001040FFF7FBBE40F273122A21FFF7F6FEFE
:1057C0000028E6D0882220212046FFF7EFFE00289F
:1057D000DFD0E288204622F004022421BDE81040F8
:1057E000FFF7E4BE38B50546F1B1802903799ABFC9
:1057F000C1F1800444EA0424002433B92246284637
:105800002221BDE83840FFF7D1BEC288002322F034
:10581000100203712421FFF7C9FE224628462221E7
:10582000BDE83840FFF7C2BE0123037147F67F721F
:105830002221FFF7BBFEEA8842F01002284692B20E
:105840002421BDE83840FFF7B1BE00BF0B4610B5BC
:105850000749044618460AF063FC06490AF058FB5B
:105860000AF04AFE01462046BDE81040FFF7BABFE5
:1058700000000143EE7CFF3E10B5044607F03EF801
:10588000204610BD024A034903480AF0C9BF00BFC1
:10589000FCEFFF1F79580000E42100201B4A1C4B3D
:1058A00011681C48096970B499421279027009D2D2
:1058B000194A127832B3194A4FF08041116003F54A
:1058C000807402E01C46A3F58073154A15491268DE
:1058D0000D68AAB1A5B1144E3088402810D84100F7
:1058E0000A444030294402320231308033F9040B3B
:1058F00022F8020F9C4233F9020C21F8020FF5D86E
:1059000070BC704703F58074DFE700BFF42100200E
:1059100090E8FF1F1F800040EE21002008E200E019
:10592000FC210020F0210020EC210020F8B50646E3
:1059300006F06AFE0446E8B106F066FE0546002859
:105940003AD072B61F4B1A887F2A19D8002C31D052
:105950001D490A6842B162B6204606F0A9FE2846F3
:10596000BDE8F84006F0A4BE18480C601A80056037
:1059700062B6F8BD054672B6124B1A887F2AE5D981
:10598000114A12491768146000220C681A800D60D1
:1059900062B63946304606F0B5FE384606F088FE57
:1059A00030462146012206F0ADFE2046BDE8F84013
:1059B00006F07EBE62B6F8BD204606F079FE2C46A3
:1059C000BFE700BFEC210020FC210020F0210020D7
:1059D000F8B5284C284E2046012106F02BFF00F098
:1059E00083F8264B264A27484FF4806119602368C4
:1059F00000211A6099802279186102F1804202F533
:105A0000043240F20110D8809E614FF4807502206C
:105A100006278E26DD82D960DD8398609F83988279
:105A20001170167006F0ACFE1749184B2279184F0A
:105A300008701A7039682279164C174D174E41F0CC
:105A4000124141F00101531139609B00206803F1BC
:105A5000604302F1100703F5614302F01F020121C8
:105A600040F0104001FA02F2206045F827601A6009
:105A7000F8BD00BFF421002000FEFFFF14B0044079
:105A8000A0F0024090E7FF1FEE2100201B800040A5
:105A900080F0024000F0024000EAFF1F9D58000025
:105AA000024A034903480AF0BBBE00BFFCEFFF1FD8
:105AB00079580000F4210020024A034903480AF003
:105AC000AFBE00BFFCEFFF1F79580000002200208E
:105AD000024A034903480AF0A3BE00BFFCEFFF1FC0
