:1000000000800020BD01000051ED000009ED00005E
:1000100009ED000009ED000009ED000009ED000008
:1000200009ED000009ED000009ED000051ED0000B0
:1000300051ED000009ED0000491001009912010086
:1000400051ED000051ED000051ED000051ED0000B8
:1000500051ED000051ED000051ED000051ED0000A8
:1000600051ED000051ED000051ED000051ED000098
:1000700051ED000051ED000051ED000051ED000088
:1000800051ED000051ED000051ED000051ED000078
:1000900051ED000051ED000051ED000051ED000068
:1000A000F1A50000A1AB000051ED000051ED0000F2
:1000B00051ED000051ED000051ED000051ED000048
:1000C00051ED000051ED000051ED000051ED000038
:1000D00051ED000051ED000051ED000051ED000028
:1000E00051ED000051ED000051ED000051ED000018
:1000F00051ED000081F9000051ED0000351B0100B9
:1001000051ED0000611C010051ED000051ED0000B7
:1001100051ED000051ED000051ED000051ED0000E7
:1001200051ED000051ED000051ED000051ED0000D7
:1001300051ED000051ED000051ED0000F1E600002E
:1001400051ED000051ED000051ED000051ED0000B7
:10015000791401008D140100A1140100B5140100EF
:1001600051ED000041FC000051ED000051ED000098
:1001700051ED000051ED000051ED000051ED000087
:1001800051ED000051ED000051ED000051ED000077
:1001900051ED000051ED000051ED000051ED000067
:1001A00051ED000051ED000051ED000051ED000057
:1001B00051ED000051ED0000D50D0100564B4CF201
:1001C000205210B51A804DF628121A8000BF00BFC9
:1001D00000F01CFB514B4FF010621A60504A9A60BD
:1001E000504ADA60504A136813F4807304D14F49BF
:1001F0000B604FF4A85313604D4B1A78110703D5C9
:100200001A7842F008021A704A4B4B492A221A7097
:100210004A4A4B4B8B4204D252F8040F43F8040B6A
:10022000F8E7484B484900228B4202D243F8042B9E
:10023000FAE74649464A002352F8230041F82300D2
:1002400001336F2BF8D1434B434A802103F8011B44
:100250009342FBD1414B3D4A1A60414B8A221A70AE
:10026000A3F5805324225A70A0221A709A7992071B
:10027000FCD59A79D406FCD43A4A937903F00C035E
:10028000082B384BF9D105221A7143225A719A79F9
:100290009006FCD5334A9179324B4906FBD5324A58
:1002A0004FF0817111600521516020221A709A79F6
:1002B00002F00C020C2AFAD12C4B2D4A1A602D4B5D
:1002C0002D4A1A6000225A60072243F8042C2B4A58
:1002D000C3F80C2D62B60EF05DFE144B1B68DA07F6
:1002E00005D527480EF044FE264B274A1A60274BB7
:1002F0001B785B0609D5234C234B22689A4204D114
:100300001F480EF035FE0023236014F0EBFF0EF0C3
:1003100023FD11F069FBFEE70E200540308004400C
:10032000823F04000100002B10D0034014D0034092
:1003300002D0074000E0074010040020E8D8020087
:1003400020EFFF1F100400209028002000EAFF1F6C
:100350000000000000E400E05FE400E008ED00E0E1
:1003600000500640004006404480044004800440A1
:10037000C010050014E000E03F190100000020203B
:10038000DA149A5C1CE00340A5C3945A00F00740BD
:10039000FFFFFFFFFFFFFFFFFFFFFFFFFFFFFFFF6D
:1003A000FFFFFFFFFFFFFFFFFFFFFFFFFFFFFFFF5D
:1003B000FFFFFFFFFFFFFFFFFFFFFFFFFFFFFFFF4D
:1003C000FFFFFFFFFFFFFFFFFFFFFFFFFFFFFFFF3D
:1003D000FFFFFFFFFFFFFFFFFFFFFFFFFFFFFFFF2D
:1003E000FFFFFFFFFFFFFFFFFFFFFFFFFFFFFFFF1D
:1003F000FFFFFFFFFFFFFFFFFFFFFFFFFFFFFFFF0D
:10040000FFFFFFFFFFFFFFFFFFFFFFFFDEF9FFFF23
:1004100010B5054C237833B9044B13B10448AFF33E
:1004200000800123237010BD100400200000000094
:10043000E4D80200084B10B51BB108490848AFF3D7
:1004400000800848036803B910BD074B002BFBD0A0
:10045000BDE81040184700BF000000001404002051
:10046000E4D80200100400200000000000207047C3
:10047000704700BFF8B55548554D564C297803785C
:100480002278DFF868E1544F544E120442EA032305
:10049000FF222A700270802022708EF800003870CF
:1004A000B2794F480B4312F00C0FC36002D1B379FD
:1004B000DC063DD4494A9379C3F38103032B40D032
:1004C000464B9A79C2F38102022A42D0434A937979
:1004D000C3F38103022B53D0404A9379C3F38103C2
:1004E000022B61D03D4A9379C3F38103012B51D094
:1004F0003A4A9379C3F38103012B5CD0374B9A7945
:1005000012F00C0F03D19A79D20600D49B79354DA5
:10051000354B2A7853F82240D4B1236820469B6893
:1005200098472B7804EB83046468002CF5D1F8BD60
:10053000B3799806EBD5294A9379C3F38103032B4A
:10054000BED19379D906BBD493799B06DFD4B7E7A4
:10055000F8BD9A79D706B9D49A799606B6D559785E
:1005600001F0020101F0FF020029AFD120211A7031
:100570001A461970937903F00C030C2BFAD1C6E7D5
:100580009379DD06A8D493799C06A5D4537898076F
:10059000BDD5A1E79379DF06AAD593799E06A7D4A6
:1005A00053789D07B3D4A3E79379D9069AD45378A7
:1005B0009B07ACD496E79379DC069FD59379980690
:1005C0009CD453789907A2D598E700BF06C007408E
:1005D00005C0074007C0074009C00740004006406B
:1005E0006828002020250020E024002008C00740C3
:1005F00090F92410104B03604B1C06D0F0B40F4E42
:1006000056F82130984201D0F0BC70470C4F57F893
:10061000213033B18D0000245A1953685460002BE7
:10062000FAD1084C23780022013B237047F821209F
:1006300046F82120E8E700BFCCC5010000250020D6
:10064000E02400202125002038B590F924506B1CAF
:100650001BD00E4B0E4953F825400E4BEDB24FF018
:10066000FF320D701A6084B1AD0002E02C44646862
:100670005CB194F82530002BF8D0236820462C4438
:100680001B6898476468002CF3D138BDE024002033
:100690002025002090E9FF1F704700BF024A136821
:1006A00001331360704700BFE40D002090F924105F
:1006B000104B03604B1C06D0F0B40F4E56F821309F
:1006C000984201D0F0BC70470C4F57F8213033B13D
:1006D0008D0000245A1953685460002BFAD1084C3D
:1006E00023780022013B237047F8212046F821207F
:1006F000E8E700BFCCC5010000250020E024002071
:100700002125002090F92410104B03604B1C06D0CB
:10071000F0B40F4E56F82130984201D0F0BC70472B
:100720000C4F57F8213033B18D0000245A1953680B
:100730005460002BFAD1084C23780022013B23702F
:1007400047F8212046F82120E8E700BFCCC501008A
:1007500000250020E02400202125002010B50446BB
:1007600010F068FE204610BD0EF0FCBB2DE9F041F4
:100770000E4680460EF0F6FB174D28600BF0BCFECF
:10078000074628680BF094FE044628680BF07EFEAE
:100790006401C0B204F4FF54BFB20443A7F2BC77B3
:1007A00044EA4724A8F8004028680BF093FE074667
:1007B00028680BF047FE044628680BF055FEFF0240
:1007C000640107F4FF2704F4FF54C0F346003C43E0
:1007D00004433480BDE8F0816C04002010B5044669
:1007E00015F06EFC21460246BDE81040014810F0AD
:1007F0006BBE00BFD40C002010B5044615F060FCA1
:1008000001462046BDE8104010F08CB8404A414BEC
:10081000102010801B781B072CD5F0B53E4E3F4DA5
:100820003F4C31782B7822783E4FDFF810E1824040
:1008300042EA03230B43FF22802132702A70227088
:100840008EF800103970DF07374A0CD51A239360F1
:10085000364D374C3748384900232B70D36023700E
:1008600003700B70F0BD1E0705D4DD0606D504230A
:100870009360EDE7704721239360E9E79C0604D479
:10088000590604D516239360E2E79060E0E71F065F
:1008900002D509239360DBE7DE0502D50A239360C6
:1008A000D6E79D0502D50D239360D1E75C0502D5FF
:1008B0000B239360CCE7180502D51E239360C7E78E
:1008C000D90402D502239360C2E79F0402D507230F
:1008D0009360BDE75E0402D506239360B8E71D046C
:1008E00002D515239360B3E7DC0302D5242393607C
:1008F000AEE7980302D522239360A9E7D90202D577
:1009000025239360A4E79B0244BF232393609FE7C2
:100910000020054002D0074005C0074006C0074040
:1009200007C0074009C007406828002000C00740F2
:1009300001C0074002C0074003C0074008C007408D
:10094000002976D02DE9F04F0C469100631883B052
:100950005D68002D57D06B185E68002E50D073185C
:100960005F68002F49D07B18D3F80480B8F1000FDE
:100970003CD008EB0103D3F80490B9F1000F32D05A
:1009800009EB0103D3F804A0BAF1000F27D00AEB5A
:100990000103D3F804B0BBF1000F18D00BEB010337
:1009A0005B6863B1194401934968FFF7C9FF019B74
:1009B00093F825201AB11A681846536898479BF88F
:1009C000253023B1DBF8003058465B6898479AF829
:1009D000253023B1DAF8003050465B68984799F823
:1009E0002530002B35D198F8253063BB97F825309A
:1009F0001BB13B6838465B68984796F82530CBB901
:100A000095F8253063B994F8253013B903B0BDE8E3
:100A1000F08F23685B68204603B0BDE8F04F1847AD
:100A20002B6828465B68984794F82530002BEDD05A
:100A3000EFE77047336830465B68984795F8253094
:100A4000002BE0D0ECE7D8F8003040465B689847D0
:100A5000CCE7D9F8003048465B689847C3E700BF49
:100A600090F92420531C26D01B4B2DE9F04153F85C
:100A70002240D2B2ECB19300E1184D68B5B1E9184B
:100A80004E6866B1F1184F6837B13B445968FFF7BB
:100A900057FF97F82530A3B996F8253063B995F834
:100AA00025301BB12B6828465B68984794F82530A1
:100AB00063B9BDE8F0817047336830465B6898479A
:100AC000EDE73B6838465B689847E5E723682046D2
:100AD0005B68BDE8F0411847E024002038B50D21DF
:100AE000154C16480FF01EFF154810F07BFD2588A9
:100AF000144810210FF016FF2946114810F0F8FC99
:100B00000F4810F06FFD00230F4A1946112082F89C
:100B1000F6300EF037FB0D4B0D4A1B781288228001
:100B200013B10C4810F086FC0B4807F005F964205F
:100B3000BDE838400EF0B8BBEC26002010C601001E
:100B4000B0F9FF1F20C60100C00B002030F1FF1FCD
:100B500014270020880F0020A81C00209B4B93E83E
:100B6000030070B59A4C9B4D0123238184E8030058
:100B70000822994904F10C0015F060FB08229749FE
:100B800004F1140015F05AFB0822954904F11C00E9
:100B900015F054FB0822934904F1240015F04EFB94
:100BA0000822914904F16C0015F048FB08228E4997
:100BB00004F1740015F042FB08228B4904F17C001B
:100BC00015F03CFB0822884904F1840015F036FB3F
:100BD000864A874B1068196813F0EAFE854BC4F803
:100BE000CC001B78C4F8D000012B0CBF824983498C
:100BF000C4F8D400C4F8D800082204F1FC0015F0B1
:100C00001DFB7F4B93E8030004F5847383E8030026
:100C10000223A4F8043108227A4904F5887015F0FB
:100C20000DFB0822784904F5B47015F007FB774AEC
:100C30004FF07E5392E80300C4F8CC31C4F8C831B9
:100C4000734B04F5B87282E8030093E803000323B2
:100C500085E803000822A4F800326E4905F10C0073
:100C600015F0ECFA08226C4905F1140015F0E6FACB
:100C700008226A4905F11C0015F0E0FA684B694941
:100C8000C4F8C41293E80300674A05F16C0686E8CD
:100C9000030005F17C0305F1740686E8030083E890
:100CA000030092E8030005F1FC0383E803005F4BB7
:100CB000C4F8C8325E4E5F49C4F8CC620923A4F878
:100CC000FC32082205F5847015F0B8FA08225A495A
:100CD00005F5887015F0B2FA0822584905F58C70B0
:100CE00015F0ACFA0822564905F5907015F0A6FAF1
:100CF0000822544905F5947015F0A0FA08225249CB
:100D000005F5987015F09AFA0822504905F59C707F
:100D100015F094FA08224E4905F5A07015F08EFAE8
:100D200008224C4905F5A47015F088FA08224A49B2
:100D300005F5B47015F082FA0822474905F5B87038
:100D400015F07CFA0822444905F5BC7015F076FAD6
:100D5000424B93E8030005F5C07282E8030005F5F5
:100D6000C87305F5C47282E8030083E80300082213
:100D70003B4905F5CC7015F061FA0822384905F5B4
:100D8000D07015F05BFA0822354905F5D47015F0DE
:100D900055FA344B186813F0BFFE4FF0605113F052
:100DA0000FFF314A314BC4F8C003C4F8C403C4F880
:100DB000C803C4F8CC23C4F8D023C4F8D423C4F89F
:100DC000D833C4F8DC33C4F8E03370BD34C6010056
:100DD000E81C0020E01E002040C6010048C60100BB
:100DE00050C6010058C6010060C601004C04002036
:100DF00050F1FF1F6804002064C6010094C6010082
:100E00006CC6010078C6010080C6010088C60100DA
:100E10009CC60100A8C60100ACC60100B4C6010012
:100E2000BCC601000000A03914C7010000009039C1
:100E30000000F039C8C60100D0C60100D8C60100C4
:100E4000E0C60100E8C60100F0C60100F8C60100D6
:100E500000C7010008C701001CC601001CC7010033
:100E600010C70100F0F0FF1F0000FA3C0000163E22
:100E700010B5294C29482278114605F05FFE2368F9
:100E80000F2B0CD8DFE803F00C1014181C202428BA
:100E90002C3034383C404408214B224A1A6010BDA3
:100EA0001F4B214A1A6010BD1D4B204A1A6010BD0D
:100EB0001B4B1F4A1A6010BD194B1E4A1A6010BD09
:100EC000174B1D4A1A6010BD154B1C4A1A6010BD05
:100ED000134B1B4A1A6010BD114B1A4A1A6010BD01
:100EE0000F4B194A1A6010BD0D4B184A1A6010BDFD
:100EF0000B4B174A1A6010BD094B164A1A6010BDF9
:100F0000074B154A1A6010BD054B144A1A6010BDF4
:100F1000034B134A1A6010BD38F1FF1FD40F002095
:100F20004C040020BD549341103377C0993918C048
:100F3000BE0D68BFCE71153F8D090340CCC962401C
:100F400009A7A3407DDBD140C416014154FC1741E1
:100F5000D0E83041195546419FAB5F41A0417641F1
:100F60005E2E86412DE9F041244C254E94F800E098
:100F70006578A778E27894F804C06379A079E1797C
:100F800041EA002045EA0E2143EA0C2331801D4D41
:100F90001D491E4E42EA07225B422A800B8000B2A6
:100FA00013F0BAFD227A637A94F80AC0E57A94F8CD
:100FB0000C80677B306043EA0223154A94F80EE008
:100FC0001380E17B47EA0820277C627CA67CE37CD7
:100FD00042EA072245EA0C240E4F0F4D40422C8076
:100FE00038800E4D0E4C0F48228041EA0E2143EA14
:100FF000062329800380BDE8F08100BFDC210020AA
:10100000901C0020921C0020900B0020740E0020E9
:1010100080040020DA2100208204002072040020D5
:10102000700400207404002010B5114C21680129BF
:1010300015D0022903D00F4B01221A7010BD0121D7
:1010400004200EF09FF84FF4FA600EF02DF9002105
:1010500004200EF097F8074B01221A7010BD0420EF
:101060000EF090F840F6B8300EF01EF92168E0E777
:10107000C80C0020E80F0020124B10B51C68012C92
:101080000FD0012104200EF07DF84FF4FA700EF01D
:101090000BF9002104200EF075F80B4B01221A7099
:1010A00010BD002104200EF06DF84FF47A700EF0A0
:1010B000FBF8214604200EF065F8034B01221A705C
:1010C00010BD00BFC80C0020E80F0020114B10B568
:1010D0001C68012C0CD0012104200EF053F8642070
:1010E0000EF0E2F800210420BDE810400EF04AB8EE
:1010F000002104200EF046F84FF4C8700EF0D4F82A
:10110000214604200EF03EF841F27070BDE8104018
:101110000EF0CAB8C80C002008B5104B1B68012B94
:101120000FD0012104200EF02DF840F6B8300EF05B
:10113000BBF8002104200EF025F8094B00221A709C
:1011400008BD4FF47A700EF0AFF8002104200EF0C5
:1011500019F8034B00221A7008BD00BFC80C00200C
:10116000E80F00202DE9F041454B464C59781F7897
:10117000627898782378A678434D0902120241EAF2
:10118000074142EA034308431E4313F0C1FC3F4BAF
:101190000446188813F0BCFC4FF0874113F010FD93
:1011A0000146204613F002FC394B0446188813F020
:1011B000AFFC214613F004FD4FF0505113F000FD39
:1011C000344913F0F5FB344913F0AEFD334B28607E
:1011D0000746188813F09CFC214613F0F1FC4FF0F1
:1011E0006E5113F0EDFC2E4B8046188813F090FCE6
:1011F0004FF08E4113F0E4FC0146404613F0D8FB5B
:101200008046304613F084FC0146404613F0D8FC7B
:101210004FF0545113F0D4FC224B0646188813F0BB
:1012200077FC214613F0CCFC4FF0705113F0C8FC52
:101230001D4B0446188813F06BFC4FF08F4113F0E0
:10124000BFFC0146204613F0B3FB0146304613F0C5
:10125000ADFB4FF0645113F0B3FC144913F064FD7F
:10126000134B144A18601868116813F09FFB124959
:1012700013F05AFD114B18602F60BDE8F08100BFDC
:10128000540F0020E00D0020E01C0020840400200A
:10129000020F00200000FA440000C842A41C0020F5
:1012A000580F0020F4210020A01C00200000204145
:1012B000640400206C0E002006C1DE42DC0E00201B
:1012C00030B5334B334D1A78697B286985B00123DB
:1012D00000248DE8180005230AF052FC2B69D3F88E
:1012E0003821D3F8341191420ED002AC18460AF0DE
:1012F000DFFC2B69D3F83811D3F8342120EAE070F1
:10130000914204F8010BF1D19DF80A209DF80900E3
:10131000214B42EA00201C6813F0FEFB4FF08D4188
:1013200013F044FB1D4B05462146186813F03EFBA5
:101330000146284613F044FC4FF0605113F040FC86
:10134000214613F035FB164913F03AFC154B19688A
:10135000044613F02BFB144913F0E6FC9DF80C3007
:10136000124A01469DF80B00116043EA002000116B
:10137000183813F0D1FB0E4913F022FC0D4913F07D
:1013800015FB0D4A0D4B10601C6005B030BD00BF51
:1013900024F1FF1FCC240020680E002068F1FF1FFD
:1013A00000007A446C0E002006C1DE42DC0E0020F4
:1013B000CDCC4C3D00004842E01C002064040020DD
:1013C00070B58CB0044614F07BFE00B2012829DD14
:1013D000B4F9003044F65212934200F0D48124DC78
:1013E00044F25242934200F0D7813FDD44F2417211
:1013F000934200F0BF816EDD44F64412934200F048
:101400005C8144F65012934200F0F18044F2537232
:10141000934207D109AAE01CB04914F0A1FDB04BDA
:10142000099A1A6001200CB070BD45F24B0293423C
:1014300000F0BB8134DD45F24432934200F041813B
:1014400040F3B88045F25042934200F02B8145F2C0
:101450004272934200F0F18045F24C329342E1D166
:10146000A049A14A01230B701370DBE744F24C4200
:10147000934200F07B8140DC44F25012934200F032
:10148000C98044F248329342CCD1E01C09AA934966
:10149000964C14F065FD099813F03EFB2060C1E7FF
:1014A00044F64952934200F0518138DC44F64242FE
:1014B000934200F0BA8044F642529342B2D109AA54
:1014C0008649E01C14F04CFD894A0999894B11604A
:1014D00002221A60A6E744F25342934200F0A98028
:1014E00044F2506293429DD109AAE01C7B4914F05A
:1014F00037FD814B099A1A6094E744F24E429342B9
:1015000000F0848044F2504293428BD109AAE01C3F
:10151000724914F025FD794B099A1A6082E744F666
:10152000505293425AD044F6545293427FF47AAFC9
:1015300009AD08A907AA04AB039502910192009393
:1015400006AA05ABE01C6E4914F00AFD0CA8099B25
:1015500000F8083D069B059A0499079D089C8DF8A4
:101560002D2003F61E038DF82E308DF82C108DF8EB
:101570002A508DF829400AF0D3FF0DF0F9FC112113
:1015800060480FF0CFF90BF0B5F801465E480FF058
:10159000AFFF5D4810F026F81B215C480FF0C2F940
:1015A0000DF0E0FC014658480FF0A2FF564810F03D
:1015B00019F837E745F24D02934221D045F2502207
:1015C00093427FF42FAFE01C09AA4449504C14F019
:1015D000C7FC099813F0A0FA206023E709AAE01CD1
:1015E0003E4914F0BDFC4B4B099A1A601AE709AA50
:1015F000E01C3A4914F0B4FC474B099A1A6011E711
:101600004649394A01230B7013700BE7444B012202
:101610001A6007E7E01C09AA3049424C14F0A0FC0C
:10162000099813F079FA2060FCE63F4B01221A700A
:101630007EE73E4B01221A60F4E609AD08A907AA2D
:1016400004AB039502910192009306AA05ABE01C3E
:101650002B49374C14F084FC069B09980499059A91
:10166000089E079D8DF828001E330AA88DF82E309D
:101670008DF82C108DF82D208DF829608DF82A50CA
:101680000AF04EFF1B4B206001220A2129481A60F4
:101690000FF048F921681C480FF02AFF1A480FF094
:1016A000A1FFBFE6E01C09AA0C49234C14F058FC2A
:1016B000099813F031FA2060B4E6204B01221A7029
:1016C000B0E60AAB09AA1E49E01C14F049FC1D490A
:1016D0001D4B09980A9A08601A60A3E624C7010006
:1016E00038F1FF1F10F1FF1F30F1FF1F50F1FF1FF6
:1016F00078040020DC0D00209C1C002004F1FF1F5A
:1017000028C701003CC70100B0F9FF1F50C7010006
:1017100048F1FF1FF4F0FF1F14F1FF1F68040020C1
:10172000CC0C00200CF1FF1F000D0020D421002064
:101730005C0400206CC7010020F1FF1FD81C0020B2
:1017400034C70100CC1C00202C0D002009AA1A4926
:10175000E01C14F005FC0998184C13F0DDF9184949
:10176000184A206001230B7013705BE6164B0022B1
:101770001A7057E609AAE01C0F4914F0F1FB134B4D
:10178000099A1A604EE609AAE01C0B4914F0E8FB1E
:101790000F4B099A1A6045E609AAE01C064914F0A5
:1017A000DFFB0C4B099A1A603CE60B49044B022004
:1017B000012208701A7035E624C701004CF1FF1FA2
:1017C00030F1FF1F28F1FF1F00F1FF1FF0F0FF1F96
:1017D0008C1C00206CF1FF1F6804002038B52348E2
:1017E0000CF052FC002128200DF0FEFC20242820C3
:1017F0000DF0C4F9013CFAD1012128200DF0F4FCD0
:10180000214628200DF0F0FC0025202428200DF092
:10181000B5F913F081F90146284613F0C9F8013CE7
:101820000546F3D1012128200DF0DEFC28461049A1
:101830000E4D13F0C5F94FF06A5113F0C1F94FF096
:10184000745113F0BDF9686228460CF055FE284625
:1018500001210BF03FFE284601210BF035FE224608
:1018600021462846BDE838400BF02ABED40C0020A3
:101870008EC2DD4038B50C460546012132480BF0DA
:1018800023FE2AB2002130480BF01AFE20460AF04F
:1018900033FE01462C480FF02BFE2D212A480BF079
:1018A000D5FD20460AF004FE014627480FF020FE31
:1018B0002D2125480BF0CAFD20460AF0E7FD014620
:1018C00021480FF015FE022220491F480FF0FCFDB1
:1018D00020460AF0FFFD092804DC01221C491A48B1
:1018E0000FF0F2FD20460AF0F5FD014616480FF014
:1018F000FFFD20460AF0A6FD0122054615491248C3
:101900000FF0E2FD092D04DC012211490E480FF011
:10191000DBFD29460C480FF0EBFD20460AF0A4FD44
:10192000012204460B4908480FF0CEFD092C04DCC7
:101930000122074904480FF0C7FD21460248BDE8CF
:1019400038400FF0D5BD00BFD40C002078C701008F
:101950007CC7010058C9010010B501213448354C3D
:101960000BF0B2FD012132480BF0B4FD002211460C
:101970002F480BF0A5FD2368002B3BD0012B51D045
:10198000082200212A480BF09BFD2B4B1B684BB112
:101990002A4B08201968FFF76DFF022228492448C6
:1019A0000FF092FD1022002121480BF089FD042246
:1019B00024491F480FF088FD234B1D4819680FF07C
:1019C00097FD012221491A480FF07EFD0822204987
:1019D00017480FF079FD1F4B154819680FF088FD67
:1019E00001221A4912480FF06FFD1148BDE810405E
:1019F0000FF0F8BD082218490D480FF065FD174A91
:101A0000174B11681B680A48C91A0FF071FD0122B3
:101A10000E4907480FF058FD05480FF0E3FD236815
:101A2000012BADD107220F4901480FF04DFDA7E76B
:101A3000D40C002050150020DC0D00205C04002098
:101A400098C701009CC701006CF1FF1F8CC7010003
:101A5000A4C701008C1C002080C70100D00E00200C
:101A60006C04002090C7010038B505460AF044FD1B
:101A70001E4C014620460FF03BFD2D200FF026F8AE
:101A800028460AF015FD014620460FF031FD2D20B5
:101A90000FF01CF828460AF0F9FC014620460FF02A
:101AA00027FD012112480EF03DFF28460AF012FDE5
:101AB000014620460FF01CFD3A200FF007F828469B
:101AC0000AF0C0FC014620460FF012FD3A200EF04D
:101AD000FDFF28460AF0C8FC014620460FF008FD2D
:101AE0002046BDE838400FF07DBD00BFB0F9FF1FB4
:101AF00090C901002DE9F043434A444BDFF81891A7
:101B0000DFF81881424D98F80010167899F80070A7
:101B10001A78286883B03C2313FB071713FB0626AB
:101B20000AF0D8FC044628680AF08CFCC4EB0414C4
:101B300000EB840428680AF0DFFC00F14E032868FB
:101B40008DF806300AF0B4FC8DF8050028680AF01C
:101B50009DFCB7428DF8040006D2A74232D8A642B7
:101B600030D303B0BDE8F083A742FAD9A642F8D239
:101B700002A8002399F8002000F8083D98F80030EA
:101B80008DF801308DF802200AF0CAFC0F21286080
:101B900020480EF0C7FE2868FFF766FF0DF0E2F957
:101BA0002B68834204DA03F5A83303F5C0732B6076
:101BB0000F2118480EF0B6FE2868FFF755FF03B056
:101BC000BDE8F08302A8002399F8002000F8083D42
:101BD00098F800308DF801308DF802200AF0A0FC52
:101BE0000F2128600B480A4C0EF09CFE2868FFF776
:101BF0003BFF0DF0B7F92B688342D9DA03F5A83320
:101C000003F5C0732360D3E7E10F0020E00F00204D
:101C1000D00E0020B0C70100D11C0020E90F002029
:101C20002DE9F04F6D4A6E4D6E4C6F4B6F48DFF8EB
:101C3000DCA1D3F800C0D0F800E0D2F800802388FF
:101C40002A88BAF800106A4E6A4FB6F90000CCEB49
:101C50000202CEEB030387B02A802380C8EB010188
:101C6000AAF8001012F0F0FA80468946B7F9000091
:101C700012F0EAFA42464B4611F046F812F042FEE4
:101C8000029012F0F3FA8046894610F0F9FF12F044
:101C900039FE49468346404610F01CFF12F032FEE2
:101CA0008046B5F9000012F037FF8146B4F9000014
:101CB00012F032FF504B0190B3F90000404212F095
:101CC0002BFF0446B7F9000012F026FF594612F028
:101CD00077FF0546B6F9000012F01EFF414612F0EC
:101CE0006FFF0146284612F063FE0146204613F0BE
:101CF0001BF812F0BBFA10F04FFD12F003FE039038
:101D000012F0B4FA04460D4610F0BAFF06460F462C
:101D10002046294610F0DEFE02460B46584649464C
:101D2000CDE9042312F04CFF01990446404612F01D
:101D300047FF0146204612F03BFE39460446304636
:101D400012F0E0FD0146204612F03AFF0446BAF9CF
:101D500000002A4F2A4E12F0DFFEDDE9042305467B
:101D60001946104612F0CEFD0146284612F028FF13
:101D70000146204612F01CFE12F078FA04460D4689
:101D80004046494612F01CFF01998046584612F021
:101D900017FF0146404612F009FE00F1004012F024
:101DA00065FA22462B4610F0AFFF04460D46039815
:101DB000144912F005FF144B12491860029812F0F2
:101DC000FFFE29463860204612F09CFD0D4912F0B6
:101DD000F7FE306007B0BDE8F08F00BFD80D0020DF
:101DE0007204002074040020600E0020FC0E00200D
:101DF000900B0020921C0020901C00207C040020EE
:101E0000D40E0020E12E6542C40C00207004002096
:101E10002DE9F04FDFF81493DFF81483D9F80000B0
:101E2000D8F8001085B013F087F840B1AC4BD9F862
:101E300000201B78C8F80020002B40F0BA80A94C85
:101E4000A94E2368A94D002B49D1A94A2B683768B0
:101E50001268DFF8E0A2D9F80000DAF80010FB1AE7
:101E60009342D4BF4FF0000B4FF0010B13F064F816
:101E7000A04B1A684FF00103002800F09680002A5A
:101E800014BF002303F001031BEA030B00F084805E
:101E9000934A984B127801211960002A66D1D9F82B
:101EA0000010DFF89492D8F8000012F07FFDD9F806
:101EB000001013F041F84FF00101002877D0DFF84F
:101EC00048828D4AD8F8000012689042ACBF0022C8
:101ED00001F001021BEA020A40F0A5802368326883
:101EE0002868A3F1010ABAFA8AFA4FEA5A1A82421A
:101EF00002DBBAF1000F04D1022B27D005B0BDE8F8
:101F0000F08F7E4FD7F800800223232023600DF04E
:101F1000DBFB41467A480FF0EBFA79480FF062FBA1
:101F20006F4B1B78002B72D1764A3B68126873495D
:101F3000013393423B60A4BF00230B6072492368C6
:101F40000A68022B02F101020A60D7D16F4A336896
:101F5000296812685B1A9342D0DD002110200DF031
:101F600011F90023236005B0BDE8F08F19216848FE
:101F70000EF0D8FCDAF8000012F078F94FF0020EFB
:101F800002460B46CDF800E062480FF0A9FB61481D
:101F90000FF028FB574B1A68022A1DD0A2F1010B43
:101FA000BBFA8BFB4FEA5B1B79E7034667E7014609
:101FB00085E70B2158480EF0B5FCD8F8000012F068
:101FC00055F9022402460B46009452480FF088FB54
:101FD00050480FF007FB32E7DFF860A1D9F80000A6
:101FE000DAF800100392DFF844B112F087FF50B125
:101FF0003B4BDBF800103F4A1B78C8F8001000216B
:10200000116093462BBB2368D9F8002067E70721AE
:1020100042480EF087FC41463E480FF069FA3D48C1
:102020000FF0E0FA80E7012110200DF0ABF82C4B07
:10203000326893F800C02F4FDFF8A8B0901C012140
:102040000223286021603B60BCF1000F1CD10B46CD
:102050004DE70D2132480EF065FCDAF8000012F071
:1020600005F9039A00920B4602462A480FF038FB06
:1020700028480FF0B7FADBF80030A3F1010BBBFAE8
:102080008BFB4FEA5B1B0AE70E21264803930EF0F9
:1020900049FCD9F8000012F0E9F8039B00930246CE
:1020A0000B461C480FF01CFB1A480FF09BFA11213D
:1020B0001D480EF037FCD8F8001016480FF018FA3B
:1020C00014480FF08FFADBF80030074A074912680E
:1020D0000868A3F1010ABAFA8AFA4FEA5A1A06E71F
:1020E000D81C0020500400206C0400202C04002088
:1020F00014F1FF1FF0210020F4F0FF1FBC0B0020A3
:1021000090F9FF1F9C1C00205804002004F1FF1FC1
:10211000D4C70100B0F9FF1FC8C70100C0C7010044
:10212000F0C7010000C8010010C80100DC0E00204B
:10213000C00C002020F1FF1F0CF1FF1F48F1FF1F12
:102140002DE9F04F0546DFF84C828D4E8D4F98F803
:1021500000E02E60FF2085F82400DFF83C923878FC
:1021600059F820C00023BEF1060F8DB00C4685F84B
:10217000253085F826309CBF88F800309E46BCF19B
:10218000000F00F0A8808C455BD06346810001E021
:102190009C4256D00B445B68002BF9D1634603EB9D
:1021A000010ADAF80430002BF9D105EB010BCAF86B
:1021B0000440BEF1060F4FF0FF044FFA80FACBF84F
:1021C00004308DF82C4002968DF82D308DF82E308D
:1021D00085F824A0644605D8002388F80030002C38
:1021E00000F0A980A24226D0234601E0934222D0EB
:1021F0000B445B68002BF9D104EB010CDCF80440C4
:10220000002CF9D1CCF804200CAB19440024431C59
:10221000BAF1FF3F41F8244C3B708DF82CA0029698
:1022200005D0594951F82A3002AA934272D0284663
:102230000DB0BDE8F08F0130387028460DB0BDE814
:10224000F08F0023FF21BEF1060F02968DF82C10AF
:102250008DF82D308DF82E3001D888F80030944557
:10226000E9D06346810001E09A42E4D00B445B6808
:10227000002BF9D18C44DCF804402CB1A4468C44EA
:10228000DCF80440002CF9D10CAB19444FFA80FE65
:10229000431CBEF1FF3FCCF804203B7041F8244CB6
:1022A00002968DF82CE0C2D0374951F82E3002AAA0
:1022B0009342BCD159F82E304FEA8E0623B19A19B9
:1022C00053685460002BFAD10023387049F82E303F
:1022D00041F82E30ABE7B0B38100DFF8ACA049F88D
:1022E000204005EB010C00234AF82050BEF1060FF8
:1022F000CCF804304FFA80FA4FF0FF0C02968DF8BC
:102300002D308DF82E3085F824A08DF82CC07FF666
:1023100063AF64E759F82A304FEA8A0623B19A1965
:1023200053685460002BFAD10023387049F82A30E2
:1023300041F82A307BE7A0B1134B49F8202002AACC
:1023400043F8202060E71149019215200CF03EFD72
:102350000F4B98F800E0019A4FF40011196038789B
:10236000BAE70A49019215200CF030FD084B019A9A
:102370004FF40011196038784FFA80FA8100DBE7DA
:10238000CCC5010021250020002500207504000097
:1023900000E100E094E9FF1FE02400202DE9F04176
:1023A000814C824E824D834F0CF066FC4FF0FF3122
:1023B00020460BF055FE804B32682360012100233C
:1023C0000020606284F8281084F829102F606B7256
:1023D0002B612B72EB600AB9E0E01A465369002BBF
:1023E000FBD15561754C764B71482B604FF000085E
:1023F000C5F81480A5F80480A5F8068005F0C6F895
:10240000012004F2247243464146276084F8088084
:10241000C4F80C8060722261A64601E0DEF810204C
:1024200042F82310627A654801339A42F6DC32683A
:102430005E4B0AB9B4E01A465369002BFBD15461D4
:102440004FF000085F49DFF8D8E1216042460123E0
:102450004FF480715C48C4F81480A4F80480A4F898
:102460000680C4F818E184F8218784F8228710F0E8
:10247000B5F8564AC4F81C814FF0010E02F118015C
:102480001760082782F809E04346404682F8088032
:10249000C2F80C801161964684F8207701E0DEF8DE
:1024A000101041F82300517A484F01339942F6DC6D
:1024B00031683E4B09B975E019464B69002BFBD1D9
:1024C0004A61434B43495A60002656619680D68044
:1024D000184682F8F460C2F8F06082F8F560116086
:1024E00082F8F6601D601E725E72DE600EF042FCC5
:1024F000394B3A4F1E7218461D605C605E72DE609A
:102500000EF038FC364A374B1168374A1A600A22F7
:102510001A724FF0874012F007FC344C344D38608B
:102520004FF0FF08334B84F82560012784F824809E
:10253000314A324966632046A66384F83C602360D2
:1025400084F8267012F0BCFE2D4B2B4A2D4985F8DD
:102550002480284685F825602B6085F8267012F0C7
:10256000AFFE224629462848FFF7EAFD224A2749BE
:10257000254812F0A5FE264805F0BCFB1E4A254959
:10258000234812F09DFE244B1B4A1E6080241C71C0
:1025900022491846BDE8F04112F092BE356021E7AD
:1025A00018604DE71F608CE7D40C0020E82600205F
:1025B000E40E0020C0C50100E0C501005415002054
:1025C00098CE010070CE01007C1C0020C00B0020C2
:1025D000940B0020A4CE0100A40B0020640E002068
:1025E00058F1FF1FD40F00207CCE0100900E002078
:1025F000A40F002014D10100FCEFFF1FAD06000066
:1026000028D1010005070000040D0020F10500009D
:10261000A81C0020117D0000880F00205D0700002D
:1026200068CC010010B51D48ADF5007D05F014F92A
:10263000012829DD1A491B4C0B6822681748013311
:1026400001320B60226005F039F94FF480720146C7
:1026500068460CF05BF8114805F04EF90F4805F09C
:102660002DF94FF4807201460DEB02000CF04EF88C
:102670000A4805F041F90C4B1B7843B969464FF401
:1026800000720A4805F098FA0DF5007D10BD102281
:102690000749064805F090FAF0E700BFC00B00209C
:1026A000D00D00205404002030F1FF1FA81C002092
:1026B000040F002070B5B44B1B7884B0002B40F0A1
:1026C0005B81B24C7621204608F098FF00251E2140
:1026D000204607F039FE627B2169009501232046E0
:1026E00009F054F805200CF0DFFD2046762108F0B3
:1026F00085FFA221204607F027FE627B2169009515
:102700000123204609F042F80123617B00937622E1
:1027100002232069019509F033FA2369D3F83811AF
:10272000D3F8342191420CD003AD184609F0C0FA19
:10273000236905F8010BD3F83811D3F834219142FD
:10274000F3D19DF80D209DF80C50914B8F4842EA33
:10275000052576211D80002608F050FFA4218B4816
:1027600007F0F2FD627B216988480096012309F099
:102770000DF80123617B00937622022320690196E4
:1027800009F0FEF92369D3F83811D3F834219142C6
:1027900012D003AD184609F08BFA236905F8010B36
:1027A000D3F83811D3F834219142F3D19DF80C506D
:1027B0009DF80D3043EA0525764B74481D8076213F
:1027C00008F01CFF0026A621704807F0BDFD627BC3
:1027D00021696E480096012308F0D8FF0123617B30
:1027E0000093762202232069019609F0C9F9236932
:1027F000D3F83821D3F83411914212D003AD1846E2
:1028000009F056FA236905F8010BD3F83811D3F80B
:1028100034219142F3D19DF80C509DF80D3043EADC
:1028200005255D4B59481D80762108F0E7FE0026FE
:10283000A821564807F088FD627B2169534800961D
:10284000012308F0A3FF0123617B0093762202237A
:102850002069019609F094F92369D3F83821D3F857
:102860003411914212D003AD184609F021FA2369C0
:1028700005F8010BD3F83811D3F834219142F3D184
:102880009DF80C509DF80D3043EA0525434B3F4819
:102890001D80762108F0B2FE0026AA213B4807F0F1
:1028A00053FD627B216939480096012308F06EFFD1
:1028B0000123617B0093762202232069019609F0AF
:1028C0005FF92369D3F83821D3F83411914212D03B
:1028D00003AD184609F0ECF9236905F8010BD3F8AC
:1028E0003811D3F834219142F3D19DF80C509DF862
:1028F0000D3043EA05252A4B24481D80762108F037
:102900007DFE0026AC21214807F01EFD627B216977
:102910001E480096012308F039FF0123617B0093D4
:10292000762202232069019609F02AF92369D3F857
:102930003811D3F83421914219D0354603AE1846E8
:1029400009F0B6F923697055D3F83811D3F834215A
:10295000914205F10105F2D19DF80D309DF80C5022
:1029600043EA05250F4B01201D8004B070BD0D4BBF
:1029700030461D8004B070BD0B210B480DF0D2FF16
:102980000A480EF02FFE9CE6D81C0020CC24002024
:10299000580F0020A01C0020A41C0020F4210020BF
:1029A00084040020020F002084C80100B0F9FF1F3A
:1029B000F0B5284F3B7885B0002B43D1264C274EED
:1029C0002046317808F01AFE00250021204607F045
:1029D000BBFC627B216900950123204608F0D6FEEE
:1029E00002200CF061FC01233278617B00932069A6
:1029F0000195022309F0C4F802200CF055FC03AE47
:102A00002369D3F838211846D3F834319A4213D0C9
:102A100009F04EF93B7820EAE07006F8010B013529
:102A2000002BEDD000230A2231780D480EF0FCFD7A
:102A30000B480EF0D7FDE3E7002DD4BF00200120A6
:102A400005B0F0BD0B2107480DF06CFF04480EF0F7
:102A5000C9FDB3E7D81C0020CC24002024F1FF1FBF
:102A6000B0F9FF1F90C8010070B5134C82B0064644
:102A70000D4620460A2108F0C1FDC6F30721204675
:102A800007F062FCF1B2204607F05EFCC5F30721B7
:102A9000204607F059FCE9B2204607F055FC002318
:102AA0000093627B21692046012308F06FFEB0FA93
:102AB00080F0400902B070BDCC2400202DE9F04127
:102AC0001A4C1B4D82B029780646204608F096FD28
:102AD00031462046002607F037FC627B21690096CC
:102AE0000123204608F052FE01272978204608F0ED
:102AF00085FD2A78617B206901960223009709F001
:102B00003FF8206909F0D4F80546206909F0D0F8AB
:102B1000627B2169009680463B46204608F036FEDF
:102B200045EA082080B202B0BDE8F081CC24002044
:102B300018F1FF1F2DE9F04F654C664D85B08A46B0
:102B4000834629782046914608F058FD0121204609
:102B5000002607F0F9FB5946204607F0F5FB627B9B
:102B6000216900960123204608F010FE29782046AE
:102B700008F044FD0221204607F0E6FB51462046BE
:102B800007F0E2FB627B216900960123204608F0F2
:102B9000FDFD2978204608F031FD0321204607F08D
:102BA000D3FB4946204607F0CFFB627B21690096A4
:102BB0000123204608F0EAFD2978204608F01EFD92
:102BC0000121204607F0C0FB627B216900960123AA
:102BD0002046012708F0DAFD2978204608F00EFD8E
:102BE0002A78617B206901963B46009708F0C8FF70
:102BF000206909F05DF8627B03903B4621690096ED
:102C0000204608F0C3FD2978204608F0F7FC022191
:102C1000204607F099FB627B216900963B462046DF
:102C200008F0B4FD2978204608F0E8FC2A78617B9A
:102C3000206901963B46009708F0A2FF206909F041
:102C400037F88046627B216900963B4620465FFA52
:102C500088F808F09BFDC24530D0B34629781C485F
:102C600008F0CCFC00260321194807F06DFB627BBD
:102C7000216900960123164808F088FD012729786C
:102C8000134808F0BBFC2A78617B206901963B461B
:102C9000009708F075FF206909F00AF8627B216946
:102CA000009605463B460A4808F070FDE8B28145AB
:102CB0000CBF5846304605B0BDE8F08F9DF80C605B
:102CC000CBEB060BBBFA8BFB4FEA5B1BC6E700BFE7
:102CD000CC24002018F1FF1F08B50A2106480DF08A
:102CE00021FE06480EF07EFC00223F210D20BDE8AB
:102CF0000840FFF71FBF00BF9CC80100B0F9FF1FCD
:102D000030B51D4C83B020460A2108F077FC2046E0
:102D1000002107F019FB2046302107F015FB204663
:102D2000002107F011FB00252046002107F00CFBD5
:102D3000627B216900950123204608F027FD20468B
:102D40000A2108F05BFC2946204607F0FDFA2046E0
:102D5000022107F0F9FA2946204607F0F5FA29463C
:102D6000204607F0F1FA627B216900952046012395
:102D700008F00CFD03B030BDCC24002030B51D4C54
:102D800083B020460A2108F039FC2046002107F0D4
:102D9000DBFA2046302107F0D7FA2046002107F061
:102DA000D3FA00252046AB2107F0CEFA627B2169D9
:102DB00000950123204608F0E9FC20460A2108F08E
:102DC0001DFC2946204607F0BFFA2046022107F0E5
:102DD000BBFA2946204607F0B7FA2046632107F0E0
:102DE000B3FA627B216900952046012308F0CEFCEE
:102DF00003B030BDCC24002030B5E54C83B0204674
:102E00000A2108F0FBFB2046002107F09DFA20462E
:102E1000302107F099FA20464021002507F094FA66
:102E20002046602107F090FA627B2169009501231A
:102E3000204608F0ABFC20460A2108F0DFFB2946BB
:102E4000204607F081FA2046262107F07DFA294620
:102E5000204607F079FA20466C2107F075FA627B6C
:102E6000216900950123204608F090FC20460A21A4
:102E700008F0C4FB2946204607F066FA20462821C0
:102E800007F062FA2046012107F05EFA2046F021A1
:102E900007F05AFA627B216900950123204608F069
:102EA00075FC20460A2108F0A9FB2946204607F0B8
:102EB0004BFA20462A2107F047FA2946204607F018
:102EC00043FA2946204607F03FFA627B21690095C4
:102ED0000123204608F05AFC20460A2108F08EFB08
:102EE0002946204607F030FA20462C2107F02CFA1C
:102EF00020460F2107F028FA2046222107F024FA65
:102F0000627B216900950123204608F03FFC2046A2
:102F10000A2108F073FB2946204607F015FA2046DF
:102F20003C2107F011FA2046442107F00DFA204613
:102F3000462107F009FA627B2169009501232046AA
:102F400008F024FC20460A2108F058FB29462046B8
:102F500007F0FAF92046242107F0F6F9204601216E
:102F600007F0F2F92046372107F0EEF9627B21697C
:102F700000950123204608F009FC20460A2108F0AC
:102F80003DFB2946204607F0DFF92046302107F0B7
:102F9000DBF92946204607F0D7F92046AB2107F098
:102FA000D3F9627B216900950123204608F0EEFBEE
:102FB00020460A2108F022FB2946204607F0C4F9E2
:102FC0002046022107F0C0F92946204607F0BCF947
:102FD0002046632107F0B8F9627B2169009501233F
:102FE000204608F0D3FB4FF4C8700CF05DF9204682
:102FF0000A2108F003FB2946204607F0A5F92046E0
:103000002E2107F0A1F92046192107F09DF920464D
:10301000192107F099F9627B216900950123204667
:1030200008F0B4FB20460A2108F0E8FA29462046B9
:1030300007F08AF92046042107F086F92946204640
:1030400007F082F92046042107F07EF9627B2169AE
:1030500000950123204608F099FB20460A2108F03C
:10306000CDFA2946204607F06FF92046062107F0E1
:103070006BF92046012107F067F92046302107F05F
:1030800063F9627B216900950123204608F07EFBED
:1030900020460A2108F0B2FA2946204607F054F9E2
:1030A00020460A2107F050F92946204607F04CF93E
:1030B0002946204607F048F9627B216900950123E3
:1030C000204608F063FB20460A2108F097FA2946BB
:1030D000204607F039F920460E2107F035F9294638
:1030E000204607F031F92046082107F02DF9627BD0
:1030F000216900950123204608F048FB20460A215B
:1031000008F07CFA2946204607F01EF920461021D7
:1031100007F01AF92046FF2107F016F920463C2156
:1031200007F012F9627B216900950123204608F01F
:103130002DFB20460A2108F061FA2946204607F0B7
:1031400003F92046222107F0FFF820467F2107F0EF
:10315000FBF820467F2107F0F7F8627B2169009594
:103160000123204608F012FB20460A2108F046FA07
:103170002046012107F0E8F82046242107F0E4F872
:103180002946204607F0E0F82946204602E000BF25
:10319000CC24002007F0D8F8627B21690095012338
:1031A000204608F0F3FA20460A2108F027FA2946BB
:1031B000204607F0C9F82046242107F0C5F8294623
:1031C000204607F0C1F82046142107F0BDF8627BC5
:1031D000216900950123204608F0D8FA20460A21EB
:1031E00008F00CFA2946204607F0AEF820462A21BE
:1031F00007F0AAF82946204607F0A6F829462046F7
:1032000007F0A2F8627B216900950123204608F0AF
:10321000BDFA20460A2108F0F1F92946204607F0B8
:1032200093F82046202107F08FF82946204607F022
:103230008BF82946204607F087F8627B21690095C4
:103240002046012308F0A2FA012003B030BD00BFE0
:103250002DE9F041974C984D82B02978204608F02E
:10326000CDF92421204607F06FF84021204607F0D1
:103270006BF80023627B216900932046012308F04C
:1032800085FA074605200CF00FF8002F40F0FD806E
:10329000DFF828822978D8F80030204663F07F03D1
:1032A000DEB208F0ABF92521204607F04DF8314693
:1032B000204607F049F8627B2169009701232046E8
:1032C00008F064FA064605200BF0EEFF002E40F0F1
:1032D000DF802978204608F091F92621204607F062
:1032E00033F80321204607F02FF8627B216900960E
:1032F0000123204608F04AFA064605200BF0D4FFC9
:10330000002E40F0B8802978204608F077F9272170
:10331000204607F019F8D621204607F015F8627B01
:10332000216900960123204608F030FA0646052060
:103330000BF0BAFF002E40F0AE80297898F80070AC
:10334000204608F05BF92821204606F0FDFF3946AB
:10335000204606F0F9FF627B216900960123204692
:1033600008F014FA064605200BF09EFF002E40F0F0
:1033700095802978204608F041F92921204606F059
:10338000E3FF0A21204606F0DFFF627B21690096F9
:103390000123204608F0FAF9064605200BF084FFC9
:1033A000002E7ED12978204608F028F92A212046CF
:1033B00006F0CAFF8121204606F0C6FF627B216924
:1033C00000960123204608F0E1F9064605200BF09F
:1033D0006BFF002E68D12978204608F00FF9642190
:1033E000204606F0B1FF1121204606F0ADFF627BBA
:1033F000216900960123204608F0C8F906460520F9
:103400000BF052FF002E52D12978204608F0F6F832
:103410006721204606F098FF0321204606F094FF1E
:10342000627B216900960123204608F0AFF9064629
:1034300005200BF039FF1EBB2046297808F0DEF886
:103440000121204606F080FF8021204606F07CFF07
:10345000627B216900962046012308F097F9044613
:1034600005200BF021FF002C14BF6FF00E00002090
:1034700002B0BDE8F0816FF0070002B0BDE8F08156
:103480006FF00D0002B0BDE8F0816FF00500EFE7CE
:103490006FF00600ECE76FF00800E9E76FF0090055
:1034A000E6E76FF00A00E3E76FF00B00E0E76FF08C
:1034B0000C00DDE7CC2400203CF1FF1FFCF0FF1FD7
:1034C0002DE9F0477B4F7C4A3B681278013382B08C
:1034D0003B60002A40F01281784EDFF81882316894
:1034E000D7F800A0764D4FF07E5011F01DFC044639
:1034F000D8F8000011F010FB0146204611F060FBE7
:103500008146504611F008FB4FF07C5182464846F8
:1035100011F056FB0146504611F004FD2C784FF097
:103520000103E4B200B9034613F0FF0F07D0654B67
:103530001B78012B14BF002404F0010434BB38684D
:103540005C4C11F0E9FA494611F0ECFCD8B15E4B45
:103550001B7800262660002B40F0B081594F3E7842
:10356000012E00F07382022E00F05B82574B1B6825
:10357000002B40F02982564B1B78002B40F0328202
:103580003B78002B55D102B0BDE8F087514C762135
:10359000204608F033F84FF000090021204606F0DD
:1035A000D3FE627B2169CDF800900123204608F00C
:1035B000EDF80123617B2069009376220323CDF887
:1035C000049008F0DDFA2369D3F83811D3F83421D8
:1035D00091420DD0DFF82091184608F069FB23696D
:1035E00009F8010BD3F83811D3F834219142F3D103
:1035F0007621384808F002F85821364806F0A4FE33
:10360000627B2169334800240123009408F0BEF84E
:1036100031682C704FF07E5011F086FB0446D8F8CC
:10362000000011F079FA0146204611F0C9FA8146EE
:1036300085E7294B29491A78294C0968D2B244F800
:1036400022101A780132D2B21A701A78282A00F0A1
:10365000E081244924481A7800780D78214E82426E
:1036600034BF00220122AA4203D9204D01222A7030
:1036700032701A781E4D184E2D68D2B244F822507E
:103680001A780132D2B21A701A78282A00F04182D0
:103690001B780A781349834234BF002301239342E5
:1036A0007FF671AF114A012313700B7002B0BDE8B1
:1036B000F08700BFD40D002028F1FF1F44F1FF1F49
:1036C000D01C00206804002010F1FF1FD42100202E
:1036D000D81C0020CC240020D00C00206404002042
:1036E000300D00205A0F002064F1FF1FD821002068
:1036F000E01C002054F1FF1FE00D0020664B674CDA
:103700001E782046314607F079FF00253B212046F0
:1037100006F01AFE627B216900952B46204608F0D0
:1037200035F80123617B206900933246142301950B
:1037300008F026FA20695A4ED0F83821D0F83431F2
:103740009A420DD008F0B4FAEBB2C0B2F05420693E
:10375000D0F83821D0F834319A4205F10105F1D181
:10376000504B514A18683178C9B211541968013167
:10377000196018687178C9B211541968013119605B
:103780001868B178C9B21154196801311960186804
:10379000F178C9B21154196801311960186831798A
:1037A000C9B2115419680131196018687179C9B228
:1037B00011541968013119601868317AC9B211546D
:1037C0001968013119601868717AC9B21154196801
:1037D000013119601868B17AC9B211541968013100
:1037E00019601868F17AC9B2115419680131196069
:1037F0001868317BC9B21154196801311960186811
:10380000717BC9B211541968013119601868B17B14
:10381000C9B211541968013119601868F17BC9B235
:1038200011541968013119601868317CC9B21154FA
:103830001968013119601868717CC9B2115419688E
:10384000013119601868B17CC9B21154196801318D
:1038500019601868F17CC9B211541A6801321A60F3
:103860001A68B2F5E16F00F04C81104A10491B68EC
:10387000096812780D488B42B4BF0023012393429C
:1038800003D90C4A012313700370317873780A4A04
:1038900043EA012313801FE63CF1FF1FCC240020E4
:1038A000DC210020D80E002088040020700E0020AB
:1038B0005CF1FF1FE00E0020901C00200B20FFF7A2
:1038C000FDF8A74CA74F20800920FFF7F7F83880B4
:1038D0000D20FFF7F3F8A44BA44A19782478DFF8F9
:1038E000D8E2C9B2AEF80000545419780131C9B217
:1038F00019701978C9B2565419780131C9B21970C2
:103900001978782900F01D81994C9A4E19783678EB
:1039100094F800E0DFF858C2B14234BF0021012121
:10392000714506D9DFF850E201218EF800108CF8BD
:103930000010197897F800C0DFF82CE2C9B2002710
:1039400002F801C019780131C9B219701978C9B2E9
:10395000575419780131C9B219701978782900F0D3
:10396000E78019782778DFF808E2B14234BF0021F8
:103970000121B94204D9804F012139708EF800101D
:103980001978794FC9B2C0B2505419780131C9B20F
:1039900019701978C9B2002050541A780132D2B285
:1039A0001A701A78782A00F0BD801B782278704946
:1039B000B34234BF0026012696427FF6CFAD6E4A51
:1039C000012313700B70C9E56C4B186808F03AFDC1
:1039D0006B4A6C4B52F820201A606B4B1B78002B03
:1039E0003FF4CEAD022169480CF09CFF654B18688E
:1039F00010F03CFC022402460B46009464480DF093
:103A00006FFE63480DF0EEFD3B78002B3FF4BBAD3D
:103A10000FE660486049002202251A7005700A709E
:103A200018E6FDF74DFC5D4C5D4B2046197807F01C
:103A3000E5FD2046AC2106F087FC0023627B21696E
:103A400000932046012307F0A1FE8FE5534C762119
:103A5000204607F0D3FD4FF000080021204606F075
:103A600073FC627B2169CDF800803346204607F065
:103A70008DFE617B2069032376228DE8400108F0EA
:103A80007FF82369D3F83811D3F8342191420CD050
:103A9000444E184608F00CF9236906F8010BD3F8D8
:103AA0003811D3F834219142F3D176213B4807F005
:103AB000A5FD4821394806F047FC0023627B2169B7
:103AC00036480093012307F061FEFDF74BFB01230D
:103AD0002C4A2B701068344A11681C4611F00EFAFB
:103AE000F0B114F0FF0F35D1304B1968A1F101018D
:103AF000B1FA81F1490969BB08200BF043FB3E781C
:103B000031E52B482B4A0021022419600470117002
:103B1000ACE6204C00220225327025700A70B7E511
:103B20000446DEE7144A38700221117020703CE729
:103B300011498EF800704FF0020E81F800E02770F6
:103B40000FE70D490A4C1E704FF0020E81F800E09D
:103B50002670DAE6012108200BF014FB3E7802E51E
:103B6000D00F0020E41C0020A21C0020E80D002043
:103B7000900F002040F1FF1FA61C00206C040020C5
:103B800000F0FF1FDC0E0020D81C0020A8C8010098
:103B9000B0F9FF1FD82100205A0F0020CC240020AC
:103BA00024F1FF1F540F002070F1FF1F9C0F002015
:103BB000E00E0020700E0020B80B00202DE9F0412F
:103BC000A94CAA4DAA4F297882B0204607F016FDCD
:103BD0006B21204606F0B8FB00260121204606F0A6
:103BE000B3FB627B216900960123204607F0CEFDDE
:103BF000804605200BF058FB2978204607F0FEFC94
:103C00001A21204606F0A0FB0321204606F09CFB6B
:103C1000627B216900960123204607F0B7FD05204D
:103C20000BF042FB2978204607F0E8FC1B212046D8
:103C300006F08AFB1021204606F086FB627B216994
:103C400000960123204607F0A1FD05200BF02CFB78
:103C50002978204607F0D2FC1921204606F074FB93
:103C60000921204606F070FB627B21690096012342
:103C7000204607F08BFD05200BF016FB2978204627
:103C800007F0BCFC1C21204606F05EFB18212046F4
:103C900006F05AFB0123627B21690096204607F05B
:103CA00075FD05200BF000FB3B68022B7AD0042B3E
:103CB00000F0A880082B00F0BF8029786A4807F040
:103CC0009DFC1D21684806F03FFB00260321664845
:103CD00006F03AFB627B216900960123624807F0F7
:103CE00055FD05200BF0E0FA29785F4807F086FCC7
:103CF00037215D4806F028FB22215B4806F024FBB3
:103D0000627B216900960123574807F03FFD05209B
:103D10000BF0CAFA2978544807F070FC3821524851
:103D200006F012FB0121504806F00EFB627B216970
:103D3000009601234C4807F029FD05200BF0B4FA4A
:103D4000FFF786FA2978484807F058FC6A21464868
:103D500006F0FAFA0721444806F0F6FA627B216978
:103D600000960123404807F011FD05200BF09CFA56
:103D700029783D4807F042FC6A213B4806F0E4FA06
:103D80006021394806F0E0FA627B21690096012340
:103D9000354807F0FBFC05200BF086FA404602B0E0
:103DA000BDE8F0812978204607F028FC1C21204638
:103DB00006F0CAFA3146204606F0C6FA0123627BB5
:103DC00021690096204607F0E1FC05200BF06CFA13
:103DD0003B68042B16D0082B7FF46FAF2978204660
:103DE00007F00CFC1C21204606F0AEFA10212046FC
:103DF00006F0AAFA627B216900960123204607F0AB
:103E0000C5FC2DE02978204607F0F8FB1C21204650
:103E100006F09AFA0821204606F096FA0123627B02
:103E200021690096204607F0B1FC05200BF03CFA12
:103E30003B68082B7FF441AF29780B4807F0DEFB85
:103E40001C21094806F080FA1021074806F07CFA88
:103E500000230093627B21690348012307F096FC4D
:103E600005200BF021FA28E7CC2400203CF1FF1FAD
:103E7000F0F0FF1F2DE9F04F012185B004200BF079
:103E8000B3F9012115200BF0AFF9012114200BF03B
:103E9000ABF9012111200BF0A7F9012110200BF043
:103EA000A3F9002114200BF09FF9002102200BF050
:103EB0009BF9012105200BF097F9012108200BF057
:103EC00093F9002128200BF08FF9002123200BF01B
:103ED0008BF9002103200BF087F900200AF0C2FDC6
:103EE000012104200BF04EF9002115200BF04AF9B6
:103EF000012114200BF046F90B215648564C0CF0CA
:103F000011FD56480DF06EFB012111200BF03AF91E
:103F1000012105200BF036F9012108200BF032F9C0
:103F2000012110200BF02EF90B214D480CF0FAFC6A
:103F30004A480DF057FB40F6B8300BF0B5F90021B8
:103F400011200BF01FF9002105200BF01BF90021B7
:103F500008200BF017F923200BF0B6FB0021414895
:103F60000DF0C6FA3F480DF03DFB2378002B40F0E2
:103F700091803D4B1B78002B40F0A2803B4B1B787F
:103F8000002B40F0D781FDF729FC394B00241C7031
:103F9000FEF70EFD002840F09F84DFF8ECA0DFF86C
:103FA000EC80DFF8EC90FEF785FB002840F0E6821D
:103FB000112130480CF0B6FCDAF8000010F056F988
:103FC000022402460B46009424480DF089FB234846
:103FD0000DF008FB072128480CF0A4FCD8F80000DD
:103FE00010F044F9009402460B461C480DF078FB93
:103FF0001A480DF0F7FA0D2120480CF093FCD9F87F
:10400000000010F033F9009402460B4613480DF0FF
:1040100067FB12480DF0E6FA154B1B78002B00F0F9
:104020007A82174B1B6813B10023C8F800300021B7
:1040300010200BF0A7F80C2112480CF073FC074875
:104040000DF0D0FA40F6B83005B0BDE8F04F0BF0F7
:104050002BB900BFB8C80100D81C0020B0F9FF1F61
:10406000C4C8010090F9FF1F28F1FF1F10F1FF1FC6
:104070006804002080C90100CCC7010094C9010078
:10408000D4210020C0C9010064040020DC0E0020FF
:10409000E01C00200721C5480CF044FC0021C44866
:1040A0000DF026FAC2480DF09DFAC24B1B78002B8A
:1040B0003FF464AF23781BB10921BF480CF032FCF8
:1040C000DFF8FCB2DFF85C93FFF778FD4FF00008F3
:1040D000DA46BA4BBA481D78294607F08FFA002411
:1040E0003B21B74806F030F99AF80D20DAF81010A5
:1040F000B3480094234607F049FB01239AF80D10BA
:10410000DAF8100000932A461423019407F038FDD2
:10411000DAF81000D0F83831D0F834219A420FD0B4
:1041200007F0C6FDE3B2C0B209F80300DAF81000E8
:10413000D0F83821D0F834319A4204F10104EFD19B
:10414000DFF8E4B29F4FA04EA04DFCF70BFFFDF748
:1041500067FD09219E480CF0E5FBBBF9001094486F
:104160000DF0C6F901219B480CF0DCFB9A4B9048FE
:10417000B3F900100DF0BCF9012196480CF0D2FB08
:10418000964B8B48B3F900100DF0B2F9012191481C
:104190000CF0C8FBB7F9001085480DF0A9F9012112
:1041A0008C480CF0BFFBB6F9001081480DF0A0F967
:1041B000012188480CF0B6FBB5F900107C480DF0E1
:1041C00097F9012183480CF0ADFB854B7848B3F992
:1041D00000100DF08DF901217E480CF0A3FB814BFE
:1041E0007348B3F900100DF083F9012179480CF000
:1041F00099FB7D4B6E48B3F900100DF079F9012160
:1042000074480CF08FFB794B186810F02FF80224DB
:104210000B460246009466480DF062FA64480DF0C1
:10422000E1F9FDF7DBFA0822714972480DF04CF90B
:1042300070480DF0D7F9B8F10E0F00F3388122461F
:104240006D496C480DF040F9BBF9001069480DF05C
:104250004FF90122694967480DF036F95E4B654810
:10426000B3F900100DF044F90122644961480DF0E2
:104270002BF95A4B5F48B3F900100DF039F95D483E
:104280000DF0B0F922465E495A480DF01DF9B7F914
:10429000001058480DF02CF90122584955480DF0EE
:1042A00013F9B6F9001053480DF022F901225349D1
:1042B00050480DF009F9B5F900104E480DF018F905
:1042C0004C480DF08FF922464E494A480DF0FCF853
:1042D000434B4848B3F900100DF00AF90122474951
:1042E00044480DF0F1F83F4B4248B3F900100DF08F
:1042F000FFF8012241493F480DF0E6F83A4B3D48AE
:10430000B3F900100DF0F4F801223C4939480DF0E2
:10431000DBF838480AF05AF808F10108C8200AF01A
:10432000C3FFB8F1190F7FF4D4AE374B1B78002BC5
:104330003FF429AE0A213548354F364E364D0CF044
:10434000F1FA1B480DF04EF900223F210D20FEF737
:10435000F1FB14240B20FEF7B1FB38800920FEF797
:10436000ADFB30800D20FEF7A9FB022128802B48F1
:104370000CF0D8FAB7F900100D480DF0B9F80C4858
:104380000DF030F902211E480CF0CCFAB6F90010FD
:1043900007480DF0ADF806480DF024F90221204839
:1043A0000CF0C0FAB5F9001040E000BFC0C7010032
:1043B000B0F9FF1F28F1FF1FACC801003CF1FF1F3F
:1043C000CC2400208004002082040020DA21002078
:1043D000D0C80100D8C80100921C0020900B00201A
:1043E000700400207204002074040020740E002069
:1043F000DCC80100D40C0020E8C8010090C901000D
:10440000ECC80100F0C8010010F1FF1F9CC80100BA
:10441000D00F0020E41C0020B80B002000C90100D0
:1044200004C90100DC210020901C002045480DF04B
:104430005FF844480DF0D6F8FDF7D0F90A2242495A
:1044400042480DF041F841480DF0CCF802224049B5
:104450003E480DF039F8B7F900103C480DF048F827
:104460003A480DF0BFF802223A4938480DF02CF8CE
:10447000B6F9001035480DF03BF834480DF0B2F8AD
:104480000222354931480DF01FF8B5F900102F48C8
:104490000DF02EF82D480DF0A5F82C4809F096FFE8
:1044A000C8200AF001FF013C7FF454AF6BE5032202
:1044B0002A4926480DF008F8294B18680FF0D6FE57
:1044C00000940B46024621480DF00AF91F480DF0F2
:1044D00089F8032223491D480CF0F6FF224B186887
:1044E0000FF0C4FE00940B46024618480DF0F8F891
:1044F00016480DF077F803221C4914480CF0E4FF2D
:104500001B4B18680FF0B2FE009402460B460F4892
:104510000DF0E6F8FDE6FDF761F9082215490B48B4
:104520000CF0D2FF09480DF05DF80D221249074842
:104530000CF0CAFF05480DF055F8044809F046FF95
:104540006FE500BFB0F9FF1F08C90100D40C0020BF
:1045500000C90100ECC8010004C90100F4C8010051
:10456000C40C0020F8C801007C040020FCC8010035
:10457000D40E0020A4C90100B0C90100C94BDFF866
:1045800034B3C948012414211C700CF0CBF9C7487E
:104590000DF028F85846762107F030F8002548211C
:1045A000584605F0D1FE9BF80D20DBF81010009561
:1045B0002346584607F0EAF832200AF075FE5846BE
:1045C000762107F01BF82946584605F0BDFE9BF8FA
:1045D0000D20DBF8101000952346584607F0D6F85A
:1045E0009BF80D10DBF81000032376228DE83000D5
:1045F00007F0C6FADBF81030D3F83821D3F83411BD
:1046000091420DD0AA4C184607F052FBDBF810304F
:1046100004F8010BD3F83811D3F834219142F2D1C8
:104620007621A44806F0EAFF00245821A14805F0AD
:104630008BFE9BF80D20DBF810109E4800940123A0
:1046400007F0A4F832200AF02FFE7621994806F0F0
:10465000D5FF2146974805F077FE9BF80D20DBF843
:10466000101094480094012307F090F801239BF860
:104670000D10DBF81000009376220323019407F05D
:104680007FFADBF81030D3F83821D3F83411914297
:104690000DD0894C184607F00BFBDBF8103004F8FE
:1046A000010BD3F83811D3F834219142F2D1CDF86F
:1046B0000880824DDDF80C800126002476217D489B
:1046C00006F09CFF48217B4805F03EFE9BF80D203C
:1046D000DBF8101077480094012307F057F83220D8
:1046E0000AF0E2FD7621734806F088FF0021714848
:1046F00005F02AFE9BF80D20DBF810106D480094A1
:10470000012307F043F801239BF80D10DBF810009C
:10471000009376220323019407F032FADBF810307D
:10472000D3F83811D3F8342191420DD0604F184698
:1047300007F0BEFADBF8103007F8010BD3F8381198
:10474000D3F834219142F2D176215A4806F056FF2F
:104750005821584805F0F8FD9BF80D20DBF81010A3
:1047600054480094012307F011F832200AF09CFD10
:104770007621504806F042FF00214E4805F0E4FD46
:104780009BF80D20DBF810104A480094012306F036
:10479000FDFF01239BF80D10DBF81000009376223B
:1047A0000323019407F0ECF9DBF81030D3F838114B
:1047B000D3F8342191420DD03F4F184607F078FAD4
:1047C000DBF8103007F8010BD3F83811D3F8342197
:1047D0009142F2D1FCF7C6FCDAF80010404610F026
:1047E000E7F88046304610F097F90146404610F051
:1047F0009BFA034664202B600AF056FDFCF7EEFF9F
:104800000B222F492F480CF05FFE2E480CF0EAFED9
:104810000C222D492B480CF057FE28680FF026FD7E
:1048200002270B460246009726480CF059FF254800
:104830000CF0D8FE0622254922480CF045FE029BCA
:1048400018680FF013FD00970B4602461D480CF048
:1048500047FF1C480CF0C6FE05221D4919480CF004
:1048600033FED9F800000FF001FD009702460B4619
:1048700014480CF035FF13480CF0B4FE0136114813
:1048800009F0A4FD0B2E7FF419AFDDF80880FCF7CA
:1048900069FC0A4B0F49186810F046FA074B18607C
:1048A000FFF786BB680400205CC90100B0F9FF1F58
:1048B000E00D0020CC240020540F00206C0E0020BE
:1048C00074C90100D40C00203CC901004CC901008E
:1048D00054C9010000003041514ADFF858B1514835
:1048E000514FDFF86881DFF868A1504DDFF864911F
:1048F0000223182113700CF015F84D480CF072FECD
:104900003978584606F07AFEAC21584605F01CFD71
:104910009BF80D20DBF8101000940123584606F098
:1049200035FF14200AF0C0FCFCF7CAFCCDF8088063
:10493000DDF80C80012439783E4806F05FFEAC219A
:104940003C4805F001FD00239BF80D20DBF810101A
:1049500038480093012306F019FF14200AF0A4FC44
:10496000FCF7AEFC64200AF09FFCDAF80010404629
:1049700010F01EF88046204610F0CEF80146404662
:1049800010F0D2F92860FCF729FF0A222A492B48A7
:104990000CF09AFD29480CF025FE0C2228492748E6
:1049A0000CF092FD28680FF061FC02260B460246CF
:1049B000009622480CF094FE20480CF013FE0622CC
:1049C00020491E480CF080FD029B18680FF04EFC39
:1049D00000960B46024619480CF082FE17480CF070
:1049E00001FE0522184915480CF06EFDD9F80000AB
:1049F0000FF03CFC009602460B4610480CF070FE8F
:104A00000E480CF0EFFD01340C4809F0DFFC0B2CD4
:104A100091D1CDF80C80DDF80880FFF7C4BA00BF53
:104A20006804002014C9010024F1FF1F6C0E00204F
:104A3000B0F9FF1FCC24002030C90100D40C0020A5
:104A40003CC901004CC9010054C90100DC0E002022
:104A500064040020E01C00202DE9F0479AB01AAF52
:104A60000AA803F047F912A80123914A914903F0DB
:104A700017FA57F8134D9DF84C007968BA683B7BDC
:104A80008DF82C00CDF83910CDF83D2014999DF803
:104A900054208DF8413012A8199B0C918DF83420C8
:104AA0001193CDF8354003F033F90AA803F052F919
:104AB0008046002800F0F480002426468DF8086027
:104AC0004FF000090AA803F089F81AABC2B203EB51
:104AD00009010D2A09F101031BB212D0542A0AA8B8
:104AE00001F8602C07D1012B05D103F01DF9012439
:104AF000451EA146E6E71D2B07DC0A2A05D099468C
:104B0000E0E7B9F11D0FDDDD4B46013B9BB21AAA70
:104B10001A440FFA83F902F8606C9DF808202F2AD6
:104B200004D0012B02D902A8FCF74AFC0AA803F022
:104B300037F882460028C1D10AA803F0FDF8002CFE
:104B400073D101235C4A5B4912A803F0A9F99DF8CF
:104B50004C20149B9DF85460B9683D687C688DF8C2
:104B60002C200C933A7B199B8DF8412012A81193AD
:104B70008DF83460CDF83D10CDF83550CDF8394082
:104B800003F0C6F80A214D480BF0CCFE4C480CF05F
:104B900029FD0AA803F0DEF8064600283ED0494D5C
:104BA000012406E01E2C03F8010C0CD00A280AD0C0
:104BB00001340AA803F012F8C0B202AB0D28234456
:104BC000F0D11E2CF4D10BF081FF05EB89023E4998
:104BD00002A811F0C5F9494639480CF089FC0121B9
:104BE0003A480BF09FFE55F829000FF03FFB0224D6
:104BF00009F1010902460B46009431480FFA89F980
:104C00000CF06EFDB9F13C0F04D00AA802F0C8FF09
:104C10000028C5D10AA8B04603F08EF80AA803F010
:104C200077F840461AB0BDE8F0870B2128480BF012
:104C300079FE534629460A2221480CF0F5FC20480B
:104C40000CF0D0FC12A81323194A1A4903F028F9D2
:104C50009DF84C20149B3868B9689DF854607C68B6
:104C60008DF82C200C933A7B199BCDF8350012A8B7
:104C70008DF841201193CDF83D108DF83460CDF8BA
:104C8000394003F045F829460AA803F043F8022208
:104C900010490AA802F090FF0AA803F04DF850E767
:104CA00014210D480BF03EFE05480CF09BFCB5E7C7
:104CB000D0C901004C22002004CA010010CA010022
:104CC000B0F9FF1F00F0FF1F1CCA010090C90100CE
:104CD000DCC90100E8C90100ECC901002DE9F04F71
:104CE0008C4A8D4B8D48127841F2B35191B083E8D4
:104CF0000300002A40F0FD80894B079372B6894C6F
:104D0000894B8A4941250E208022257008701C4657
:104D10001A702378844A1906FBD58549854B0D788E
:104D2000854C86481D700339247800780978D9703D
:104D30005C70987062B672B67A4D7C4841260F243A
:104D400080212E700470154611702A781206FCD549
:104D5000774C794879497A4A24780078097812782A
:104D6000DA711C715871997162B6764F764D774C35
:104D7000002643F698200AF0E7FA3E6064200AF025
:104D800093FA39687248102233460CF04DFC704893
:104D90000CF028FC4FF430533B6064200AF084FA96
:104DA0004FF434533B6064200AF07EFA4FF4FA70FB
:104DB0000AF07AFA0127674B697B28690393324628
:104DC0003346029600960497019706F0A5FA2B69E0
:104DD00042F21072C3F86822204609F075FC84F88C
:104DE0002970FCF7FBFC0A225B4920460CF06CFBA7
:104DF00020460CF0F7FB204609F0E8FA0721574857
:104E000002F06CFE0E21554802F098FE0A2154482B
:104E100002F0A8FF002840F0B5801C2151480BF09B
:104E200081FD4B480CF0DEFB484809F02DF90021CC
:104E300028200AF0D9F92025282009F09FFE013DFD
:104E4000FAD1012128200AF0CFF9294628200AF0BA
:104E5000CBF900262025282009F090FE0FF05CFEFB
:104E6000014630460FF0A4FD013D0646F3D1012175
:104E700028200AF0B9F93C4930460FF0A1FE4FF066
:104E80006A510FF09DFE4FF074510FF099FE606271
:104E90002E4809F031FB01212C4808F01BFB0121B1
:104EA0002A4808F011FB2A462946284808F008FB42
:104EB00008222E4925480CF007FB24480CF092FBF1
:104EC000224809F083FA032564200AF0EDF9012154
:104ED00011200AF057F964200AF0E6F900211120A8
:104EE0000AF050F9013DEFD14FF4C8700AF0DCF937
:104EF0009AE70B4B1E4E1F4D1F4C2048204907932D
:104F00001F460022012332702A70227003700B703A
:104F10003B60F3E6000F0020780E00207614340189
:104F2000C80C0020070002400000024006000240BA
:104F30000B000240941C00200A00024009000240BD
:104F40000800024010D00340CC240020D40C0020E4
:104F5000B0F9FF1F801A060020CA010078F1FF1F78
:104F60004C2200202CCA01008EC2DD404CCA010038
:104F700028F1FF1F10F1FF1F30F1FF1F74F1FF1F19
:104F8000000D0020FFF768FDFEF774FF08A8162348
:104F9000C54AC64902F084FF08A802F0DBFE50B102
:104FA0003622C34908A802F007FE08A80CF01AFB35
:104FB00008A802F0C1FEDFF8849308A802F0A8FE5A
:104FC000FBF756FF99F80030002B40F0CE8101210D
:104FD00006200AF009F9002106200AF0D3F8002182
:104FE00006200AF001F94FF4FA700AF05DF90A217F
:104FF000B0480BF097FCB0480CF0F4FA01211120F6
:105000000AF0C0F8012115200AF0BCF899F8003028
:1050100003BB06200AF0DAF80121D8B106200AF015
:10502000E3F8002106200AF0ADF8002106200AF07E
:10503000DBF84FF4FA700AF037F914200AF0C6F8DA
:105040000028E6D10A200AF02FF914200AF0BEF851
:105050000028DED1994807F09DFB99F800301BB17C
:10506000092197480BF05EFCFEF7A8FDFBF776FDE3
:1050700009F078FF934BDFF8C8821B68C8F800007E
:10508000022B07D1904B914A1B68C3EB031300EB33
:10509000830313608E4A8F4B11681B688E4F4FF449
:1050A000616202FB03F3C1EB011103EB81031A18E8
:1050B0003A6043B9894B1A6800F10A0393FBF2F393
:1050C00002FB03223A60DFF87CA28549DAF800008F
:1050D0000968844E02440129326003D1FCF70AFDBD
:1050E000DAF80000DFF860B27F4E0FF015FD7F495F
:1050F00009680FF065FD4FF06E510FF061FD0FF084
:1051000025FF7B493060DBF800000E687949861B7B
:1051100026EAE67681FB06313144F017C0EBE12048
:105120000FF092F80DF024FD0FF0A4FB7249734BC1
:1051300001FB00667249186081FB06313144F017AB
:10514000C0EB61100FF080F80DF012FD0FF092FB34
:105150006C4AA0EB001106EB810616606A4A034612
:1051600010216A4813600BF0DDFB644B524819684C
:105170000CF0BEF9644B504819680CF0B9F9614B5A
:105180004D4819680CF0B4F94B480CF02BFA082183
:105190005F480BF0C7FBDAF8001047480CF0A8F99D
:1051A00045480CF01FFA08215A480BF0BBFBDBF80E
:1051B000001041480CF09CF93F480CF013FA0E2106
:1051C00055480BF0AFFBD8F80000FCF74DFC0C2164
:1051D00052480BF0A7FB3868FCF746FC3B68D8F850
:1051E00000204F48C2EB030B15210BF09BFB5946E7
:1051F00031480CF07DF930480CF0F4F90A26FCF740
:10520000EDFA09F0AFFE0C224649C8F80000464806
:105210000CF05AF944480CF0E5F939680E20FCF717
:1052200029FBD8F800101920FCF724FB3E4809F0B0
:10523000CDF84FF47A700AF037F8013EDFD1BBF1B8
:105240003C0F00F3A2803848384D09F03DFA0123A5
:105250006421374884F829300BF0B8FCFDF7CCFD09
:1052600028465522202101F0DDFB38B1EA8842F0C2
:10527000040292B22846242101F0D4FB00212B48DD
:105280002C4C01F071FF2C4B28481A78114601F084
:1052900055FC264801F0F4FB244801F07FFC012175
:1052A000152009F06FFF51E044C801004C22002096
:1052B0004CC8010020CA0100B0F9FF1F69070000B7
:1052C000ACC80100DC0D0020780400205C04002044
:1052D0002C0D0020CC1C0020D00E002034F1FF1F2C
:1052E000980F0020940F0020DC1C002058F1FF1FB5
:1052F00008F1FF1FC5B3A291F0F1FFFF6004002089
:1053000089888888C81C0020B40B00206CCA010062
:1053100080CA01008CCA010098CA0100A8CA010015
:10532000B8CA0100D0CA0100D40C0020D40F00205C
:105330000082FF1FC80C002038F1FF1FD81C00207E
:105340006C0400206CF1FF1F8C1C0020079B196867
:10535000002940F0E9808249824B00204FF0FF3263
:1053600008601A6011B0BDE8F08F12217E480BF082
:10537000D9FA032609F0F6FDFCF776FB4FF47A70B4
:1053800009F092FF013EF5D121E63146152009F0E2
:10539000F9FE0A21754806F031F93146734804F0E8
:1053A000D3FF3021714804F0CFFF31466F4804F03D
:1053B000CBFF31466D4804F0C7FF6A7B29696B4813
:1053C0000096012306F0E2F90A21684806F016F972
:1053D0003146664804F0B8FF0221644804F0B4FF87
:1053E0003146624804F0B0FF3146604804F0ACFF3B
:1053F0006A7B29695D480096012306F0C7F93146AA
:10540000102009F0BFFE99F800301BB1092158485F
:105410000BF088FA574B5548197806F0EFF86B21D6
:10542000524804F091FF00264021504804F08CFFC0
:105430006A7B29694D480096012306F0A7F90520EB
:1054400009F032FF324630463F21FDF773FBAE21B3
:10545000494808F021FE0121112009F093FE0022A5
:1054600011461423454806F093FE0A2009F01CFF5C
:105470000021112009F086FE414806F061FC09F088
:1054800071FD3B68C8F800001B1A3C2BDFDC99F863
:1054900000301BB1092136480BF044FAFEF78EFBB1
:1054A0000A2138480BF03EFA37480CF09BF80022EE
:1054B0003F210D20FDF73EFB0A212C4806F09EF807
:1054C00000212A4804F040FF3021284804F03CFF26
:1054D0000021264804F038FF0026AB21234804F0C1
:1054E00033FF6A7B296921480096012306F04EF9B3
:1054F0000A211E4806F082F831461C4804F024FFB9
:1055000002211A4804F020FF3146184804F01CFF1D
:105510006321164804F018FF6A7B29691348009636
:10552000012306F033F98EE6012907D1042009F0A2
:1055300029FE40F6B83009F0B7FE216802290BD1E8
:105540000121042009F01EFE4FF4FA6009F0ACFEC0
:105550000021042009F016FE0C4B01221A70FAE615
:1055600050150020E40F002058CA0100CC24002070
:10557000ACC801003CF1FF1FD40C0020900E0020AD
:10558000040D00209CC80100B0F9FF1FE80F0020A7
:105590002DE9F04FADF2145D09F0E4FCBD4FBE4DB6
:1055A000386006F085FF2B68BC4C984200F06D8196
:1055B000237833B10A21BA480BF0B4F9B9480CF09A
:1055C00011F83868B84EDFF8389306F071FF28609C
:1055D000386806F091FFB5492B680246B44810F0D0
:1055E00099FCB349B348C6F8009002F0CDFCDFF84F
:1055F000FC82386898F80030002B40F02C8106F0CF
:1056000045FF0546386806F065FF8346386806F0B2
:1056100019FF8246386806F027FFCDF800B00290E7
:10562000CDF804A02B46A24AA349A44810F072FC6E
:1056300000212820C6F8009009F0D6FD002620257C
:10564000282009F09BFA0FF067FA014630460FF068
:10565000AFF9013D0646F3D199490FF0B1FA4FF089
:105660006A510FF0ADFA4FF074510FF0A9FA012111
:105670008146282009F0B8FD0DF214401623914A06
:105680008C4902F00DFC0DF2144002F063FB00287F
:1056900040F010822378002B40F098828A4B8B4A8E
:1056A000DFF84CA21A600DF2144002F031FB3223F5
:1056B000824A8049864D0DF2144002F0F1FB0DF54F
:1056C000A2639DF8180453F8EF1DC5F80D10DDF81E
:1056D0001C142871A9609DF82004DDF8301428738B
:1056E000E961586899681B7BC5F811006B760DF26B
:1056F0001440C5F8151002F00BFB23785BB36F481C
:1057000010F0DEFC01466D480BF00CF965480BF01B
:1057100069FF0A216F480BF005F96F4B18680EF00E
:10572000A5FD022602460B4600965E480BF0D8FF08
:105730005C480BF057FF48460EF098FD0096024675
:105740000B4658480BF0CCFF012164480BF0EAF8F7
:1057500054480BF047FF624E059458E0336898F8C0
:105760000040564801331A4633600CB15D49534836
:1057700010F0D0FB3223514A4E490DF2144002F092
:105780008FFB9DF81814DDF81C349DF820249DF83B
:1057900022C49DF823E49DF824042971AB609DF890
:1057A00025149DF827342A739DF826249DF821B4EA
:1057B00085F80EC085F80FE09DF828C49DF829E40F
:1057C000287469749DF82A049DF82B14AA74EB744C
:1057D0009DF82C249DF82D3485F814C085F815E02B
:1057E000E9752A76A87585F80DB06B760DF2144030
:1057F000DDF83034EB6102F08BFA304810F060FCD9
:1058000001462E480BF08EF826480BF0EBFE304890
:1058100002F0A0FA34490028A0D098F80030059C86
:10582000324E002B6ED0012BCAF81490304E00F08F
:10583000A78023785BB109212E480BF073F82E4B1B
:10584000184819680BF054FE16480BF0CBFE0DF209
:10585000145DBDE8F08F06F019FE0546386806F0C5
:1058600039FE8346386806F0EDFD8246386806F05A
:10587000FBFDCDF800B00290CDF804A02B460C4AF9
:105880001E490E4810F046FBD2E6074EDFF8709036
:10589000ADE600BF6C040020E40F0020D81C0020FF
:1058A000E0CA0100B0F9FF1FA8220020ECCA0100E5
:1058B000B80C00204C220020F8CA0100300400205F
:1058C0008EC2DD4044C801000CED00E00400FA0582
:1058D000A81C002084CB0100D41C002090CB010028
:1058E000CC0F0020A0CB010094CB010030F1FF1FB2
:1058F000780E0020F0CB0100DC1C002010CB010052
:105900006D070000B649B74DB74AB84BDFF8F4E26F
:1059100003C9286092E80300A86093E80300DEF85A
:1059200000B0E86001234FF01008AB82EB825846CC
:10593000C5F810800FF030FB5946A86158460FF0AB
:1059400037F80FF029FBAA4AAA4BE86192E8030056
:105950001B6868625B02022003F1240E288429463A
:105960002C22A548AB62A5F82280C5F804E002F01D
:1059700023F93378CAF81490012BA04E7FF459AF65
:1059800038689F4D06F070FD3072386806F05AFD99
:105990007072386806F09EFDB072386806F076FDC9
:1059A000F072386806F084FD3073386806F0A4FDA4
:1059B00000273082314618228F48778202F0FCF8A7
:1059C000904B9149D3F80080FC2209A808F09EFE74
:1059D00008228E49284610F031FC4FF480760223CD
:1059E00009A9FC22C5F80C3105F110002F81C5F87A
:1059F0001081EE6008F08AFE29464FF48A727E48D4
:105A000002F0DAF8013002D1814B824A1A60824BEF
:105A1000824F1B786420C8214FF49672002678606C
:105A2000B960FA603E60002B40F00D824FF0020A30
:105A30004FF00108D3464646794B1B78002B40F0C7
:105A4000BF81784B1B78002B40F07A814FF48A7924
:105A500009FB0655FC2274490DF2144008F056FE6D
:105A600008227249284610F0E9FB0023C5F81031DE
:105A700000230DF21441FC222B81EB60C5F80C31A0
:105A800005F1100008F042FE4A4629465A4802F045
:105A900093F8013002D15E4B5E4A1A603601BB19A1
:105AA0006420C8214FF4967247F8068058609960C8
:105AB000DA60BEE65E485F4D10F002FB5C490246CC
:105AC0000DF2144002F078F82C210DF2144002F08F
:105AD000BFF805F1080615F8011F00230A220DF290
