:1000000000800020BD01000041AD0000F9AC0000FF
:10001000F9AC0000F9AC0000F9AC0000F9AC00004C
:10002000F9AC0000F9AC0000F9AC000041AD0000F3
:1000300041AD0000F9AC0000A9CB0000ADCC000040
:1000400041AD000041AD000041AD000041AD0000F8
:1000500041AD000041AD000041AD000041AD0000E8
:1000600041AD000041AD000041AD000041AD0000D8
:1000700041AD000041AD000041AD000041AD0000C8
:1000800041AD000041AD000041AD000041AD0000B8
:1000900041AD000041AD000041AD000041AD0000A8
:1000A000158E0000218E000041AD000041AD000022
:1000B00041AD000041AD000041AD000041AD000088
:1000C00041AD000041AD000041AD000041AD000078
:1000D00041AD000041AD000041AD000041AD000068
:1000E00041AD000041AD000041AD000041AD000058
:1000F00041AD000071B8000041AD0000ADD200007C
:1001000041AD0000D9D3000041AD000041AD000079
:1001100041AD000041AD000041AD000041AD000027
:1001200041AD000041AD000041AD000041AD000017
:1001300041AD000041AD000041AD0000ADA70000A1
:1001400041AD000041AD000041AD000041AD0000F7
:1001500085CE000099CE0000ADCE0000C1CE0000DB
:1001600041AD0000EDBA000041AD000041AD00001E
:1001700041AD000041AD000041AD000041AD0000C7
:1001800041AD000041AD000041AD000041AD0000B7
:1001900041AD000041AD000041AD000041AD0000A7
:1001A00041AD000041AD000041AD000041AD000097
:1001B00041AD000041AD000065C90000564B4CF256
:1001C000205210B51A804DF628121A8000BF00BFC9
:1001D00000F014FB514B4FF010621A60504A9A60C5
:1001E000504ADA60504A136813F4807304D14F49BF
:1001F0000B604FF4A85313604D4B1A78110703D5C9
:100200001A7842F008021A704A4B4B492A221A7097
:100210004A4A4B4B8B4204D252F8040F43F8040B6A
:10022000F8E7484B484900228B4202D243F8042B9E
:10023000FAE74649464A002352F8230041F82300D2
:1002400001336F2BF8D1434B434A802103F8011B44
:100250009342FBD1414B3D4A1A60414B8A221A70AE
:10026000A3F5805324225A70A0221A709A7992071B
:10027000FCD59A79D406FCD43A4A937903F00C035E
:10028000082B384BF9D103221A7140225A719A79FE
:100290009006FCD5334A9179324B4906FBD5324A58
:1002A000324911600221516020221A709A7902F0BD
:1002B0000C020C2AFAD12E4B2E4A1A602E4B4BF60A
:1002C0007F321A6000225A60072243F8042C2B4A1E
:1002D000C3F80C2D62B60AF039FF144B1B68DA071D
:1002E00005D527480AF096FE264B274A1A60274B69
:1002F0001B785B0609D5234C234B22689A4204D114
:100300001F480AF087FE0023236010F077FB0AF0F5
:100310001BFD0CF025FFFEE70E2005403080044059
:10032000823F04000100002B10D0034014D0034092
:1003300002D0074000E0074010040020E88F0200D0
:1003400020EFFF1F100400208428002000EAFF1F78
:100350000000000000E400E05FE400E008ED00E0E1
:100360000050064000400640448004400000131145
:1003700004800440C010050014E000E000002020CC
:10038000AD3AB65A1CE00340A5C3945A00F00740AA
:10039000FFFFFFFFFFFFFFFFFFFFFFFFFFFFFFFF6D
:1003A000FFFFFFFFFFFFFFFFFFFFFFFFFFFFFFFF5D
:1003B000FFFFFFFFFFFFFFFFFFFFFFFFFFFFFFFF4D
:1003C000FFFFFFFFFFFFFFFFFFFFFFFFFFFFFFFF3D
:1003D000FFFFFFFFFFFFFFFFFFFFFFFFFFFFFFFF2D
:1003E000FFFFFFFFFFFFFFFFFFFFFFFFFFFFFFFF1D
:1003F000FFFFFFFFFFFFFFFFFFFFFFFFFFFFFFFF0D
:10040000FFFFFFFFFFFFFFFFFFFFFFFFDEF9FFFF23
:1004100010B5054C237833B9044B13B10448AFF33E
:1004200000800123237010BD100400200000000094
:10043000E48F0200084B10B51BB108490848AFF320
:1004400000800848036803B910BD074B002BFBD0A0
:10045000BDE81040184700BF000000001404002051
:10046000E48F02001004002000000000002070470C
:10047000704700BFF8B55548554D564C297803785C
:100480002278DFF868E1544F544E120442EA032305
:10049000FF222A700270802022708EF800003870CF
:1004A000B2794F480B4312F00C0FC36002D1B379FD
:1004B000DC063DD4494A9379C3F38103032B40D032
:1004C000464B9A79C2F38102022A42D0434A937979
:1004D000C3F38103022B53D0404A9379C3F38103C2
:1004E000022B61D03D4A9379C3F38103012B51D094
:1004F0003A4A9379C3F38103012B5CD0374B9A7945
:1005000012F00C0F03D19A79D20600D49B79354DA5
:10051000354B2A7853F82240D4B1236820469B6893
:1005200098472B7804EB83046468002CF5D1F8BD60
:10053000B3799806EBD5294A9379C3F38103032B4A
:10054000BED19379D906BBD493799B06DFD4B7E7A4
:10055000F8BD9A79D706B9D49A799606B6D559785E
:1005600001F0020101F0FF020029AFD120211A7031
:100570001A461970937903F00C030C2BFAD1C6E7D5
:100580009379DD06A8D493799C06A5D4537898076F
:10059000BDD5A1E79379DF06AAD593799E06A7D4A6
:1005A00053789D07B3D4A3E79379D9069AD45378A7
:1005B0009B07ACD496E79379DC069FD59379980690
:1005C0009CD453789907A2D598E700BF06C007408E
:1005D00005C0074007C0074009C00740004006406B
:1005E0005C28002014250020D424002008C00740E7
:1005F00090F92410104B03604B1C06D0F0B40F4E42
:1006000056F82130984201D0F0BC70470C4F57F893
:10061000213033B18D0000245A1953685460002BE7
:10062000FAD1084C23780022013B237047F821209F
:1006300046F82120E8E700BFCC7C0100F42400202C
:10064000D42400201525002038B590F924506B1CC7
:100650001BD00E4B0E4953F825400E4BEDB24FF018
:10066000FF320D701A6084B1AD0002E02C44646862
:100670005CB194F82530002BF8D0236820462C4438
:100680001B6898476468002CF3D138BDD42400203F
:100690001425002090E9FF1F704700BF90F9241037
:1006A000104B03604B1C06D0F0B40F4E56F82130AF
:1006B000984201D0F0BC70470C4F57F8213033B14D
:1006C0008D0000245A1953685460002BFAD1084C4D
:1006D00023780022013B237047F8212046F821208F
:1006E000E8E700BFCC7C0100F4240020D4240020E3
:1006F0001525002090F92410104B03604B1C06D0E8
:10070000F0B40F4E56F82130984201D0F0BC70473B
:100710000C4F57F8213033B18D0000245A1953681B
:100720005460002BFAD1084C23780022013B23703F
:1007300047F8212046F82120E8E700BFCC7C0100E3
:10074000F4240020D42400201525002010B50446F0
:100750000CF076FB204610BD0AF056BC2DE9F041A6
:100760000E4680460AF050FC174D286008F05EFFE8
:100770000746286808F04CFF0446286808F03AFF4E
:100780006401C0B204F4FF54BFB20443A7F2BC77C3
:1007900044EA4724A8F80040286808F001FF07460B
:1007A000286808F00BFF0446286808F015FFFF02D0
:1007B000640107F4FF2704F4FF54C0F346003C43F0
:1007C00004433480BDE8F0816C04002070B5044619
:1007D00008460D4610F0F4FF2368024629462046DD
:1007E0005B68BDE87040184738B505460CF0D6FB8D
:1007F000044628460CF082FB204438BD404A414B59
:10080000102010801B781B072CD5F0B53E4E3F4DB5
:100810003F4C31782B7822783E4FDFF810E1824050
:1008200042EA03230B43FF22802132702A70227098
:100830008EF800103970DF07374A0CD51A23936001
:10084000364D374C3748384900232B70D36023701E
:1008500003700B70F0BD1E0705D4DD0606D504231A
:100860009360EDE7704721239360E9E79C0604D489
:10087000590604D516239360E2E79060E0E71F066F
:1008800002D509239360DBE7DE0502D50A239360D6
:10089000D6E79D0502D50D239360D1E75C0502D50F
:1008A0000B239360CCE7180502D51E239360C7E79E
:1008B000D90402D502239360C2E79F0402D507231F
:1008C0009360BDE75E0402D506239360B8E71D047C
:1008D00002D515239360B3E7DC0302D5242393608C
:1008E000AEE7980302D522239360A9E7D90202D587
:1008F00025239360A4E79B0244BF232393609FE7D3
:100900000020054002D0074005C0074006C0074050
:1009100007C0074009C007405C28002000C007400E
:1009200001C0074002C0074003C0074008C007409D
:10093000002976D02DE9F04F0C469100631883B062
:100940005D68002D57D06B185E68002E50D073186C
:100950005F68002F49D07B18D3F80480B8F1000FEE
:100960003CD008EB0103D3F80490B9F1000F32D06A
:1009700009EB0103D3F804A0BAF1000F27D00AEB6A
:100980000103D3F804B0BBF1000F18D00BEB010347
:100990005B6863B1194401934968FFF7C9FF019B84
:1009A00093F825201AB11A681846536898479BF89F
:1009B000253023B1DBF8003058465B6898479AF839
:1009C000253023B1DAF8003050465B68984799F833
:1009D0002530002B35D198F8253063BB97F82530AA
:1009E0001BB13B6838465B68984796F82530CBB911
:1009F00095F8253063B994F8253013B903B0BDE8F4
:100A0000F08F23685B68204603B0BDE8F04F1847BD
:100A10002B6828465B68984794F82530002BEDD06A
:100A2000EFE77047336830465B68984795F82530A4
:100A3000002BE0D0ECE7D8F8003040465B689847E0
:100A4000CCE7D9F8003048465B689847C3E700BF59
:100A500090F92420531C26D01B4B2DE9F04153F86C
:100A60002240D2B2ECB19300E1184D68B5B1E9185B
:100A70004E6866B1F1184F6837B13B445968FFF7CB
:100A800057FF97F82530A3B996F8253063B995F844
:100A900025301BB12B6828465B68984794F82530B1
:100AA00063B9BDE8F0817047336830465B689847AA
:100AB000EDE73B6838465B689847E5E723682046E2
:100AC0005B68BDE8F0411847D424002038B50D21FB
:100AD000154C16480BF03EFD15480CF00FFA258812
:100AE000144810210BF036FD294611480CF056FA37
:100AF0000F480CF003FA00230F4A1946112082F820
:100B0000F6300AF099FA0D4B0D4A1B7812882280B4
:100B100013B10C480CF094F90B4805F0F1FB64207C
:100B2000BDE838400AF0C4BAE0260020107D01007C
:100B3000B0F9FF1F207D0100C00B002034F1FF1F22
:100B400008270020800F00209C1C00209B4B93E86E
:100B5000030070B59A4C9B4D0123238184E8030068
:100B60000822994904F10C0010F0E8FE0822974988
:100B700004F1140010F0E2FE0822954904F11C0073
:100B800010F0DCFE0822934904F1240010F0D6FE98
:100B90000822914904F16C0010F0D0FE08228E4921
:100BA00004F1740010F0CAFE08228B4904F17C00A5
:100BB00010F0C4FE0822884904F1840010F0BEFE43
:100BC000864A874B106819680FF07EFA854BC4F887
:100BD000CC001B78C4F8D000012B0CBF824983499C
:100BE000C4F8D400C4F8D800082204F1FC0010F0C6
:100BF000A5FE7F4B93E8030004F5847383E80300AC
:100C00000223A4F8043108227A4904F5887010F010
:100C100095FE0822784904F5B47010F08FFE774AEB
:100C20004FF07E5392E80300C4F8CC31C4F8C831C9
:100C3000734B04F5B87282E8030093E803000323C2
:100C400085E803000822A4F800326E4905F10C0083
:100C500010F074FE08226C4905F1140010F06EFECD
:100C600008226A4905F11C0010F068FE684B6949CA
:100C7000C4F8C41293E80300674A05F16C0686E8DD
:100C8000030005F17C0305F1740686E8030083E8A0
:100C9000030092E8030005F1FC0383E803005F4BC7
:100CA000C4F8C8325E4E5F49C4F8CC620923A4F888
:100CB000FC32082205F5847010F040FE08225A49E3
:100CC00005F5887010F03AFE0822584905F58C7039
:100CD00010F034FE0822564905F5907010F02EFEF3
:100CE0000822544905F5947010F028FE0822524954
:100CF00005F5987010F022FE0822504905F59C7009
:100D000010F01CFE08224E4905F5A07010F016FEEA
:100D100008224C4905F5A47010F010FE08224A493B
:100D200005F5B47010F00AFE0822474905F5B870C1
:100D300010F004FE0822444905F5BC7010F0FEFDD9
:100D4000424B93E8030005F5C07282E8030005F505
:100D5000C87305F5C47282E8030083E80300082223
:100D60003B4905F5CC7010F0E9FD0822384905F53E
:100D7000D07010F0E3FD0822354905F5D47010F06D
:100D8000DDFD344B18680FF053FA4FF060510FF04F
:100D9000A3FA314A314BC4F8C003C4F8C403C4F801
:100DA000C803C4F8CC23C4F8D023C4F8D423C4F8AF
:100DB000D833C4F8DC33C4F8E03370BD347D0100AF
:100DC000DC1C0020D41E0020407D0100487D010075
:100DD000507D0100587D0100607D01004C04002021
:100DE00054F1FF1F68040020647D0100947D010020
:100DF0006C7D0100787D0100807D0100887D01000F
:100E00009C7D0100A87D0100AC7D0100B47D010046
:100E1000BC7D01000000A039147E01000000903963
:100E20000000F039C87D0100D07D0100D87D0100AF
:100E3000E07D0100E87D0100F07D0100F87D01000A
:100E4000007E0100087E01001C7D01001C7E010067
:100E5000107E0100F0F0FF1F0000FA3C0000163E7B
:100E600010B5294C29482278114604F04BFD23681F
:100E70000F2B0CD8DFE803F00C1014181C202428CA
:100E80002C3034383C404408214B224A1A6010BDB3
:100E90001F4B214A1A6010BD1D4B204A1A6010BD1D
:100EA0001B4B1F4A1A6010BD194B1E4A1A6010BD19
:100EB000174B1D4A1A6010BD154B1C4A1A6010BD15
:100EC000134B1B4A1A6010BD114B1A4A1A6010BD11
:100ED0000F4B194A1A6010BD0D4B184A1A6010BD0D
:100EE0000B4B174A1A6010BD094B164A1A6010BD09
:100EF000074B154A1A6010BD054B144A1A6010BD05
:100F0000034B134A1A6010BD3CF1FF1FC80F0020AD
:100F10004C040020BD549341103377C0993918C058
:100F2000BE0D68BFCE71153F8D090340CCC962402C
:100F300009A7A3407DDBD140C416014154FC1741F1
:100F4000D0E83041195546419FAB5F41A041764101
:100F50005E2E864110B4114A13780133DBB2137050
:100F60001378282B11D00E490E4B10781B780A7875
:100F70000B4983428CBF00230123934203D90A4AC1
:100F8000012313700B7010BC7047074804490023FD
:100F90000224137004700B70E6E700BF680E002097
:100FA000520F002068F1FF1FCC21002010B4174B16
:100FB00017491A78D2B2C0B288541A780132D2B224
:100FC0001A701A78D2B2002088541A780132D2B23C
:100FD0001A701A78782A11D00E4A0F4819780378B7
:100FE00012780C488B428CBF00230123934203D913
:100FF0000A4A01231370037010BC70470749054A61
:10100000187002240C701070E7E700BF920B0020EC
:10101000E00D0020880F002044F1FF1F9A1C0020E3
:1010200070B41C4B1C4C1D4D00221868A15CC9B249
:101030002954196801320131062A1960F5D10822B4
:101040001868A15C134EC9B22954196801320131E4
:10105000142A1960F4D13268B2F5E16F11D0104A48
:1010600010491B68096812780D488B42B4BF0023F1
:101070000123934203D90C4A01231370037070BCFF
:1010800070470948064A002102243160047011703B
:10109000E6E700BFD00E0020D02100208804002009
:1010A000961C002060F1FF1FD80E002070B472B6AD
:1010B0001B491C4B1C4841250E2480220D700470D6
:1010C00019461A700B78174A1806FBD5174B1848A3
:1010D0001D78184C18490570033B247809781B7853
:1010E000C3704470817062B672B60D490E4C4126D1
:1010F0000F2580230E702570114613700B781B0688
:10110000FCD50A4C0B490C4A0C4B24780978127810
:101110001B78C37104714171827162B670BC7047F3
:101120000700024000000240060002400B0002409F
:10113000881C00200A00024009000240080002400A
:1011400038B50021282009F08BFF00252024282015
:1011500009F00CFD0FF06CF8014628460EF0B4FFC4
:10116000013C0546F3D109490FF0B6F84FF06A513A
:101170000FF0B2F801210446282009F071FF204643
:101180004FF074510FF0A8F838BD00BF8EC2DD409B
:101190002DE9F041244C254E94F800E06578A778BD
:1011A000E27894F804C06379A079E17941EA0020FB
:1011B00045EA0E2143EA0C2331801D4D1D491E4E88
:1011C00042EA07225B422A800B8000B20FF030F81F
:1011D000227A637A94F80AC0E57A94F80C80677BE7
:1011E000306043EA0223154A94F80EE01380E17B55
:1011F00047EA0820277C627CA67CE37C42EA07223F
:1012000045EA0C240E4F0F4D40422C8038800E4D85
:101210000E4C0F48228041EA0E2143EA0623298022
:101220000380BDE8F08100BFD0210020841C002095
:10123000861C0020900B00206C0E002080040020F3
:10124000CE210020820400207204002070040020BF
:101250007404002010B5114C2168012915D0022911
:1012600003D00F4B01221A7010BD0121042009F098
:10127000E3FE4FF4FA6009F01BFF0021042009F09F
:10128000DBFE074B01221A7010BD042009F0D4FECA
:1012900040F6B83009F00CFF2168E0E7CC0C0020E4
:1012A000DC0F0020124B10B51C68012C0FD001215F
:1012B000042009F0C1FE4FF4FA7009F0F9FE002194
:1012C000042009F0B9FE0B4B01221A7010BD002159
:1012D000042009F0B1FE4FF47A7009F0E9FE2146CE
:1012E000042009F0A9FE034B01221A7010BD00BFB3
:1012F000CC0C0020DC0F0020114B10B51C68012C19
:101300000CD00121042009F097FE642009F0D0FEE2
:1013100000210420BDE8104009F08EBE0021042009
:1013200009F08AFE4FF4C87009F0C2FE214604207D
:1013300009F082FE41F27070BDE8104009F0B8BEBD
:10134000CC0C002008B5104B1B68012B0FD00121DD
:10135000042009F071FE40F6B83009F0A9FE002122
:10136000042009F069FE094B00221A7008BD4FF4F1
:101370007A7009F09DFE0021042009F05DFE034B08
:1013800000221A7008BD00BFCC0C0020DC0F00202A
:1013900008B5114A114B106819680FF03BF980B974
:1013A000034613F0FF0F11D10D4B1968A1F1010194
:1013B000B1FA81F1490949B90820BDE8084009F0AE
:1013C0003BBE4FF0010313F0FF0FEDD001210820C9
:1013D000BDE8084009F030BED40E002074F1FF1FB4
:1013E000940F00202DE9F041454B464C59781F7869
:1013F000627898782378A678434D0902120241EA70
:10140000074142EA034308431E430EF00DFF3F4BE2
:10141000044618880EF008FF4FF087410EF05CFF7D
:10142000014620460EF04EFE394B044618880EF059
:10143000FBFE21460EF050FF4FF050510EF04CFFD6
:1014400034490EF041FE34490EF0FAFF334B286068
:10145000074618880EF0E8FE21460EF03DFF4FF0DB
:101460006E510EF039FF2E4B804618880EF0DCFED0
:101470004FF08E410EF030FF014640460EF024FE44
:10148000804630460EF0D0FE014640460EF024FF66
:101490004FF054510EF020FF224B064618880EF0F4
:1014A000C3FE21460EF018FF4FF070510EF014FFEE
:1014B0001D4B044618880EF0B7FE4FF08F410EF01A
:1014C0000BFF014620460EF0FFFD014630460EF0B0
:1014D000F9FD4FF064510EF0FFFE14490EF0B0FF1D
:1014E000134B144A1860186811680EF0EBFD12498E
:1014F0000EF0A6FF114B18602F60BDE8F08100BF11
:101500004C0F00203C0D0020D41C0020840400203F
:10151000FA0E00200000FA440000C842981C002087
:10152000500F0020E8210020941C002000002041E2
:1015300064040020640E002006C1DE42D40E0020A8
:1015400030B5334B334D1A78697B286985B0012358
:1015500000248DE81800052307F05EF92B69D3F805
:101560003821D3F8341191420ED002AC184607F05E
:101570006DF92B69D3F83811D3F8342120EAE070E3
:10158000914204F8010BF1D19DF80A209DF8090061
:10159000214B42EA00201C680EF04AFE4FF08D41BC
:1015A0000EF090FD1D4B0546214618680EF08AFD91
:1015B000014628460EF090FE4FF060510EF08CFE72
:1015C00021460EF081FD16490EF086FE154B196876
:1015D00004460EF077FD14490EF032FF9DF80C30F2
:1015E000124A01469DF80B00116043EA00200011E9
:1015F00018380EF01DFE0E490EF06EFE0D490EF06D
:1016000061FD0D4A0D4B10601C6005B030BD00BF80
:1016100028F1FF1FC0240020C40C00206CF1FF1F24
:1016200000007A44640E002006C1DE42D40E002081
:10163000CDCC4C3D00004842D41C00206404002066
:1016400010B50D4C204608F07DFDFFF779FDFFF742
:1016500077FD6062204608F0ADFF2046012108F0CA
:10166000C7FA2046012108F0BDFA002220461146A3
:10167000BDE8104008F0B2BAD40C002010B5012229
:101680000446084908480BF025FC092C04DC01221B
:10169000064905480BF01EFC21460348BDE81040F2
:1016A0000BF07CBC58800100D40C0020247E01008B
:1016B00038B50C4605460121234808F093FA2AB2B2
:1016C0000021214808F08AFA204607F0AFFF0146C2
:1016D0001D480BF063FC2D211B4808F045FA2046FD
:1016E00007F096FF014618480BF058FC2D211648CC
:1016F00008F03AFA204607F07DFF014612480BF049
:101700004DFC0222114910480BF0E4FB204607F083
:1017100047FF092804DC01220D490B480BF0DAFBD6
:10172000204607F03DFF014607480BF037FC2046F6
:1017300007F044FFFFF7A2FF204607F04DFFBDE88A
:101740003840FFF79BBF00BFD40C0020287E01006B
:10175000247E010010B501213448354C08F042FACE
:101760000121324808F044FA002211462F4808F0BF
:1017700035FA2368002B3BD0012B51D008220021E1
:101780002A4808F02BFA2B4B1B684BB12A4B082038
:101790001968FFF78DFF0222284924480BF09AFBB5
:1017A00010220021214808F019FA042224491F4878
:1017B0000BF090FB234B1D4819680BF0EFFB012247
:1017C00021491A480BF086FB0822204917480BF0E4
:1017D00081FB1F4B154819680BF0E0FB01221A49E9
:1017E00012480BF077FB1148BDE810400BF086BBA8
:1017F000082218490D480BF06DFB174A174B11686A
:101800001B680A48C91A0BF0C9FB01220E49074898
:101810000BF060FB05480BF071FB2368012BADD189
:1018200007220F4901480BF055FBA7E7D40C002015
:1018300044150020600E00205C040020447E01005E
:10184000487E010070F1FF1F387E0100507E0100CC
:10185000801C00202C7E0100C80E00206C0400209B
:101860003C7E010030B583B002AD079C05F8082D21
:101870008DF80200069A8DF804304E3428468DF813
:1018800001108DF805208DF8064007F0DFFE09F005
:10189000C1FB03B030BD00BF70B58CB004460FF083
:1018A0008FFF00B2012829DDB4F9003044F652124E
:1018B000934200F0C68124DC44F25242934200F08D
:1018C000C9813FDD44F24172934200F0B1816EDD87
:1018D00044F64412934200F04D8144F65012934274
:1018E00000F0E28044F25372934207D109AAE01C4F
:1018F000A9490FF0C1FEA94B099A1A6001200CB04A
:1019000070BD45F24B02934200F0AD8134DD45F2EB
:101910004432934200F0328140F3A98045F25042B4
:10192000934200F01C8145F24272934200F0E28043
:1019300045F24C329342E1D199499A4A01230B7006
:101940001370DBE744F24C42934200F06D8140DCBF
:1019500044F25012934200F0BA8044F2483293426B
:10196000CCD1E01C09AA8C498F4C0FF085FE099858
:101970000EF05EFC2060C1E744F64952934200F04D
:10198000438137DC44F64242934200F0AB8044F698
:1019900042529342B2D109AA7F49E01C0FF06CFE7B
:1019A000824A0999824B116002221A60A6E744F22A
:1019B0005342934200F09A8044F2506293429DD188
:1019C00009AAE01C74490FF057FE7A4B099A1A6075
:1019D00094E744F24E42934275D044F2504293420F
:1019E0008CD109AAE01C6C490FF046FE724B099A93
:1019F0001A6083E744F6505293424CD044F6545256
:101A000093427FF47BAF09AD08A907AA04AB039505
:101A100002910192009306AA05ABE01C67490FF002
:101A20002BFE069C059D049B07A804F5FA6407C8D5
:101A300000950194FFF716FF112161480AF08AFD15
:101A400007F082FE01465F480BF0A8FA5D480BF0F4
:101A500055FA1B215C480AF07DFD09F0D5FA0146D4
:101A600058480BF09BFA57480BF048FA46E745F206
:101A70004D02934221D045F2502293427FF43EAF73
:101A8000E01C09AA4449514C0FF0F6FD09980EF0EC
:101A9000CFFB206032E709AAE01C3F490FF0ECFDC4
:101AA0004B4B099A1A6029E709AAE01C3A490FF042
:101AB000E3FD484B099A1A6020E74749394A012358
:101AC0000B7013701AE7454B01221A6016E7E01CF1
:101AD00009AA3149424C0FF0CFFD09980EF0A8FB3E
:101AE00020600BE73F4B01221A708CE73E4B01222E
:101AF0001A6003E709AD08A907AA04AB0395029190
:101B00000192009306AA05ABE01C2C49374C0FF05C
:101B1000B3FD069B09980499059A089E079D8DF8C8
:101B200028001E330AA88DF82E308DF82C108DF861
:101B30002D208DF829608DF82A5007F087FD1C4B69
:101B4000206001220A212A481A600AF003FD216858
:101B50001C480BF023FA1B480BF0D0F9CEE6E01C32
:101B600009AA0D49234C0FF087FD09980EF060FB80
:101B70002060C3E6204B01221A70BFE60AAB09AA17
:101B80001E49E01C0FF078FD1D491E4B09980A9A6A
:101B900008601A60B2E600BF5C7E01003CF1FF1FE6
:101BA0000CF1FF1F34F1FF1F54F1FF1F78040020D8
:101BB000600E0020901C002004F1FF1F607E0100D9
:101BC000747E0100B0F9FF1F887E01004CF1FF1FF9
:101BD000F4F0FF1F10F1FF1F68040020D00C00205C
:101BE00008F1FF1F000D0020C82100205C04002028
:101BF000A47E010024F1FF1FCC1C00206C7E01009C
:101C0000C01C00202C0D002009AA1A49E01C0FF06E
:101C100033FD0998184C0EF00BFB1849184A206048
:101C200001230B70137069E6164B00221A7065E6EB
:101C300009AAE01C0F490FF01FFD134B099A1A6007
:101C40005CE609AAE01C0B490FF016FD0F4B099A40
:101C50001A6053E609AAE01C06490FF00DFD0C4B73
:101C6000099A1A604AE60B49044B022001220870C7
:101C70001A7043E65C7E010050F1FF1F34F1FF1F34
:101C80002CF1FF1F00F1FF1FF0F0FF1F801C002050
:101C900070F1FF1F6804002038B5054607F0C6FC48
:101CA0001E4C014620460BF079F92D200AF0D6FC97
:101CB000284607F0ADFC014620460BF06FF92D20B9
:101CC0000AF0CCFC284607F095FC014620460BF0B4
:101CD00065F9012112480AF03DFC284607F060FC36
:101CE000014620460BF05AF93A200AF0B7FC284684
:101CF00007F064FC014620460BF050F93A200AF048
:101D0000ADFC284607F068FC014620460BF046F97A
:101D10002046BDE838400BF0F1B800BFB0F9FF1F16
:101D2000908001002DE9F043434A444BDFF81891BD
:101D3000DFF81881424D98F80010167899F8007075
:101D40001A78286883B03C2313FB071713FB062679
:101D500007F026FC0446286807F030FCC4EB0414A6
:101D600000EB8404286807F061FC00F14E0328684A
:101D70008DF8063007F04CFC8DF80500286807F058
:101D800039FCB7428DF8040006D2A74232D8A642E9
:101D900030D303B0BDE8F083A742FAD9A642F8D207
:101DA00002A8002399F8002000F8083D98F80030B8
:101DB0008DF801308DF8022007F048FC0F212860D3
:101DC00020480AF0C7FB2868FFF766FF09F01CF9F6
:101DD0002B68834204DA03F5A83303F5C0732B6044
:101DE0000F2118480AF0B6FB2868FFF755FF03B02B
:101DF000BDE8F08302A8002399F8002000F8083D10
:101E000098F800308DF801308DF8022007F01EFCA4
:101E10000F2128600B480A4C0AF09CFB2868FFF74A
:101E20003BFF09F0F1F82B688342D9DA03F5A833B8
:101E300003F5C0732360D3E7D50F0020D40F002033
:101E4000C80E0020B07E0100C51C0020DD0F002060
:101E50002DE9F04F6D4A6E4D6E4C6F4B6F48DFF8B9
:101E6000DCA1D3F800C0D0F800E0D2F800802388CD
:101E70002A88BAF800106A4E6A4FB6F90000CCEB17
:101E80000202CEEB030387B02A802380C8EB010156
:101E9000AAF800100DF064FD80468946B7F90000ED
:101EA0000DF05EFD42464B460CF0BAFA0EF0B6F865
:101EB00002900DF067FD804689460CF06DFA0EF039
:101EC000ADF84946834640460CF090F90EF0A6F86E
:101ED0008046B5F900000EF0ABF98146B4F9000078
:101EE0000EF0A6F9504B0190B3F9000040420EF0FD
:101EF0009FF90446B7F900000EF09AF959460EF022
:101F0000EBF90546B6F900000EF092F941460EF0E5
:101F1000E3F9014628460EF0D7F8014620460EF0B8
:101F20008FFA0DF02FFD0BF0C3FF0EF077F8039042
:101F30000DF028FD04460D460CF02EFA06460F461D
:101F4000204629460CF052F902460B4658464946AF
:101F5000CDE904230EF0C0F90199044640460EF085
:101F6000BBF9014620460EF0AFF83946044630462C
:101F70000EF054F8014620460EF0AEF90446BAF9C8
:101F800000002A4F2A4E0EF053F9DDE904230546DE
:101F9000194610460EF042F8014628460EF09CF90C
:101FA000014620460EF090F80DF0ECFC04460D467C
:101FB000404649460EF090F90199804658460EF089
:101FC0008BF9014640460EF07DF800F100400DF01F
:101FD000D9FC22462B460CF023FA04460D46039802
:101FE00014490EF079F9144B1249186002980EF05A
:101FF00073F92946386020460EF010F80D490EF0AE
:102000006BF9306007B0BDE8F08F00BF380D0020DD
:102010007204002074040020580E0020F40E0020EA
:10202000900B0020861C0020841C00207C040020D3
:10203000CC0E0020E12E6542C80C00207004002068
:1020400010B50446232009F005FB21460B480AF091
:10205000A5FF0A480AF052FF094B1B7803B910BDCF
:10206000072108480AF076FA214607480AF096FF49
:102070000548BDE810400AF041BF00BF90F9FF1FBE
:10208000CC1C0020C07E0100B0F9FF1F2DE9F04FED
:10209000DFF8D492DFF8D482D9F80000D8F8001025
:1020A00085B00EF0D5FA40B19E4BD9F800201B78D0
:1020B000C8F80020002B40F0AA809B4C9B4E236860
:1020C0009B4D002B48D19B4A2B6837681268DFF87C
:1020D000A0A2D9F80000DAF80010FB1A9342D4BF8E
:1020E0004FF0000B4FF0010B0EF0B2FA924B1A6852
:1020F0004FF00103002800F08680002A14BF00235F
:1021000003F001031BEA030B74D0864A8A4B127852
:1021100001211960002A57D1D9F80010DFF8549234
:10212000D8F800000DF0CEFFD9F800100EF090FAAC
:102130004FF00101002868D0DFF80C827F4AD8F800
:10214000000012689042ACBF002201F001021BEABD
:10215000020A40F08A80236832682868A3F1010AE5
:10216000BAFA8AFA4FEA5A1A824202DBBAF1000F2F
:1021700004D1022B18D005B0BDE8F08F704F0223B8
:1021800038682360FFF75CFF6E4A3B6812686E494F
:10219000013393423B60A4BF00233B600A6823687D
:1021A0000132022B0A60E6D1684A33682968126856
:1021B0005B1A9342DFDD0021102008F03DFF002371
:1021C000236005B0BDE8F08F192161480AF0C2F91B
:1021D000DAF800000DF0D6FB4FF0020E02460B4677
:1021E000CDF800E05B480AF0E3FE5A480AF086FEAC
:1021F000514B1A68022A1DD0A2F1010BBBFA8BFBCE
:102200004FEA5B1B88E7034677E7014694E70B211B
:1022100051480AF09FF9D8F800000DF0B3FB0224F2
:1022200002460B4600944B480AF0C2FE49480AF0A9
:1022300065FE42E7DFF840A1D9F80000DAF80010A7
:102240000392DFF824B10EF0E5F950B1354BDBF81D
:102250000010394A1B78C8F800100021116093461D
:10226000CBB92368D9F8002076E70121102008F0C7
:10227000E3FE2C4B326893F800C02F4FDFF8A8B074
:10228000901C01210223286021603B60BCF1000FFB
:102290001CD10B4668E70D2130480AF05BF9DAF8EB
:1022A00000000DF06FFB039A00920B46024629488E
:1022B0000AF07EFE27480AF021FEDBF80030A3F189
:1022C000010BBBFA8BFB4FEA5B1B25E70E21244871
:1022D00003930AF03FF9D9F800000DF053FB039B7C
:1022E000009302460B461B480AF062FE19480AF0AA
:1022F00005FE11211B480AF02DF9D8F800101548E9
:102300000AF04CFE13480AF0F9FDDBF80030074AEA
:10231000074912680868A3F1010ABAFA8AFA4FEA73
:102320005A1A21E7CC1C0020500400206C04002025
:102330002C04002010F1FF1FE4210020F4F0FF1F07
:10234000BC0B0020901C00205804002004F1FF1F4B
:10235000D47E0100B0F9FF1FC87E0100F07E0100AD
:10236000007F0100107F0100D40E0020C00C00206F
:1023700024F1FF1F08F1FF1F4CF1FF1F2DE9F04F63
:102380000546934E934FDFF85C8296F800E02F608D
:10239000FF2085F82400DFF8509298F80000BEF185
:1023A000060F59F820E04FF000038DB00C4685F879
:1023B000253085F8263098BF3370BEF1000F00F04D
:1023C000AD808E455ED07346810001E09C4259D0BD
:1023D0000B445B68002BF9D1734600E053460B4475
:1023E000D3F804A0BAF1000FF8D15C6034780297FA
:1023F00005EB010B4FFA80FCFF23062CCBF804A061
:102400008DF82DA08DF82EA085F824C08DF82C30E5
:10241000744604D800233370002C00F0B480A2422C
:1024200029D0234601E0934225D00B445B68002B62
:10243000F9D104EB010EDEF80440002CF9D1CEF8FE
:1024400004200CAB1944BCF1FF3F00F101034FF035
:10245000000041F8240C88F800308DF82CC0029759
:1024600005D05D4951F82C2002AB9A4276D028461F
:102470000DB0BDE8F08F013088F8000028460DB09F
:10248000BDE8F08F31780297FF24002306298DF8EC
:102490002C408DF82D308DF82E304D4C00D8237007
:1024A0009645E8D07346810001E09A42E3D00B44A0
:1024B0005B68002BF9D18E44DEF804402CB1A646AF
:1024C0008E44DEF80440002CF9D10CAB46B219441E
:1024D0000130731CCEF8042088F8000041F8244C29
:1024E00002978DF82C60C2D03B4951F8262002ABF0
:1024F0009A42BCD159F82630B00023B11A1853685B
:102500005460002BFAD198F800300022013B88F883
:10251000003049F8262041F82620A8E700283AD0C4
:102520002D4B96F800E043F82050810005EB010C9C
:10253000002349F820408DF82D30CCF804308DF878
:102540002E304FFA80FCFF23BEF1060F029785F86C
:1025500024C08DF82C307FF65DAF5DE759F82C3044
:102560004FEA8C0423B11A1953685060002BFAD13A
:1025700098F800300022013B88F8003049F82C2000
:1025800041F82C2073E798B1134B49F8202002AA98
:1025900043F8202055E711490192152008F06CFC02
:1025A0000F4B019A4FF40011196098F80000B7E73B
:1025B0000A490192152008F05FFC094B019A4FF47B
:1025C0000011196098F800004FFA80FC8100DBE7E9
:1025D00094E9FF1FCC7C0100F42400207504000066
:1025E00000E100E015250020D42400202DE9F04171
:1025F000814C824E824D834F08F036FB4FF0FF3105
:10260000204607F08BFD804B3268236001210023B8
:102610000020606284F8281084F829102F606B7203
:102620002B612B72EB600AB9E0E01A465369002B6C
:10263000FBD15561754C764B71482B604FF000080B
:10264000C5F81480A5F80480A5F8068003F09AFA6E
:10265000012004F2247243464146276084F8088032
:10266000C4F80C8060722261A64601E0DEF81020FA
:1026700042F82310627A654801339A42F6DC3268E8
:102680005E4B0AB9B4E01A465369002BFBD1546182
:102690004FF000085F49DFF8D8E12160424601238E
:1026A0004FF480715C48C4F81480A4F80480A4F846
:1026B0000680C4F818E184F8218784F822870BF09B
:1026C0001BFB564AC4F81C814FF0010E02F11801A1
:1026D0001760082782F809E04346404682F80880E0
:1026E000C2F80C801161964684F8207701E0DEF88C
:1026F000101041F82300517A484F01339942F6DC1B
:1027000031683E4B09B975E019464B69002BFBD186
:102710004A61434B43495A60002656619680D680F1
:10272000184682F8F460C2F8F06082F8F560116033
:1027300082F8F6601D601E725E72DE600AF0E2F8DA
:10274000394B3A4F1E7218461D605C605E72DE6047
:102750000AF0D8F8364A374B1168374A1A600A220D
:102760001A724FF087400DF06BFE344C344D3860D8
:102770004FF0FF08334B84F82560012784F824804C
:10278000314A324966632046A66384F83C60236080
:1027900084F826700EF020F92D4B2B4A2D4985F830
:1027A0002480284685F825602B6085F826700EF079
:1027B00013F9224629462848FFF7E0FD224A274917
:1027C00025480EF009F9264803F078FD1E4A2549F0
:1027D00023480EF001F9244B1B4A1E6080241C7113
:1027E00022491846BDE8F0410EF0F6B8356021E701
:1027F00018604DE71F608CE7D40C0020DC26002019
:10280000DC0E0020C07C0100E07C010048150020A7
:102810009885010070850100701C0020C00B00200D
:10282000940B0020A4850100A40B00205C0E002066
:102830005CF1FF1FC80F00207C850100880E00207E
:10284000980F002014880100FCEFFF1F9D06000078
:1028500028880100F5060000040D0020F1050000A5
:102860009C1C0020D9620000800F00204D07000052
:102870006883010010B51D48ADF5007D03F0E8FA4E
:10288000012829DD1A491B4C0B68226817480133BF
:1028900001320B60226003F00DFB4FF480720146A1
:1028A000684607F091FF114803F022FB0F4803F040
:1028B00001FB4FF4807201460DEB020007F084FF2C
:1028C0000A4803F015FB0C4B1B7843B969464FF4DB
:1028D00000720A4803F078FC0DF5007D10BD10224F
:1028E0000749064803F070FCF0E700BFC00B00206A
:1028F000300D00205404002034F1FF1F9C1C0020E8
:10290000FC0E00202DE9F845194CDDF820814FF42C
:102910008A7707FB004492460546082220461E4659
:102920000FF00CF8479BC4F80C31FC2208A904F105
:102930001000A4F808A0E660C4F8108107F044FF76
:102940003A4621460B4803F03FFC013002D10A4BC6
:102950000A4A1A600A492A018B186427C8264FF4CC
:1029600096748D505F609E60DC60BDE8F88500BFA6
:10297000E00F00209C1C00200CED00E00400FA0594
:10298000FC0E002000B589B0684616230C4A0D499C
:1029900003F01AFE684603F0C1FC50B136220A4922
:1029A000684603F011FC68460AF0A8FA684603F08E
:1029B000A7FC684603F090FC09B05DF804FB00BF7B
:1029C000447F0100402200204C7F010070B5B44BD1
:1029D0001B7884B0002B40F05B81B24C76212046FE
:1029E00005F066FC00251E21204605F06DF9627B8E
:1029F000216900950123204605F0E6FE052008F038
:102A000057FB2046762105F053FCA221204605F015
:102A10005BF9627B216900950123204605F0D4FE15
:102A20000123617B0093762202232069019505F042
:102A3000F3FE2369D3F83811D3F8342191420CD036
:102A400003AD184605F002FF236905F8010BD3F822
:102A50003811D3F834219142F3D19DF80D209DF81F
:102A60000C50914B8F4842EA052576211D800026A7
:102A700005F01EFCA4218B4805F026F9627B216934
:102A800088480096012305F09FFE0123617B009397
:102A9000762202232069019605F0BEFE2369D3F851
:102AA0003811D3F83421914212D003AD184605F005
:102AB000CDFE236905F8010BD3F83811D3F8342182
:102AC0009142F3D19DF80C509DF80D3043EA052555
:102AD000764B74481D80762105F0EAFB0026A6217E
:102AE000704805F0F1F8627B21696E480096012379
:102AF00005F06AFE0123617B0093762202232069A0
:102B0000019605F089FE2369D3F83821D3F83411F2
:102B1000914212D003AD184605F098FE236905F8DE
:102B2000010BD3F83811D3F834219142F3D19DF839
:102B30000C509DF80D3043EA05255D4B59481D802A
:102B4000762105F0B5FB0026A821564805F0BCF813
:102B5000627B216953480096012305F035FE01236D
:102B6000617B0093762202232069019605F054FED2
:102B70002369D3F83821D3F83411914212D003AD30
:102B8000184605F063FE236905F8010BD3F83811E8
:102B9000D3F834219142F3D19DF80C509DF80D30BB
:102BA00043EA0525434B3F481D80762105F080FB15
:102BB0000026AA213B4805F087F8627B2169394845
:102BC0000096012305F000FE0123617B009376222D
:102BD00002232069019605F01FFE2369D3F83821EE
:102BE000D3F83411914212D003AD184605F02EFEF1
:102BF000236905F8010BD3F83811D3F83421914239
:102C0000F3D19DF80C509DF80D3043EA05252A4B71
:102C100024481D80762105F04BFB0026AC2121487D
:102C200005F052F8627B21691E480096012305F0E9
:102C3000CBFD0123617B009376220223206901965C
:102C400005F0EAFD2369D3F83811D3F83421914215
:102C500019D0354603AE184605F0F8FD23697055C6
:102C6000D3F83811D3F83421914205F10105F2D19E
:102C70009DF80D309DF80C5043EA05250F4B0120BF
:102C80001D8004B070BD0D4B30461D8004B070BD7A
:102C90000B210B4809F05EFC0A480AF02FF99CE66C
:102CA000CC1C0020C0240020500F0020941C0020C9
:102CB000981C0020E821002084040020FA0E002047
:102CC000847F0100B0F9FF1F10B50A4C82B0204686
:102CD000762105F0EDFA2046482104F0F5FF0023A7
:102CE0000093627B21692046012305F06DFD02B04F
:102CF00010BD00BFC024002010B50A4C82B0204691
:102D0000762105F0D5FA2046582104F0DDFF002396
:102D10000093627B21692046012305F055FD02B036
:102D200010BD00BFC0240020F0B5284F3B7885B00F
:102D3000002B43D1264C274E2046317805F0B8FAB7
:102D400000250021204604F0BFFF627B2169009529
:102D50000123204605F038FD022008F0A9F90123DF
:102D60003278617B009320690195022305F054FDC0
:102D7000022008F09DF903AE2369D3F838211846E4
:102D8000D3F834319A4213D005F060FD3B7820EA45
:102D9000E07006F8010B0135002BEDD000230A226C
:102DA00031780D480AF0BAF80B480AF0A7F8E3E7C3
:102DB000002DD4BF0020012005B0F0BD0B21074835
:102DC00009F0C8FB04480AF099F8B3E7CC1C0020CE
:102DD000C024002028F1FF1FB0F9FF1F907F0100E1
:102DE00010B50A4B0A4C197882B0204605F060FAFB
:102DF0002046AC2104F068FF00230093627B216928
:102E00002046012305F0E0FC02B010BD28F1FF1FB1
:102E1000C024002070B5134C82B006460D462046F3
:102E20000A2105F045FAC6F30721204604F04CFFBD
:102E3000F1B2204604F048FFC5F30721204604F014
:102E400043FFE9B2204604F03FFF00230093627B7A
:102E500021692046012305F0B7FCB0FA80F0400953
:102E600002B070BDC024002008B500213020FFF75B
:102E7000D1FF00210220BDE80840FFF7CBBF00BF13
:102E800008B5AB213020FFF7C5FF63210220BDE864
:102E90000840FFF7BFBF00BF08B544F26001302013
:102EA000FFF7B8FF6C212620FFF7B4FF4FF4F8714D
:102EB0002820FFF7AFFF00212A20FFF7ABFF40F6E5
:102EC00022712C20FFF7A6FF44F246413C20FFF779
:102ED000A1FF40F237112420FFF79CFFFFF7D0FF3E
:102EE0004FF4C87008F0E4F841F619112E20FFF7EE
:102EF00091FF04210846FFF78DFF4FF498710620DB
:102F0000FFF788FF00210A20FFF784FF08210E2029
:102F1000FFF780FF4FF63C711020FFF77BFF47F66D
:102F20007F712220FFF776FF00214FF49270FFF7A8
:102F300071FF14212420FFF76DFF00212A20FFF7E5
:102F400069FF00212020FFF765FF012008BD00BFB9
:102F500010B5114CFFF7A0FF20465522202102F0AA
:102F6000FFFB38B1E28842F0040292B220462421ED
:102F700002F0F6FB0021084802F00EFD074B064860
:102F80001A78114602F0BEFC034802F0B1FC024878
:102F9000BDE8104002F0C2BCC80F00203CF1FF1F8A
:102FA000F0B5174C174D83B029780646204605F03A
:102FB0007FF931462046002604F086FE627B2169B7
:102FC00000960123204605F0FFFB2978204605F0F6
:102FD0006FF92A78617B2069019601252B460095BF
:102FE00005F01AFC206905F031FC627B216900962E
:102FF00007462B46204605F0E7FBF8B203B0F0BDCC
:10300000C024002014F1FF1F2DE9F0411A4C1B4D84
:1030100082B029780646204605F04AF93146204616
:10302000002604F051FE627B2169009601232046B0
:1030300005F0CAFB01272978204605F039F92A78DE
:10304000617B206901960223009705F0E5FB20696A
:1030500005F0FCFB0546206905F0F8FB627B216961
:10306000009680463B46204605F0AEFB45EA082028
:1030700080B202B0BDE8F081C024002014F1FF1F2F
:1030800008B50B20FFF7C0FF064B18800920FFF79B
:10309000BBFF054B18800D20FFF7B6FF034B1880D0
:1030A00008BD00BFC40F0020D81C0020B80B0020B2
:1030B00070B50D4B0D4C82B006460D462046197872
:1030C00005F0F6F83146204604F0FEFD294620467C
:1030D00004F0FAFD00230093627B2169204601235E
:1030E00005F072FB02B070BD14F1FF1FC024002078
:1030F000F8B504460E46012021461546FFF7D8FFD5
:1031000031460220FFF7D4FF29460320FFF7D0FF06
:103110000120FFF745FF07460220FFF741FF8642E7
:1031200004BFE41BB4FA84F44FF003000CBF64093D
:103130000024FFF735FF85420CBF20460020F8BD74
:1031400008B50A21064809F005FA064809F0D6FE36
:1031500000223F210D20BDE80840FFF7C9BF00BF96
:103160009C7F0100B0F9FF1F70B50F4C82B00E4676
:1031700001462046154605F09BF83146204604F0EE
:10318000A3FD2946204604F09FFD0023627B2169B0
:1031900000932046012305F017FB0446052007F0A5
:1031A00087FF204602B070BDC024002038B5324CE5
:1031B000402220782421FFF7D7FF002840D12F4D4F
:1031C00020782A6862F07F02D2B22521FFF7CCFF77
:1031D000002838D1032226212078FFF7C5FF0028D8
:1031E00034D1D62227212078FFF7BEFF88BB2A786A
:1031F00020782821FFF7B8FF70BB0A222921207808
:10320000FFF7B2FF58BB81222A212078FFF7ACFFDD
:1032100040BB112264212078FFF7A6FF28BB0322C0
:1032200067212078FFF7A0FF10BB207880220121C2
:10323000FFF79AFF002814BF6FF00E00002038BD82
:103240006FF0050038BD6FF0060038BD6FF0070065
:1032500038BD6FF0080038BD6FF0090038BD6FF061
:103260000A0038BD6FF00B0038BD6FF00C0038BDA0
:103270006FF00D0038BD00BF40F1FF1FFCF0FF1FD5
:10328000344B1B7870B50446002B41D1002C45D03F
:10329000314C324E207801226B21FFF765FF03226B
:1032A0001A2105462078FFF75FFF10221B212078A6
:1032B000FFF75AFF092219212078FFF755FF2078E0
:1032C00018221C21FFF750FF3368022B2DD0042B4E
:1032D00032D0082B37D003221D212078FFF744FF7E
:1032E000222237212078FFF73FFF01223821207862
:1032F000FFF73AFFFFF75AFF07226A212078FFF70E
:1033000033FF207860226A21FFF72EFF284670BD28
:103310000921134809F01EF9002CB9D10E4B4022A7
:1033200018786B21FFF720FF70BD00221C21207848
:10333000FFF71AFF3368CAE708221C212078FFF73D
:1033400013FF3368C5E710221C212078FFF70CFF1C
:10335000C1E700BFCC1C002040F1FF1FF0F0FF1FB1
:10336000A87F010030B5184C83B07621204604F0C8
:103370009FFF00250021204604F0A6FC627B216906
:1033800000950123204605F01FFA0123617B00937D
:10339000762203232069019505F03EFA2369D3F8CC
:1033A0003811D3F8342191420CD0084D184605F05D
:1033B0004DFA236905F8010BD3F83811D3F83421FD
:1033C0009142F3D103B030BDC02400203C0D002059
:1033D00030B5184C83B07621204604F069FF0025F3
:1033E0000021204604F070FC627B216900950123D6
:1033F000204605F0E9F90123617B0093762203233F
:103400002069019505F008FA2369D3F83811D3F83B
:10341000342191420CD0084D184605F017FA236963
:1034200005F8010BD3F83811D3F834219142F3D1C8
:1034300003B030BDC02400204C0F00202DE9F04126
:103440001C4D074682B00C462846394690461E461B
:1034500004F02EFF21462846002404F035FC6A7B48
:10346000296900942346284605F0AEF94FF0010E75
:1034700043463A46697B28690194CDF800E005F09F
:10348000CBF92869D0F83821D0F834319A420DD0E0
:1034900005F0DCF9E3B2C0B2F0542869D0F8382165
:1034A000D0F834319A4204F10104F1D102B0BDE800
:1034B000F08100BFC02400202DE9F047704C714A14
:1034C00023681278013382B02360002A40F08380A1
:1034D000DFF80492DFF80482D9F80010D4F800A0D5
:1034E000694F4FF07E500CF0ABFF0546D8F8000056
:1034F0000CF09EFE014628460CF0EEFE06465046B5
:103500000CF096FE4FF07C51824630460CF0E4FE03
:10351000014650460DF092F83D784FF00103EDB2B0
:1035200000B9034613F0FF0F07D0584B1B78012B4F
:1035300014BF002505F001050DBB2068504C0CF0B0
:1035400077FE31460DF07AF8B0B1514B1B7800226E
:103550002260002B66D14D4D2C78012C00F0848028
:10356000022C7CD04B4B1B68002B6AD14A4B1B783A
:10357000002B41D12B78CBB902B0BDE8F087FFF723
:10358000F1FEFFF7B9FB0023D9F800103B704FF0B4
:103590007E500CF055FF0546D8F800000CF048FEB0
:1035A000014628460CF098FE0646C6E73B4D3C4ACD
:1035B0002B783C4C1268DBB244F82320FDF7CAFCA0
:1035C0002B78394ADBB2126844F8232002B0BDE8F8
:1035D000F047FDF7BFBC354D354A2B4610783B21EF
:1035E0001422FFF72BFFFDF71BFD29786B78314A7A
:1035F00043EA012313806BE702212F4808F0AAFF5A
:103600002E4B18680CF0BEF9022402460B460094BB
:103610002B4809F0CDFC2A4809F070FC2B78002BD0
:10362000AAD0C3E7FFF72CFD264B1888FDF7BEFC98
:10363000254B1888FDF7BAFC244B1888FDF7B6FC1B
:1036400089E7234B186805F0B9FF224A1B4B52F853
:1036500020201A60104B1B78002B8BD0CCE7FDF795
:103660006FFFFFF7BDFB7DE7FFF7B2FEFFF72CFB17
:10367000FDF7B8FE3C70FDF78BFE2C7870E700BFBD
:10368000340D00202CF1FF1FC41C00206804002012
:103690000CF1FF1FC8210020CC1C0020680E002068
:1036A00064040020400D0020D41C0020D021002004
:1036B00040F1FF1F841C0020B47F0100D40E0020C5
:1036C000B0F9FF1FC40F0020D81C0020B80B002049
:1036D0006C04002000F0FF1F48F1FF1F58F1FF1F8E
:1036E0002DE9F04F012185B0042007F0B9FC01213C
:1036F000152007F0B5FC0121142007F0B1FC0121D1
:10370000112007F0ADFC0121102007F0A9FC0021D9
:10371000142007F0A5FC0121052007F0A1FC0121E0
:10372000022007F09DFC0121082007F099FC0021F0
:10373000282007F095FC0021232007F091FC0021B0
:10374000032007F08DFC002007F0EAF90121042096
:1037500007F072FC0021152007F06EFC01211420F7
:1037600007F06AFC0B21524808F0F4FE514809F0BA
:10377000C5FB0121112007F05FFC0121052007F0A6
:103780005BFC0121082007F057FC0121102007F005
:1037900053FC0B21484808F0DDFE464809F0AEFB1B
:1037A00040F6B83007F084FC0021112007F044FCFB
:1037B0000021052007F040FC0021082007F03CFC18
:1037C0000020FEF73DFC3D4B1B78002B67D13C4BA6
:1037D0001B78002B40F0F581FDF732FF394B0025B7
:1037E0001D70FFF7A1FA002840F0F482DFF8F09096
:1037F000354FDFF8F080FFF7E9F8002840F05D82F0
:103800001121324808F0A6FED9F800000CF0BAF8F1
:10381000022402460B460094264809F0C9FB2548BD
:1038200009F06CFB07212A4808F094FE38680CF078
:10383000A9F8009402460B461E4809F0B9FB1D4842
:1038400009F05CFB0D21234808F084FED8F8000045
:103850000CF098F8009402460B46164809F0A8FBB5
:10386000144809F04BFB174B1B78002B00F00F821C
:10387000194B1B680BB100233B600021102007F09F
:10388000DBFB0C21154808F065FE0A4809F036FB01
:1038900040F6B83005B0BDE8F04F07F009BC012094
:1038A000FFF7EEFC4FF00008CDF80CB05BE000BF76
:1038B000B87F0100B0F9FF1FC47F01002CF1FF1F8A
:1038C0000CF1FF1F68040020D40E0020808001004E
:1038D000CC7E010094800100C8210020C08001003E
:1038E00064040020D41C002003229749974809F063
:1038F000F1FA974B18680CF045F800940B46024615
:10390000924809F055FB914809F0F8FA03229149D1
:103910008E4809F0DFFA904B18680CF033F80094E9
:103920000B460246894809F043FB884809F0E6FA4D
:1039300003228A49854809F0CDFA894B18680CF0B2
:1039400021F8009402460B46804809F031FB7F487D
:1039500006F09AFD08F10108C82007F0A9FBB8F1AC
:10396000320F00F027817F4A7F4B1078DFF838B2A2
:10397000DFF838A2DFF838927C4F7D4E7D4D14225F
:103980003B21FFF75BFDFDF703FCFEF761FA092120
:10399000794808F0DFFDBBF90010784809F0FEFA1D
:1039A0000121774808F0D6FDBAF90010734809F0F4
:1039B000F5FA0121724808F0CDFDB9F900106F4801
:1039C00009F0ECFA01216E4808F0C4FD6D4B6B481C
:1039D000B3F9001009F0E2FA0121694808F0BAFDD4
:1039E000B7F90010654809F0D9FA0121644808F0D8
:1039F000B1FDB6F90010614809F0D0FA0121604824
:103A000008F0A8FDB5F900105C4809F0C7FA0121DB
:103A10005B4808F09FFD5C4B5848B3F9001009F073
:103A2000BDFA0121564808F095FD584B5348B3F9AB
:103A3000001009F0B3FA0121514808F08BFD544BF6
:103A400018680BF09FFF02240B46024600944B4877
:103A500009F0AEFA494809F051FAFDF7F1FD0822E4
:103A60004C493A4809F036FA384809F047FAB8F1B3
:103A70000E0F3FF739AF22464749344809F02AFA7A
:103A8000BBF90010314809F089FA012243492F4857
:103A900009F020FABAF900102C4809F07FFA012247
:103AA0003E492A4809F016FAB9F90010274809F0EA
:103AB00075FA264809F022FA22463949234809F0C6
:103AC00009FA304B2148B3F9001009F067FA0122D6
:103AD00032491E4809F0FEF9B7F900101B4809F0F9
:103AE0005DFA01222D49194809F0F4F9B6F90010E0
:103AF000164809F053FA154809F000FA22462949F8
:103B0000124809F0E7F9B5F90010104809F046FA33
:103B1000012222490D4809F0DDF91B4B0B48B3F98E
:103B2000001009F03BFA01221C49084809F0D2F9BB
:103B3000164B0648B3F9001009F030FA0122174974
:103B4000024809F0C7F902E7F47F0100D40C002015
:103B5000C80C0020F87F01007C040020FC7F0100DD
:103B6000CC0E002040F1FF1FD02100208204002055
:103B7000CE21002070040020D07F0100B0F9FF1F8B
:103B8000D87F01008004002072040020740400200B
:103B90006C0E0020DC7F0100E87F010090800100B6
:103BA000EC7F0100F07F0100841C0020861C0020B7
:103BB000900B0020C24BDDF80CB01B78002B3FF4BB
:103BC0000BAEFFF7BDFABF4FBF4EC04D1E24FFF72F
:103BD00057FA0221BE4808F0BDFCB7F90010BD48F5
:103BE00009F0DCF9BB4809F089F90221BA4808F06C
:103BF000B1FCB6F90010B74809F0D0F9B54809F0A2
:103C00007DF90221B54808F0A5FCB5F90010B148CE
:103C100009F0C4F9AF4809F071F9FDF711FD0A2266
:103C2000AF49B04809F056F9AE4809F067F90222E9
:103C3000A749AC4809F04EF9B7F90010A94809F0B6
:103C4000ADF9A84809F05AF90222A349A54809F09C
:103C500041F9B6F90010A34809F0A0F9A14809F00C
:103C60004DF902229D499F4809F034F9B5F9001039
:103C70009C4809F093F99B4809F040F9994806F0EF
:103C800003FCC82007F014FA013CA0D1A4E5FDF71D
:103C9000D7FC08229449934809F01CF9914809F08F
:103CA0002DF90D2291498F4809F014F98D4809F03A
:103CB00025F98C4806F0E8FBDAE58D4A8D488E4CF4
:103CC00001231421137008F045FC824809F016F90D
:103CD000FEF7FAFF322007F0EBF9FFF743FBFFF79F
:103CE0000BF8322007F0E4F9FFF772FB0025FEF72E
:103CF000EBFF322007F0DCF9FFF734FBFEF7FCFFA7
:103D0000322007F0D5F9FFF763FBFDF76BFBD9F81D
:103D10000010DFF8E4A158460CF0D6F98346284697
:103D20000CF086FA014658460CF08AFB03466420E4
:103D3000236007F0BDF9FDF783FC0B226F4969484A
:103D400009F0C8F8674809F0D9F80C226C496548B1
:103D500009F0C0F820680BF015FE02260B4602465B
:103D60000096604809F024F95E4809F0C7F8062279
:103D700064495C4809F0AEF838680BF003FE009621
:103D80000B460246574809F013F9564809F0B6F8B1
:103D900005225D49534809F09DF8D8F800000BF062
:103DA000F1FD009602460B464E4809F001F94D48D8
:103DB00009F0A4F801354B4806F066FB322D96D188
:103DC000FDF710FBDAF8000050490CF039FBCAF897
:103DD000000015E5464A4E48DFF84091464C4D4FED
:103DE000DFF83C8102231821137008F0B3FB394837
:103DF00009F084F8FEF7F4FF142007F059F9FDF7F5
:103E00009FFBFEF7EDFF142007F052F9FDF798FB3A
:103E1000642007F04DF9D9F8001058460CF054F919
:103E2000834628460CF004FA014658460CF008FB7D
:103E30002060FDF705FC0A2237492A4809F04AF8B4
:103E4000284809F05BF80C222D49264809F042F871
:103E500020680BF097FD02260B460246009621488B
:103E600009F0A6F81F4809F049F8062225491D481F
:103E700009F030F838680BF085FD00960B460246D5
:103E8000184809F095F8174809F038F805221E4936
:103E9000144809F01FF8D8F800000BF073FD0096E5
:103EA00002460B460F4809F083F80E4809F026F841
:103EB00001350C4806F0E8FA322DA2D19BE400BF90
:103EC0000CF1FF1FC40F0020D81C0020B80B0020ED
:103ED00000800100B0F9FF1FEC7F010004800100A9
:103EE00008800100D40C0020A4800100B0800100F3
:103EF000680400205C800100640E002074800100D2
:103F00003C8001004C8001005480010000004842C8
:103F100014800100D40E00203080010064040020D1
:103F2000D41C00202DE9F0479AB00AA802F0C6F987
:103F300001238E4A8E4912A802F046FB149A9DF87E
:103F400054309DF84C100C928DF834308DF82C10B4
:103F500015AA0DF135030DF1420612F8011F03F801
:103F6000011BB342F9D1199B119312A802F0B4F9C5
:103F70000AA802F0D3F98046002800F0EE80002461
:103F800027468DF808704FF000090AA802F02EF9B4
:103F90001AABC2B203EB09010D2A09F101031BB2EE
:103FA00012D0542A0AA801F8602C07D1012B05D1A0
:103FB00002F09EF90124451EA146E6E71D2B07DC11
:103FC0000A2A05D09946E0E7B9F11D0FDDDD4B4621
:103FD000013B9BB21AAA1A440FFA83F902F8607CDB
:103FE0009DF808202F2A04D0012B02D902A8FDF742
:103FF00053FC0AA802F0DCF882460028C1D10AA8C6
:1040000002F07EF9002C70D101235A4A584912A8B7
:1040100002F0DAFA9DF84C3014989DF854108DF89F
:104020002C3015AA0DF135030C908DF8341012F8D0
:10403000011F03F8011BB342F9D1199B119312A878
:1040400002F04AF90A214C4808F084FA4B4808F07B
:1040500055FF0AA802F062F9064600283ED0484DF6
:10406000012406E01E2C03F8010C0CD00A280AD00B
:1040700001340AA802F0BAF8C0B202AB0D282344FA
:10408000F0D11E2CF4D108F0E9FA05EB89023D4984
:1040900002A80DF0F1FA4946384808F07FFF0121E7
:1040A000394808F057FA55F829000BF06BFC022448
:1040B00009F1010902460B46009430480FFA89F9CC
:1040C00008F076FFB9F13C0F04D00AA802F070F8AE
:1040D0000028C5D10AA8B04602F012F90AA802F0D9
:1040E000FBF840461AB0BDE8F0870B21274808F0DE
:1040F00031FA53460A222946204808F00FFF1F488C
:1041000008F0FCFE1323194A194912A802F05CFAC0
:10411000149A9DF854309DF84C100C928DF8343060
:104120008DF82C1015AA0DF1350312F8011F03F8B4
:10413000011BB342F9D1199B119312A802F0CCF8DC
:1041400029460AA802F0CAF8022211490AA802F078
:104150003BF80AA802F0D4F856E714210D4808F0FD
:10416000F9F9064808F0CAFEB8E700BFD0800100A0
:10417000402200200481010010810100B0F9FF1FDE
:1041800000F0FF1F1C81010090800100DC80010015
:10419000E8800100EC8001002DE9F04F3A4A3B4BEA
:1041A0003B48127841F2B35189B083E80300002AFA
:1041B00040F08182374F384E384CFCF777FF42F29F
:1041C000107007F085F84FF4FA7006F071FF344B69
:1041D000717B30690393012500231A4602930093F3
:1041E0000495019503F07EFF336942F21072C3F823
:1041F0006822204606F0C6FA84F82950FDF720FA16
:104200000A222849204608F065FE204608F076FE7E
:10421000204606F039F90721234801F05BFF0E2103
:10422000214801F087FF0A21204802F02FF90028D9
:1042300044D11C211E4808F08DF91E4808F05EFE8E
:10424000FDF7FEF908221C49144808F043FE134804
:1042500008F054FE114806F017F90324642006F014
:1042600027FF0121112006F0E7FE642006F020FF61
:104270000021112006F0E0FE013CEFD14FF4C870A0
:1042800006F016FFDCE700BFF80E0020700E0020DD
:1042900062ED3301CC0C0020C0240020D40C00209F
:1042A000801A06002081010078F1FF1F40220020C3
:1042B0002C810100B0F9FF1F4C810100B54EFFF7C2
:1042C00031FEFFF70DFAFEF75DFBFCF7C9FD337811
:1042D000002B40F0E0810121062006F0C1FE002104
:1042E000062006F0A9FE0021062006F0B9FE4FF4D4
:1042F000FA7006F0DDFE0A21A74808F02BF9A7485E
:1043000008F0FCFD0121112006F096FE0121152088
:1043100006F092FE3378002B00F02081A048A14ED9
:1043200005F062FA0120FEF7ABFFFCF70FFC06F088
:104330006BFE9D4B30601B68022B07D19B4B9C4A48
:104340001B68C3EB031300EB83031360994A9A4B7A
:1043500011681A68994D4FF4616303FB02F3C1EBD6
:10436000011103EB810213182B6042B9944B1B68B7
:1043700000F13C0292FBF3F203FB02332B60DFF807
:104380009482904AD8F8000012688F490344012AA9
:104390000B6003D1FDF7C6FCD8F800008B4B0793E8
:1043A0000BF046FF8A49DFF870920968DFF86CB2BB
:1043B000DFF86CA20BF090FF4FF06E510BF08CFF0A
:1043C0000CF050F9079B834918600868D9F8003051
:1043D00081491B1A23EAE37381FB03211944D8178F
:1043E000C0EBE12007930BF0BBFA09F04DFF0BF097
:1043F000CDFD079B7949CBF8000001FB00337849DC
:10440000079381FB03211944D817C0EB61100BF00F
:10441000A7FA09F039FF0BF0B9FD079B0246A0EBA4
:1044200000117048CAF8002003EB810303601021DB
:104430006D4808F08FF8DBF80010584808F0AEFD22
:10444000DAF80010554808F0A9FD664B5348196882
:1044500008F0A4FD514808F051FD0821634808F018
:1044600079F8D8F800104D4808F098FD4B4808F04E
:1044700045FD08215E4808F06DF8D9F8001047485E
:1044800008F08CFD454808F039FD0E21594808F028
:1044900061F83068FDF700FC0C21574808F05AF825
:1044A0002868FDF7F9FB2B6832685448C2EB030912
:1044B000152108F04FF84946384808F06FFD374895
:1044C00008F01CFD4FF00A08FDF7BAF806F09CFD55
:1044D0000C224B4930604B4808F0FCFC494808F07E
:1044E0000DFD29680E20FDF7E3F831681920FDF76E
:1044F000DFF8444805F0C8FF4FF47A7006F0D8FDA5
:10450000B8F10108E0D1B9F13C0F00F38B803D48D0
:10451000012506F037F964213B4884F8295008F05A
:104520001DF9FEF715FD2946152006F085FD3B68AF
:104530000BB1FCF78FFE3549354B00204FF0FF32B1
:1045400008601A6009B0BDE8F08F0A2006F0B0FDDF
:10455000142006F077FD00283FF4E0AE062006F0B8
:1045600071FD012100283FF4D9AE062006F078FD48
:104570000021062006F060FD0021062006F070FDF7
:104580004FF4FA7006F094FD142006F05BFD00284D
:10459000E4D1DAE7CC1C002020810100B0F9FF1F34
:1045A000590700006C040020600E002078040020F1
:1045B0005C0400202C0D0020C01C0020C80E002030
:1045C00038F1FF1F900F00208C0F0020D01C00201E
:1045D0005CF1FF1F18F1FF1FC5B3A291F0F1FFFFBF
:1045E00089888888BC1C00206C81010080810100C2
:1045F0008C81010098810100A8810100B88101002F
:10460000D0810100D40C00200082FF1F441500203F
:10461000D80F002070F1FF1F801C002060040020D4
:10462000B40B00204146152006F006FDFEF71CFCE9
:104630004146102006F000FD4046FEF721FE4246AE
:1046400040463F21FEF754FDAE21224805F082FD91
:104650000121112006F0F0FC0022114614231E480F
:1046600004F094FE0A2006F023FD0021112006F03C
:10467000E3FC1A4804F070FC06F0C6FC2B683060BE
:104680001B1A3C2BE0DC0120FEF7FAFDFEF758FD7B
:10469000FEF7F6FB3BE71221114807F05BFF03250D
:1046A00006F0B2FCFDF7F8FA4FF47A7006F000FD60
:1046B000013DF5D10FE60B4E0B4D0C4C0C480D494E
:1046C0000D4F0022012332702A70227003700B708C
:1046D0003B6070E5D40C0020880E0020040D002003
:1046E000588101002CF1FF1F0CF1FF1F34F1FF1F57
:1046F00020F1FF1F000D0020CC0C00202DE9F04F11
:10470000CDB006F081FCDFF8E4A29E4CCAF80000B0
:1047100004F07EFF2368DFF8D8B2984200F02E81C3
:104720009BF8003033B10A21974807F013FF9748F0
:1047300008F0E4FBDAF80000954D964E04F068FFAF
:104740002060DAF8000004F071FF93492368024604
:1047500092480CF06BFF914991482E6001F0A8FF40
:10476000DFF87482DAF8000098F80030002B40F08F
:10477000E98004F03FFF0446DAF8000004F010FF7F
:104780008146DAF8000004F019FF0746DAF8000065
:1047900004F022FFCDF800900290019723467F4A53
:1047A000804981480CF042FF2E60FCF7C9FC1623BB
:1047B00042907E4A7A4944A801F006FF44A801F0DD
:1047C000ADFD002840F049819BF80030002B40F0FF
:1047D000BF81774B774A784943911A604CAF44A820
:1047E00001F07AFD3223704A6D49744D44A801F0FE
:1047F000EBFE17F8141D9DF81421469B2A71AB603F
:1048000029733A4605F10D0305F11A0412F8011F48
:1048100003F8011BA3426949F8D14B9BCB6144A823
:1048200001F05AFD9BF800305BB35F480CF0C8FF05
:1048300001465D4807F08EFE544808F05FFB0A21F0
:104840005F4807F087FE5F4B18680BF09BF8022665
:1048500002460B4600964D4808F0AAFB4B4808F06C
:104860004DFB42980BF08EF8009602460B464748E7
:1048700008F09EFB0121544807F06CFE434808F005
:104880003DFB4E48514EDFF8349101F047FD0028C2
:1048900035D1326898F8003001323260002B4CD1AB
:1048A0004B4941480CF0C2FE32233F4A3C4944A8E0
:1048B00001F08AFE9DF81C219DF814014699454B94
:1048C0002A732871A9603A4612F8011F03F8011BE8
:1048D000A342F9D14B9BC9F81C3044A801F0FCFC61
:1048E00031480CF06DFF01462F4807F033FE274892
:1048F00008F004FB314801F011FD0028C9D098F8F8
:104900000040354D002C75D0439B429A5A61012CD2
:10491000294D00F026819BF800305BB109212F481A
:1049200007F018FE2E4B1948196808F037FB174896
:1049300008F0E4FA4DB0BDE8F08F2A491A480CF0AF
:1049400075FEB1E704F056FE0446DAF8000004F004
:1049500027FE8146DAF8000004F030FE0746DAF858
:10496000000004F039FECDF8009002900197234634
:104970000A4A1D490C480CF059FE15E7044D054E36
:10498000EEE600BFD80F0020E0810100B0F9FF1F64
:104990009C2200205D070000EC810100B80C002083
:1049A00040220020F881010030040020447F0100F3
:1049B0000CED00E00400FA05700E00209C1C0020A5
:1049C00084820100C81C002090820100C00F0020DA
:1049D00094820100A91C002034F1FF1FF082010025
:1049E000D01C0020A0820100108201006C04002075
:1049F000CC1C0020B349B44CB44AB54BB54E03C9E6
:104A0000206092E80300A06093E803003768E0604C
:104A100001231026A382E382266138460BF048FE6C
:104A20003946A06138460BF04FFB0BF041FEAA4A15
:104A3000AA4BE06192E803001B6860625B020220FF
:104A40006684208403F1240621462C22A448A36214
:104A5000666001F0B9FB2C7856E7A248A24C0CF036
:104A6000AFFEA049024644A801F0AEFB2C2144A8A9
:104A700001F092FB04F1080514F8011F00230A223B
:104A800044A808F04BFAA542F6D12C2144A801F025
:104A900083FB964B964A1868439215460AF072FFBC
:104AA000022402460B46009444A808F081FA2C2107
:104AB00044A801F071FB42980AF064FF009402469A
:104AC0000B4644A808F074FA2C2144A801F064FBBA
:104AD000884B44A8196808F061FA2C2144A801F019
:104AE0005BFB854B18680AF04DFF009402460B46AD
:104AF00044A808F05DFA2C2144A801F04DFB296878
:104B000000230A2244A808F009FA44A808F0F6F99C
:104B10007A4A7B4B106819680BF09AFD4FF001053B
:104B2000E8B1784942980BF075FD4FF00103A0B150
:104B3000754C2B432268DBB213427DD173494298F6
:104B40000BF068FD00285FD144A801F0D9FB45E6D1
:104B50000E216F4807F0FEFC3BE60346E8E70546FA
:104B6000DFE7DAF8000004F037FD2872DAF8000019
:104B700004F024FD6872DAF8000004F011FDA87258
:104B8000DAF8000004F036FDE872DAF8000004F00C
:104B90003FFD2873DAF8000004F048FD0026288263
:104BA000294618224E486E8201F00EFB494B5949A6
:104BB0001B684093FC22022568463F9505F004FEE1
:104BC0004FF48073324630465349FDF79BFE534BFA
:104BD0001B78002B40F0C480514B1B78002B5BD11D
:104BE000504B1B78002B40D1002500234E494093A9
:104BF000FC2268463F9505F0E7FD2B462A462046F5
:104C00004A49FDF77FFE86E62822494944A801F07B
:104C1000DBFA44A808F072F944A801F071FB03E044
:104C200047F2305006F044FAFCF78AFA37490BF0A5
:104C3000F1FC0028F4D187E7FCF75EFBFCF782FB70
:104C40009BF800300022226033B10F21394807F071
:104C500081FC394808F052F90E22384944A801F085
:104C6000B3FA44A808F04AF968E7354B354A1B689F
:104C700012683549409203EBD3735D10FC22022386
:104C800068463F9305F0A0FD20462B4600222F49A1
:104C9000FDF738FE0134A7E72D4A2E4B15781B6827
:104CA0002D494093FC2202236D0868463F9305F08E
:104CB0008BFD20462B4600222849FDF723FE0134B8
:104CC0008EE700BFAC820100540F0020B4820100C7
:104CD000BC8201005CF1FF1FC4820100D01C0020D7
:104CE0009C1C002030040020871C00204C04002065
:104CF000700E0020940F0020640E0020C81C0020BD
:104D00001CF1FF1FD7A37040CC0C002000004040D6
:104D100074820100DC1C0020CC82010068040020A9
:104D20000CF1FF1F2CF1FF1FCC200020EC820100B2
:104D30004882010028820100B0F9FF1F388201007B
:104D400060F1FF1F50F1FF1FD01F0020E48201001F
:104D500044F1FF1F48F1FF1FD41E0020DC82010038
:104D6000094A0A4B17781B68409309490523FC221E
:104D700068463F9305F028FD3B46324620460549EC
:104D80002C46FDF7BFFD27E768F1FF1F48F1FF1F25
:104D9000D81D0020D482010010B50E211D4807F057
:104DA000D9FB1D4808F0AAF8FFF7A8FC1B4B1B789D
:104DB000A3B11B4A1B4B126893FBF2F2002A03DBE0
:104DC000194B511E99421CD9184B1968FF221A71B0
:104DD00021B1174B17480B441B111A54164C174B93
:104DE000204600221A6001F03FF801230B211448ED
:104DF00084F8F63007F0AEFB0748BDE8104008F035
:104E00007DB802EB42021201013A0E49074807F051
:104E1000CDFFD9E7FC820100B0F9FF1F34F1FF1F7D
:104E200058F1FF1F40420F0057555505800F0020D5
:104E3000008FFCBF44E400E0C00B002054040020BD
:104E40000C830100B93400002DE9F84FA54E3378EA
:104E5000002B00F0CC80A44DDFF8A48206F0D4F83B
:104E6000A24BC8F800001B68834203DCA04B1B6800
:104E7000002B27DC2F6807BB9E4B1B68002B68D1DB
:104E80009D4C9E4A23681178D8F800209C4F181F2B
:104E90009042CCBF002101F0010141B1994909685C
:104EA000012904D198490968002940F013819A42E8
:104EB0005CDA642006F0FCF82F68012F00F0A68071
:104EC000BDE8F88F0121052006F0B6F80121082081
:104ED00006F0B2F80021112006F0AEF88B4B01224B
:104EE0001A60FCF72DF98A490BF094FB0028C1D019
:104EF0002B68012B00F04483834B1B68002B40F090
:104F00003983844801F0FCF9FDF7AEFF002115203C
:104F100006F092F80021102006F08EF800231946C2
:104F200002227D4804F032FA7C4804F015F80A2485
:104F30000121112006F080F8C82006F0B9F8002100
:104F4000112006F079F8642006F0B2F8013CE5D0B3
:104F5000EEE7FCF775FBFCF7FDFBD8F80010192015
:104F6000FCF7A6FB6E4805F08FFA89E70D216D4826
:104F70006D4F07F0EFFA6D4807F0C0FFFCF760FBDC
:104F8000674805F081FA3B68002B00F0EB82684B24
:104F9000684A694920681B6812680968674F0344BA
:104FA0001A44012922603B6000F0D9820E21644836
:104FB00007F0D0FA06F028F8FCF76EFE0B216148E6
:104FC00007F0C8FA3868FCF767FE0B215E4807F067
:104FD000C1FA2068FCF760FEFDF78EFEAE21504856
:104FE00005F0B8F801232B60FFF7D6FE61E7062035
:104FF00006F028F83C4D00283FF42EAF2B68012B1B
:1050000000F0AA82514B524A1A6025E7FDF732FCA4
:10501000142006F017F8002800F04D824D4C23783C
:10502000012B00F021822378022B00F0C5814A4C2D
:105030002378012B00F0A7812378022B00F08881D0
:10504000464C2378012B00F06B812378022B00F073
:105050004E81434B1B68002B01DDFDF717F8414CD7
:10506000414B22681B689A42FFF62AAF304B3F4FF4
:1050700018680BF0DDF83E490BF0E2F939680BF0E7
:1050800023F84FF07E5138600BF0E2FA10B1394B43
:1050900000221A70274B1B68002B71D1337883B123
:1050A00035492248FBF792FB344B20481988FBF71F
:1050B0009BFB23491D48FBF789FBD8F80000FCF750
:1050C000EBFD144801F01CF9FFF718FB00232360E7
:1050D000BDE8F88FFCF7E6F83A6823689A42FFF6D5
:1050E000E8AE43E7CC1C0020441500205C040020FF
:1050F000600E002030F1FF1FC80E0020DC0F0020E2
:105100006C04002064F1FF1FCC0C0020940F0020E1
:10511000666666409C1C0020880E0020040D00205E
:10512000D40C002018830100D00C0020B0F9FF1F20
:1051300070F1FF1F801C0020900F00208C0F0020BA
:105140009881010028830100348301000CED00E008
:105150000400FA05D80E0020CC2100209A1C002063
:10516000901C002054040020D01C0020C81C0020EB
:1051700000006145F8F0FF1F207D0100E0260020BF
:105180009C4FFBF7A3FC3B6823B1FCF7B5F8642008
:1051900005F08EFF984BDFF8C0821C68DFF8BC92E8
:1051A000DFF8BCB205F030FF944A954B1268201A24
:1051B000841A24EAE47483FB04232344E017C0EB3D
:1051C000E3200AF0CDFB09F05FF80AF0DFFE8D4A1C
:1051D0008D4BC8F8000002FB004483FB04232344EA
:1051E0008246E017C0EB63100AF0BAFB09F04CF8F6
:1051F0000AF0CCFE03011A1AC31A04EB83049200CE
:105200004FF4616303FB0A2AC9F800405444092C97
:10521000CBF800000DDC7D4B1B6833B17C4C204685
:1052200005F0B0FA012384F8293000232B60BDE893
:10523000F88F784C0021152005F0FEFE237813B17D
:105240000020FEF71DF8DFF81CA29AF8003023B109
:10525000002210463F21FDF74BFFFDF705FE3B689E
:105260000BB1FCF76FF83378B3B105F0CDFEFCF766
:1052700013FD69496948FBF7A9FAD8F80010674897
:1052800007F08CFEDBF80010644807F087FED9F8C1
:1052900000106248FBF7A8FA642005F009FF99F8AE
:1052A00000309BF8002098F800105D4804F06EF87C
:1052B0005C4803F051FE33781BB105F0A5FEFCF706
:1052C000EBFC0121152005F0B7FEFDF7D9FD3B6889
:1052D0000BB1FBF7BFFF9AF800300BB1FDF730FFC1
:1052E0002378002B97D00120FDF7CAFF93E7102207
:1052F0004D494E4800F068FF013002D14C4B4D4AF9
:105300001A604D4B4D491A784848114400F05CFF33
:10531000013002D1464B474A1A600023237098E6B9
:1053200010224149414800F04FFF013002D1404B6B
:10533000404A1A60404B41491A783C4800F044FF0B
:10534000013002D13A4B3B4A1A60002323707CE6BD
:1053500010223B49354800F037FF013002D1344B71
:10536000344A1A60374B38491B7830489A0001EBB1
:10537000830100F029FF013002D12D4B2D4A1A6024
:10538000002323705CE610222D49284800F01CFF02
:10539000013002D1264B274A1A602A4B2A491A7833
:1053A0002248920000F010FF013002D1204B214A28
:1053B0001A60002323703FE6102224491B4800F0A6
:1053C00003FF013002D11A4B1A4A1A60204B2149BF
:1053D0001A681648114400F0F7FE013002D1144B50
:1053E000144A1A60002319461120237005F024FE88
:1053F0001DE600BFCC0C0020C80E002018F1FF1FD6
:10540000C5B3A291F0F1FFFF8988888830F1FF1FB2
:10541000D40C00202CF1FF1F6C810100B0F9FF1F9C
:10542000880E0020040D00201C0F00209C1C002072
:105430000CED00E00400FA0544F1FF1FE00D002030
:105440000C0F002068F1FF1F400D00202C0F0020E2
:1054500060F1FF1F8804002060040020BC1C0020B5
:10546000B40B00200CF1FF1F10224749474800F001
:10547000ABFE013002D1464B464A1A60464B4749C3
:105480001A68424800F0A0FE013002D1404B414A68
:105490001A600021424B434A21701B781278DBB21C
:1054A000002A3FF4C0AD002B3FF4BDAD0121112017
:1054B00005F0C2FDB7E50A2005F0FAFD142005F05D
:1054C000C1FD00287FF4AAADDFF8EC90FBF7FEFAEF
:1054D0003946112005F0B0FDD9F80030EBB1324C5F
:1054E000204605F04FF94FF47A7084F8297005F0E2
:1054F000DFFDFCF7A5F807222C49204607F0EAFC5F
:10550000204607F0FBFC204607F0F8FC204628491F
:10551000FBF75CF9204604F0B7FF4EF2902005F04F
:10552000C7FDD9F8003083B1FCF78AF821491E483D
:10553000FBF74CF91C4804F0A7FF4FF4FA6005F0A4
:10554000B7FDAE21184804F005FEFFF7D7F800219B
:10555000112005F071FD61E5FBF7B8FA52E5FCF7A3
:10556000E1FB23E50A210E20FDF754FC4FF0FF3349
:105570003B600CE5FBF7C0FE642005F099FDC0E43C
:10558000FBF7A4FAB8E400BF2C0F00209C1C0020FD
:105590000CED00E00400FA0560F1FF1F8804002014
:1055A00000F1FF1FF8F0FF1FD40C00204083010022
:1055B000488301005C83010030F1FF1FF8B5002132
:1055C000054607F093F9002855D0D5F81C7106461A
:1055D000002F4ED005F58E743B1D224605F59071C7
:1055E00007F5827733F8020B42F8040F9F42F9D196
:1055F000331D05F5477206F5827733F8020B42F842
:10560000040FBB42F9D1D5F8180180B105F59272AB
:1056100000F5007E32F9043C30F9027B03FB07F30E
:10562000DB13864522F8043C02F10402F2D105F5B1
:10563000E56008F043FB95F82177EFB905F21C5CB3
:1056400095F82027E64605F21C7154F8043F23FB29
:1056500003F3B3FBF2F34EF8043F7145F5D17B1C25
:10566000DBB2934220D085F82137D5F81C0107F032
:10567000F9F8C5F81C61F8BD05F21C5C95F8202707
:10568000E64605F21C7154F8043F23FB03F35EF871
:10569000040FB3FBF2F371450344CEF80030F2D1AE
:1056A0007B1CDBB29342DED10023DFF83CE085F8BF
:1056B0002137604605F1160750F8044FB4FA84F319
:1056C00081423EF81320B4FBF2F31A444FEA52032E
:1056D000B4FBF3F423444FEA530327F8023FEBD122
:1056E000012385F82237C0E7A88501000020704714
:1056F0000020704770B5194C064682B00D46204612
:10570000317A02F0D5FDC5F30721204602F0DCFA1C
:10571000E9B2204602F0D8FA0023627B21690093A7
:10572000204603F051F810B1002002B070BD256989
:10573000327A617B0190012300932846022303F013
:105740006BF80128F0D9206903F080F80502206980
:1057500003F07CF8284302B070BD00BFC0240020D5
:1057600070B5154C242908BFC28082B00D46017A5D
:105770002046164602F09CFDC5F30721204602F0A4
:10578000A3FAE9B2204602F09FFAC6F307212046A9
:1057900002F09AFAF1B2204602F096FA0023009342
:1057A000627B21692046012303F00EF8B0FA80F0F5
:1057B000400902B070BD00BFC02400202DE9F041B7
:1057C0003E4B012606715F7BD3F8108086B00446FD
:1057D000384602F073FB0025394B019039462A46C2
:1057E0004046039304962B460295009502F07AFCFE
:1057F000052005F05DFC204644F260023021FFF7F1
:10580000AFFF20466C222621FFF7AAFF20464FF467
:10581000F9722821FFF7A4FF204640F622722C21BE
:10582000FFF79EFF204644F246423C21FFF798FFD7
:10583000204640F237122421FFF792FF204644F21F
:10584000FF023021FFF78CFF732202212046FFF771
:1058500087FF4FF4C87005F02BFC204641F61D521F
:105860002E21FFF77DFF042211462046FFF778FF27
:1058700020464FF498720621FFF772FF204610224F
:105880000A21FFF76DFF2A4620460E21FFF768FF29
:10589000204643F63C421021FFF762FF204647F6C0
:1058A0007F722221FFF75CFF204636222421FFF77A
:1058B00057FF3046667206B0BDE8F081C024002074
:1058C000A0860100F8B51C46154606460F46FFF7B0
:1058D00011FF20EA040040EA05043946304622461A
:1058E000FFF73EFF002814BF20460020F8BD00BF90
:1058F00008B5002201234FF49271FFF7E3FF80B255
:1059000008BD00BF0F2928BF0F210F2A28BF0F2273
:1059100042EA01122021FFF723BF00BF10B5102279
:105920000A210446FFF71CFF30B1204600224FF445
:105930008071FFF715FF80B210BD00BF10B504469F
:1059400019B1012911D0002010BD55222021FFF7E7
:1059500007FF0028F7D0E28842F00402204692B206
:105960002421BDE81040FFF7FBBE40F273122A214C
:10597000FFF7F6FE0028E6D0882220212046FFF718
:10598000EFFE0028DFD0E288204622F00402242126
:10599000BDE81040FFF7E4BE38B50546F1B18029F7
:1059A00003799ABFC1F1800444EA0424002433B986
:1059B000224628462221BDE83840FFF7D1BEC288E2
:1059C000002322F0100203712421FFF7C9FE2246B2
:1059D00028462221BDE83840FFF7C2BE01230371EB
:1059E00047F67F722221FFF7BBFEEA8842F01002E1
:1059F000284692B22421BDE83840FFF7B1BE00BF6F
:105A00000B4610B50749044618460AF065FC0649DE
:105A10000AF05AFB0AF04CFE01462046BDE8104051
:105A2000FFF7BABF00000143EE7CFF3E10B504460D
:105A300007F03EF8204610BD024A034903480AF029
:105A4000CBBF00BFFCEFFF1F2D5A0000EC21002050
:105A50001B4A1C4B11681C48096970B499421279A1
:105A6000027009D2194A127832B3194A4FF08041B4
:105A7000116003F5807402E01C46A3F58073154A9B
:105A8000154912680D68AAB1A5B1144E3088402896
:105A900010D841000A44403029440232023130809B
:105AA00033F9040B22F8020F9C4233F9020C21F85F
:105AB000020FF5D870BC704703F58074DFE700BFB4
:105AC000FC21002090E8FF1F1F800040F6210020ED
:105AD00008E200E004220020F8210020F421002048
